{
	"day06/TokenBankV2.sol": {
		"TokenBankV2": {
			"abi": [
				{
					"inputs": [
						{
							"internalType": "address",
							"name": "_tokenAddress",
							"type": "address"
						}
					],
					"stateMutability": "nonpayable",
					"type": "constructor"
				},
				{
					"anonymous": false,
					"inputs": [
						{
							"indexed": true,
							"internalType": "address",
							"name": "user",
							"type": "address"
						},
						{
							"indexed": false,
							"internalType": "uint256",
							"name": "amount",
							"type": "uint256"
						}
					],
					"name": "Deposit",
					"type": "event"
				},
				{
					"anonymous": false,
					"inputs": [
						{
							"indexed": true,
							"internalType": "address",
							"name": "previousMultisig",
							"type": "address"
						},
						{
							"indexed": true,
							"internalType": "address",
							"name": "newMultisig",
							"type": "address"
						}
					],
					"name": "MultisigTransferred",
					"type": "event"
				},
				{
					"anonymous": false,
					"inputs": [
						{
							"indexed": true,
							"internalType": "address",
							"name": "user",
							"type": "address"
						},
						{
							"indexed": false,
							"internalType": "uint256",
							"name": "amount",
							"type": "uint256"
						}
					],
					"name": "Withdraw",
					"type": "event"
				},
				{
					"inputs": [
						{
							"internalType": "address",
							"name": "",
							"type": "address"
						}
					],
					"name": "balances",
					"outputs": [
						{
							"internalType": "uint256",
							"name": "",
							"type": "uint256"
						}
					],
					"stateMutability": "view",
					"type": "function"
				},
				{
					"inputs": [
						{
							"internalType": "uint256",
							"name": "value",
							"type": "uint256"
						}
					],
					"name": "deposit",
					"outputs": [],
					"stateMutability": "payable",
					"type": "function"
				},
				{
					"inputs": [],
					"name": "getOwner",
					"outputs": [
						{
							"internalType": "address",
							"name": "",
							"type": "address"
						}
					],
					"stateMutability": "view",
					"type": "function"
				},
				{
					"inputs": [],
					"name": "owner",
					"outputs": [
						{
							"internalType": "address",
							"name": "",
							"type": "address"
						}
					],
					"stateMutability": "view",
					"type": "function"
				},
				{
					"inputs": [
						{
							"internalType": "address",
							"name": "newAdmin",
							"type": "address"
						}
					],
					"name": "setAdminSender",
					"outputs": [],
					"stateMutability": "nonpayable",
					"type": "function"
				},
				{
					"inputs": [
						{
							"internalType": "address",
							"name": "_from",
							"type": "address"
						},
						{
							"internalType": "address",
							"name": "_to",
							"type": "address"
						},
						{
							"internalType": "uint256",
							"name": "value",
							"type": "uint256"
						}
					],
					"name": "tokenReceived",
					"outputs": [
						{
							"internalType": "bool",
							"name": "",
							"type": "bool"
						}
					],
					"stateMutability": "nonpayable",
					"type": "function"
				},
				{
					"inputs": [
						{
							"internalType": "uint256",
							"name": "value",
							"type": "uint256"
						}
					],
					"name": "withdraw",
					"outputs": [],
					"stateMutability": "nonpayable",
					"type": "function"
				}
			],
			"devdoc": {
				"kind": "dev",
				"methods": {},
				"version": 1
			},
			"evm": {
				"assembly": "    /* \"day06/TokenBankV2.sol\":122:579  contract TokenBankV2 is TokenBank, ITokenReceiver{... */\n  mstore(0x40, 0x80)\n    /* \"day06/TokenBankV2.sol\":180:249  constructor(address _tokenAddress) TokenBank(_tokenAddress){... */\n  callvalue\n  dup1\n  iszero\n  tag_1\n  jumpi\n  revert(0x00, 0x00)\ntag_1:\n  pop\n  mload(0x40)\n  sub(codesize, bytecodeSize)\n  dup1\n  bytecodeSize\n  dup4\n  codecopy\n  dup2\n  dup2\n  add\n  0x40\n  mstore\n  dup2\n  add\n  swap1\n  tag_2\n  swap2\n  swap1\n  tag_3\n  jump\t// in\ntag_2:\n    /* \"day06/TokenBankV2.sol\":225:238  _tokenAddress */\n  dup1\n    /* \"day05/TokenBank.sol\":582:594  tokenAddress */\n  dup1\n    /* \"day05/TokenBank.sol\":567:572  token */\n  0x01\n  0x00\n    /* \"day05/TokenBank.sol\":567:595  token = IERC20(tokenAddress) */\n  0x0100\n  exp\n  dup2\n  sload\n  dup2\n  0xffffffffffffffffffffffffffffffffffffffff\n  mul\n  not\n  and\n  swap1\n  dup4\n  0xffffffffffffffffffffffffffffffffffffffff\n  and\n  mul\n  or\n  swap1\n  sstore\n  pop\n    /* \"day05/TokenBank.sol\":614:624  msg.sender */\n  caller\n    /* \"day05/TokenBank.sol\":606:611  owner */\n  0x00\n  0x00\n    /* \"day05/TokenBank.sol\":606:624  owner = msg.sender */\n  0x0100\n  exp\n  dup2\n  sload\n  dup2\n  0xffffffffffffffffffffffffffffffffffffffff\n  mul\n  not\n  and\n  swap1\n  dup4\n  0xffffffffffffffffffffffffffffffffffffffff\n  and\n  mul\n  or\n  swap1\n  sstore\n  pop\n    /* \"day05/TokenBank.sol\":522:632  constructor(address tokenAddress) {... */\n  pop\n    /* \"day06/TokenBankV2.sol\":180:249  constructor(address _tokenAddress) TokenBank(_tokenAddress){... */\n  pop\n    /* \"day06/TokenBankV2.sol\":122:579  contract TokenBankV2 is TokenBank, ITokenReceiver{... */\n  jump(tag_8)\n    /* \"#utility.yul\":88:205   */\ntag_10:\n    /* \"#utility.yul\":197:198   */\n  0x00\n    /* \"#utility.yul\":194:195   */\n  0x00\n    /* \"#utility.yul\":187:199   */\n  revert\n    /* \"#utility.yul\":334:460   */\ntag_12:\n    /* \"#utility.yul\":371:378   */\n  0x00\n    /* \"#utility.yul\":411:453   */\n  0xffffffffffffffffffffffffffffffffffffffff\n    /* \"#utility.yul\":404:409   */\n  dup3\n    /* \"#utility.yul\":400:454   */\n  and\n    /* \"#utility.yul\":389:454   */\n  swap1\n  pop\n    /* \"#utility.yul\":334:460   */\n  swap2\n  swap1\n  pop\n  jump\t// out\n    /* \"#utility.yul\":466:562   */\ntag_13:\n    /* \"#utility.yul\":503:510   */\n  0x00\n    /* \"#utility.yul\":532:556   */\n  tag_22\n    /* \"#utility.yul\":550:555   */\n  dup3\n    /* \"#utility.yul\":532:556   */\n  tag_12\n  jump\t// in\ntag_22:\n    /* \"#utility.yul\":521:556   */\n  swap1\n  pop\n    /* \"#utility.yul\":466:562   */\n  swap2\n  swap1\n  pop\n  jump\t// out\n    /* \"#utility.yul\":568:690   */\ntag_14:\n    /* \"#utility.yul\":641:665   */\n  tag_24\n    /* \"#utility.yul\":659:664   */\n  dup2\n    /* \"#utility.yul\":641:665   */\n  tag_13\n  jump\t// in\ntag_24:\n    /* \"#utility.yul\":634:639   */\n  dup2\n    /* \"#utility.yul\":631:666   */\n  eq\n    /* \"#utility.yul\":621:684   */\n  tag_25\n  jumpi\n    /* \"#utility.yul\":680:681   */\n  0x00\n    /* \"#utility.yul\":677:678   */\n  0x00\n    /* \"#utility.yul\":670:682   */\n  revert\n    /* \"#utility.yul\":621:684   */\ntag_25:\n    /* \"#utility.yul\":568:690   */\n  pop\n  jump\t// out\n    /* \"#utility.yul\":696:839   */\ntag_15:\n    /* \"#utility.yul\":753:758   */\n  0x00\n    /* \"#utility.yul\":784:790   */\n  dup2\n    /* \"#utility.yul\":778:791   */\n  mload\n    /* \"#utility.yul\":769:791   */\n  swap1\n  pop\n    /* \"#utility.yul\":800:833   */\n  tag_27\n    /* \"#utility.yul\":827:832   */\n  dup2\n    /* \"#utility.yul\":800:833   */\n  tag_14\n  jump\t// in\ntag_27:\n    /* \"#utility.yul\":696:839   */\n  swap3\n  swap2\n  pop\n  pop\n  jump\t// out\n    /* \"#utility.yul\":845:1196   */\ntag_3:\n    /* \"#utility.yul\":915:921   */\n  0x00\n    /* \"#utility.yul\":964:966   */\n  0x20\n    /* \"#utility.yul\":952:961   */\n  dup3\n    /* \"#utility.yul\":943:950   */\n  dup5\n    /* \"#utility.yul\":939:962   */\n  sub\n    /* \"#utility.yul\":935:967   */\n  slt\n    /* \"#utility.yul\":932:1051   */\n  iszero\n  tag_29\n  jumpi\n    /* \"#utility.yul\":970:1049   */\n  tag_30\n  tag_10\n  jump\t// in\ntag_30:\n    /* \"#utility.yul\":932:1051   */\ntag_29:\n    /* \"#utility.yul\":1090:1091   */\n  0x00\n    /* \"#utility.yul\":1115:1179   */\n  tag_31\n    /* \"#utility.yul\":1171:1178   */\n  dup5\n    /* \"#utility.yul\":1162:1168   */\n  dup3\n    /* \"#utility.yul\":1151:1160   */\n  dup6\n    /* \"#utility.yul\":1147:1169   */\n  add\n    /* \"#utility.yul\":1115:1179   */\n  tag_15\n  jump\t// in\ntag_31:\n    /* \"#utility.yul\":1105:1179   */\n  swap2\n  pop\n    /* \"#utility.yul\":1061:1189   */\n  pop\n    /* \"#utility.yul\":845:1196   */\n  swap3\n  swap2\n  pop\n  pop\n  jump\t// out\n    /* \"day06/TokenBankV2.sol\":122:579  contract TokenBankV2 is TokenBank, ITokenReceiver{... */\ntag_8:\n  dataSize(sub_0)\n  dup1\n  dataOffset(sub_0)\n  0x00\n  codecopy\n  0x00\n  return\nstop\n\nsub_0: assembly {\n        /* \"day06/TokenBankV2.sol\":122:579  contract TokenBankV2 is TokenBank, ITokenReceiver{... */\n      mstore(0x40, 0x80)\n      jumpi(tag_1, lt(calldatasize, 0x04))\n      shr(0xe0, calldataload(0x00))\n      dup1\n      0x893d20e8\n      gt\n      tag_9\n      jumpi\n      dup1\n      0x893d20e8\n      eq\n      tag_5\n      jumpi\n      dup1\n      0x8da5cb5b\n      eq\n      tag_6\n      jumpi\n      dup1\n      0xb6b55f25\n      eq\n      tag_7\n      jumpi\n      dup1\n      0xd83f9a67\n      eq\n      tag_8\n      jumpi\n      jump(tag_1)\n    tag_9:\n      dup1\n      0x27e235e3\n      eq\n      tag_2\n      jumpi\n      dup1\n      0x2e1a7d4d\n      eq\n      tag_3\n      jumpi\n      dup1\n      0x675de6b5\n      eq\n      tag_4\n      jumpi\n    tag_1:\n      revert(0x00, 0x00)\n        /* \"day05/TokenBank.sol\":250:293  mapping(address => uint256) public balances */\n    tag_2:\n      callvalue\n      dup1\n      iszero\n      tag_10\n      jumpi\n      revert(0x00, 0x00)\n    tag_10:\n      pop\n      tag_11\n      0x04\n      dup1\n      calldatasize\n      sub\n      dup2\n      add\n      swap1\n      tag_12\n      swap2\n      swap1\n      tag_13\n      jump\t// in\n    tag_12:\n      tag_14\n      jump\t// in\n    tag_11:\n      mload(0x40)\n      tag_15\n      swap2\n      swap1\n      tag_16\n      jump\t// in\n    tag_15:\n      mload(0x40)\n      dup1\n      swap2\n      sub\n      swap1\n      return\n        /* \"day05/TokenBank.sol\":1487:1828  function withdraw(uint256 value) public {... */\n    tag_3:\n      callvalue\n      dup1\n      iszero\n      tag_17\n      jumpi\n      revert(0x00, 0x00)\n    tag_17:\n      pop\n      tag_18\n      0x04\n      dup1\n      calldatasize\n      sub\n      dup2\n      add\n      swap1\n      tag_19\n      swap2\n      swap1\n      tag_20\n      jump\t// in\n    tag_19:\n      tag_21\n      jump\t// in\n    tag_18:\n      stop\n        /* \"day06/TokenBankV2.sol\":271:574  function tokenReceived(address _from,address _to,uint256 value) external  override returns(bool){... */\n    tag_4:\n      callvalue\n      dup1\n      iszero\n      tag_22\n      jumpi\n      revert(0x00, 0x00)\n    tag_22:\n      pop\n      tag_23\n      0x04\n      dup1\n      calldatasize\n      sub\n      dup2\n      add\n      swap1\n      tag_24\n      swap2\n      swap1\n      tag_25\n      jump\t// in\n    tag_24:\n      tag_26\n      jump\t// in\n    tag_23:\n      mload(0x40)\n      tag_27\n      swap2\n      swap1\n      tag_28\n      jump\t// in\n    tag_27:\n      mload(0x40)\n      dup1\n      swap2\n      sub\n      swap1\n      return\n        /* \"day05/TokenBank.sol\":755:838  function getOwner() external view returns (address) {... */\n    tag_5:\n      callvalue\n      dup1\n      iszero\n      tag_29\n      jumpi\n      revert(0x00, 0x00)\n    tag_29:\n      pop\n      tag_30\n      tag_31\n      jump\t// in\n    tag_30:\n      mload(0x40)\n      tag_32\n      swap2\n      swap1\n      tag_33\n      jump\t// in\n    tag_32:\n      mload(0x40)\n      dup1\n      swap2\n      sub\n      swap1\n      return\n        /* \"day05/TokenBank.sol\":198:218  address public owner */\n    tag_6:\n      callvalue\n      dup1\n      iszero\n      tag_34\n      jumpi\n      revert(0x00, 0x00)\n    tag_34:\n      pop\n      tag_35\n      tag_36\n      jump\t// in\n    tag_35:\n      mload(0x40)\n      tag_37\n      swap2\n      swap1\n      tag_33\n      jump\t// in\n    tag_37:\n      mload(0x40)\n      dup1\n      swap2\n      sub\n      swap1\n      return\n        /* \"day05/TokenBank.sol\":1105:1479  function deposit(uint value) public payable{... */\n    tag_7:\n      tag_38\n      0x04\n      dup1\n      calldatasize\n      sub\n      dup2\n      add\n      swap1\n      tag_39\n      swap2\n      swap1\n      tag_20\n      jump\t// in\n    tag_39:\n      tag_40\n      jump\t// in\n    tag_38:\n      stop\n        /* \"day05/TokenBank.sol\":846:1097  function setAdminSender(address newAdmin) external onlyMultisig  {... */\n    tag_8:\n      callvalue\n      dup1\n      iszero\n      tag_41\n      jumpi\n      revert(0x00, 0x00)\n    tag_41:\n      pop\n      tag_42\n      0x04\n      dup1\n      calldatasize\n      sub\n      dup2\n      add\n      swap1\n      tag_43\n      swap2\n      swap1\n      tag_13\n      jump\t// in\n    tag_43:\n      tag_44\n      jump\t// in\n    tag_42:\n      stop\n        /* \"day05/TokenBank.sol\":250:293  mapping(address => uint256) public balances */\n    tag_14:\n      mstore(0x20, 0x02)\n      dup1\n      0x00\n      mstore\n      keccak256(0x00, 0x40)\n      0x00\n      swap2\n      pop\n      swap1\n      pop\n      sload\n      dup2\n      jump\t// out\n        /* \"day05/TokenBank.sol\":1487:1828  function withdraw(uint256 value) public {... */\n    tag_21:\n        /* \"day05/TokenBank.sol\":1592:1593  0 */\n      0x00\n        /* \"day05/TokenBank.sol\":1584:1589  value */\n      dup2\n        /* \"day05/TokenBank.sol\":1584:1593  value > 0 */\n      gt\n        /* \"day05/TokenBank.sol\":1576:1627  require(value > 0, \"Amount must be greater than 0\") */\n      tag_46\n      jumpi\n      mload(0x40)\n      0x08c379a000000000000000000000000000000000000000000000000000000000\n      dup2\n      mstore\n      0x04\n      add\n      tag_47\n      swap1\n      tag_48\n      jump\t// in\n    tag_47:\n      mload(0x40)\n      dup1\n      swap2\n      sub\n      swap1\n      revert\n    tag_46:\n        /* \"day05/TokenBank.sol\":1662:1667  value */\n      dup1\n        /* \"day05/TokenBank.sol\":1638:1646  balances */\n      0x02\n        /* \"day05/TokenBank.sol\":1638:1658  balances[msg.sender] */\n      0x00\n        /* \"day05/TokenBank.sol\":1647:1657  msg.sender */\n      caller\n        /* \"day05/TokenBank.sol\":1638:1658  balances[msg.sender] */\n      0xffffffffffffffffffffffffffffffffffffffff\n      and\n      0xffffffffffffffffffffffffffffffffffffffff\n      and\n      dup2\n      mstore\n      0x20\n      add\n      swap1\n      dup2\n      mstore\n      0x20\n      add\n      0x00\n      keccak256\n      0x00\n        /* \"day05/TokenBank.sol\":1638:1667  balances[msg.sender] -= value */\n      dup3\n      dup3\n      sload\n      tag_49\n      swap2\n      swap1\n      tag_50\n      jump\t// in\n    tag_49:\n      swap3\n      pop\n      pop\n      dup2\n      swap1\n      sstore\n      pop\n        /* \"day05/TokenBank.sol\":1678:1690  bool success */\n      0x00\n        /* \"day05/TokenBank.sol\":1693:1698  token */\n      0x01\n      0x00\n      swap1\n      sload\n      swap1\n      0x0100\n      exp\n      swap1\n      div\n      0xffffffffffffffffffffffffffffffffffffffff\n      and\n        /* \"day05/TokenBank.sol\":1693:1707  token.transfer */\n      0xffffffffffffffffffffffffffffffffffffffff\n      and\n      0xa9059cbb\n        /* \"day05/TokenBank.sol\":1708:1718  msg.sender */\n      caller\n        /* \"day05/TokenBank.sol\":1719:1724  value */\n      dup5\n        /* \"day05/TokenBank.sol\":1693:1725  token.transfer(msg.sender,value) */\n      mload(0x40)\n      dup4\n      0xffffffff\n      and\n      0xe0\n      shl\n      dup2\n      mstore\n      0x04\n      add\n      tag_51\n      swap3\n      swap2\n      swap1\n      tag_52\n      jump\t// in\n    tag_51:\n      0x20\n      mload(0x40)\n      dup1\n      dup4\n      sub\n      dup2\n      0x00\n      dup8\n      gas\n      call\n      iszero\n      dup1\n      iszero\n      tag_54\n      jumpi\n      returndatacopy(0x00, 0x00, returndatasize)\n      revert(0x00, returndatasize)\n    tag_54:\n      pop\n      pop\n      pop\n      pop\n      mload(0x40)\n      returndatasize\n      not(0x1f)\n      0x1f\n      dup3\n      add\n      and\n      dup3\n      add\n      dup1\n      0x40\n      mstore\n      pop\n      dup2\n      add\n      swap1\n      tag_55\n      swap2\n      swap1\n      tag_56\n      jump\t// in\n    tag_55:\n        /* \"day05/TokenBank.sol\":1678:1725  bool success = token.transfer(msg.sender,value) */\n      swap1\n      pop\n        /* \"day05/TokenBank.sol\":1744:1751  success */\n      dup1\n        /* \"day05/TokenBank.sol\":1736:1776  require(success,\"token transfer failed\") */\n      tag_57\n      jumpi\n      mload(0x40)\n      0x08c379a000000000000000000000000000000000000000000000000000000000\n      dup2\n      mstore\n      0x04\n      add\n      tag_58\n      swap1\n      tag_59\n      jump\t// in\n    tag_58:\n      mload(0x40)\n      dup1\n      swap2\n      sub\n      swap1\n      revert\n    tag_57:\n        /* \"day05/TokenBank.sol\":1803:1813  msg.sender */\n      caller\n        /* \"day05/TokenBank.sol\":1794:1820  Withdraw(msg.sender,value) */\n      0xffffffffffffffffffffffffffffffffffffffff\n      and\n      0x884edad9ce6fa2440d8a54cc123490eb96d2768479d49ff9c7366125a9424364\n        /* \"day05/TokenBank.sol\":1814:1819  value */\n      dup4\n        /* \"day05/TokenBank.sol\":1794:1820  Withdraw(msg.sender,value) */\n      mload(0x40)\n      tag_60\n      swap2\n      swap1\n      tag_16\n      jump\t// in\n    tag_60:\n      mload(0x40)\n      dup1\n      swap2\n      sub\n      swap1\n      log2\n        /* \"day05/TokenBank.sol\":1527:1828  {... */\n      pop\n        /* \"day05/TokenBank.sol\":1487:1828  function withdraw(uint256 value) public {... */\n      pop\n      jump\t// out\n        /* \"day06/TokenBankV2.sol\":271:574  function tokenReceived(address _from,address _to,uint256 value) external  override returns(bool){... */\n    tag_26:\n        /* \"day06/TokenBankV2.sol\":362:366  bool */\n      0x00\n        /* \"day06/TokenBankV2.sol\":410:415  token */\n      0x01\n      0x00\n      swap1\n      sload\n      swap1\n      0x0100\n      exp\n      swap1\n      div\n      0xffffffffffffffffffffffffffffffffffffffff\n      and\n        /* \"day06/TokenBankV2.sol\":388:416  msg.sender == address(token) */\n      0xffffffffffffffffffffffffffffffffffffffff\n      and\n        /* \"day06/TokenBankV2.sol\":388:398  msg.sender */\n      caller\n        /* \"day06/TokenBankV2.sol\":388:416  msg.sender == address(token) */\n      0xffffffffffffffffffffffffffffffffffffffff\n      and\n      eq\n        /* \"day06/TokenBankV2.sol\":380:460  require(msg.sender == address(token),\"Only token contract can call this method\") */\n      tag_62\n      jumpi\n      mload(0x40)\n      0x08c379a000000000000000000000000000000000000000000000000000000000\n      dup2\n      mstore\n      0x04\n      add\n      tag_63\n      swap1\n      tag_64\n      jump\t// in\n    tag_63:\n      mload(0x40)\n      dup1\n      swap2\n      sub\n      swap1\n      revert\n    tag_62:\n        /* \"day06/TokenBankV2.sol\":492:497  value */\n      dup2\n        /* \"day06/TokenBankV2.sol\":473:481  balances */\n      0x02\n        /* \"day06/TokenBankV2.sol\":473:488  balances[_from] */\n      0x00\n        /* \"day06/TokenBankV2.sol\":482:487  _from */\n      dup7\n        /* \"day06/TokenBankV2.sol\":473:488  balances[_from] */\n      0xffffffffffffffffffffffffffffffffffffffff\n      and\n      0xffffffffffffffffffffffffffffffffffffffff\n      and\n      dup2\n      mstore\n      0x20\n      add\n      swap1\n      dup2\n      mstore\n      0x20\n      add\n      0x00\n      keccak256\n      0x00\n        /* \"day06/TokenBankV2.sol\":473:497  balances[_from] += value */\n      dup3\n      dup3\n      sload\n      tag_65\n      swap2\n      swap1\n      tag_66\n      jump\t// in\n    tag_65:\n      swap3\n      pop\n      pop\n      dup2\n      swap1\n      sstore\n      pop\n        /* \"day06/TokenBankV2.sol\":531:536  _from */\n      dup4\n        /* \"day06/TokenBankV2.sol\":523:544  Deposit(_from, value) */\n      0xffffffffffffffffffffffffffffffffffffffff\n      and\n      0xe1fffcc4923d04b559f4d29a8bfc6cda04eb5b0d3c460751c2402c5c5cc9109c\n        /* \"day06/TokenBankV2.sol\":538:543  value */\n      dup4\n        /* \"day06/TokenBankV2.sol\":523:544  Deposit(_from, value) */\n      mload(0x40)\n      tag_67\n      swap2\n      swap1\n      tag_16\n      jump\t// in\n    tag_67:\n      mload(0x40)\n      dup1\n      swap2\n      sub\n      swap1\n      log2\n        /* \"day06/TokenBankV2.sol\":562:566  true */\n      0x01\n        /* \"day06/TokenBankV2.sol\":555:566  return true */\n      swap1\n      pop\n        /* \"day06/TokenBankV2.sol\":271:574  function tokenReceived(address _from,address _to,uint256 value) external  override returns(bool){... */\n      swap4\n      swap3\n      pop\n      pop\n      pop\n      jump\t// out\n        /* \"day05/TokenBank.sol\":755:838  function getOwner() external view returns (address) {... */\n    tag_31:\n        /* \"day05/TokenBank.sol\":798:805  address */\n      0x00\n        /* \"day05/TokenBank.sol\":825:830  owner */\n      0x00\n      0x00\n      swap1\n      sload\n      swap1\n      0x0100\n      exp\n      swap1\n      div\n      0xffffffffffffffffffffffffffffffffffffffff\n      and\n        /* \"day05/TokenBank.sol\":818:830  return owner */\n      swap1\n      pop\n        /* \"day05/TokenBank.sol\":755:838  function getOwner() external view returns (address) {... */\n      swap1\n      jump\t// out\n        /* \"day05/TokenBank.sol\":198:218  address public owner */\n    tag_36:\n      0x00\n      0x00\n      swap1\n      sload\n      swap1\n      0x0100\n      exp\n      swap1\n      div\n      0xffffffffffffffffffffffffffffffffffffffff\n      and\n      dup2\n      jump\t// out\n        /* \"day05/TokenBank.sol\":1105:1479  function deposit(uint value) public payable{... */\n    tag_40:\n        /* \"day05/TokenBank.sol\":1215:1216  0 */\n      0x00\n        /* \"day05/TokenBank.sol\":1207:1212  value */\n      dup2\n        /* \"day05/TokenBank.sol\":1207:1216  value > 0 */\n      gt\n        /* \"day05/TokenBank.sol\":1199:1250  require(value > 0, \"Amount must be greater than 0\") */\n      tag_70\n      jumpi\n      mload(0x40)\n      0x08c379a000000000000000000000000000000000000000000000000000000000\n      dup2\n      mstore\n      0x04\n      add\n      tag_71\n      swap1\n      tag_48\n      jump\t// in\n    tag_71:\n      mload(0x40)\n      dup1\n      swap2\n      sub\n      swap1\n      revert\n    tag_70:\n        /* \"day05/TokenBank.sol\":1261:1273  bool success */\n      0x00\n        /* \"day05/TokenBank.sol\":1276:1281  token */\n      0x01\n      0x00\n      swap1\n      sload\n      swap1\n      0x0100\n      exp\n      swap1\n      div\n      0xffffffffffffffffffffffffffffffffffffffff\n      and\n        /* \"day05/TokenBank.sol\":1276:1294  token.transferFrom */\n      0xffffffffffffffffffffffffffffffffffffffff\n      and\n      0x23b872dd\n        /* \"day05/TokenBank.sol\":1295:1305  msg.sender */\n      caller\n        /* \"day05/TokenBank.sol\":1315:1319  this */\n      address\n        /* \"day05/TokenBank.sol\":1322:1327  value */\n      dup6\n        /* \"day05/TokenBank.sol\":1276:1328  token.transferFrom(msg.sender, address(this), value) */\n      mload(0x40)\n      dup5\n      0xffffffff\n      and\n      0xe0\n      shl\n      dup2\n      mstore\n      0x04\n      add\n      tag_72\n      swap4\n      swap3\n      swap2\n      swap1\n      tag_73\n      jump\t// in\n    tag_72:\n      0x20\n      mload(0x40)\n      dup1\n      dup4\n      sub\n      dup2\n      0x00\n      dup8\n      gas\n      call\n      iszero\n      dup1\n      iszero\n      tag_75\n      jumpi\n      returndatacopy(0x00, 0x00, returndatasize)\n      revert(0x00, returndatasize)\n    tag_75:\n      pop\n      pop\n      pop\n      pop\n      mload(0x40)\n      returndatasize\n      not(0x1f)\n      0x1f\n      dup3\n      add\n      and\n      dup3\n      add\n      dup1\n      0x40\n      mstore\n      pop\n      dup2\n      add\n      swap1\n      tag_76\n      swap2\n      swap1\n      tag_56\n      jump\t// in\n    tag_76:\n        /* \"day05/TokenBank.sol\":1261:1328  bool success = token.transferFrom(msg.sender, address(this), value) */\n      swap1\n      pop\n        /* \"day05/TokenBank.sol\":1347:1354  success */\n      dup1\n        /* \"day05/TokenBank.sol\":1339:1379  require(success,\"token transfer failed\") */\n      tag_77\n      jumpi\n      mload(0x40)\n      0x08c379a000000000000000000000000000000000000000000000000000000000\n      dup2\n      mstore\n      0x04\n      add\n      tag_78\n      swap1\n      tag_59\n      jump\t// in\n    tag_78:\n      mload(0x40)\n      dup1\n      swap2\n      sub\n      swap1\n      revert\n    tag_77:\n        /* \"day05/TokenBank.sol\":1414:1419  value */\n      dup2\n        /* \"day05/TokenBank.sol\":1390:1398  balances */\n      0x02\n        /* \"day05/TokenBank.sol\":1390:1410  balances[msg.sender] */\n      0x00\n        /* \"day05/TokenBank.sol\":1399:1409  msg.sender */\n      caller\n        /* \"day05/TokenBank.sol\":1390:1410  balances[msg.sender] */\n      0xffffffffffffffffffffffffffffffffffffffff\n      and\n      0xffffffffffffffffffffffffffffffffffffffff\n      and\n      dup2\n      mstore\n      0x20\n      add\n      swap1\n      dup2\n      mstore\n      0x20\n      add\n      0x00\n      keccak256\n      0x00\n        /* \"day05/TokenBank.sol\":1390:1419  balances[msg.sender] += value */\n      dup3\n      dup3\n      sload\n      tag_79\n      swap2\n      swap1\n      tag_66\n      jump\t// in\n    tag_79:\n      swap3\n      pop\n      pop\n      dup2\n      swap1\n      sstore\n      pop\n        /* \"day05/TokenBank.sol\":1443:1453  msg.sender */\n      caller\n        /* \"day05/TokenBank.sol\":1435:1461  Deposit(msg.sender, value) */\n      0xffffffffffffffffffffffffffffffffffffffff\n      and\n      0xe1fffcc4923d04b559f4d29a8bfc6cda04eb5b0d3c460751c2402c5c5cc9109c\n        /* \"day05/TokenBank.sol\":1455:1460  value */\n      dup4\n        /* \"day05/TokenBank.sol\":1435:1461  Deposit(msg.sender, value) */\n      mload(0x40)\n      tag_80\n      swap2\n      swap1\n      tag_16\n      jump\t// in\n    tag_80:\n      mload(0x40)\n      dup1\n      swap2\n      sub\n      swap1\n      log2\n        /* \"day05/TokenBank.sol\":1148:1479  {... */\n      pop\n        /* \"day05/TokenBank.sol\":1105:1479  function deposit(uint value) public payable{... */\n      pop\n      jump\t// out\n        /* \"day05/TokenBank.sol\":846:1097  function setAdminSender(address newAdmin) external onlyMultisig  {... */\n    tag_44:\n        /* \"day05/TokenBank.sol\":696:701  owner */\n      0x00\n      0x00\n      swap1\n      sload\n      swap1\n      0x0100\n      exp\n      swap1\n      div\n      0xffffffffffffffffffffffffffffffffffffffff\n      and\n        /* \"day05/TokenBank.sol\":682:701  msg.sender == owner */\n      0xffffffffffffffffffffffffffffffffffffffff\n      and\n        /* \"day05/TokenBank.sol\":682:692  msg.sender */\n      caller\n        /* \"day05/TokenBank.sol\":682:701  msg.sender == owner */\n      0xffffffffffffffffffffffffffffffffffffffff\n      and\n      eq\n        /* \"day05/TokenBank.sol\":674:727  require(msg.sender == owner,\"Only multisig can call\") */\n      tag_82\n      jumpi\n      mload(0x40)\n      0x08c379a000000000000000000000000000000000000000000000000000000000\n      dup2\n      mstore\n      0x04\n      add\n      tag_83\n      swap1\n      tag_84\n      jump\t// in\n    tag_83:\n      mload(0x40)\n      dup1\n      swap2\n      sub\n      swap1\n      revert\n    tag_82:\n        /* \"day05/TokenBank.sol\":950:951  0 */\n      0x00\n        /* \"day05/TokenBank.sol\":930:952  newAdmin != address(0) */\n      0xffffffffffffffffffffffffffffffffffffffff\n      and\n        /* \"day05/TokenBank.sol\":930:938  newAdmin */\n      dup2\n        /* \"day05/TokenBank.sol\":930:952  newAdmin != address(0) */\n      0xffffffffffffffffffffffffffffffffffffffff\n      and\n      sub\n        /* \"day05/TokenBank.sol\":922:981  require(newAdmin != address(0), \"Invalid multisig address\") */\n      tag_86\n      jumpi\n      mload(0x40)\n      0x08c379a000000000000000000000000000000000000000000000000000000000\n      dup2\n      mstore\n      0x04\n      add\n      tag_87\n      swap1\n      tag_88\n      jump\t// in\n    tag_87:\n      mload(0x40)\n      dup1\n      swap2\n      sub\n      swap1\n      revert\n    tag_86:\n        /* \"day05/TokenBank.sol\":1012:1017  owner */\n      0x00\n      0x00\n      swap1\n      sload\n      swap1\n      0x0100\n      exp\n      swap1\n      div\n      0xffffffffffffffffffffffffffffffffffffffff\n      and\n        /* \"day05/TokenBank.sol\":1000:1017  newAdmin != owner */\n      0xffffffffffffffffffffffffffffffffffffffff\n      and\n        /* \"day05/TokenBank.sol\":1000:1008  newAdmin */\n      dup2\n        /* \"day05/TokenBank.sol\":1000:1017  newAdmin != owner */\n      0xffffffffffffffffffffffffffffffffffffffff\n      and\n      sub\n        /* \"day05/TokenBank.sol\":992:1052  require(newAdmin != owner, \"New multisig must be different\") */\n      tag_89\n      jumpi\n      mload(0x40)\n      0x08c379a000000000000000000000000000000000000000000000000000000000\n      dup2\n      mstore\n      0x04\n      add\n      tag_90\n      swap1\n      tag_91\n      jump\t// in\n    tag_90:\n      mload(0x40)\n      dup1\n      swap2\n      sub\n      swap1\n      revert\n    tag_89:\n        /* \"day05/TokenBank.sol\":1081:1089  newAdmin */\n      dup1\n        /* \"day05/TokenBank.sol\":1073:1078  owner */\n      0x00\n      0x00\n        /* \"day05/TokenBank.sol\":1073:1089  owner = newAdmin */\n      0x0100\n      exp\n      dup2\n      sload\n      dup2\n      0xffffffffffffffffffffffffffffffffffffffff\n      mul\n      not\n      and\n      swap1\n      dup4\n      0xffffffffffffffffffffffffffffffffffffffff\n      and\n      mul\n      or\n      swap1\n      sstore\n      pop\n        /* \"day05/TokenBank.sol\":846:1097  function setAdminSender(address newAdmin) external onlyMultisig  {... */\n      pop\n      jump\t// out\n        /* \"#utility.yul\":88:205   */\n    tag_93:\n        /* \"#utility.yul\":197:198   */\n      0x00\n        /* \"#utility.yul\":194:195   */\n      0x00\n        /* \"#utility.yul\":187:199   */\n      revert\n        /* \"#utility.yul\":334:460   */\n    tag_95:\n        /* \"#utility.yul\":371:378   */\n      0x00\n        /* \"#utility.yul\":411:453   */\n      0xffffffffffffffffffffffffffffffffffffffff\n        /* \"#utility.yul\":404:409   */\n      dup3\n        /* \"#utility.yul\":400:454   */\n      and\n        /* \"#utility.yul\":389:454   */\n      swap1\n      pop\n        /* \"#utility.yul\":334:460   */\n      swap2\n      swap1\n      pop\n      jump\t// out\n        /* \"#utility.yul\":466:562   */\n    tag_96:\n        /* \"#utility.yul\":503:510   */\n      0x00\n        /* \"#utility.yul\":532:556   */\n      tag_128\n        /* \"#utility.yul\":550:555   */\n      dup3\n        /* \"#utility.yul\":532:556   */\n      tag_95\n      jump\t// in\n    tag_128:\n        /* \"#utility.yul\":521:556   */\n      swap1\n      pop\n        /* \"#utility.yul\":466:562   */\n      swap2\n      swap1\n      pop\n      jump\t// out\n        /* \"#utility.yul\":568:690   */\n    tag_97:\n        /* \"#utility.yul\":641:665   */\n      tag_130\n        /* \"#utility.yul\":659:664   */\n      dup2\n        /* \"#utility.yul\":641:665   */\n      tag_96\n      jump\t// in\n    tag_130:\n        /* \"#utility.yul\":634:639   */\n      dup2\n        /* \"#utility.yul\":631:666   */\n      eq\n        /* \"#utility.yul\":621:684   */\n      tag_131\n      jumpi\n        /* \"#utility.yul\":680:681   */\n      0x00\n        /* \"#utility.yul\":677:678   */\n      0x00\n        /* \"#utility.yul\":670:682   */\n      revert\n        /* \"#utility.yul\":621:684   */\n    tag_131:\n        /* \"#utility.yul\":568:690   */\n      pop\n      jump\t// out\n        /* \"#utility.yul\":696:835   */\n    tag_98:\n        /* \"#utility.yul\":742:747   */\n      0x00\n        /* \"#utility.yul\":780:786   */\n      dup2\n        /* \"#utility.yul\":767:787   */\n      calldataload\n        /* \"#utility.yul\":758:787   */\n      swap1\n      pop\n        /* \"#utility.yul\":796:829   */\n      tag_133\n        /* \"#utility.yul\":823:828   */\n      dup2\n        /* \"#utility.yul\":796:829   */\n      tag_97\n      jump\t// in\n    tag_133:\n        /* \"#utility.yul\":696:835   */\n      swap3\n      swap2\n      pop\n      pop\n      jump\t// out\n        /* \"#utility.yul\":841:1170   */\n    tag_13:\n        /* \"#utility.yul\":900:906   */\n      0x00\n        /* \"#utility.yul\":949:951   */\n      0x20\n        /* \"#utility.yul\":937:946   */\n      dup3\n        /* \"#utility.yul\":928:935   */\n      dup5\n        /* \"#utility.yul\":924:947   */\n      sub\n        /* \"#utility.yul\":920:952   */\n      slt\n        /* \"#utility.yul\":917:1036   */\n      iszero\n      tag_135\n      jumpi\n        /* \"#utility.yul\":955:1034   */\n      tag_136\n      tag_93\n      jump\t// in\n    tag_136:\n        /* \"#utility.yul\":917:1036   */\n    tag_135:\n        /* \"#utility.yul\":1075:1076   */\n      0x00\n        /* \"#utility.yul\":1100:1153   */\n      tag_137\n        /* \"#utility.yul\":1145:1152   */\n      dup5\n        /* \"#utility.yul\":1136:1142   */\n      dup3\n        /* \"#utility.yul\":1125:1134   */\n      dup6\n        /* \"#utility.yul\":1121:1143   */\n      add\n        /* \"#utility.yul\":1100:1153   */\n      tag_98\n      jump\t// in\n    tag_137:\n        /* \"#utility.yul\":1090:1153   */\n      swap2\n      pop\n        /* \"#utility.yul\":1046:1163   */\n      pop\n        /* \"#utility.yul\":841:1170   */\n      swap3\n      swap2\n      pop\n      pop\n      jump\t// out\n        /* \"#utility.yul\":1176:1253   */\n    tag_99:\n        /* \"#utility.yul\":1213:1220   */\n      0x00\n        /* \"#utility.yul\":1242:1247   */\n      dup2\n        /* \"#utility.yul\":1231:1247   */\n      swap1\n      pop\n        /* \"#utility.yul\":1176:1253   */\n      swap2\n      swap1\n      pop\n      jump\t// out\n        /* \"#utility.yul\":1259:1377   */\n    tag_100:\n        /* \"#utility.yul\":1346:1370   */\n      tag_140\n        /* \"#utility.yul\":1364:1369   */\n      dup2\n        /* \"#utility.yul\":1346:1370   */\n      tag_99\n      jump\t// in\n    tag_140:\n        /* \"#utility.yul\":1341:1344   */\n      dup3\n        /* \"#utility.yul\":1334:1371   */\n      mstore\n        /* \"#utility.yul\":1259:1377   */\n      pop\n      pop\n      jump\t// out\n        /* \"#utility.yul\":1383:1605   */\n    tag_16:\n        /* \"#utility.yul\":1476:1480   */\n      0x00\n        /* \"#utility.yul\":1514:1516   */\n      0x20\n        /* \"#utility.yul\":1503:1512   */\n      dup3\n        /* \"#utility.yul\":1499:1517   */\n      add\n        /* \"#utility.yul\":1491:1517   */\n      swap1\n      pop\n        /* \"#utility.yul\":1527:1598   */\n      tag_142\n        /* \"#utility.yul\":1595:1596   */\n      0x00\n        /* \"#utility.yul\":1584:1593   */\n      dup4\n        /* \"#utility.yul\":1580:1597   */\n      add\n        /* \"#utility.yul\":1571:1577   */\n      dup5\n        /* \"#utility.yul\":1527:1598   */\n      tag_100\n      jump\t// in\n    tag_142:\n        /* \"#utility.yul\":1383:1605   */\n      swap3\n      swap2\n      pop\n      pop\n      jump\t// out\n        /* \"#utility.yul\":1611:1733   */\n    tag_101:\n        /* \"#utility.yul\":1684:1708   */\n      tag_144\n        /* \"#utility.yul\":1702:1707   */\n      dup2\n        /* \"#utility.yul\":1684:1708   */\n      tag_99\n      jump\t// in\n    tag_144:\n        /* \"#utility.yul\":1677:1682   */\n      dup2\n        /* \"#utility.yul\":1674:1709   */\n      eq\n        /* \"#utility.yul\":1664:1727   */\n      tag_145\n      jumpi\n        /* \"#utility.yul\":1723:1724   */\n      0x00\n        /* \"#utility.yul\":1720:1721   */\n      0x00\n        /* \"#utility.yul\":1713:1725   */\n      revert\n        /* \"#utility.yul\":1664:1727   */\n    tag_145:\n        /* \"#utility.yul\":1611:1733   */\n      pop\n      jump\t// out\n        /* \"#utility.yul\":1739:1878   */\n    tag_102:\n        /* \"#utility.yul\":1785:1790   */\n      0x00\n        /* \"#utility.yul\":1823:1829   */\n      dup2\n        /* \"#utility.yul\":1810:1830   */\n      calldataload\n        /* \"#utility.yul\":1801:1830   */\n      swap1\n      pop\n        /* \"#utility.yul\":1839:1872   */\n      tag_147\n        /* \"#utility.yul\":1866:1871   */\n      dup2\n        /* \"#utility.yul\":1839:1872   */\n      tag_101\n      jump\t// in\n    tag_147:\n        /* \"#utility.yul\":1739:1878   */\n      swap3\n      swap2\n      pop\n      pop\n      jump\t// out\n        /* \"#utility.yul\":1884:2213   */\n    tag_20:\n        /* \"#utility.yul\":1943:1949   */\n      0x00\n        /* \"#utility.yul\":1992:1994   */\n      0x20\n        /* \"#utility.yul\":1980:1989   */\n      dup3\n        /* \"#utility.yul\":1971:1978   */\n      dup5\n        /* \"#utility.yul\":1967:1990   */\n      sub\n        /* \"#utility.yul\":1963:1995   */\n      slt\n        /* \"#utility.yul\":1960:2079   */\n      iszero\n      tag_149\n      jumpi\n        /* \"#utility.yul\":1998:2077   */\n      tag_150\n      tag_93\n      jump\t// in\n    tag_150:\n        /* \"#utility.yul\":1960:2079   */\n    tag_149:\n        /* \"#utility.yul\":2118:2119   */\n      0x00\n        /* \"#utility.yul\":2143:2196   */\n      tag_151\n        /* \"#utility.yul\":2188:2195   */\n      dup5\n        /* \"#utility.yul\":2179:2185   */\n      dup3\n        /* \"#utility.yul\":2168:2177   */\n      dup6\n        /* \"#utility.yul\":2164:2186   */\n      add\n        /* \"#utility.yul\":2143:2196   */\n      tag_102\n      jump\t// in\n    tag_151:\n        /* \"#utility.yul\":2133:2196   */\n      swap2\n      pop\n        /* \"#utility.yul\":2089:2206   */\n      pop\n        /* \"#utility.yul\":1884:2213   */\n      swap3\n      swap2\n      pop\n      pop\n      jump\t// out\n        /* \"#utility.yul\":2219:2838   */\n    tag_25:\n        /* \"#utility.yul\":2296:2302   */\n      0x00\n        /* \"#utility.yul\":2304:2310   */\n      0x00\n        /* \"#utility.yul\":2312:2318   */\n      0x00\n        /* \"#utility.yul\":2361:2363   */\n      0x60\n        /* \"#utility.yul\":2349:2358   */\n      dup5\n        /* \"#utility.yul\":2340:2347   */\n      dup7\n        /* \"#utility.yul\":2336:2359   */\n      sub\n        /* \"#utility.yul\":2332:2364   */\n      slt\n        /* \"#utility.yul\":2329:2448   */\n      iszero\n      tag_153\n      jumpi\n        /* \"#utility.yul\":2367:2446   */\n      tag_154\n      tag_93\n      jump\t// in\n    tag_154:\n        /* \"#utility.yul\":2329:2448   */\n    tag_153:\n        /* \"#utility.yul\":2487:2488   */\n      0x00\n        /* \"#utility.yul\":2512:2565   */\n      tag_155\n        /* \"#utility.yul\":2557:2564   */\n      dup7\n        /* \"#utility.yul\":2548:2554   */\n      dup3\n        /* \"#utility.yul\":2537:2546   */\n      dup8\n        /* \"#utility.yul\":2533:2555   */\n      add\n        /* \"#utility.yul\":2512:2565   */\n      tag_98\n      jump\t// in\n    tag_155:\n        /* \"#utility.yul\":2502:2565   */\n      swap4\n      pop\n        /* \"#utility.yul\":2458:2575   */\n      pop\n        /* \"#utility.yul\":2614:2616   */\n      0x20\n        /* \"#utility.yul\":2640:2693   */\n      tag_156\n        /* \"#utility.yul\":2685:2692   */\n      dup7\n        /* \"#utility.yul\":2676:2682   */\n      dup3\n        /* \"#utility.yul\":2665:2674   */\n      dup8\n        /* \"#utility.yul\":2661:2683   */\n      add\n        /* \"#utility.yul\":2640:2693   */\n      tag_98\n      jump\t// in\n    tag_156:\n        /* \"#utility.yul\":2630:2693   */\n      swap3\n      pop\n        /* \"#utility.yul\":2585:2703   */\n      pop\n        /* \"#utility.yul\":2742:2744   */\n      0x40\n        /* \"#utility.yul\":2768:2821   */\n      tag_157\n        /* \"#utility.yul\":2813:2820   */\n      dup7\n        /* \"#utility.yul\":2804:2810   */\n      dup3\n        /* \"#utility.yul\":2793:2802   */\n      dup8\n        /* \"#utility.yul\":2789:2811   */\n      add\n        /* \"#utility.yul\":2768:2821   */\n      tag_102\n      jump\t// in\n    tag_157:\n        /* \"#utility.yul\":2758:2821   */\n      swap2\n      pop\n        /* \"#utility.yul\":2713:2831   */\n      pop\n        /* \"#utility.yul\":2219:2838   */\n      swap3\n      pop\n      swap3\n      pop\n      swap3\n      jump\t// out\n        /* \"#utility.yul\":2844:2934   */\n    tag_103:\n        /* \"#utility.yul\":2878:2885   */\n      0x00\n        /* \"#utility.yul\":2921:2926   */\n      dup2\n        /* \"#utility.yul\":2914:2927   */\n      iszero\n        /* \"#utility.yul\":2907:2928   */\n      iszero\n        /* \"#utility.yul\":2896:2928   */\n      swap1\n      pop\n        /* \"#utility.yul\":2844:2934   */\n      swap2\n      swap1\n      pop\n      jump\t// out\n        /* \"#utility.yul\":2940:3049   */\n    tag_104:\n        /* \"#utility.yul\":3021:3042   */\n      tag_160\n        /* \"#utility.yul\":3036:3041   */\n      dup2\n        /* \"#utility.yul\":3021:3042   */\n      tag_103\n      jump\t// in\n    tag_160:\n        /* \"#utility.yul\":3016:3019   */\n      dup3\n        /* \"#utility.yul\":3009:3043   */\n      mstore\n        /* \"#utility.yul\":2940:3049   */\n      pop\n      pop\n      jump\t// out\n        /* \"#utility.yul\":3055:3265   */\n    tag_28:\n        /* \"#utility.yul\":3142:3146   */\n      0x00\n        /* \"#utility.yul\":3180:3182   */\n      0x20\n        /* \"#utility.yul\":3169:3178   */\n      dup3\n        /* \"#utility.yul\":3165:3183   */\n      add\n        /* \"#utility.yul\":3157:3183   */\n      swap1\n      pop\n        /* \"#utility.yul\":3193:3258   */\n      tag_162\n        /* \"#utility.yul\":3255:3256   */\n      0x00\n        /* \"#utility.yul\":3244:3253   */\n      dup4\n        /* \"#utility.yul\":3240:3257   */\n      add\n        /* \"#utility.yul\":3231:3237   */\n      dup5\n        /* \"#utility.yul\":3193:3258   */\n      tag_104\n      jump\t// in\n    tag_162:\n        /* \"#utility.yul\":3055:3265   */\n      swap3\n      swap2\n      pop\n      pop\n      jump\t// out\n        /* \"#utility.yul\":3271:3389   */\n    tag_105:\n        /* \"#utility.yul\":3358:3382   */\n      tag_164\n        /* \"#utility.yul\":3376:3381   */\n      dup2\n        /* \"#utility.yul\":3358:3382   */\n      tag_96\n      jump\t// in\n    tag_164:\n        /* \"#utility.yul\":3353:3356   */\n      dup3\n        /* \"#utility.yul\":3346:3383   */\n      mstore\n        /* \"#utility.yul\":3271:3389   */\n      pop\n      pop\n      jump\t// out\n        /* \"#utility.yul\":3395:3617   */\n    tag_33:\n        /* \"#utility.yul\":3488:3492   */\n      0x00\n        /* \"#utility.yul\":3526:3528   */\n      0x20\n        /* \"#utility.yul\":3515:3524   */\n      dup3\n        /* \"#utility.yul\":3511:3529   */\n      add\n        /* \"#utility.yul\":3503:3529   */\n      swap1\n      pop\n        /* \"#utility.yul\":3539:3610   */\n      tag_166\n        /* \"#utility.yul\":3607:3608   */\n      0x00\n        /* \"#utility.yul\":3596:3605   */\n      dup4\n        /* \"#utility.yul\":3592:3609   */\n      add\n        /* \"#utility.yul\":3583:3589   */\n      dup5\n        /* \"#utility.yul\":3539:3610   */\n      tag_105\n      jump\t// in\n    tag_166:\n        /* \"#utility.yul\":3395:3617   */\n      swap3\n      swap2\n      pop\n      pop\n      jump\t// out\n        /* \"#utility.yul\":3623:3792   */\n    tag_106:\n        /* \"#utility.yul\":3707:3718   */\n      0x00\n        /* \"#utility.yul\":3741:3747   */\n      dup3\n        /* \"#utility.yul\":3736:3739   */\n      dup3\n        /* \"#utility.yul\":3729:3748   */\n      mstore\n        /* \"#utility.yul\":3781:3785   */\n      0x20\n        /* \"#utility.yul\":3776:3779   */\n      dup3\n        /* \"#utility.yul\":3772:3786   */\n      add\n        /* \"#utility.yul\":3757:3786   */\n      swap1\n      pop\n        /* \"#utility.yul\":3623:3792   */\n      swap3\n      swap2\n      pop\n      pop\n      jump\t// out\n        /* \"#utility.yul\":3798:3977   */\n    tag_107:\n        /* \"#utility.yul\":3938:3969   */\n      0x416d6f756e74206d7573742062652067726561746572207468616e2030000000\n        /* \"#utility.yul\":3934:3935   */\n      0x00\n        /* \"#utility.yul\":3926:3932   */\n      dup3\n        /* \"#utility.yul\":3922:3936   */\n      add\n        /* \"#utility.yul\":3915:3970   */\n      mstore\n        /* \"#utility.yul\":3798:3977   */\n      pop\n      jump\t// out\n        /* \"#utility.yul\":3983:4349   */\n    tag_108:\n        /* \"#utility.yul\":4125:4128   */\n      0x00\n        /* \"#utility.yul\":4146:4213   */\n      tag_170\n        /* \"#utility.yul\":4210:4212   */\n      0x1d\n        /* \"#utility.yul\":4205:4208   */\n      dup4\n        /* \"#utility.yul\":4146:4213   */\n      tag_106\n      jump\t// in\n    tag_170:\n        /* \"#utility.yul\":4139:4213   */\n      swap2\n      pop\n        /* \"#utility.yul\":4222:4315   */\n      tag_171\n        /* \"#utility.yul\":4311:4314   */\n      dup3\n        /* \"#utility.yul\":4222:4315   */\n      tag_107\n      jump\t// in\n    tag_171:\n        /* \"#utility.yul\":4340:4342   */\n      0x20\n        /* \"#utility.yul\":4335:4338   */\n      dup3\n        /* \"#utility.yul\":4331:4343   */\n      add\n        /* \"#utility.yul\":4324:4343   */\n      swap1\n      pop\n        /* \"#utility.yul\":3983:4349   */\n      swap2\n      swap1\n      pop\n      jump\t// out\n        /* \"#utility.yul\":4355:4774   */\n    tag_48:\n        /* \"#utility.yul\":4521:4525   */\n      0x00\n        /* \"#utility.yul\":4559:4561   */\n      0x20\n        /* \"#utility.yul\":4548:4557   */\n      dup3\n        /* \"#utility.yul\":4544:4562   */\n      add\n        /* \"#utility.yul\":4536:4562   */\n      swap1\n      pop\n        /* \"#utility.yul\":4608:4617   */\n      dup2\n        /* \"#utility.yul\":4602:4606   */\n      dup2\n        /* \"#utility.yul\":4598:4618   */\n      sub\n        /* \"#utility.yul\":4594:4595   */\n      0x00\n        /* \"#utility.yul\":4583:4592   */\n      dup4\n        /* \"#utility.yul\":4579:4596   */\n      add\n        /* \"#utility.yul\":4572:4619   */\n      mstore\n        /* \"#utility.yul\":4636:4767   */\n      tag_173\n        /* \"#utility.yul\":4762:4766   */\n      dup2\n        /* \"#utility.yul\":4636:4767   */\n      tag_108\n      jump\t// in\n    tag_173:\n        /* \"#utility.yul\":4628:4767   */\n      swap1\n      pop\n        /* \"#utility.yul\":4355:4774   */\n      swap2\n      swap1\n      pop\n      jump\t// out\n        /* \"#utility.yul\":4780:4960   */\n    tag_109:\n        /* \"#utility.yul\":4828:4905   */\n      0x4e487b7100000000000000000000000000000000000000000000000000000000\n        /* \"#utility.yul\":4825:4826   */\n      0x00\n        /* \"#utility.yul\":4818:4906   */\n      mstore\n        /* \"#utility.yul\":4925:4929   */\n      0x11\n        /* \"#utility.yul\":4922:4923   */\n      0x04\n        /* \"#utility.yul\":4915:4930   */\n      mstore\n        /* \"#utility.yul\":4949:4953   */\n      0x24\n        /* \"#utility.yul\":4946:4947   */\n      0x00\n        /* \"#utility.yul\":4939:4954   */\n      revert\n        /* \"#utility.yul\":4966:5160   */\n    tag_50:\n        /* \"#utility.yul\":5006:5010   */\n      0x00\n        /* \"#utility.yul\":5026:5046   */\n      tag_176\n        /* \"#utility.yul\":5044:5045   */\n      dup3\n        /* \"#utility.yul\":5026:5046   */\n      tag_99\n      jump\t// in\n    tag_176:\n        /* \"#utility.yul\":5021:5046   */\n      swap2\n      pop\n        /* \"#utility.yul\":5060:5080   */\n      tag_177\n        /* \"#utility.yul\":5078:5079   */\n      dup4\n        /* \"#utility.yul\":5060:5080   */\n      tag_99\n      jump\t// in\n    tag_177:\n        /* \"#utility.yul\":5055:5080   */\n      swap3\n      pop\n        /* \"#utility.yul\":5104:5105   */\n      dup3\n        /* \"#utility.yul\":5101:5102   */\n      dup3\n        /* \"#utility.yul\":5097:5106   */\n      sub\n        /* \"#utility.yul\":5089:5106   */\n      swap1\n      pop\n        /* \"#utility.yul\":5128:5129   */\n      dup2\n        /* \"#utility.yul\":5122:5126   */\n      dup2\n        /* \"#utility.yul\":5119:5130   */\n      gt\n        /* \"#utility.yul\":5116:5153   */\n      iszero\n      tag_178\n      jumpi\n        /* \"#utility.yul\":5133:5151   */\n      tag_179\n      tag_109\n      jump\t// in\n    tag_179:\n        /* \"#utility.yul\":5116:5153   */\n    tag_178:\n        /* \"#utility.yul\":4966:5160   */\n      swap3\n      swap2\n      pop\n      pop\n      jump\t// out\n        /* \"#utility.yul\":5166:5498   */\n    tag_52:\n        /* \"#utility.yul\":5287:5291   */\n      0x00\n        /* \"#utility.yul\":5325:5327   */\n      0x40\n        /* \"#utility.yul\":5314:5323   */\n      dup3\n        /* \"#utility.yul\":5310:5328   */\n      add\n        /* \"#utility.yul\":5302:5328   */\n      swap1\n      pop\n        /* \"#utility.yul\":5338:5409   */\n      tag_181\n        /* \"#utility.yul\":5406:5407   */\n      0x00\n        /* \"#utility.yul\":5395:5404   */\n      dup4\n        /* \"#utility.yul\":5391:5408   */\n      add\n        /* \"#utility.yul\":5382:5388   */\n      dup6\n        /* \"#utility.yul\":5338:5409   */\n      tag_105\n      jump\t// in\n    tag_181:\n        /* \"#utility.yul\":5419:5491   */\n      tag_182\n        /* \"#utility.yul\":5487:5489   */\n      0x20\n        /* \"#utility.yul\":5476:5485   */\n      dup4\n        /* \"#utility.yul\":5472:5490   */\n      add\n        /* \"#utility.yul\":5463:5469   */\n      dup5\n        /* \"#utility.yul\":5419:5491   */\n      tag_100\n      jump\t// in\n    tag_182:\n        /* \"#utility.yul\":5166:5498   */\n      swap4\n      swap3\n      pop\n      pop\n      pop\n      jump\t// out\n        /* \"#utility.yul\":5504:5620   */\n    tag_110:\n        /* \"#utility.yul\":5574:5595   */\n      tag_184\n        /* \"#utility.yul\":5589:5594   */\n      dup2\n        /* \"#utility.yul\":5574:5595   */\n      tag_103\n      jump\t// in\n    tag_184:\n        /* \"#utility.yul\":5567:5572   */\n      dup2\n        /* \"#utility.yul\":5564:5596   */\n      eq\n        /* \"#utility.yul\":5554:5614   */\n      tag_185\n      jumpi\n        /* \"#utility.yul\":5610:5611   */\n      0x00\n        /* \"#utility.yul\":5607:5608   */\n      0x00\n        /* \"#utility.yul\":5600:5612   */\n      revert\n        /* \"#utility.yul\":5554:5614   */\n    tag_185:\n        /* \"#utility.yul\":5504:5620   */\n      pop\n      jump\t// out\n        /* \"#utility.yul\":5626:5763   */\n    tag_111:\n        /* \"#utility.yul\":5680:5685   */\n      0x00\n        /* \"#utility.yul\":5711:5717   */\n      dup2\n        /* \"#utility.yul\":5705:5718   */\n      mload\n        /* \"#utility.yul\":5696:5718   */\n      swap1\n      pop\n        /* \"#utility.yul\":5727:5757   */\n      tag_187\n        /* \"#utility.yul\":5751:5756   */\n      dup2\n        /* \"#utility.yul\":5727:5757   */\n      tag_110\n      jump\t// in\n    tag_187:\n        /* \"#utility.yul\":5626:5763   */\n      swap3\n      swap2\n      pop\n      pop\n      jump\t// out\n        /* \"#utility.yul\":5769:6114   */\n    tag_56:\n        /* \"#utility.yul\":5836:5842   */\n      0x00\n        /* \"#utility.yul\":5885:5887   */\n      0x20\n        /* \"#utility.yul\":5873:5882   */\n      dup3\n        /* \"#utility.yul\":5864:5871   */\n      dup5\n        /* \"#utility.yul\":5860:5883   */\n      sub\n        /* \"#utility.yul\":5856:5888   */\n      slt\n        /* \"#utility.yul\":5853:5972   */\n      iszero\n      tag_189\n      jumpi\n        /* \"#utility.yul\":5891:5970   */\n      tag_190\n      tag_93\n      jump\t// in\n    tag_190:\n        /* \"#utility.yul\":5853:5972   */\n    tag_189:\n        /* \"#utility.yul\":6011:6012   */\n      0x00\n        /* \"#utility.yul\":6036:6097   */\n      tag_191\n        /* \"#utility.yul\":6089:6096   */\n      dup5\n        /* \"#utility.yul\":6080:6086   */\n      dup3\n        /* \"#utility.yul\":6069:6078   */\n      dup6\n        /* \"#utility.yul\":6065:6087   */\n      add\n        /* \"#utility.yul\":6036:6097   */\n      tag_111\n      jump\t// in\n    tag_191:\n        /* \"#utility.yul\":6026:6097   */\n      swap2\n      pop\n        /* \"#utility.yul\":5982:6107   */\n      pop\n        /* \"#utility.yul\":5769:6114   */\n      swap3\n      swap2\n      pop\n      pop\n      jump\t// out\n        /* \"#utility.yul\":6120:6291   */\n    tag_112:\n        /* \"#utility.yul\":6260:6283   */\n      0x746f6b656e207472616e73666572206661696c65640000000000000000000000\n        /* \"#utility.yul\":6256:6257   */\n      0x00\n        /* \"#utility.yul\":6248:6254   */\n      dup3\n        /* \"#utility.yul\":6244:6258   */\n      add\n        /* \"#utility.yul\":6237:6284   */\n      mstore\n        /* \"#utility.yul\":6120:6291   */\n      pop\n      jump\t// out\n        /* \"#utility.yul\":6297:6663   */\n    tag_113:\n        /* \"#utility.yul\":6439:6442   */\n      0x00\n        /* \"#utility.yul\":6460:6527   */\n      tag_194\n        /* \"#utility.yul\":6524:6526   */\n      0x15\n        /* \"#utility.yul\":6519:6522   */\n      dup4\n        /* \"#utility.yul\":6460:6527   */\n      tag_106\n      jump\t// in\n    tag_194:\n        /* \"#utility.yul\":6453:6527   */\n      swap2\n      pop\n        /* \"#utility.yul\":6536:6629   */\n      tag_195\n        /* \"#utility.yul\":6625:6628   */\n      dup3\n        /* \"#utility.yul\":6536:6629   */\n      tag_112\n      jump\t// in\n    tag_195:\n        /* \"#utility.yul\":6654:6656   */\n      0x20\n        /* \"#utility.yul\":6649:6652   */\n      dup3\n        /* \"#utility.yul\":6645:6657   */\n      add\n        /* \"#utility.yul\":6638:6657   */\n      swap1\n      pop\n        /* \"#utility.yul\":6297:6663   */\n      swap2\n      swap1\n      pop\n      jump\t// out\n        /* \"#utility.yul\":6669:7088   */\n    tag_59:\n        /* \"#utility.yul\":6835:6839   */\n      0x00\n        /* \"#utility.yul\":6873:6875   */\n      0x20\n        /* \"#utility.yul\":6862:6871   */\n      dup3\n        /* \"#utility.yul\":6858:6876   */\n      add\n        /* \"#utility.yul\":6850:6876   */\n      swap1\n      pop\n        /* \"#utility.yul\":6922:6931   */\n      dup2\n        /* \"#utility.yul\":6916:6920   */\n      dup2\n        /* \"#utility.yul\":6912:6932   */\n      sub\n        /* \"#utility.yul\":6908:6909   */\n      0x00\n        /* \"#utility.yul\":6897:6906   */\n      dup4\n        /* \"#utility.yul\":6893:6910   */\n      add\n        /* \"#utility.yul\":6886:6933   */\n      mstore\n        /* \"#utility.yul\":6950:7081   */\n      tag_197\n        /* \"#utility.yul\":7076:7080   */\n      dup2\n        /* \"#utility.yul\":6950:7081   */\n      tag_113\n      jump\t// in\n    tag_197:\n        /* \"#utility.yul\":6942:7081   */\n      swap1\n      pop\n        /* \"#utility.yul\":6669:7088   */\n      swap2\n      swap1\n      pop\n      jump\t// out\n        /* \"#utility.yul\":7094:7321   */\n    tag_114:\n        /* \"#utility.yul\":7234:7268   */\n      0x4f6e6c7920746f6b656e20636f6e74726163742063616e2063616c6c20746869\n        /* \"#utility.yul\":7230:7231   */\n      0x00\n        /* \"#utility.yul\":7222:7228   */\n      dup3\n        /* \"#utility.yul\":7218:7232   */\n      add\n        /* \"#utility.yul\":7211:7269   */\n      mstore\n        /* \"#utility.yul\":7303:7313   */\n      0x73206d6574686f64000000000000000000000000000000000000000000000000\n        /* \"#utility.yul\":7298:7300   */\n      0x20\n        /* \"#utility.yul\":7290:7296   */\n      dup3\n        /* \"#utility.yul\":7286:7301   */\n      add\n        /* \"#utility.yul\":7279:7314   */\n      mstore\n        /* \"#utility.yul\":7094:7321   */\n      pop\n      jump\t// out\n        /* \"#utility.yul\":7327:7693   */\n    tag_115:\n        /* \"#utility.yul\":7469:7472   */\n      0x00\n        /* \"#utility.yul\":7490:7557   */\n      tag_200\n        /* \"#utility.yul\":7554:7556   */\n      0x28\n        /* \"#utility.yul\":7549:7552   */\n      dup4\n        /* \"#utility.yul\":7490:7557   */\n      tag_106\n      jump\t// in\n    tag_200:\n        /* \"#utility.yul\":7483:7557   */\n      swap2\n      pop\n        /* \"#utility.yul\":7566:7659   */\n      tag_201\n        /* \"#utility.yul\":7655:7658   */\n      dup3\n        /* \"#utility.yul\":7566:7659   */\n      tag_114\n      jump\t// in\n    tag_201:\n        /* \"#utility.yul\":7684:7686   */\n      0x40\n        /* \"#utility.yul\":7679:7682   */\n      dup3\n        /* \"#utility.yul\":7675:7687   */\n      add\n        /* \"#utility.yul\":7668:7687   */\n      swap1\n      pop\n        /* \"#utility.yul\":7327:7693   */\n      swap2\n      swap1\n      pop\n      jump\t// out\n        /* \"#utility.yul\":7699:8118   */\n    tag_64:\n        /* \"#utility.yul\":7865:7869   */\n      0x00\n        /* \"#utility.yul\":7903:7905   */\n      0x20\n        /* \"#utility.yul\":7892:7901   */\n      dup3\n        /* \"#utility.yul\":7888:7906   */\n      add\n        /* \"#utility.yul\":7880:7906   */\n      swap1\n      pop\n        /* \"#utility.yul\":7952:7961   */\n      dup2\n        /* \"#utility.yul\":7946:7950   */\n      dup2\n        /* \"#utility.yul\":7942:7962   */\n      sub\n        /* \"#utility.yul\":7938:7939   */\n      0x00\n        /* \"#utility.yul\":7927:7936   */\n      dup4\n        /* \"#utility.yul\":7923:7940   */\n      add\n        /* \"#utility.yul\":7916:7963   */\n      mstore\n        /* \"#utility.yul\":7980:8111   */\n      tag_203\n        /* \"#utility.yul\":8106:8110   */\n      dup2\n        /* \"#utility.yul\":7980:8111   */\n      tag_115\n      jump\t// in\n    tag_203:\n        /* \"#utility.yul\":7972:8111   */\n      swap1\n      pop\n        /* \"#utility.yul\":7699:8118   */\n      swap2\n      swap1\n      pop\n      jump\t// out\n        /* \"#utility.yul\":8124:8315   */\n    tag_66:\n        /* \"#utility.yul\":8164:8167   */\n      0x00\n        /* \"#utility.yul\":8183:8203   */\n      tag_205\n        /* \"#utility.yul\":8201:8202   */\n      dup3\n        /* \"#utility.yul\":8183:8203   */\n      tag_99\n      jump\t// in\n    tag_205:\n        /* \"#utility.yul\":8178:8203   */\n      swap2\n      pop\n        /* \"#utility.yul\":8217:8237   */\n      tag_206\n        /* \"#utility.yul\":8235:8236   */\n      dup4\n        /* \"#utility.yul\":8217:8237   */\n      tag_99\n      jump\t// in\n    tag_206:\n        /* \"#utility.yul\":8212:8237   */\n      swap3\n      pop\n        /* \"#utility.yul\":8260:8261   */\n      dup3\n        /* \"#utility.yul\":8257:8258   */\n      dup3\n        /* \"#utility.yul\":8253:8262   */\n      add\n        /* \"#utility.yul\":8246:8262   */\n      swap1\n      pop\n        /* \"#utility.yul\":8281:8284   */\n      dup1\n        /* \"#utility.yul\":8278:8279   */\n      dup3\n        /* \"#utility.yul\":8275:8285   */\n      gt\n        /* \"#utility.yul\":8272:8308   */\n      iszero\n      tag_207\n      jumpi\n        /* \"#utility.yul\":8288:8306   */\n      tag_208\n      tag_109\n      jump\t// in\n    tag_208:\n        /* \"#utility.yul\":8272:8308   */\n    tag_207:\n        /* \"#utility.yul\":8124:8315   */\n      swap3\n      swap2\n      pop\n      pop\n      jump\t// out\n        /* \"#utility.yul\":8321:8763   */\n    tag_73:\n        /* \"#utility.yul\":8470:8474   */\n      0x00\n        /* \"#utility.yul\":8508:8510   */\n      0x60\n        /* \"#utility.yul\":8497:8506   */\n      dup3\n        /* \"#utility.yul\":8493:8511   */\n      add\n        /* \"#utility.yul\":8485:8511   */\n      swap1\n      pop\n        /* \"#utility.yul\":8521:8592   */\n      tag_210\n        /* \"#utility.yul\":8589:8590   */\n      0x00\n        /* \"#utility.yul\":8578:8587   */\n      dup4\n        /* \"#utility.yul\":8574:8591   */\n      add\n        /* \"#utility.yul\":8565:8571   */\n      dup7\n        /* \"#utility.yul\":8521:8592   */\n      tag_105\n      jump\t// in\n    tag_210:\n        /* \"#utility.yul\":8602:8674   */\n      tag_211\n        /* \"#utility.yul\":8670:8672   */\n      0x20\n        /* \"#utility.yul\":8659:8668   */\n      dup4\n        /* \"#utility.yul\":8655:8673   */\n      add\n        /* \"#utility.yul\":8646:8652   */\n      dup6\n        /* \"#utility.yul\":8602:8674   */\n      tag_105\n      jump\t// in\n    tag_211:\n        /* \"#utility.yul\":8684:8756   */\n      tag_212\n        /* \"#utility.yul\":8752:8754   */\n      0x40\n        /* \"#utility.yul\":8741:8750   */\n      dup4\n        /* \"#utility.yul\":8737:8755   */\n      add\n        /* \"#utility.yul\":8728:8734   */\n      dup5\n        /* \"#utility.yul\":8684:8756   */\n      tag_100\n      jump\t// in\n    tag_212:\n        /* \"#utility.yul\":8321:8763   */\n      swap5\n      swap4\n      pop\n      pop\n      pop\n      pop\n      jump\t// out\n        /* \"#utility.yul\":8769:8941   */\n    tag_116:\n        /* \"#utility.yul\":8909:8933   */\n      0x4f6e6c79206d756c74697369672063616e2063616c6c00000000000000000000\n        /* \"#utility.yul\":8905:8906   */\n      0x00\n        /* \"#utility.yul\":8897:8903   */\n      dup3\n        /* \"#utility.yul\":8893:8907   */\n      add\n        /* \"#utility.yul\":8886:8934   */\n      mstore\n        /* \"#utility.yul\":8769:8941   */\n      pop\n      jump\t// out\n        /* \"#utility.yul\":8947:9313   */\n    tag_117:\n        /* \"#utility.yul\":9089:9092   */\n      0x00\n        /* \"#utility.yul\":9110:9177   */\n      tag_215\n        /* \"#utility.yul\":9174:9176   */\n      0x16\n        /* \"#utility.yul\":9169:9172   */\n      dup4\n        /* \"#utility.yul\":9110:9177   */\n      tag_106\n      jump\t// in\n    tag_215:\n        /* \"#utility.yul\":9103:9177   */\n      swap2\n      pop\n        /* \"#utility.yul\":9186:9279   */\n      tag_216\n        /* \"#utility.yul\":9275:9278   */\n      dup3\n        /* \"#utility.yul\":9186:9279   */\n      tag_116\n      jump\t// in\n    tag_216:\n        /* \"#utility.yul\":9304:9306   */\n      0x20\n        /* \"#utility.yul\":9299:9302   */\n      dup3\n        /* \"#utility.yul\":9295:9307   */\n      add\n        /* \"#utility.yul\":9288:9307   */\n      swap1\n      pop\n        /* \"#utility.yul\":8947:9313   */\n      swap2\n      swap1\n      pop\n      jump\t// out\n        /* \"#utility.yul\":9319:9738   */\n    tag_84:\n        /* \"#utility.yul\":9485:9489   */\n      0x00\n        /* \"#utility.yul\":9523:9525   */\n      0x20\n        /* \"#utility.yul\":9512:9521   */\n      dup3\n        /* \"#utility.yul\":9508:9526   */\n      add\n        /* \"#utility.yul\":9500:9526   */\n      swap1\n      pop\n        /* \"#utility.yul\":9572:9581   */\n      dup2\n        /* \"#utility.yul\":9566:9570   */\n      dup2\n        /* \"#utility.yul\":9562:9582   */\n      sub\n        /* \"#utility.yul\":9558:9559   */\n      0x00\n        /* \"#utility.yul\":9547:9556   */\n      dup4\n        /* \"#utility.yul\":9543:9560   */\n      add\n        /* \"#utility.yul\":9536:9583   */\n      mstore\n        /* \"#utility.yul\":9600:9731   */\n      tag_218\n        /* \"#utility.yul\":9726:9730   */\n      dup2\n        /* \"#utility.yul\":9600:9731   */\n      tag_117\n      jump\t// in\n    tag_218:\n        /* \"#utility.yul\":9592:9731   */\n      swap1\n      pop\n        /* \"#utility.yul\":9319:9738   */\n      swap2\n      swap1\n      pop\n      jump\t// out\n        /* \"#utility.yul\":9744:9918   */\n    tag_118:\n        /* \"#utility.yul\":9884:9910   */\n      0x496e76616c6964206d756c746973696720616464726573730000000000000000\n        /* \"#utility.yul\":9880:9881   */\n      0x00\n        /* \"#utility.yul\":9872:9878   */\n      dup3\n        /* \"#utility.yul\":9868:9882   */\n      add\n        /* \"#utility.yul\":9861:9911   */\n      mstore\n        /* \"#utility.yul\":9744:9918   */\n      pop\n      jump\t// out\n        /* \"#utility.yul\":9924:10290   */\n    tag_119:\n        /* \"#utility.yul\":10066:10069   */\n      0x00\n        /* \"#utility.yul\":10087:10154   */\n      tag_221\n        /* \"#utility.yul\":10151:10153   */\n      0x18\n        /* \"#utility.yul\":10146:10149   */\n      dup4\n        /* \"#utility.yul\":10087:10154   */\n      tag_106\n      jump\t// in\n    tag_221:\n        /* \"#utility.yul\":10080:10154   */\n      swap2\n      pop\n        /* \"#utility.yul\":10163:10256   */\n      tag_222\n        /* \"#utility.yul\":10252:10255   */\n      dup3\n        /* \"#utility.yul\":10163:10256   */\n      tag_118\n      jump\t// in\n    tag_222:\n        /* \"#utility.yul\":10281:10283   */\n      0x20\n        /* \"#utility.yul\":10276:10279   */\n      dup3\n        /* \"#utility.yul\":10272:10284   */\n      add\n        /* \"#utility.yul\":10265:10284   */\n      swap1\n      pop\n        /* \"#utility.yul\":9924:10290   */\n      swap2\n      swap1\n      pop\n      jump\t// out\n        /* \"#utility.yul\":10296:10715   */\n    tag_88:\n        /* \"#utility.yul\":10462:10466   */\n      0x00\n        /* \"#utility.yul\":10500:10502   */\n      0x20\n        /* \"#utility.yul\":10489:10498   */\n      dup3\n        /* \"#utility.yul\":10485:10503   */\n      add\n        /* \"#utility.yul\":10477:10503   */\n      swap1\n      pop\n        /* \"#utility.yul\":10549:10558   */\n      dup2\n        /* \"#utility.yul\":10543:10547   */\n      dup2\n        /* \"#utility.yul\":10539:10559   */\n      sub\n        /* \"#utility.yul\":10535:10536   */\n      0x00\n        /* \"#utility.yul\":10524:10533   */\n      dup4\n        /* \"#utility.yul\":10520:10537   */\n      add\n        /* \"#utility.yul\":10513:10560   */\n      mstore\n        /* \"#utility.yul\":10577:10708   */\n      tag_224\n        /* \"#utility.yul\":10703:10707   */\n      dup2\n        /* \"#utility.yul\":10577:10708   */\n      tag_119\n      jump\t// in\n    tag_224:\n        /* \"#utility.yul\":10569:10708   */\n      swap1\n      pop\n        /* \"#utility.yul\":10296:10715   */\n      swap2\n      swap1\n      pop\n      jump\t// out\n        /* \"#utility.yul\":10721:10901   */\n    tag_120:\n        /* \"#utility.yul\":10861:10893   */\n      0x4e6577206d756c7469736967206d75737420626520646966666572656e740000\n        /* \"#utility.yul\":10857:10858   */\n      0x00\n        /* \"#utility.yul\":10849:10855   */\n      dup3\n        /* \"#utility.yul\":10845:10859   */\n      add\n        /* \"#utility.yul\":10838:10894   */\n      mstore\n        /* \"#utility.yul\":10721:10901   */\n      pop\n      jump\t// out\n        /* \"#utility.yul\":10907:11273   */\n    tag_121:\n        /* \"#utility.yul\":11049:11052   */\n      0x00\n        /* \"#utility.yul\":11070:11137   */\n      tag_227\n        /* \"#utility.yul\":11134:11136   */\n      0x1e\n        /* \"#utility.yul\":11129:11132   */\n      dup4\n        /* \"#utility.yul\":11070:11137   */\n      tag_106\n      jump\t// in\n    tag_227:\n        /* \"#utility.yul\":11063:11137   */\n      swap2\n      pop\n        /* \"#utility.yul\":11146:11239   */\n      tag_228\n        /* \"#utility.yul\":11235:11238   */\n      dup3\n        /* \"#utility.yul\":11146:11239   */\n      tag_120\n      jump\t// in\n    tag_228:\n        /* \"#utility.yul\":11264:11266   */\n      0x20\n        /* \"#utility.yul\":11259:11262   */\n      dup3\n        /* \"#utility.yul\":11255:11267   */\n      add\n        /* \"#utility.yul\":11248:11267   */\n      swap1\n      pop\n        /* \"#utility.yul\":10907:11273   */\n      swap2\n      swap1\n      pop\n      jump\t// out\n        /* \"#utility.yul\":11279:11698   */\n    tag_91:\n        /* \"#utility.yul\":11445:11449   */\n      0x00\n        /* \"#utility.yul\":11483:11485   */\n      0x20\n        /* \"#utility.yul\":11472:11481   */\n      dup3\n        /* \"#utility.yul\":11468:11486   */\n      add\n        /* \"#utility.yul\":11460:11486   */\n      swap1\n      pop\n        /* \"#utility.yul\":11532:11541   */\n      dup2\n        /* \"#utility.yul\":11526:11530   */\n      dup2\n        /* \"#utility.yul\":11522:11542   */\n      sub\n        /* \"#utility.yul\":11518:11519   */\n      0x00\n        /* \"#utility.yul\":11507:11516   */\n      dup4\n        /* \"#utility.yul\":11503:11520   */\n      add\n        /* \"#utility.yul\":11496:11543   */\n      mstore\n        /* \"#utility.yul\":11560:11691   */\n      tag_230\n        /* \"#utility.yul\":11686:11690   */\n      dup2\n        /* \"#utility.yul\":11560:11691   */\n      tag_121\n      jump\t// in\n    tag_230:\n        /* \"#utility.yul\":11552:11691   */\n      swap1\n      pop\n        /* \"#utility.yul\":11279:11698   */\n      swap2\n      swap1\n      pop\n      jump\t// out\n\n    auxdata: 0xa2646970667358221220976c167316d8df3a658f64db7024431ca0aed8c301279ac18651cc29e3065b0d64736f6c634300081e0033\n}\n",
				"bytecode": {
					"linkReferences": {},
					"object": "608060405234801561000f575f5ffd5b50604051610fc9380380610fc983398181016040528101906100319190610116565b808060015f6101000a81548173ffffffffffffffffffffffffffffffffffffffff021916908373ffffffffffffffffffffffffffffffffffffffff160217905550335f5f6101000a81548173ffffffffffffffffffffffffffffffffffffffff021916908373ffffffffffffffffffffffffffffffffffffffff1602179055505050610141565b5f5ffd5b5f73ffffffffffffffffffffffffffffffffffffffff82169050919050565b5f6100e5826100bc565b9050919050565b6100f5816100db565b81146100ff575f5ffd5b50565b5f81519050610110816100ec565b92915050565b5f6020828403121561012b5761012a6100b8565b5b5f61013884828501610102565b91505092915050565b610e7b8061014e5f395ff3fe60806040526004361061006f575f3560e01c8063893d20e81161004d578063893d20e8146101135780638da5cb5b1461013d578063b6b55f2514610167578063d83f9a67146101835761006f565b806327e235e3146100735780632e1a7d4d146100af578063675de6b5146100d7575b5f5ffd5b34801561007e575f5ffd5b50610099600480360381019061009491906108ff565b6101ab565b6040516100a69190610942565b60405180910390f35b3480156100ba575f5ffd5b506100d560048036038101906100d09190610985565b6101c0565b005b3480156100e2575f5ffd5b506100fd60048036038101906100f891906109b0565b610386565b60405161010a9190610a1a565b60405180910390f35b34801561011e575f5ffd5b506101276104c2565b6040516101349190610a42565b60405180910390f35b348015610148575f5ffd5b506101516104e9565b60405161015e9190610a42565b60405180910390f35b610181600480360381019061017c9190610985565b61050d565b005b34801561018e575f5ffd5b506101a960048036038101906101a491906108ff565b6106d5565b005b6002602052805f5260405f205f915090505481565b5f8111610202576040517f08c379a00000000000000000000000000000000000000000000000000000000081526004016101f990610ab5565b60405180910390fd5b8060025f3373ffffffffffffffffffffffffffffffffffffffff1673ffffffffffffffffffffffffffffffffffffffff1681526020019081526020015f205f82825461024e9190610b00565b925050819055505f60015f9054906101000a900473ffffffffffffffffffffffffffffffffffffffff1673ffffffffffffffffffffffffffffffffffffffff1663a9059cbb33846040518363ffffffff1660e01b81526004016102b2929190610b33565b6020604051808303815f875af11580156102ce573d5f5f3e3d5ffd5b505050506040513d601f19601f820116820180604052508101906102f29190610b84565b905080610334576040517f08c379a000000000000000000000000000000000000000000000000000000000815260040161032b90610bf9565b60405180910390fd5b3373ffffffffffffffffffffffffffffffffffffffff167f884edad9ce6fa2440d8a54cc123490eb96d2768479d49ff9c7366125a94243648360405161037a9190610942565b60405180910390a25050565b5f60015f9054906101000a900473ffffffffffffffffffffffffffffffffffffffff1673ffffffffffffffffffffffffffffffffffffffff163373ffffffffffffffffffffffffffffffffffffffff1614610416576040517f08c379a000000000000000000000000000000000000000000000000000000000815260040161040d90610c87565b60405180910390fd5b8160025f8673ffffffffffffffffffffffffffffffffffffffff1673ffffffffffffffffffffffffffffffffffffffff1681526020019081526020015f205f8282546104629190610ca5565b925050819055508373ffffffffffffffffffffffffffffffffffffffff167fe1fffcc4923d04b559f4d29a8bfc6cda04eb5b0d3c460751c2402c5c5cc9109c836040516104af9190610942565b60405180910390a2600190509392505050565b5f5f5f9054906101000a900473ffffffffffffffffffffffffffffffffffffffff16905090565b5f5f9054906101000a900473ffffffffffffffffffffffffffffffffffffffff1681565b5f811161054f576040517f08c379a000000000000000000000000000000000000000000000000000000000815260040161054690610ab5565b60405180910390fd5b5f60015f9054906101000a900473ffffffffffffffffffffffffffffffffffffffff1673ffffffffffffffffffffffffffffffffffffffff166323b872dd3330856040518463ffffffff1660e01b81526004016105ae93929190610cd8565b6020604051808303815f875af11580156105ca573d5f5f3e3d5ffd5b505050506040513d601f19601f820116820180604052508101906105ee9190610b84565b905080610630576040517f08c379a000000000000000000000000000000000000000000000000000000000815260040161062790610bf9565b60405180910390fd5b8160025f3373ffffffffffffffffffffffffffffffffffffffff1673ffffffffffffffffffffffffffffffffffffffff1681526020019081526020015f205f82825461067c9190610ca5565b925050819055503373ffffffffffffffffffffffffffffffffffffffff167fe1fffcc4923d04b559f4d29a8bfc6cda04eb5b0d3c460751c2402c5c5cc9109c836040516106c99190610942565b60405180910390a25050565b5f5f9054906101000a900473ffffffffffffffffffffffffffffffffffffffff1673ffffffffffffffffffffffffffffffffffffffff163373ffffffffffffffffffffffffffffffffffffffff1614610763576040517f08c379a000000000000000000000000000000000000000000000000000000000815260040161075a90610d57565b60405180910390fd5b5f73ffffffffffffffffffffffffffffffffffffffff168173ffffffffffffffffffffffffffffffffffffffff16036107d1576040517f08c379a00000000000000000000000000000000000000000000000000000000081526004016107c890610dbf565b60405180910390fd5b5f5f9054906101000a900473ffffffffffffffffffffffffffffffffffffffff1673ffffffffffffffffffffffffffffffffffffffff168173ffffffffffffffffffffffffffffffffffffffff160361085f576040517f08c379a000000000000000000000000000000000000000000000000000000000815260040161085690610e27565b60405180910390fd5b805f5f6101000a81548173ffffffffffffffffffffffffffffffffffffffff021916908373ffffffffffffffffffffffffffffffffffffffff16021790555050565b5f5ffd5b5f73ffffffffffffffffffffffffffffffffffffffff82169050919050565b5f6108ce826108a5565b9050919050565b6108de816108c4565b81146108e8575f5ffd5b50565b5f813590506108f9816108d5565b92915050565b5f60208284031215610914576109136108a1565b5b5f610921848285016108eb565b91505092915050565b5f819050919050565b61093c8161092a565b82525050565b5f6020820190506109555f830184610933565b92915050565b6109648161092a565b811461096e575f5ffd5b50565b5f8135905061097f8161095b565b92915050565b5f6020828403121561099a576109996108a1565b5b5f6109a784828501610971565b91505092915050565b5f5f5f606084860312156109c7576109c66108a1565b5b5f6109d4868287016108eb565b93505060206109e5868287016108eb565b92505060406109f686828701610971565b9150509250925092565b5f8115159050919050565b610a1481610a00565b82525050565b5f602082019050610a2d5f830184610a0b565b92915050565b610a3c816108c4565b82525050565b5f602082019050610a555f830184610a33565b92915050565b5f82825260208201905092915050565b7f416d6f756e74206d7573742062652067726561746572207468616e20300000005f82015250565b5f610a9f601d83610a5b565b9150610aaa82610a6b565b602082019050919050565b5f6020820190508181035f830152610acc81610a93565b9050919050565b7f4e487b71000000000000000000000000000000000000000000000000000000005f52601160045260245ffd5b5f610b0a8261092a565b9150610b158361092a565b9250828203905081811115610b2d57610b2c610ad3565b5b92915050565b5f604082019050610b465f830185610a33565b610b536020830184610933565b9392505050565b610b6381610a00565b8114610b6d575f5ffd5b50565b5f81519050610b7e81610b5a565b92915050565b5f60208284031215610b9957610b986108a1565b5b5f610ba684828501610b70565b91505092915050565b7f746f6b656e207472616e73666572206661696c656400000000000000000000005f82015250565b5f610be3601583610a5b565b9150610bee82610baf565b602082019050919050565b5f6020820190508181035f830152610c1081610bd7565b9050919050565b7f4f6e6c7920746f6b656e20636f6e74726163742063616e2063616c6c207468695f8201527f73206d6574686f64000000000000000000000000000000000000000000000000602082015250565b5f610c71602883610a5b565b9150610c7c82610c17565b604082019050919050565b5f6020820190508181035f830152610c9e81610c65565b9050919050565b5f610caf8261092a565b9150610cba8361092a565b9250828201905080821115610cd257610cd1610ad3565b5b92915050565b5f606082019050610ceb5f830186610a33565b610cf86020830185610a33565b610d056040830184610933565b949350505050565b7f4f6e6c79206d756c74697369672063616e2063616c6c000000000000000000005f82015250565b5f610d41601683610a5b565b9150610d4c82610d0d565b602082019050919050565b5f6020820190508181035f830152610d6e81610d35565b9050919050565b7f496e76616c6964206d756c7469736967206164647265737300000000000000005f82015250565b5f610da9601883610a5b565b9150610db482610d75565b602082019050919050565b5f6020820190508181035f830152610dd681610d9d565b9050919050565b7f4e6577206d756c7469736967206d75737420626520646966666572656e7400005f82015250565b5f610e11601e83610a5b565b9150610e1c82610ddd565b602082019050919050565b5f6020820190508181035f830152610e3e81610e05565b905091905056fea2646970667358221220976c167316d8df3a658f64db7024431ca0aed8c301279ac18651cc29e3065b0d64736f6c634300081e0033",
					"opcodes": "PUSH1 0x80 PUSH1 0x40 MSTORE CALLVALUE DUP1 ISZERO PUSH2 0xF JUMPI PUSH0 PUSH0 REVERT JUMPDEST POP PUSH1 0x40 MLOAD PUSH2 0xFC9 CODESIZE SUB DUP1 PUSH2 0xFC9 DUP4 CODECOPY DUP2 DUP2 ADD PUSH1 0x40 MSTORE DUP2 ADD SWAP1 PUSH2 0x31 SWAP2 SWAP1 PUSH2 0x116 JUMP JUMPDEST DUP1 DUP1 PUSH1 0x1 PUSH0 PUSH2 0x100 EXP DUP2 SLOAD DUP2 PUSH20 0xFFFFFFFFFFFFFFFFFFFFFFFFFFFFFFFFFFFFFFFF MUL NOT AND SWAP1 DUP4 PUSH20 0xFFFFFFFFFFFFFFFFFFFFFFFFFFFFFFFFFFFFFFFF AND MUL OR SWAP1 SSTORE POP CALLER PUSH0 PUSH0 PUSH2 0x100 EXP DUP2 SLOAD DUP2 PUSH20 0xFFFFFFFFFFFFFFFFFFFFFFFFFFFFFFFFFFFFFFFF MUL NOT AND SWAP1 DUP4 PUSH20 0xFFFFFFFFFFFFFFFFFFFFFFFFFFFFFFFFFFFFFFFF AND MUL OR SWAP1 SSTORE POP POP POP PUSH2 0x141 JUMP JUMPDEST PUSH0 PUSH0 REVERT JUMPDEST PUSH0 PUSH20 0xFFFFFFFFFFFFFFFFFFFFFFFFFFFFFFFFFFFFFFFF DUP3 AND SWAP1 POP SWAP2 SWAP1 POP JUMP JUMPDEST PUSH0 PUSH2 0xE5 DUP3 PUSH2 0xBC JUMP JUMPDEST SWAP1 POP SWAP2 SWAP1 POP JUMP JUMPDEST PUSH2 0xF5 DUP2 PUSH2 0xDB JUMP JUMPDEST DUP2 EQ PUSH2 0xFF JUMPI PUSH0 PUSH0 REVERT JUMPDEST POP JUMP JUMPDEST PUSH0 DUP2 MLOAD SWAP1 POP PUSH2 0x110 DUP2 PUSH2 0xEC JUMP JUMPDEST SWAP3 SWAP2 POP POP JUMP JUMPDEST PUSH0 PUSH1 0x20 DUP3 DUP5 SUB SLT ISZERO PUSH2 0x12B JUMPI PUSH2 0x12A PUSH2 0xB8 JUMP JUMPDEST JUMPDEST PUSH0 PUSH2 0x138 DUP5 DUP3 DUP6 ADD PUSH2 0x102 JUMP JUMPDEST SWAP2 POP POP SWAP3 SWAP2 POP POP JUMP JUMPDEST PUSH2 0xE7B DUP1 PUSH2 0x14E PUSH0 CODECOPY PUSH0 RETURN INVALID PUSH1 0x80 PUSH1 0x40 MSTORE PUSH1 0x4 CALLDATASIZE LT PUSH2 0x6F JUMPI PUSH0 CALLDATALOAD PUSH1 0xE0 SHR DUP1 PUSH4 0x893D20E8 GT PUSH2 0x4D JUMPI DUP1 PUSH4 0x893D20E8 EQ PUSH2 0x113 JUMPI DUP1 PUSH4 0x8DA5CB5B EQ PUSH2 0x13D JUMPI DUP1 PUSH4 0xB6B55F25 EQ PUSH2 0x167 JUMPI DUP1 PUSH4 0xD83F9A67 EQ PUSH2 0x183 JUMPI PUSH2 0x6F JUMP JUMPDEST DUP1 PUSH4 0x27E235E3 EQ PUSH2 0x73 JUMPI DUP1 PUSH4 0x2E1A7D4D EQ PUSH2 0xAF JUMPI DUP1 PUSH4 0x675DE6B5 EQ PUSH2 0xD7 JUMPI JUMPDEST PUSH0 PUSH0 REVERT JUMPDEST CALLVALUE DUP1 ISZERO PUSH2 0x7E JUMPI PUSH0 PUSH0 REVERT JUMPDEST POP PUSH2 0x99 PUSH1 0x4 DUP1 CALLDATASIZE SUB DUP2 ADD SWAP1 PUSH2 0x94 SWAP2 SWAP1 PUSH2 0x8FF JUMP JUMPDEST PUSH2 0x1AB JUMP JUMPDEST PUSH1 0x40 MLOAD PUSH2 0xA6 SWAP2 SWAP1 PUSH2 0x942 JUMP JUMPDEST PUSH1 0x40 MLOAD DUP1 SWAP2 SUB SWAP1 RETURN JUMPDEST CALLVALUE DUP1 ISZERO PUSH2 0xBA JUMPI PUSH0 PUSH0 REVERT JUMPDEST POP PUSH2 0xD5 PUSH1 0x4 DUP1 CALLDATASIZE SUB DUP2 ADD SWAP1 PUSH2 0xD0 SWAP2 SWAP1 PUSH2 0x985 JUMP JUMPDEST PUSH2 0x1C0 JUMP JUMPDEST STOP JUMPDEST CALLVALUE DUP1 ISZERO PUSH2 0xE2 JUMPI PUSH0 PUSH0 REVERT JUMPDEST POP PUSH2 0xFD PUSH1 0x4 DUP1 CALLDATASIZE SUB DUP2 ADD SWAP1 PUSH2 0xF8 SWAP2 SWAP1 PUSH2 0x9B0 JUMP JUMPDEST PUSH2 0x386 JUMP JUMPDEST PUSH1 0x40 MLOAD PUSH2 0x10A SWAP2 SWAP1 PUSH2 0xA1A JUMP JUMPDEST PUSH1 0x40 MLOAD DUP1 SWAP2 SUB SWAP1 RETURN JUMPDEST CALLVALUE DUP1 ISZERO PUSH2 0x11E JUMPI PUSH0 PUSH0 REVERT JUMPDEST POP PUSH2 0x127 PUSH2 0x4C2 JUMP JUMPDEST PUSH1 0x40 MLOAD PUSH2 0x134 SWAP2 SWAP1 PUSH2 0xA42 JUMP JUMPDEST PUSH1 0x40 MLOAD DUP1 SWAP2 SUB SWAP1 RETURN JUMPDEST CALLVALUE DUP1 ISZERO PUSH2 0x148 JUMPI PUSH0 PUSH0 REVERT JUMPDEST POP PUSH2 0x151 PUSH2 0x4E9 JUMP JUMPDEST PUSH1 0x40 MLOAD PUSH2 0x15E SWAP2 SWAP1 PUSH2 0xA42 JUMP JUMPDEST PUSH1 0x40 MLOAD DUP1 SWAP2 SUB SWAP1 RETURN JUMPDEST PUSH2 0x181 PUSH1 0x4 DUP1 CALLDATASIZE SUB DUP2 ADD SWAP1 PUSH2 0x17C SWAP2 SWAP1 PUSH2 0x985 JUMP JUMPDEST PUSH2 0x50D JUMP JUMPDEST STOP JUMPDEST CALLVALUE DUP1 ISZERO PUSH2 0x18E JUMPI PUSH0 PUSH0 REVERT JUMPDEST POP PUSH2 0x1A9 PUSH1 0x4 DUP1 CALLDATASIZE SUB DUP2 ADD SWAP1 PUSH2 0x1A4 SWAP2 SWAP1 PUSH2 0x8FF JUMP JUMPDEST PUSH2 0x6D5 JUMP JUMPDEST STOP JUMPDEST PUSH1 0x2 PUSH1 0x20 MSTORE DUP1 PUSH0 MSTORE PUSH1 0x40 PUSH0 KECCAK256 PUSH0 SWAP2 POP SWAP1 POP SLOAD DUP2 JUMP JUMPDEST PUSH0 DUP2 GT PUSH2 0x202 JUMPI PUSH1 0x40 MLOAD PUSH32 0x8C379A000000000000000000000000000000000000000000000000000000000 DUP2 MSTORE PUSH1 0x4 ADD PUSH2 0x1F9 SWAP1 PUSH2 0xAB5 JUMP JUMPDEST PUSH1 0x40 MLOAD DUP1 SWAP2 SUB SWAP1 REVERT JUMPDEST DUP1 PUSH1 0x2 PUSH0 CALLER PUSH20 0xFFFFFFFFFFFFFFFFFFFFFFFFFFFFFFFFFFFFFFFF AND PUSH20 0xFFFFFFFFFFFFFFFFFFFFFFFFFFFFFFFFFFFFFFFF AND DUP2 MSTORE PUSH1 0x20 ADD SWAP1 DUP2 MSTORE PUSH1 0x20 ADD PUSH0 KECCAK256 PUSH0 DUP3 DUP3 SLOAD PUSH2 0x24E SWAP2 SWAP1 PUSH2 0xB00 JUMP JUMPDEST SWAP3 POP POP DUP2 SWAP1 SSTORE POP PUSH0 PUSH1 0x1 PUSH0 SWAP1 SLOAD SWAP1 PUSH2 0x100 EXP SWAP1 DIV PUSH20 0xFFFFFFFFFFFFFFFFFFFFFFFFFFFFFFFFFFFFFFFF AND PUSH20 0xFFFFFFFFFFFFFFFFFFFFFFFFFFFFFFFFFFFFFFFF AND PUSH4 0xA9059CBB CALLER DUP5 PUSH1 0x40 MLOAD DUP4 PUSH4 0xFFFFFFFF AND PUSH1 0xE0 SHL DUP2 MSTORE PUSH1 0x4 ADD PUSH2 0x2B2 SWAP3 SWAP2 SWAP1 PUSH2 0xB33 JUMP JUMPDEST PUSH1 0x20 PUSH1 0x40 MLOAD DUP1 DUP4 SUB DUP2 PUSH0 DUP8 GAS CALL ISZERO DUP1 ISZERO PUSH2 0x2CE JUMPI RETURNDATASIZE PUSH0 PUSH0 RETURNDATACOPY RETURNDATASIZE PUSH0 REVERT JUMPDEST POP POP POP POP PUSH1 0x40 MLOAD RETURNDATASIZE PUSH1 0x1F NOT PUSH1 0x1F DUP3 ADD AND DUP3 ADD DUP1 PUSH1 0x40 MSTORE POP DUP2 ADD SWAP1 PUSH2 0x2F2 SWAP2 SWAP1 PUSH2 0xB84 JUMP JUMPDEST SWAP1 POP DUP1 PUSH2 0x334 JUMPI PUSH1 0x40 MLOAD PUSH32 0x8C379A000000000000000000000000000000000000000000000000000000000 DUP2 MSTORE PUSH1 0x4 ADD PUSH2 0x32B SWAP1 PUSH2 0xBF9 JUMP JUMPDEST PUSH1 0x40 MLOAD DUP1 SWAP2 SUB SWAP1 REVERT JUMPDEST CALLER PUSH20 0xFFFFFFFFFFFFFFFFFFFFFFFFFFFFFFFFFFFFFFFF AND PUSH32 0x884EDAD9CE6FA2440D8A54CC123490EB96D2768479D49FF9C7366125A9424364 DUP4 PUSH1 0x40 MLOAD PUSH2 0x37A SWAP2 SWAP1 PUSH2 0x942 JUMP JUMPDEST PUSH1 0x40 MLOAD DUP1 SWAP2 SUB SWAP1 LOG2 POP POP JUMP JUMPDEST PUSH0 PUSH1 0x1 PUSH0 SWAP1 SLOAD SWAP1 PUSH2 0x100 EXP SWAP1 DIV PUSH20 0xFFFFFFFFFFFFFFFFFFFFFFFFFFFFFFFFFFFFFFFF AND PUSH20 0xFFFFFFFFFFFFFFFFFFFFFFFFFFFFFFFFFFFFFFFF AND CALLER PUSH20 0xFFFFFFFFFFFFFFFFFFFFFFFFFFFFFFFFFFFFFFFF AND EQ PUSH2 0x416 JUMPI PUSH1 0x40 MLOAD PUSH32 0x8C379A000000000000000000000000000000000000000000000000000000000 DUP2 MSTORE PUSH1 0x4 ADD PUSH2 0x40D SWAP1 PUSH2 0xC87 JUMP JUMPDEST PUSH1 0x40 MLOAD DUP1 SWAP2 SUB SWAP1 REVERT JUMPDEST DUP2 PUSH1 0x2 PUSH0 DUP7 PUSH20 0xFFFFFFFFFFFFFFFFFFFFFFFFFFFFFFFFFFFFFFFF AND PUSH20 0xFFFFFFFFFFFFFFFFFFFFFFFFFFFFFFFFFFFFFFFF AND DUP2 MSTORE PUSH1 0x20 ADD SWAP1 DUP2 MSTORE PUSH1 0x20 ADD PUSH0 KECCAK256 PUSH0 DUP3 DUP3 SLOAD PUSH2 0x462 SWAP2 SWAP1 PUSH2 0xCA5 JUMP JUMPDEST SWAP3 POP POP DUP2 SWAP1 SSTORE POP DUP4 PUSH20 0xFFFFFFFFFFFFFFFFFFFFFFFFFFFFFFFFFFFFFFFF AND PUSH32 0xE1FFFCC4923D04B559F4D29A8BFC6CDA04EB5B0D3C460751C2402C5C5CC9109C DUP4 PUSH1 0x40 MLOAD PUSH2 0x4AF SWAP2 SWAP1 PUSH2 0x942 JUMP JUMPDEST PUSH1 0x40 MLOAD DUP1 SWAP2 SUB SWAP1 LOG2 PUSH1 0x1 SWAP1 POP SWAP4 SWAP3 POP POP POP JUMP JUMPDEST PUSH0 PUSH0 PUSH0 SWAP1 SLOAD SWAP1 PUSH2 0x100 EXP SWAP1 DIV PUSH20 0xFFFFFFFFFFFFFFFFFFFFFFFFFFFFFFFFFFFFFFFF AND SWAP1 POP SWAP1 JUMP JUMPDEST PUSH0 PUSH0 SWAP1 SLOAD SWAP1 PUSH2 0x100 EXP SWAP1 DIV PUSH20 0xFFFFFFFFFFFFFFFFFFFFFFFFFFFFFFFFFFFFFFFF AND DUP2 JUMP JUMPDEST PUSH0 DUP2 GT PUSH2 0x54F JUMPI PUSH1 0x40 MLOAD PUSH32 0x8C379A000000000000000000000000000000000000000000000000000000000 DUP2 MSTORE PUSH1 0x4 ADD PUSH2 0x546 SWAP1 PUSH2 0xAB5 JUMP JUMPDEST PUSH1 0x40 MLOAD DUP1 SWAP2 SUB SWAP1 REVERT JUMPDEST PUSH0 PUSH1 0x1 PUSH0 SWAP1 SLOAD SWAP1 PUSH2 0x100 EXP SWAP1 DIV PUSH20 0xFFFFFFFFFFFFFFFFFFFFFFFFFFFFFFFFFFFFFFFF AND PUSH20 0xFFFFFFFFFFFFFFFFFFFFFFFFFFFFFFFFFFFFFFFF AND PUSH4 0x23B872DD CALLER ADDRESS DUP6 PUSH1 0x40 MLOAD DUP5 PUSH4 0xFFFFFFFF AND PUSH1 0xE0 SHL DUP2 MSTORE PUSH1 0x4 ADD PUSH2 0x5AE SWAP4 SWAP3 SWAP2 SWAP1 PUSH2 0xCD8 JUMP JUMPDEST PUSH1 0x20 PUSH1 0x40 MLOAD DUP1 DUP4 SUB DUP2 PUSH0 DUP8 GAS CALL ISZERO DUP1 ISZERO PUSH2 0x5CA JUMPI RETURNDATASIZE PUSH0 PUSH0 RETURNDATACOPY RETURNDATASIZE PUSH0 REVERT JUMPDEST POP POP POP POP PUSH1 0x40 MLOAD RETURNDATASIZE PUSH1 0x1F NOT PUSH1 0x1F DUP3 ADD AND DUP3 ADD DUP1 PUSH1 0x40 MSTORE POP DUP2 ADD SWAP1 PUSH2 0x5EE SWAP2 SWAP1 PUSH2 0xB84 JUMP JUMPDEST SWAP1 POP DUP1 PUSH2 0x630 JUMPI PUSH1 0x40 MLOAD PUSH32 0x8C379A000000000000000000000000000000000000000000000000000000000 DUP2 MSTORE PUSH1 0x4 ADD PUSH2 0x627 SWAP1 PUSH2 0xBF9 JUMP JUMPDEST PUSH1 0x40 MLOAD DUP1 SWAP2 SUB SWAP1 REVERT JUMPDEST DUP2 PUSH1 0x2 PUSH0 CALLER PUSH20 0xFFFFFFFFFFFFFFFFFFFFFFFFFFFFFFFFFFFFFFFF AND PUSH20 0xFFFFFFFFFFFFFFFFFFFFFFFFFFFFFFFFFFFFFFFF AND DUP2 MSTORE PUSH1 0x20 ADD SWAP1 DUP2 MSTORE PUSH1 0x20 ADD PUSH0 KECCAK256 PUSH0 DUP3 DUP3 SLOAD PUSH2 0x67C SWAP2 SWAP1 PUSH2 0xCA5 JUMP JUMPDEST SWAP3 POP POP DUP2 SWAP1 SSTORE POP CALLER PUSH20 0xFFFFFFFFFFFFFFFFFFFFFFFFFFFFFFFFFFFFFFFF AND PUSH32 0xE1FFFCC4923D04B559F4D29A8BFC6CDA04EB5B0D3C460751C2402C5C5CC9109C DUP4 PUSH1 0x40 MLOAD PUSH2 0x6C9 SWAP2 SWAP1 PUSH2 0x942 JUMP JUMPDEST PUSH1 0x40 MLOAD DUP1 SWAP2 SUB SWAP1 LOG2 POP POP JUMP JUMPDEST PUSH0 PUSH0 SWAP1 SLOAD SWAP1 PUSH2 0x100 EXP SWAP1 DIV PUSH20 0xFFFFFFFFFFFFFFFFFFFFFFFFFFFFFFFFFFFFFFFF AND PUSH20 0xFFFFFFFFFFFFFFFFFFFFFFFFFFFFFFFFFFFFFFFF AND CALLER PUSH20 0xFFFFFFFFFFFFFFFFFFFFFFFFFFFFFFFFFFFFFFFF AND EQ PUSH2 0x763 JUMPI PUSH1 0x40 MLOAD PUSH32 0x8C379A000000000000000000000000000000000000000000000000000000000 DUP2 MSTORE PUSH1 0x4 ADD PUSH2 0x75A SWAP1 PUSH2 0xD57 JUMP JUMPDEST PUSH1 0x40 MLOAD DUP1 SWAP2 SUB SWAP1 REVERT JUMPDEST PUSH0 PUSH20 0xFFFFFFFFFFFFFFFFFFFFFFFFFFFFFFFFFFFFFFFF AND DUP2 PUSH20 0xFFFFFFFFFFFFFFFFFFFFFFFFFFFFFFFFFFFFFFFF AND SUB PUSH2 0x7D1 JUMPI PUSH1 0x40 MLOAD PUSH32 0x8C379A000000000000000000000000000000000000000000000000000000000 DUP2 MSTORE PUSH1 0x4 ADD PUSH2 0x7C8 SWAP1 PUSH2 0xDBF JUMP JUMPDEST PUSH1 0x40 MLOAD DUP1 SWAP2 SUB SWAP1 REVERT JUMPDEST PUSH0 PUSH0 SWAP1 SLOAD SWAP1 PUSH2 0x100 EXP SWAP1 DIV PUSH20 0xFFFFFFFFFFFFFFFFFFFFFFFFFFFFFFFFFFFFFFFF AND PUSH20 0xFFFFFFFFFFFFFFFFFFFFFFFFFFFFFFFFFFFFFFFF AND DUP2 PUSH20 0xFFFFFFFFFFFFFFFFFFFFFFFFFFFFFFFFFFFFFFFF AND SUB PUSH2 0x85F JUMPI PUSH1 0x40 MLOAD PUSH32 0x8C379A000000000000000000000000000000000000000000000000000000000 DUP2 MSTORE PUSH1 0x4 ADD PUSH2 0x856 SWAP1 PUSH2 0xE27 JUMP JUMPDEST PUSH1 0x40 MLOAD DUP1 SWAP2 SUB SWAP1 REVERT JUMPDEST DUP1 PUSH0 PUSH0 PUSH2 0x100 EXP DUP2 SLOAD DUP2 PUSH20 0xFFFFFFFFFFFFFFFFFFFFFFFFFFFFFFFFFFFFFFFF MUL NOT AND SWAP1 DUP4 PUSH20 0xFFFFFFFFFFFFFFFFFFFFFFFFFFFFFFFFFFFFFFFF AND MUL OR SWAP1 SSTORE POP POP JUMP JUMPDEST PUSH0 PUSH0 REVERT JUMPDEST PUSH0 PUSH20 0xFFFFFFFFFFFFFFFFFFFFFFFFFFFFFFFFFFFFFFFF DUP3 AND SWAP1 POP SWAP2 SWAP1 POP JUMP JUMPDEST PUSH0 PUSH2 0x8CE DUP3 PUSH2 0x8A5 JUMP JUMPDEST SWAP1 POP SWAP2 SWAP1 POP JUMP JUMPDEST PUSH2 0x8DE DUP2 PUSH2 0x8C4 JUMP JUMPDEST DUP2 EQ PUSH2 0x8E8 JUMPI PUSH0 PUSH0 REVERT JUMPDEST POP JUMP JUMPDEST PUSH0 DUP2 CALLDATALOAD SWAP1 POP PUSH2 0x8F9 DUP2 PUSH2 0x8D5 JUMP JUMPDEST SWAP3 SWAP2 POP POP JUMP JUMPDEST PUSH0 PUSH1 0x20 DUP3 DUP5 SUB SLT ISZERO PUSH2 0x914 JUMPI PUSH2 0x913 PUSH2 0x8A1 JUMP JUMPDEST JUMPDEST PUSH0 PUSH2 0x921 DUP5 DUP3 DUP6 ADD PUSH2 0x8EB JUMP JUMPDEST SWAP2 POP POP SWAP3 SWAP2 POP POP JUMP JUMPDEST PUSH0 DUP2 SWAP1 POP SWAP2 SWAP1 POP JUMP JUMPDEST PUSH2 0x93C DUP2 PUSH2 0x92A JUMP JUMPDEST DUP3 MSTORE POP POP JUMP JUMPDEST PUSH0 PUSH1 0x20 DUP3 ADD SWAP1 POP PUSH2 0x955 PUSH0 DUP4 ADD DUP5 PUSH2 0x933 JUMP JUMPDEST SWAP3 SWAP2 POP POP JUMP JUMPDEST PUSH2 0x964 DUP2 PUSH2 0x92A JUMP JUMPDEST DUP2 EQ PUSH2 0x96E JUMPI PUSH0 PUSH0 REVERT JUMPDEST POP JUMP JUMPDEST PUSH0 DUP2 CALLDATALOAD SWAP1 POP PUSH2 0x97F DUP2 PUSH2 0x95B JUMP JUMPDEST SWAP3 SWAP2 POP POP JUMP JUMPDEST PUSH0 PUSH1 0x20 DUP3 DUP5 SUB SLT ISZERO PUSH2 0x99A JUMPI PUSH2 0x999 PUSH2 0x8A1 JUMP JUMPDEST JUMPDEST PUSH0 PUSH2 0x9A7 DUP5 DUP3 DUP6 ADD PUSH2 0x971 JUMP JUMPDEST SWAP2 POP POP SWAP3 SWAP2 POP POP JUMP JUMPDEST PUSH0 PUSH0 PUSH0 PUSH1 0x60 DUP5 DUP7 SUB SLT ISZERO PUSH2 0x9C7 JUMPI PUSH2 0x9C6 PUSH2 0x8A1 JUMP JUMPDEST JUMPDEST PUSH0 PUSH2 0x9D4 DUP7 DUP3 DUP8 ADD PUSH2 0x8EB JUMP JUMPDEST SWAP4 POP POP PUSH1 0x20 PUSH2 0x9E5 DUP7 DUP3 DUP8 ADD PUSH2 0x8EB JUMP JUMPDEST SWAP3 POP POP PUSH1 0x40 PUSH2 0x9F6 DUP7 DUP3 DUP8 ADD PUSH2 0x971 JUMP JUMPDEST SWAP2 POP POP SWAP3 POP SWAP3 POP SWAP3 JUMP JUMPDEST PUSH0 DUP2 ISZERO ISZERO SWAP1 POP SWAP2 SWAP1 POP JUMP JUMPDEST PUSH2 0xA14 DUP2 PUSH2 0xA00 JUMP JUMPDEST DUP3 MSTORE POP POP JUMP JUMPDEST PUSH0 PUSH1 0x20 DUP3 ADD SWAP1 POP PUSH2 0xA2D PUSH0 DUP4 ADD DUP5 PUSH2 0xA0B JUMP JUMPDEST SWAP3 SWAP2 POP POP JUMP JUMPDEST PUSH2 0xA3C DUP2 PUSH2 0x8C4 JUMP JUMPDEST DUP3 MSTORE POP POP JUMP JUMPDEST PUSH0 PUSH1 0x20 DUP3 ADD SWAP1 POP PUSH2 0xA55 PUSH0 DUP4 ADD DUP5 PUSH2 0xA33 JUMP JUMPDEST SWAP3 SWAP2 POP POP JUMP JUMPDEST PUSH0 DUP3 DUP3 MSTORE PUSH1 0x20 DUP3 ADD SWAP1 POP SWAP3 SWAP2 POP POP JUMP JUMPDEST PUSH32 0x416D6F756E74206D7573742062652067726561746572207468616E2030000000 PUSH0 DUP3 ADD MSTORE POP JUMP JUMPDEST PUSH0 PUSH2 0xA9F PUSH1 0x1D DUP4 PUSH2 0xA5B JUMP JUMPDEST SWAP2 POP PUSH2 0xAAA DUP3 PUSH2 0xA6B JUMP JUMPDEST PUSH1 0x20 DUP3 ADD SWAP1 POP SWAP2 SWAP1 POP JUMP JUMPDEST PUSH0 PUSH1 0x20 DUP3 ADD SWAP1 POP DUP2 DUP2 SUB PUSH0 DUP4 ADD MSTORE PUSH2 0xACC DUP2 PUSH2 0xA93 JUMP JUMPDEST SWAP1 POP SWAP2 SWAP1 POP JUMP JUMPDEST PUSH32 0x4E487B7100000000000000000000000000000000000000000000000000000000 PUSH0 MSTORE PUSH1 0x11 PUSH1 0x4 MSTORE PUSH1 0x24 PUSH0 REVERT JUMPDEST PUSH0 PUSH2 0xB0A DUP3 PUSH2 0x92A JUMP JUMPDEST SWAP2 POP PUSH2 0xB15 DUP4 PUSH2 0x92A JUMP JUMPDEST SWAP3 POP DUP3 DUP3 SUB SWAP1 POP DUP2 DUP2 GT ISZERO PUSH2 0xB2D JUMPI PUSH2 0xB2C PUSH2 0xAD3 JUMP JUMPDEST JUMPDEST SWAP3 SWAP2 POP POP JUMP JUMPDEST PUSH0 PUSH1 0x40 DUP3 ADD SWAP1 POP PUSH2 0xB46 PUSH0 DUP4 ADD DUP6 PUSH2 0xA33 JUMP JUMPDEST PUSH2 0xB53 PUSH1 0x20 DUP4 ADD DUP5 PUSH2 0x933 JUMP JUMPDEST SWAP4 SWAP3 POP POP POP JUMP JUMPDEST PUSH2 0xB63 DUP2 PUSH2 0xA00 JUMP JUMPDEST DUP2 EQ PUSH2 0xB6D JUMPI PUSH0 PUSH0 REVERT JUMPDEST POP JUMP JUMPDEST PUSH0 DUP2 MLOAD SWAP1 POP PUSH2 0xB7E DUP2 PUSH2 0xB5A JUMP JUMPDEST SWAP3 SWAP2 POP POP JUMP JUMPDEST PUSH0 PUSH1 0x20 DUP3 DUP5 SUB SLT ISZERO PUSH2 0xB99 JUMPI PUSH2 0xB98 PUSH2 0x8A1 JUMP JUMPDEST JUMPDEST PUSH0 PUSH2 0xBA6 DUP5 DUP3 DUP6 ADD PUSH2 0xB70 JUMP JUMPDEST SWAP2 POP POP SWAP3 SWAP2 POP POP JUMP JUMPDEST PUSH32 0x746F6B656E207472616E73666572206661696C65640000000000000000000000 PUSH0 DUP3 ADD MSTORE POP JUMP JUMPDEST PUSH0 PUSH2 0xBE3 PUSH1 0x15 DUP4 PUSH2 0xA5B JUMP JUMPDEST SWAP2 POP PUSH2 0xBEE DUP3 PUSH2 0xBAF JUMP JUMPDEST PUSH1 0x20 DUP3 ADD SWAP1 POP SWAP2 SWAP1 POP JUMP JUMPDEST PUSH0 PUSH1 0x20 DUP3 ADD SWAP1 POP DUP2 DUP2 SUB PUSH0 DUP4 ADD MSTORE PUSH2 0xC10 DUP2 PUSH2 0xBD7 JUMP JUMPDEST SWAP1 POP SWAP2 SWAP1 POP JUMP JUMPDEST PUSH32 0x4F6E6C7920746F6B656E20636F6E74726163742063616E2063616C6C20746869 PUSH0 DUP3 ADD MSTORE PUSH32 0x73206D6574686F64000000000000000000000000000000000000000000000000 PUSH1 0x20 DUP3 ADD MSTORE POP JUMP JUMPDEST PUSH0 PUSH2 0xC71 PUSH1 0x28 DUP4 PUSH2 0xA5B JUMP JUMPDEST SWAP2 POP PUSH2 0xC7C DUP3 PUSH2 0xC17 JUMP JUMPDEST PUSH1 0x40 DUP3 ADD SWAP1 POP SWAP2 SWAP1 POP JUMP JUMPDEST PUSH0 PUSH1 0x20 DUP3 ADD SWAP1 POP DUP2 DUP2 SUB PUSH0 DUP4 ADD MSTORE PUSH2 0xC9E DUP2 PUSH2 0xC65 JUMP JUMPDEST SWAP1 POP SWAP2 SWAP1 POP JUMP JUMPDEST PUSH0 PUSH2 0xCAF DUP3 PUSH2 0x92A JUMP JUMPDEST SWAP2 POP PUSH2 0xCBA DUP4 PUSH2 0x92A JUMP JUMPDEST SWAP3 POP DUP3 DUP3 ADD SWAP1 POP DUP1 DUP3 GT ISZERO PUSH2 0xCD2 JUMPI PUSH2 0xCD1 PUSH2 0xAD3 JUMP JUMPDEST JUMPDEST SWAP3 SWAP2 POP POP JUMP JUMPDEST PUSH0 PUSH1 0x60 DUP3 ADD SWAP1 POP PUSH2 0xCEB PUSH0 DUP4 ADD DUP7 PUSH2 0xA33 JUMP JUMPDEST PUSH2 0xCF8 PUSH1 0x20 DUP4 ADD DUP6 PUSH2 0xA33 JUMP JUMPDEST PUSH2 0xD05 PUSH1 0x40 DUP4 ADD DUP5 PUSH2 0x933 JUMP JUMPDEST SWAP5 SWAP4 POP POP POP POP JUMP JUMPDEST PUSH32 0x4F6E6C79206D756C74697369672063616E2063616C6C00000000000000000000 PUSH0 DUP3 ADD MSTORE POP JUMP JUMPDEST PUSH0 PUSH2 0xD41 PUSH1 0x16 DUP4 PUSH2 0xA5B JUMP JUMPDEST SWAP2 POP PUSH2 0xD4C DUP3 PUSH2 0xD0D JUMP JUMPDEST PUSH1 0x20 DUP3 ADD SWAP1 POP SWAP2 SWAP1 POP JUMP JUMPDEST PUSH0 PUSH1 0x20 DUP3 ADD SWAP1 POP DUP2 DUP2 SUB PUSH0 DUP4 ADD MSTORE PUSH2 0xD6E DUP2 PUSH2 0xD35 JUMP JUMPDEST SWAP1 POP SWAP2 SWAP1 POP JUMP JUMPDEST PUSH32 0x496E76616C6964206D756C746973696720616464726573730000000000000000 PUSH0 DUP3 ADD MSTORE POP JUMP JUMPDEST PUSH0 PUSH2 0xDA9 PUSH1 0x18 DUP4 PUSH2 0xA5B JUMP JUMPDEST SWAP2 POP PUSH2 0xDB4 DUP3 PUSH2 0xD75 JUMP JUMPDEST PUSH1 0x20 DUP3 ADD SWAP1 POP SWAP2 SWAP1 POP JUMP JUMPDEST PUSH0 PUSH1 0x20 DUP3 ADD SWAP1 POP DUP2 DUP2 SUB PUSH0 DUP4 ADD MSTORE PUSH2 0xDD6 DUP2 PUSH2 0xD9D JUMP JUMPDEST SWAP1 POP SWAP2 SWAP1 POP JUMP JUMPDEST PUSH32 0x4E6577206D756C7469736967206D75737420626520646966666572656E740000 PUSH0 DUP3 ADD MSTORE POP JUMP JUMPDEST PUSH0 PUSH2 0xE11 PUSH1 0x1E DUP4 PUSH2 0xA5B JUMP JUMPDEST SWAP2 POP PUSH2 0xE1C DUP3 PUSH2 0xDDD JUMP JUMPDEST PUSH1 0x20 DUP3 ADD SWAP1 POP SWAP2 SWAP1 POP JUMP JUMPDEST PUSH0 PUSH1 0x20 DUP3 ADD SWAP1 POP DUP2 DUP2 SUB PUSH0 DUP4 ADD MSTORE PUSH2 0xE3E DUP2 PUSH2 0xE05 JUMP JUMPDEST SWAP1 POP SWAP2 SWAP1 POP JUMP INVALID LOG2 PUSH5 0x6970667358 0x22 SLT KECCAK256 SWAP8 PUSH13 0x167316D8DF3A658F64DB702443 SHR LOG0 0xAE 0xD8 0xC3 ADD 0x27 SWAP11 0xC1 DUP7 MLOAD 0xCC 0x29 CALLF 0x65B 0xD PUSH5 0x736F6C6343 STOP ADDMOD 0x1E STOP CALLER "
				},
				"gasEstimates": {
					"creation": {
						"codeDepositCost": "741400",
						"executionCost": "infinite",
						"totalCost": "infinite"
					},
					"external": {
						"balances(address)": "2803",
						"deposit(uint256)": "infinite",
						"getOwner()": "2514",
						"owner()": "2529",
						"setAdminSender(address)": "29151",
						"tokenReceived(address,address,uint256)": "infinite",
						"withdraw(uint256)": "infinite"
					}
				},
				"methodIdentifiers": {
					"balances(address)": "27e235e3",
					"deposit(uint256)": "b6b55f25",
					"getOwner()": "893d20e8",
					"owner()": "8da5cb5b",
					"setAdminSender(address)": "d83f9a67",
					"tokenReceived(address,address,uint256)": "675de6b5",
					"withdraw(uint256)": "2e1a7d4d"
				}
			},
			"storageLayout": {
				"storage": [
					{
						"astId": 381,
						"contract": "day06/TokenBankV2.sol:TokenBankV2",
						"label": "owner",
						"offset": 0,
						"slot": "0",
						"type": "t_address"
					},
					{
						"astId": 384,
						"contract": "day06/TokenBankV2.sol:TokenBankV2",
						"label": "token",
						"offset": 0,
						"slot": "1",
						"type": "t_contract(IERC20)690"
					},
					{
						"astId": 388,
						"contract": "day06/TokenBankV2.sol:TokenBankV2",
						"label": "balances",
						"offset": 0,
						"slot": "2",
						"type": "t_mapping(t_address,t_uint256)"
					}
				],
				"types": {
					"t_address": {
						"encoding": "inplace",
						"label": "address",
						"numberOfBytes": "20"
					},
					"t_contract(IERC20)690": {
						"encoding": "inplace",
						"label": "contract IERC20",
						"numberOfBytes": "20"
					},
					"t_mapping(t_address,t_uint256)": {
						"encoding": "mapping",
						"key": "t_address",
						"label": "mapping(address => uint256)",
						"numberOfBytes": "32",
						"value": "t_uint256"
					},
					"t_uint256": {
						"encoding": "inplace",
						"label": "uint256",
						"numberOfBytes": "32"
					}
				}
			},
			"userdoc": {
				"kind": "user",
				"methods": {},
				"version": 1
			}
		}
	}
}