{
	"day13/TokenBankV2621.sol": {
		"TokenBankV2": {
			"abi": [
				{
					"inputs": [
						{
							"internalType": "address",
							"name": "_tokenAddress",
							"type": "address"
						}
					],
					"stateMutability": "nonpayable",
					"type": "constructor"
				},
				{
					"anonymous": false,
					"inputs": [
						{
							"indexed": true,
							"internalType": "address",
							"name": "user",
							"type": "address"
						},
						{
							"indexed": false,
							"internalType": "uint256",
							"name": "amount",
							"type": "uint256"
						}
					],
					"name": "Deposit",
					"type": "event"
				},
				{
					"anonymous": false,
					"inputs": [
						{
							"indexed": true,
							"internalType": "address",
							"name": "previousMultisig",
							"type": "address"
						},
						{
							"indexed": true,
							"internalType": "address",
							"name": "newMultisig",
							"type": "address"
						}
					],
					"name": "MultisigTransferred",
					"type": "event"
				},
				{
					"anonymous": false,
					"inputs": [
						{
							"indexed": true,
							"internalType": "address",
							"name": "user",
							"type": "address"
						},
						{
							"indexed": false,
							"internalType": "uint256",
							"name": "amount",
							"type": "uint256"
						}
					],
					"name": "PermitDeposit",
					"type": "event"
				},
				{
					"anonymous": false,
					"inputs": [
						{
							"indexed": true,
							"internalType": "address",
							"name": "user",
							"type": "address"
						},
						{
							"indexed": false,
							"internalType": "uint256",
							"name": "amount",
							"type": "uint256"
						}
					],
					"name": "Withdraw",
					"type": "event"
				},
				{
					"inputs": [
						{
							"internalType": "address",
							"name": "",
							"type": "address"
						}
					],
					"name": "balances",
					"outputs": [
						{
							"internalType": "uint256",
							"name": "",
							"type": "uint256"
						}
					],
					"stateMutability": "view",
					"type": "function"
				},
				{
					"inputs": [
						{
							"internalType": "uint256",
							"name": "value",
							"type": "uint256"
						}
					],
					"name": "deposit",
					"outputs": [],
					"stateMutability": "nonpayable",
					"type": "function"
				},
				{
					"inputs": [],
					"name": "getBankTokenBalance",
					"outputs": [
						{
							"internalType": "uint256",
							"name": "",
							"type": "uint256"
						}
					],
					"stateMutability": "view",
					"type": "function"
				},
				{
					"inputs": [],
					"name": "getOwner",
					"outputs": [
						{
							"internalType": "address",
							"name": "",
							"type": "address"
						}
					],
					"stateMutability": "view",
					"type": "function"
				},
				{
					"inputs": [
						{
							"internalType": "address",
							"name": "user",
							"type": "address"
						}
					],
					"name": "getTokenNonce",
					"outputs": [
						{
							"internalType": "uint256",
							"name": "",
							"type": "uint256"
						}
					],
					"stateMutability": "view",
					"type": "function"
				},
				{
					"inputs": [
						{
							"internalType": "address",
							"name": "user",
							"type": "address"
						}
					],
					"name": "getUserBalances",
					"outputs": [
						{
							"internalType": "uint256",
							"name": "bankBalance",
							"type": "uint256"
						},
						{
							"internalType": "uint256",
							"name": "tokenBalance",
							"type": "uint256"
						}
					],
					"stateMutability": "view",
					"type": "function"
				},
				{
					"inputs": [],
					"name": "owner",
					"outputs": [
						{
							"internalType": "address",
							"name": "",
							"type": "address"
						}
					],
					"stateMutability": "view",
					"type": "function"
				},
				{
					"inputs": [
						{
							"internalType": "uint256",
							"name": "value",
							"type": "uint256"
						},
						{
							"internalType": "uint256",
							"name": "deadline",
							"type": "uint256"
						},
						{
							"internalType": "uint8",
							"name": "v",
							"type": "uint8"
						},
						{
							"internalType": "bytes32",
							"name": "r",
							"type": "bytes32"
						},
						{
							"internalType": "bytes32",
							"name": "s",
							"type": "bytes32"
						}
					],
					"name": "permitDeposit",
					"outputs": [],
					"stateMutability": "nonpayable",
					"type": "function"
				},
				{
					"inputs": [
						{
							"internalType": "uint256",
							"name": "value",
							"type": "uint256"
						},
						{
							"internalType": "uint256",
							"name": "deadline",
							"type": "uint256"
						},
						{
							"internalType": "uint8",
							"name": "v",
							"type": "uint8"
						},
						{
							"internalType": "bytes32",
							"name": "r",
							"type": "bytes32"
						},
						{
							"internalType": "bytes32",
							"name": "s",
							"type": "bytes32"
						},
						{
							"internalType": "address",
							"name": "callbackTo",
							"type": "address"
						},
						{
							"internalType": "bytes",
							"name": "callbackData",
							"type": "bytes"
						}
					],
					"name": "permitDepositWithCallback",
					"outputs": [],
					"stateMutability": "nonpayable",
					"type": "function"
				},
				{
					"inputs": [
						{
							"internalType": "address",
							"name": "newAdmin",
							"type": "address"
						}
					],
					"name": "setAdminSender",
					"outputs": [],
					"stateMutability": "nonpayable",
					"type": "function"
				},
				{
					"inputs": [],
					"name": "token",
					"outputs": [
						{
							"internalType": "contract IERC20",
							"name": "",
							"type": "address"
						}
					],
					"stateMutability": "view",
					"type": "function"
				},
				{
					"inputs": [
						{
							"internalType": "address",
							"name": "_from",
							"type": "address"
						},
						{
							"internalType": "address",
							"name": "_to",
							"type": "address"
						},
						{
							"internalType": "uint256",
							"name": "value",
							"type": "uint256"
						}
					],
					"name": "tokenReceived",
					"outputs": [
						{
							"internalType": "bool",
							"name": "",
							"type": "bool"
						}
					],
					"stateMutability": "nonpayable",
					"type": "function"
				},
				{
					"inputs": [
						{
							"internalType": "uint256",
							"name": "value",
							"type": "uint256"
						}
					],
					"name": "withdraw",
					"outputs": [],
					"stateMutability": "nonpayable",
					"type": "function"
				}
			],
			"devdoc": {
				"kind": "dev",
				"methods": {},
				"version": 1
			},
			"evm": {
				"assembly": "    /* \"day13/TokenBankV2621.sol\":4732:5946  contract TokenBankV2 is TokenBank {... */\n  mstore(0x40, 0x80)\n    /* \"day13/TokenBankV2621.sol\":4773:4835  constructor(address _tokenAddress) TokenBank(_tokenAddress) {} */\n  callvalue\n  dup1\n  iszero\n  tag_1\n  jumpi\n  revert(0x00, 0x00)\ntag_1:\n  pop\n  mload(0x40)\n  sub(codesize, bytecodeSize)\n  dup1\n  bytecodeSize\n  dup4\n  codecopy\n  dup2\n  dup2\n  add\n  0x40\n  mstore\n  dup2\n  add\n  swap1\n  tag_2\n  swap2\n  swap1\n  tag_3\n  jump\t// in\ntag_2:\n    /* \"day13/TokenBankV2621.sol\":4818:4831  _tokenAddress */\n  dup1\n    /* \"day13/TokenBankV2621.sol\":978:990  tokenAddress */\n  dup1\n    /* \"day13/TokenBankV2621.sol\":963:968  token */\n  0x01\n  0x00\n    /* \"day13/TokenBankV2621.sol\":963:991  token = IERC20(tokenAddress) */\n  0x0100\n  exp\n  dup2\n  sload\n  dup2\n  0xffffffffffffffffffffffffffffffffffffffff\n  mul\n  not\n  and\n  swap1\n  dup4\n  0xffffffffffffffffffffffffffffffffffffffff\n  and\n  mul\n  or\n  swap1\n  sstore\n  pop\n    /* \"day13/TokenBankV2621.sol\":1010:1020  msg.sender */\n  caller\n    /* \"day13/TokenBankV2621.sol\":1002:1007  owner */\n  0x00\n  0x00\n    /* \"day13/TokenBankV2621.sol\":1002:1020  owner = msg.sender */\n  0x0100\n  exp\n  dup2\n  sload\n  dup2\n  0xffffffffffffffffffffffffffffffffffffffff\n  mul\n  not\n  and\n  swap1\n  dup4\n  0xffffffffffffffffffffffffffffffffffffffff\n  and\n  mul\n  or\n  swap1\n  sstore\n  pop\n    /* \"day13/TokenBankV2621.sol\":918:1028  constructor(address tokenAddress) {... */\n  pop\n    /* \"day13/TokenBankV2621.sol\":4773:4835  constructor(address _tokenAddress) TokenBank(_tokenAddress) {} */\n  pop\n    /* \"day13/TokenBankV2621.sol\":4732:5946  contract TokenBankV2 is TokenBank {... */\n  jump(tag_8)\n    /* \"#utility.yul\":88:205   */\ntag_10:\n    /* \"#utility.yul\":197:198   */\n  0x00\n    /* \"#utility.yul\":194:195   */\n  0x00\n    /* \"#utility.yul\":187:199   */\n  revert\n    /* \"#utility.yul\":334:460   */\ntag_12:\n    /* \"#utility.yul\":371:378   */\n  0x00\n    /* \"#utility.yul\":411:453   */\n  0xffffffffffffffffffffffffffffffffffffffff\n    /* \"#utility.yul\":404:409   */\n  dup3\n    /* \"#utility.yul\":400:454   */\n  and\n    /* \"#utility.yul\":389:454   */\n  swap1\n  pop\n    /* \"#utility.yul\":334:460   */\n  swap2\n  swap1\n  pop\n  jump\t// out\n    /* \"#utility.yul\":466:562   */\ntag_13:\n    /* \"#utility.yul\":503:510   */\n  0x00\n    /* \"#utility.yul\":532:556   */\n  tag_22\n    /* \"#utility.yul\":550:555   */\n  dup3\n    /* \"#utility.yul\":532:556   */\n  tag_12\n  jump\t// in\ntag_22:\n    /* \"#utility.yul\":521:556   */\n  swap1\n  pop\n    /* \"#utility.yul\":466:562   */\n  swap2\n  swap1\n  pop\n  jump\t// out\n    /* \"#utility.yul\":568:690   */\ntag_14:\n    /* \"#utility.yul\":641:665   */\n  tag_24\n    /* \"#utility.yul\":659:664   */\n  dup2\n    /* \"#utility.yul\":641:665   */\n  tag_13\n  jump\t// in\ntag_24:\n    /* \"#utility.yul\":634:639   */\n  dup2\n    /* \"#utility.yul\":631:666   */\n  eq\n    /* \"#utility.yul\":621:684   */\n  tag_25\n  jumpi\n    /* \"#utility.yul\":680:681   */\n  0x00\n    /* \"#utility.yul\":677:678   */\n  0x00\n    /* \"#utility.yul\":670:682   */\n  revert\n    /* \"#utility.yul\":621:684   */\ntag_25:\n    /* \"#utility.yul\":568:690   */\n  pop\n  jump\t// out\n    /* \"#utility.yul\":696:839   */\ntag_15:\n    /* \"#utility.yul\":753:758   */\n  0x00\n    /* \"#utility.yul\":784:790   */\n  dup2\n    /* \"#utility.yul\":778:791   */\n  mload\n    /* \"#utility.yul\":769:791   */\n  swap1\n  pop\n    /* \"#utility.yul\":800:833   */\n  tag_27\n    /* \"#utility.yul\":827:832   */\n  dup2\n    /* \"#utility.yul\":800:833   */\n  tag_14\n  jump\t// in\ntag_27:\n    /* \"#utility.yul\":696:839   */\n  swap3\n  swap2\n  pop\n  pop\n  jump\t// out\n    /* \"#utility.yul\":845:1196   */\ntag_3:\n    /* \"#utility.yul\":915:921   */\n  0x00\n    /* \"#utility.yul\":964:966   */\n  0x20\n    /* \"#utility.yul\":952:961   */\n  dup3\n    /* \"#utility.yul\":943:950   */\n  dup5\n    /* \"#utility.yul\":939:962   */\n  sub\n    /* \"#utility.yul\":935:967   */\n  slt\n    /* \"#utility.yul\":932:1051   */\n  iszero\n  tag_29\n  jumpi\n    /* \"#utility.yul\":970:1049   */\n  tag_30\n  tag_10\n  jump\t// in\ntag_30:\n    /* \"#utility.yul\":932:1051   */\ntag_29:\n    /* \"#utility.yul\":1090:1091   */\n  0x00\n    /* \"#utility.yul\":1115:1179   */\n  tag_31\n    /* \"#utility.yul\":1171:1178   */\n  dup5\n    /* \"#utility.yul\":1162:1168   */\n  dup3\n    /* \"#utility.yul\":1151:1160   */\n  dup6\n    /* \"#utility.yul\":1147:1169   */\n  add\n    /* \"#utility.yul\":1115:1179   */\n  tag_15\n  jump\t// in\ntag_31:\n    /* \"#utility.yul\":1105:1179   */\n  swap2\n  pop\n    /* \"#utility.yul\":1061:1189   */\n  pop\n    /* \"#utility.yul\":845:1196   */\n  swap3\n  swap2\n  pop\n  pop\n  jump\t// out\n    /* \"day13/TokenBankV2621.sol\":4732:5946  contract TokenBankV2 is TokenBank {... */\ntag_8:\n  dataSize(sub_0)\n  dup1\n  dataOffset(sub_0)\n  0x00\n  codecopy\n  0x00\n  return\nstop\n\nsub_0: assembly {\n        /* \"day13/TokenBankV2621.sol\":4732:5946  contract TokenBankV2 is TokenBank {... */\n      mstore(0x40, 0x80)\n      callvalue\n      dup1\n      iszero\n      tag_1\n      jumpi\n      revert(0x00, 0x00)\n    tag_1:\n      pop\n      jumpi(tag_2, lt(calldatasize, 0x04))\n      shr(0xe0, calldataload(0x00))\n      dup1\n      0x9f15e882\n      gt\n      tag_16\n      jumpi\n      dup1\n      0xce84daad\n      gt\n      tag_17\n      jumpi\n      dup1\n      0xce84daad\n      eq\n      tag_12\n      jumpi\n      dup1\n      0xd83f9a67\n      eq\n      tag_13\n      jumpi\n      dup1\n      0xea5416a5\n      eq\n      tag_14\n      jumpi\n      dup1\n      0xfc0c546a\n      eq\n      tag_15\n      jumpi\n      jump(tag_2)\n    tag_17:\n      dup1\n      0x9f15e882\n      eq\n      tag_9\n      jumpi\n      dup1\n      0xabd3f612\n      eq\n      tag_10\n      jumpi\n      dup1\n      0xb6b55f25\n      eq\n      tag_11\n      jumpi\n      jump(tag_2)\n    tag_16:\n      dup1\n      0x27e235e3\n      eq\n      tag_3\n      jumpi\n      dup1\n      0x2e1a7d4d\n      eq\n      tag_4\n      jumpi\n      dup1\n      0x624741c0\n      eq\n      tag_5\n      jumpi\n      dup1\n      0x675de6b5\n      eq\n      tag_6\n      jumpi\n      dup1\n      0x893d20e8\n      eq\n      tag_7\n      jumpi\n      dup1\n      0x8da5cb5b\n      eq\n      tag_8\n      jumpi\n    tag_2:\n      revert(0x00, 0x00)\n        /* \"day13/TokenBankV2621.sol\":588:631  mapping(address => uint256) public balances */\n    tag_3:\n      tag_18\n      0x04\n      dup1\n      calldatasize\n      sub\n      dup2\n      add\n      swap1\n      tag_19\n      swap2\n      swap1\n      tag_20\n      jump\t// in\n    tag_19:\n      tag_21\n      jump\t// in\n    tag_18:\n      mload(0x40)\n      tag_22\n      swap2\n      swap1\n      tag_23\n      jump\t// in\n    tag_22:\n      mload(0x40)\n      dup1\n      swap2\n      sub\n      swap1\n      return\n        /* \"day13/TokenBankV2621.sol\":3607:3996  function withdraw(uint256 value) public {... */\n    tag_4:\n      tag_24\n      0x04\n      dup1\n      calldatasize\n      sub\n      dup2\n      add\n      swap1\n      tag_25\n      swap2\n      swap1\n      tag_26\n      jump\t// in\n    tag_25:\n      tag_27\n      jump\t// in\n    tag_24:\n      stop\n        /* \"day13/TokenBankV2621.sol\":4274:4393  function getBankTokenBalance() external view returns (uint256) {... */\n    tag_5:\n      tag_28\n      tag_29\n      jump\t// in\n    tag_28:\n      mload(0x40)\n      tag_30\n      swap2\n      swap1\n      tag_23\n      jump\t// in\n    tag_30:\n      mload(0x40)\n      dup1\n      swap2\n      sub\n      swap1\n      return\n        /* \"day13/TokenBankV2621.sol\":4870:5216  function tokenReceived(address _from, address _to, uint256 value) external returns(bool) {... */\n    tag_6:\n      tag_31\n      0x04\n      dup1\n      calldatasize\n      sub\n      dup2\n      add\n      swap1\n      tag_32\n      swap2\n      swap1\n      tag_33\n      jump\t// in\n    tag_32:\n      tag_34\n      jump\t// in\n    tag_31:\n      mload(0x40)\n      tag_35\n      swap2\n      swap1\n      tag_36\n      jump\t// in\n    tag_35:\n      mload(0x40)\n      dup1\n      swap2\n      sub\n      swap1\n      return\n        /* \"day13/TokenBankV2621.sol\":1153:1236  function getOwner() external view returns (address) {... */\n    tag_7:\n      tag_37\n      tag_38\n      jump\t// in\n    tag_37:\n      mload(0x40)\n      tag_39\n      swap2\n      swap1\n      tag_40\n      jump\t// in\n    tag_39:\n      mload(0x40)\n      dup1\n      swap2\n      sub\n      swap1\n      return\n        /* \"day13/TokenBankV2621.sol\":529:549  address public owner */\n    tag_8:\n      tag_41\n      tag_42\n      jump\t// in\n    tag_41:\n      mload(0x40)\n      tag_43\n      swap2\n      swap1\n      tag_40\n      jump\t// in\n    tag_43:\n      mload(0x40)\n      dup1\n      swap2\n      sub\n      swap1\n      return\n        /* \"day13/TokenBankV2621.sol\":2449:3599  function permitDepositWithCallback(... */\n    tag_9:\n      tag_44\n      0x04\n      dup1\n      calldatasize\n      sub\n      dup2\n      add\n      swap1\n      tag_45\n      swap2\n      swap1\n      tag_46\n      jump\t// in\n    tag_45:\n      tag_47\n      jump\t// in\n    tag_44:\n      stop\n        /* \"day13/TokenBankV2621.sol\":4467:4666  function getUserBalances(address user) external view returns (uint256 bankBalance, uint256 tokenBalance) {... */\n    tag_10:\n      tag_48\n      0x04\n      dup1\n      calldatasize\n      sub\n      dup2\n      add\n      swap1\n      tag_49\n      swap2\n      swap1\n      tag_20\n      jump\t// in\n    tag_49:\n      tag_50\n      jump\t// in\n    tag_48:\n      mload(0x40)\n      tag_51\n      swap3\n      swap2\n      swap1\n      tag_52\n      jump\t// in\n    tag_51:\n      mload(0x40)\n      dup1\n      swap2\n      sub\n      swap1\n      return\n        /* \"day13/TokenBankV2621.sol\":5269:5943  function deposit(uint256 value) public  {... */\n    tag_11:\n      tag_53\n      0x04\n      dup1\n      calldatasize\n      sub\n      dup2\n      add\n      swap1\n      tag_54\n      swap2\n      swap1\n      tag_26\n      jump\t// in\n    tag_54:\n      tag_55\n      jump\t// in\n    tag_53:\n      stop\n        /* \"day13/TokenBankV2621.sol\":1563:2385  function permitDeposit(... */\n    tag_12:\n      tag_56\n      0x04\n      dup1\n      calldatasize\n      sub\n      dup2\n      add\n      swap1\n      tag_57\n      swap2\n      swap1\n      tag_58\n      jump\t// in\n    tag_57:\n      tag_59\n      jump\t// in\n    tag_56:\n      stop\n        /* \"day13/TokenBankV2621.sol\":1244:1494  function setAdminSender(address newAdmin) external onlyMultisig {... */\n    tag_13:\n      tag_60\n      0x04\n      dup1\n      calldatasize\n      sub\n      dup2\n      add\n      swap1\n      tag_61\n      swap2\n      swap1\n      tag_20\n      jump\t// in\n    tag_61:\n      tag_62\n      jump\t// in\n    tag_60:\n      stop\n        /* \"day13/TokenBankV2621.sol\":4073:4209  function getTokenNonce(address user) external view returns (uint256) {... */\n    tag_14:\n      tag_63\n      0x04\n      dup1\n      calldatasize\n      sub\n      dup2\n      add\n      swap1\n      tag_64\n      swap2\n      swap1\n      tag_20\n      jump\t// in\n    tag_64:\n      tag_65\n      jump\t// in\n    tag_63:\n      mload(0x40)\n      tag_66\n      swap2\n      swap1\n      tag_23\n      jump\t// in\n    tag_66:\n      mload(0x40)\n      dup1\n      swap2\n      sub\n      swap1\n      return\n        /* \"day13/TokenBankV2621.sol\":556:575  IERC20 public token */\n    tag_15:\n      tag_67\n      tag_68\n      jump\t// in\n    tag_67:\n      mload(0x40)\n      tag_69\n      swap2\n      swap1\n      tag_70\n      jump\t// in\n    tag_69:\n      mload(0x40)\n      dup1\n      swap2\n      sub\n      swap1\n      return\n        /* \"day13/TokenBankV2621.sol\":588:631  mapping(address => uint256) public balances */\n    tag_21:\n      mstore(0x20, 0x02)\n      dup1\n      0x00\n      mstore\n      keccak256(0x00, 0x40)\n      0x00\n      swap2\n      pop\n      swap1\n      pop\n      sload\n      dup2\n      jump\t// out\n        /* \"day13/TokenBankV2621.sol\":3607:3996  function withdraw(uint256 value) public {... */\n    tag_27:\n        /* \"day13/TokenBankV2621.sol\":3674:3675  0 */\n      0x00\n        /* \"day13/TokenBankV2621.sol\":3666:3671  value */\n      dup2\n        /* \"day13/TokenBankV2621.sol\":3666:3675  value > 0 */\n      gt\n        /* \"day13/TokenBankV2621.sol\":3658:3709  require(value > 0, \"Amount must be greater than 0\") */\n      tag_72\n      jumpi\n      mload(0x40)\n      0x08c379a000000000000000000000000000000000000000000000000000000000\n      dup2\n      mstore\n      0x04\n      add\n      tag_73\n      swap1\n      tag_74\n      jump\t// in\n    tag_73:\n      mload(0x40)\n      dup1\n      swap2\n      sub\n      swap1\n      revert\n    tag_72:\n        /* \"day13/TokenBankV2621.sol\":3752:3757  value */\n      dup1\n        /* \"day13/TokenBankV2621.sol\":3728:3736  balances */\n      0x02\n        /* \"day13/TokenBankV2621.sol\":3728:3748  balances[msg.sender] */\n      0x00\n        /* \"day13/TokenBankV2621.sol\":3737:3747  msg.sender */\n      caller\n        /* \"day13/TokenBankV2621.sol\":3728:3748  balances[msg.sender] */\n      0xffffffffffffffffffffffffffffffffffffffff\n      and\n      0xffffffffffffffffffffffffffffffffffffffff\n      and\n      dup2\n      mstore\n      0x20\n      add\n      swap1\n      dup2\n      mstore\n      0x20\n      add\n      0x00\n      keccak256\n      sload\n        /* \"day13/TokenBankV2621.sol\":3728:3757  balances[msg.sender] >= value */\n      lt\n      iszero\n        /* \"day13/TokenBankV2621.sol\":3720:3782  require(balances[msg.sender] >= value, \"Insufficient balance\") */\n      tag_75\n      jumpi\n      mload(0x40)\n      0x08c379a000000000000000000000000000000000000000000000000000000000\n      dup2\n      mstore\n      0x04\n      add\n      tag_76\n      swap1\n      tag_77\n      jump\t// in\n    tag_76:\n      mload(0x40)\n      dup1\n      swap2\n      sub\n      swap1\n      revert\n    tag_75:\n        /* \"day13/TokenBankV2621.sol\":3827:3832  value */\n      dup1\n        /* \"day13/TokenBankV2621.sol\":3803:3811  balances */\n      0x02\n        /* \"day13/TokenBankV2621.sol\":3803:3823  balances[msg.sender] */\n      0x00\n        /* \"day13/TokenBankV2621.sol\":3812:3822  msg.sender */\n      caller\n        /* \"day13/TokenBankV2621.sol\":3803:3823  balances[msg.sender] */\n      0xffffffffffffffffffffffffffffffffffffffff\n      and\n      0xffffffffffffffffffffffffffffffffffffffff\n      and\n      dup2\n      mstore\n      0x20\n      add\n      swap1\n      dup2\n      mstore\n      0x20\n      add\n      0x00\n      keccak256\n      0x00\n        /* \"day13/TokenBankV2621.sol\":3803:3832  balances[msg.sender] -= value */\n      dup3\n      dup3\n      sload\n      tag_78\n      swap2\n      swap1\n      tag_79\n      jump\t// in\n    tag_78:\n      swap3\n      pop\n      pop\n      dup2\n      swap1\n      sstore\n      pop\n        /* \"day13/TokenBankV2621.sol\":3843:3855  bool success */\n      0x00\n        /* \"day13/TokenBankV2621.sol\":3858:3863  token */\n      0x01\n      0x00\n      swap1\n      sload\n      swap1\n      0x0100\n      exp\n      swap1\n      div\n      0xffffffffffffffffffffffffffffffffffffffff\n      and\n        /* \"day13/TokenBankV2621.sol\":3858:3872  token.transfer */\n      0xffffffffffffffffffffffffffffffffffffffff\n      and\n      0xa9059cbb\n        /* \"day13/TokenBankV2621.sol\":3873:3883  msg.sender */\n      caller\n        /* \"day13/TokenBankV2621.sol\":3885:3890  value */\n      dup5\n        /* \"day13/TokenBankV2621.sol\":3858:3891  token.transfer(msg.sender, value) */\n      mload(0x40)\n      dup4\n      0xffffffff\n      and\n      0xe0\n      shl\n      dup2\n      mstore\n      0x04\n      add\n      tag_80\n      swap3\n      swap2\n      swap1\n      tag_81\n      jump\t// in\n    tag_80:\n      0x20\n      mload(0x40)\n      dup1\n      dup4\n      sub\n      dup2\n      0x00\n      dup8\n      gas\n      call\n      iszero\n      dup1\n      iszero\n      tag_83\n      jumpi\n      returndatacopy(0x00, 0x00, returndatasize)\n      revert(0x00, returndatasize)\n    tag_83:\n      pop\n      pop\n      pop\n      pop\n      mload(0x40)\n      returndatasize\n      not(0x1f)\n      0x1f\n      dup3\n      add\n      and\n      dup3\n      add\n      dup1\n      0x40\n      mstore\n      pop\n      dup2\n      add\n      swap1\n      tag_84\n      swap2\n      swap1\n      tag_85\n      jump\t// in\n    tag_84:\n        /* \"day13/TokenBankV2621.sol\":3843:3891  bool success = token.transfer(msg.sender, value) */\n      swap1\n      pop\n        /* \"day13/TokenBankV2621.sol\":3910:3917  success */\n      dup1\n        /* \"day13/TokenBankV2621.sol\":3902:3943  require(success, \"token transfer failed\") */\n      tag_86\n      jumpi\n      mload(0x40)\n      0x08c379a000000000000000000000000000000000000000000000000000000000\n      dup2\n      mstore\n      0x04\n      add\n      tag_87\n      swap1\n      tag_88\n      jump\t// in\n    tag_87:\n      mload(0x40)\n      dup1\n      swap2\n      sub\n      swap1\n      revert\n    tag_86:\n        /* \"day13/TokenBankV2621.sol\":3970:3980  msg.sender */\n      caller\n        /* \"day13/TokenBankV2621.sol\":3961:3988  Withdraw(msg.sender, value) */\n      0xffffffffffffffffffffffffffffffffffffffff\n      and\n      0x884edad9ce6fa2440d8a54cc123490eb96d2768479d49ff9c7366125a9424364\n        /* \"day13/TokenBankV2621.sol\":3982:3987  value */\n      dup4\n        /* \"day13/TokenBankV2621.sol\":3961:3988  Withdraw(msg.sender, value) */\n      mload(0x40)\n      tag_89\n      swap2\n      swap1\n      tag_23\n      jump\t// in\n    tag_89:\n      mload(0x40)\n      dup1\n      swap2\n      sub\n      swap1\n      log2\n        /* \"day13/TokenBankV2621.sol\":3647:3996  {... */\n      pop\n        /* \"day13/TokenBankV2621.sol\":3607:3996  function withdraw(uint256 value) public {... */\n      pop\n      jump\t// out\n        /* \"day13/TokenBankV2621.sol\":4274:4393  function getBankTokenBalance() external view returns (uint256) {... */\n    tag_29:\n        /* \"day13/TokenBankV2621.sol\":4328:4335  uint256 */\n      0x00\n        /* \"day13/TokenBankV2621.sol\":4355:4360  token */\n      0x01\n      0x00\n      swap1\n      sload\n      swap1\n      0x0100\n      exp\n      swap1\n      div\n      0xffffffffffffffffffffffffffffffffffffffff\n      and\n        /* \"day13/TokenBankV2621.sol\":4355:4370  token.balanceOf */\n      0xffffffffffffffffffffffffffffffffffffffff\n      and\n      0x70a08231\n        /* \"day13/TokenBankV2621.sol\":4379:4383  this */\n      address\n        /* \"day13/TokenBankV2621.sol\":4355:4385  token.balanceOf(address(this)) */\n      mload(0x40)\n      dup3\n      0xffffffff\n      and\n      0xe0\n      shl\n      dup2\n      mstore\n      0x04\n      add\n      tag_91\n      swap2\n      swap1\n      tag_40\n      jump\t// in\n    tag_91:\n      0x20\n      mload(0x40)\n      dup1\n      dup4\n      sub\n      dup2\n      dup7\n      gas\n      staticcall\n      iszero\n      dup1\n      iszero\n      tag_93\n      jumpi\n      returndatacopy(0x00, 0x00, returndatasize)\n      revert(0x00, returndatasize)\n    tag_93:\n      pop\n      pop\n      pop\n      pop\n      mload(0x40)\n      returndatasize\n      not(0x1f)\n      0x1f\n      dup3\n      add\n      and\n      dup3\n      add\n      dup1\n      0x40\n      mstore\n      pop\n      dup2\n      add\n      swap1\n      tag_94\n      swap2\n      swap1\n      tag_95\n      jump\t// in\n    tag_94:\n        /* \"day13/TokenBankV2621.sol\":4348:4385  return token.balanceOf(address(this)) */\n      swap1\n      pop\n        /* \"day13/TokenBankV2621.sol\":4274:4393  function getBankTokenBalance() external view returns (uint256) {... */\n      swap1\n      jump\t// out\n        /* \"day13/TokenBankV2621.sol\":4870:5216  function tokenReceived(address _from, address _to, uint256 value) external returns(bool) {... */\n    tag_34:\n        /* \"day13/TokenBankV2621.sol\":4953:4957  bool */\n      0x00\n        /* \"day13/TokenBankV2621.sol\":5000:5005  token */\n      0x01\n      0x00\n      swap1\n      sload\n      swap1\n      0x0100\n      exp\n      swap1\n      div\n      0xffffffffffffffffffffffffffffffffffffffff\n      and\n        /* \"day13/TokenBankV2621.sol\":4978:5006  msg.sender == address(token) */\n      0xffffffffffffffffffffffffffffffffffffffff\n      and\n        /* \"day13/TokenBankV2621.sol\":4978:4988  msg.sender */\n      caller\n        /* \"day13/TokenBankV2621.sol\":4978:5006  msg.sender == address(token) */\n      0xffffffffffffffffffffffffffffffffffffffff\n      and\n      eq\n        /* \"day13/TokenBankV2621.sol\":4970:5051  require(msg.sender == address(token), \"Only token contract can call this method\") */\n      tag_97\n      jumpi\n      mload(0x40)\n      0x08c379a000000000000000000000000000000000000000000000000000000000\n      dup2\n      mstore\n      0x04\n      add\n      tag_98\n      swap1\n      tag_99\n      jump\t// in\n    tag_98:\n      mload(0x40)\n      dup1\n      swap2\n      sub\n      swap1\n      revert\n    tag_97:\n        /* \"day13/TokenBankV2621.sol\":5085:5089  this */\n      address\n        /* \"day13/TokenBankV2621.sol\":5070:5090  _to == address(this) */\n      0xffffffffffffffffffffffffffffffffffffffff\n      and\n        /* \"day13/TokenBankV2621.sol\":5070:5073  _to */\n      dup4\n        /* \"day13/TokenBankV2621.sol\":5070:5090  _to == address(this) */\n      0xffffffffffffffffffffffffffffffffffffffff\n      and\n      eq\n        /* \"day13/TokenBankV2621.sol\":5062:5112  require(_to == address(this), \"Invalid recipient\") */\n      tag_100\n      jumpi\n      mload(0x40)\n      0x08c379a000000000000000000000000000000000000000000000000000000000\n      dup2\n      mstore\n      0x04\n      add\n      tag_101\n      swap1\n      tag_102\n      jump\t// in\n    tag_101:\n      mload(0x40)\n      dup1\n      swap2\n      sub\n      swap1\n      revert\n    tag_100:\n        /* \"day13/TokenBankV2621.sol\":5144:5149  value */\n      dup2\n        /* \"day13/TokenBankV2621.sol\":5125:5133  balances */\n      0x02\n        /* \"day13/TokenBankV2621.sol\":5125:5140  balances[_from] */\n      0x00\n        /* \"day13/TokenBankV2621.sol\":5134:5139  _from */\n      dup7\n        /* \"day13/TokenBankV2621.sol\":5125:5140  balances[_from] */\n      0xffffffffffffffffffffffffffffffffffffffff\n      and\n      0xffffffffffffffffffffffffffffffffffffffff\n      and\n      dup2\n      mstore\n      0x20\n      add\n      swap1\n      dup2\n      mstore\n      0x20\n      add\n      0x00\n      keccak256\n      0x00\n        /* \"day13/TokenBankV2621.sol\":5125:5149  balances[_from] += value */\n      dup3\n      dup3\n      sload\n      tag_103\n      swap2\n      swap1\n      tag_104\n      jump\t// in\n    tag_103:\n      swap3\n      pop\n      pop\n      dup2\n      swap1\n      sstore\n      pop\n        /* \"day13/TokenBankV2621.sol\":5173:5178  _from */\n      dup4\n        /* \"day13/TokenBankV2621.sol\":5165:5186  Deposit(_from, value) */\n      0xffffffffffffffffffffffffffffffffffffffff\n      and\n      0xe1fffcc4923d04b559f4d29a8bfc6cda04eb5b0d3c460751c2402c5c5cc9109c\n        /* \"day13/TokenBankV2621.sol\":5180:5185  value */\n      dup4\n        /* \"day13/TokenBankV2621.sol\":5165:5186  Deposit(_from, value) */\n      mload(0x40)\n      tag_105\n      swap2\n      swap1\n      tag_23\n      jump\t// in\n    tag_105:\n      mload(0x40)\n      dup1\n      swap2\n      sub\n      swap1\n      log2\n        /* \"day13/TokenBankV2621.sol\":5204:5208  true */\n      0x01\n        /* \"day13/TokenBankV2621.sol\":5197:5208  return true */\n      swap1\n      pop\n        /* \"day13/TokenBankV2621.sol\":4870:5216  function tokenReceived(address _from, address _to, uint256 value) external returns(bool) {... */\n      swap4\n      swap3\n      pop\n      pop\n      pop\n      jump\t// out\n        /* \"day13/TokenBankV2621.sol\":1153:1236  function getOwner() external view returns (address) {... */\n    tag_38:\n        /* \"day13/TokenBankV2621.sol\":1196:1203  address */\n      0x00\n        /* \"day13/TokenBankV2621.sol\":1223:1228  owner */\n      0x00\n      0x00\n      swap1\n      sload\n      swap1\n      0x0100\n      exp\n      swap1\n      div\n      0xffffffffffffffffffffffffffffffffffffffff\n      and\n        /* \"day13/TokenBankV2621.sol\":1216:1228  return owner */\n      swap1\n      pop\n        /* \"day13/TokenBankV2621.sol\":1153:1236  function getOwner() external view returns (address) {... */\n      swap1\n      jump\t// out\n        /* \"day13/TokenBankV2621.sol\":529:549  address public owner */\n    tag_42:\n      0x00\n      0x00\n      swap1\n      sload\n      swap1\n      0x0100\n      exp\n      swap1\n      div\n      0xffffffffffffffffffffffffffffffffffffffff\n      and\n      dup2\n      jump\t// out\n        /* \"day13/TokenBankV2621.sol\":2449:3599  function permitDepositWithCallback(... */\n    tag_47:\n        /* \"day13/TokenBankV2621.sol\":2703:2704  0 */\n      0x00\n        /* \"day13/TokenBankV2621.sol\":2695:2700  value */\n      dup9\n        /* \"day13/TokenBankV2621.sol\":2695:2704  value > 0 */\n      gt\n        /* \"day13/TokenBankV2621.sol\":2687:2738  require(value > 0, \"Amount must be greater than 0\") */\n      tag_108\n      jumpi\n      mload(0x40)\n      0x08c379a000000000000000000000000000000000000000000000000000000000\n      dup2\n      mstore\n      0x04\n      add\n      tag_109\n      swap1\n      tag_74\n      jump\t// in\n    tag_109:\n      mload(0x40)\n      dup1\n      swap2\n      sub\n      swap1\n      revert\n    tag_108:\n        /* \"day13/TokenBankV2621.sol\":2769:2784  block.timestamp */\n      timestamp\n        /* \"day13/TokenBankV2621.sol\":2757:2765  deadline */\n      dup8\n        /* \"day13/TokenBankV2621.sol\":2757:2784  deadline >= block.timestamp */\n      lt\n      iszero\n        /* \"day13/TokenBankV2621.sol\":2749:2803  require(deadline >= block.timestamp, \"Permit expired\") */\n      tag_110\n      jumpi\n      mload(0x40)\n      0x08c379a000000000000000000000000000000000000000000000000000000000\n      dup2\n      mstore\n      0x04\n      add\n      tag_111\n      swap1\n      tag_112\n      jump\t// in\n    tag_111:\n      mload(0x40)\n      dup1\n      swap2\n      sub\n      swap1\n      revert\n    tag_110:\n        /* \"day13/TokenBankV2621.sol\":2876:2881  token */\n      0x01\n      0x00\n      swap1\n      sload\n      swap1\n      0x0100\n      exp\n      swap1\n      div\n      0xffffffffffffffffffffffffffffffffffffffff\n      and\n        /* \"day13/TokenBankV2621.sol\":2855:2890  IERC20Permit(address(token)).permit */\n      0xffffffffffffffffffffffffffffffffffffffff\n      and\n      0xd505accf\n        /* \"day13/TokenBankV2621.sol\":2905:2915  msg.sender */\n      caller\n        /* \"day13/TokenBankV2621.sol\":2938:2942  this */\n      address\n        /* \"day13/TokenBankV2621.sol\":2958:2963  value */\n      dup12\n        /* \"day13/TokenBankV2621.sol\":2978:2986  deadline */\n      dup12\n        /* \"day13/TokenBankV2621.sol\":3001:3002  v */\n      dup12\n        /* \"day13/TokenBankV2621.sol\":3017:3018  r */\n      dup12\n        /* \"day13/TokenBankV2621.sol\":3033:3034  s */\n      dup12\n        /* \"day13/TokenBankV2621.sol\":2855:3045  IERC20Permit(address(token)).permit(... */\n      mload(0x40)\n      dup9\n      0xffffffff\n      and\n      0xe0\n      shl\n      dup2\n      mstore\n      0x04\n      add\n      tag_113\n      swap8\n      swap7\n      swap6\n      swap5\n      swap4\n      swap3\n      swap2\n      swap1\n      tag_114\n      jump\t// in\n    tag_113:\n      0x00\n      mload(0x40)\n      dup1\n      dup4\n      sub\n      dup2\n      0x00\n      dup8\n      dup1\n      extcodesize\n      iszero\n      dup1\n      iszero\n      tag_115\n      jumpi\n      revert(0x00, 0x00)\n    tag_115:\n      pop\n      gas\n      call\n      iszero\n      dup1\n      iszero\n      tag_117\n      jumpi\n      returndatacopy(0x00, 0x00, returndatasize)\n      revert(0x00, returndatasize)\n    tag_117:\n      pop\n      pop\n      pop\n      pop\n        /* \"day13/TokenBankV2621.sol\":3083:3095  bool success */\n      0x00\n        /* \"day13/TokenBankV2621.sol\":3098:3103  token */\n      0x01\n      0x00\n      swap1\n      sload\n      swap1\n      0x0100\n      exp\n      swap1\n      div\n      0xffffffffffffffffffffffffffffffffffffffff\n      and\n        /* \"day13/TokenBankV2621.sol\":3098:3116  token.transferFrom */\n      0xffffffffffffffffffffffffffffffffffffffff\n      and\n      0x23b872dd\n        /* \"day13/TokenBankV2621.sol\":3117:3127  msg.sender */\n      caller\n        /* \"day13/TokenBankV2621.sol\":3137:3141  this */\n      address\n        /* \"day13/TokenBankV2621.sol\":3144:3149  value */\n      dup13\n        /* \"day13/TokenBankV2621.sol\":3098:3150  token.transferFrom(msg.sender, address(this), value) */\n      mload(0x40)\n      dup5\n      0xffffffff\n      and\n      0xe0\n      shl\n      dup2\n      mstore\n      0x04\n      add\n      tag_118\n      swap4\n      swap3\n      swap2\n      swap1\n      tag_119\n      jump\t// in\n    tag_118:\n      0x20\n      mload(0x40)\n      dup1\n      dup4\n      sub\n      dup2\n      0x00\n      dup8\n      gas\n      call\n      iszero\n      dup1\n      iszero\n      tag_121\n      jumpi\n      returndatacopy(0x00, 0x00, returndatasize)\n      revert(0x00, returndatasize)\n    tag_121:\n      pop\n      pop\n      pop\n      pop\n      mload(0x40)\n      returndatasize\n      not(0x1f)\n      0x1f\n      dup3\n      add\n      and\n      dup3\n      add\n      dup1\n      0x40\n      mstore\n      pop\n      dup2\n      add\n      swap1\n      tag_122\n      swap2\n      swap1\n      tag_85\n      jump\t// in\n    tag_122:\n        /* \"day13/TokenBankV2621.sol\":3083:3150  bool success = token.transferFrom(msg.sender, address(this), value) */\n      swap1\n      pop\n        /* \"day13/TokenBankV2621.sol\":3169:3176  success */\n      dup1\n        /* \"day13/TokenBankV2621.sol\":3161:3202  require(success, \"token transfer failed\") */\n      tag_123\n      jumpi\n      mload(0x40)\n      0x08c379a000000000000000000000000000000000000000000000000000000000\n      dup2\n      mstore\n      0x04\n      add\n      tag_124\n      swap1\n      tag_88\n      jump\t// in\n    tag_124:\n      mload(0x40)\n      dup1\n      swap2\n      sub\n      swap1\n      revert\n    tag_123:\n        /* \"day13/TokenBankV2621.sol\":3247:3252  value */\n      dup9\n        /* \"day13/TokenBankV2621.sol\":3223:3231  balances */\n      0x02\n        /* \"day13/TokenBankV2621.sol\":3223:3243  balances[msg.sender] */\n      0x00\n        /* \"day13/TokenBankV2621.sol\":3232:3242  msg.sender */\n      caller\n        /* \"day13/TokenBankV2621.sol\":3223:3243  balances[msg.sender] */\n      0xffffffffffffffffffffffffffffffffffffffff\n      and\n      0xffffffffffffffffffffffffffffffffffffffff\n      and\n      dup2\n      mstore\n      0x20\n      add\n      swap1\n      dup2\n      mstore\n      0x20\n      add\n      0x00\n      keccak256\n      0x00\n        /* \"day13/TokenBankV2621.sol\":3223:3252  balances[msg.sender] += value */\n      dup3\n      dup3\n      sload\n      tag_125\n      swap2\n      swap1\n      tag_104\n      jump\t// in\n    tag_125:\n      swap3\n      pop\n      pop\n      dup2\n      swap1\n      sstore\n      pop\n        /* \"day13/TokenBankV2621.sol\":3276:3286  msg.sender */\n      caller\n        /* \"day13/TokenBankV2621.sol\":3268:3294  Deposit(msg.sender, value) */\n      0xffffffffffffffffffffffffffffffffffffffff\n      and\n      0xe1fffcc4923d04b559f4d29a8bfc6cda04eb5b0d3c460751c2402c5c5cc9109c\n        /* \"day13/TokenBankV2621.sol\":3288:3293  value */\n      dup11\n        /* \"day13/TokenBankV2621.sol\":3268:3294  Deposit(msg.sender, value) */\n      mload(0x40)\n      tag_126\n      swap2\n      swap1\n      tag_23\n      jump\t// in\n    tag_126:\n      mload(0x40)\n      dup1\n      swap2\n      sub\n      swap1\n      log2\n        /* \"day13/TokenBankV2621.sol\":3324:3334  msg.sender */\n      caller\n        /* \"day13/TokenBankV2621.sol\":3310:3342  PermitDeposit(msg.sender, value) */\n      0xffffffffffffffffffffffffffffffffffffffff\n      and\n      0xe391e632f0c535fb9543412b49a49299087c915a9020b721a5dc29560e769930\n        /* \"day13/TokenBankV2621.sol\":3336:3341  value */\n      dup11\n        /* \"day13/TokenBankV2621.sol\":3310:3342  PermitDeposit(msg.sender, value) */\n      mload(0x40)\n      tag_127\n      swap2\n      swap1\n      tag_23\n      jump\t// in\n    tag_127:\n      mload(0x40)\n      dup1\n      swap2\n      sub\n      swap1\n      log2\n        /* \"day13/TokenBankV2621.sol\":3421:3422  0 */\n      0x00\n        /* \"day13/TokenBankV2621.sol\":3399:3423  callbackTo != address(0) */\n      0xffffffffffffffffffffffffffffffffffffffff\n      and\n        /* \"day13/TokenBankV2621.sol\":3399:3409  callbackTo */\n      dup5\n        /* \"day13/TokenBankV2621.sol\":3399:3423  callbackTo != address(0) */\n      0xffffffffffffffffffffffffffffffffffffffff\n      and\n      eq\n        /* \"day13/TokenBankV2621.sol\":3395:3592  if (callbackTo != address(0)) {... */\n      tag_128\n      jumpi\n        /* \"day13/TokenBankV2621.sol\":3441:3461  bool callbackSuccess */\n      0x00\n        /* \"day13/TokenBankV2621.sol\":3467:3477  callbackTo */\n      dup5\n        /* \"day13/TokenBankV2621.sol\":3467:3482  callbackTo.call */\n      0xffffffffffffffffffffffffffffffffffffffff\n      and\n        /* \"day13/TokenBankV2621.sol\":3483:3495  callbackData */\n      dup5\n      dup5\n        /* \"day13/TokenBankV2621.sol\":3467:3496  callbackTo.call(callbackData) */\n      mload(0x40)\n      tag_129\n      swap3\n      swap2\n      swap1\n      tag_130\n      jump\t// in\n    tag_129:\n      0x00\n      mload(0x40)\n      dup1\n      dup4\n      sub\n      dup2\n      0x00\n      dup7\n      gas\n      call\n      swap2\n      pop\n      pop\n      returndatasize\n      dup1\n      0x00\n      dup2\n      eq\n      tag_133\n      jumpi\n      mload(0x40)\n      swap2\n      pop\n      and(add(returndatasize, 0x3f), not(0x1f))\n      dup3\n      add\n      0x40\n      mstore\n      returndatasize\n      dup3\n      mstore\n      returndatasize\n      0x00\n      0x20\n      dup5\n      add\n      returndatacopy\n      jump(tag_132)\n    tag_133:\n      0x60\n      swap2\n      pop\n    tag_132:\n      pop\n        /* \"day13/TokenBankV2621.sol\":3440:3496  (bool callbackSuccess, ) = callbackTo.call(callbackData) */\n      pop\n      swap1\n      pop\n        /* \"day13/TokenBankV2621.sol\":3425:3592  {... */\n      pop\n        /* \"day13/TokenBankV2621.sol\":3395:3592  if (callbackTo != address(0)) {... */\n    tag_128:\n        /* \"day13/TokenBankV2621.sol\":2676:3599  {... */\n      pop\n        /* \"day13/TokenBankV2621.sol\":2449:3599  function permitDepositWithCallback(... */\n      pop\n      pop\n      pop\n      pop\n      pop\n      pop\n      pop\n      pop\n      jump\t// out\n        /* \"day13/TokenBankV2621.sol\":4467:4666  function getUserBalances(address user) external view returns (uint256 bankBalance, uint256 tokenBalance) {... */\n    tag_50:\n        /* \"day13/TokenBankV2621.sol\":4529:4548  uint256 bankBalance */\n      0x00\n        /* \"day13/TokenBankV2621.sol\":4550:4570  uint256 tokenBalance */\n      0x00\n        /* \"day13/TokenBankV2621.sol\":4597:4605  balances */\n      0x02\n        /* \"day13/TokenBankV2621.sol\":4597:4611  balances[user] */\n      0x00\n        /* \"day13/TokenBankV2621.sol\":4606:4610  user */\n      dup5\n        /* \"day13/TokenBankV2621.sol\":4597:4611  balances[user] */\n      0xffffffffffffffffffffffffffffffffffffffff\n      and\n      0xffffffffffffffffffffffffffffffffffffffff\n      and\n      dup2\n      mstore\n      0x20\n      add\n      swap1\n      dup2\n      mstore\n      0x20\n      add\n      0x00\n      keccak256\n      sload\n        /* \"day13/TokenBankV2621.sol\":4583:4611  bankBalance = balances[user] */\n      swap2\n      pop\n        /* \"day13/TokenBankV2621.sol\":4637:4642  token */\n      0x01\n      0x00\n      swap1\n      sload\n      swap1\n      0x0100\n      exp\n      swap1\n      div\n      0xffffffffffffffffffffffffffffffffffffffff\n      and\n        /* \"day13/TokenBankV2621.sol\":4637:4652  token.balanceOf */\n      0xffffffffffffffffffffffffffffffffffffffff\n      and\n      0x70a08231\n        /* \"day13/TokenBankV2621.sol\":4653:4657  user */\n      dup5\n        /* \"day13/TokenBankV2621.sol\":4637:4658  token.balanceOf(user) */\n      mload(0x40)\n      dup3\n      0xffffffff\n      and\n      0xe0\n      shl\n      dup2\n      mstore\n      0x04\n      add\n      tag_136\n      swap2\n      swap1\n      tag_40\n      jump\t// in\n    tag_136:\n      0x20\n      mload(0x40)\n      dup1\n      dup4\n      sub\n      dup2\n      dup7\n      gas\n      staticcall\n      iszero\n      dup1\n      iszero\n      tag_138\n      jumpi\n      returndatacopy(0x00, 0x00, returndatasize)\n      revert(0x00, returndatasize)\n    tag_138:\n      pop\n      pop\n      pop\n      pop\n      mload(0x40)\n      returndatasize\n      not(0x1f)\n      0x1f\n      dup3\n      add\n      and\n      dup3\n      add\n      dup1\n      0x40\n      mstore\n      pop\n      dup2\n      add\n      swap1\n      tag_139\n      swap2\n      swap1\n      tag_95\n      jump\t// in\n    tag_139:\n        /* \"day13/TokenBankV2621.sol\":4622:4658  tokenBalance = token.balanceOf(user) */\n      swap1\n      pop\n        /* \"day13/TokenBankV2621.sol\":4467:4666  function getUserBalances(address user) external view returns (uint256 bankBalance, uint256 tokenBalance) {... */\n      swap2\n      pop\n      swap2\n      jump\t// out\n        /* \"day13/TokenBankV2621.sol\":5269:5943  function deposit(uint256 value) public  {... */\n    tag_55:\n        /* \"day13/TokenBankV2621.sol\":5336:5337  0 */\n      0x00\n        /* \"day13/TokenBankV2621.sol\":5328:5333  value */\n      dup2\n        /* \"day13/TokenBankV2621.sol\":5328:5337  value > 0 */\n      gt\n        /* \"day13/TokenBankV2621.sol\":5320:5371  require(value > 0, \"Amount must be greater than 0\") */\n      tag_141\n      jumpi\n      mload(0x40)\n      0x08c379a000000000000000000000000000000000000000000000000000000000\n      dup2\n      mstore\n      0x04\n      add\n      tag_142\n      swap1\n      tag_74\n      jump\t// in\n    tag_142:\n      mload(0x40)\n      dup1\n      swap2\n      sub\n      swap1\n      revert\n    tag_141:\n        /* \"day13/TokenBankV2621.sol\":5446:5458  bool success */\n      0x00\n        /* \"day13/TokenBankV2621.sol\":5472:5477  token */\n      0x01\n      0x00\n      swap1\n      sload\n      swap1\n      0x0100\n      exp\n      swap1\n      div\n      0xffffffffffffffffffffffffffffffffffffffff\n      and\n        /* \"day13/TokenBankV2621.sol\":5464:5483  address(token).call */\n      0xffffffffffffffffffffffffffffffffffffffff\n      and\n        /* \"day13/TokenBankV2621.sol\":5571:5575  this */\n      address\n        /* \"day13/TokenBankV2621.sol\":5578:5583  value */\n      dup4\n        /* \"day13/TokenBankV2621.sol\":5498:5584  abi.encodeWithSignature(\"transferWithCallback(address,uint256)\", address(this), value) */\n      add(0x24, mload(0x40))\n      tag_143\n      swap3\n      swap2\n      swap1\n      tag_81\n      jump\t// in\n    tag_143:\n      mload(0x40)\n      0x20\n      dup2\n      dup4\n      sub\n      sub\n      dup2\n      mstore\n      swap1\n      0x40\n      mstore\n      and(not(0xffffffffffffffffffffffffffffffffffffffffffffffffffffffff), 0x1a825b7500000000000000000000000000000000000000000000000000000000)\n      0x20\n      dup3\n      add\n      dup1\n      mload\n      0xffffffffffffffffffffffffffffffffffffffffffffffffffffffff\n      dup4\n      dup2\n      dup4\n      and\n      or\n      dup4\n      mstore\n      pop\n      pop\n      pop\n      pop\n        /* \"day13/TokenBankV2621.sol\":5464:5595  address(token).call(... */\n      mload(0x40)\n      tag_144\n      swap2\n      swap1\n      tag_145\n      jump\t// in\n    tag_144:\n      0x00\n      mload(0x40)\n      dup1\n      dup4\n      sub\n      dup2\n      0x00\n      dup7\n      gas\n      call\n      swap2\n      pop\n      pop\n      returndatasize\n      dup1\n      0x00\n      dup2\n      eq\n      tag_148\n      jumpi\n      mload(0x40)\n      swap2\n      pop\n      and(add(returndatasize, 0x3f), not(0x1f))\n      dup3\n      add\n      0x40\n      mstore\n      returndatasize\n      dup3\n      mstore\n      returndatasize\n      0x00\n      0x20\n      dup5\n      add\n      returndatacopy\n      jump(tag_147)\n    tag_148:\n      0x60\n      swap2\n      pop\n    tag_147:\n      pop\n        /* \"day13/TokenBankV2621.sol\":5445:5595  (bool success, ) = address(token).call(... */\n      pop\n      swap1\n      pop\n        /* \"day13/TokenBankV2621.sol\":5621:5628  success */\n      dup1\n        /* \"day13/TokenBankV2621.sol\":5616:5844  if (!success) {... */\n      tag_149\n      jumpi\n        /* \"day13/TokenBankV2621.sol\":5693:5713  bool transferSuccess */\n      0x00\n        /* \"day13/TokenBankV2621.sol\":5716:5721  token */\n      0x01\n      0x00\n      swap1\n      sload\n      swap1\n      0x0100\n      exp\n      swap1\n      div\n      0xffffffffffffffffffffffffffffffffffffffff\n      and\n        /* \"day13/TokenBankV2621.sol\":5716:5734  token.transferFrom */\n      0xffffffffffffffffffffffffffffffffffffffff\n      and\n      0x23b872dd\n        /* \"day13/TokenBankV2621.sol\":5735:5745  msg.sender */\n      caller\n        /* \"day13/TokenBankV2621.sol\":5755:5759  this */\n      address\n        /* \"day13/TokenBankV2621.sol\":5762:5767  value */\n      dup7\n        /* \"day13/TokenBankV2621.sol\":5716:5768  token.transferFrom(msg.sender, address(this), value) */\n      mload(0x40)\n      dup5\n      0xffffffff\n      and\n      0xe0\n      shl\n      dup2\n      mstore\n      0x04\n      add\n      tag_150\n      swap4\n      swap3\n      swap2\n      swap1\n      tag_119\n      jump\t// in\n    tag_150:\n      0x20\n      mload(0x40)\n      dup1\n      dup4\n      sub\n      dup2\n      0x00\n      dup8\n      gas\n      call\n      iszero\n      dup1\n      iszero\n      tag_152\n      jumpi\n      returndatacopy(0x00, 0x00, returndatasize)\n      revert(0x00, returndatasize)\n    tag_152:\n      pop\n      pop\n      pop\n      pop\n      mload(0x40)\n      returndatasize\n      not(0x1f)\n      0x1f\n      dup3\n      add\n      and\n      dup3\n      add\n      dup1\n      0x40\n      mstore\n      pop\n      dup2\n      add\n      swap1\n      tag_153\n      swap2\n      swap1\n      tag_85\n      jump\t// in\n    tag_153:\n        /* \"day13/TokenBankV2621.sol\":5693:5768  bool transferSuccess = token.transferFrom(msg.sender, address(this), value) */\n      swap1\n      pop\n        /* \"day13/TokenBankV2621.sol\":5791:5806  transferSuccess */\n      dup1\n        /* \"day13/TokenBankV2621.sol\":5783:5832  require(transferSuccess, \"token transfer failed\") */\n      tag_154\n      jumpi\n      mload(0x40)\n      0x08c379a000000000000000000000000000000000000000000000000000000000\n      dup2\n      mstore\n      0x04\n      add\n      tag_155\n      swap1\n      tag_88\n      jump\t// in\n    tag_155:\n      mload(0x40)\n      dup1\n      swap2\n      sub\n      swap1\n      revert\n    tag_154:\n        /* \"day13/TokenBankV2621.sol\":5630:5844  {... */\n      pop\n        /* \"day13/TokenBankV2621.sol\":5616:5844  if (!success) {... */\n    tag_149:\n        /* \"day13/TokenBankV2621.sol\":5888:5893  value */\n      dup2\n        /* \"day13/TokenBankV2621.sol\":5864:5872  balances */\n      0x02\n        /* \"day13/TokenBankV2621.sol\":5864:5884  balances[msg.sender] */\n      0x00\n        /* \"day13/TokenBankV2621.sol\":5873:5883  msg.sender */\n      caller\n        /* \"day13/TokenBankV2621.sol\":5864:5884  balances[msg.sender] */\n      0xffffffffffffffffffffffffffffffffffffffff\n      and\n      0xffffffffffffffffffffffffffffffffffffffff\n      and\n      dup2\n      mstore\n      0x20\n      add\n      swap1\n      dup2\n      mstore\n      0x20\n      add\n      0x00\n      keccak256\n      0x00\n        /* \"day13/TokenBankV2621.sol\":5864:5893  balances[msg.sender] += value */\n      dup3\n      dup3\n      sload\n      tag_156\n      swap2\n      swap1\n      tag_104\n      jump\t// in\n    tag_156:\n      swap3\n      pop\n      pop\n      dup2\n      swap1\n      sstore\n      pop\n        /* \"day13/TokenBankV2621.sol\":5917:5927  msg.sender */\n      caller\n        /* \"day13/TokenBankV2621.sol\":5909:5935  Deposit(msg.sender, value) */\n      0xffffffffffffffffffffffffffffffffffffffff\n      and\n      0xe1fffcc4923d04b559f4d29a8bfc6cda04eb5b0d3c460751c2402c5c5cc9109c\n        /* \"day13/TokenBankV2621.sol\":5929:5934  value */\n      dup4\n        /* \"day13/TokenBankV2621.sol\":5909:5935  Deposit(msg.sender, value) */\n      mload(0x40)\n      tag_157\n      swap2\n      swap1\n      tag_23\n      jump\t// in\n    tag_157:\n      mload(0x40)\n      dup1\n      swap2\n      sub\n      swap1\n      log2\n        /* \"day13/TokenBankV2621.sol\":5309:5943  {... */\n      pop\n        /* \"day13/TokenBankV2621.sol\":5269:5943  function deposit(uint256 value) public  {... */\n      pop\n      jump\t// out\n        /* \"day13/TokenBankV2621.sol\":1563:2385  function permitDeposit(... */\n    tag_59:\n        /* \"day13/TokenBankV2621.sol\":1738:1739  0 */\n      0x00\n        /* \"day13/TokenBankV2621.sol\":1730:1735  value */\n      dup6\n        /* \"day13/TokenBankV2621.sol\":1730:1739  value > 0 */\n      gt\n        /* \"day13/TokenBankV2621.sol\":1722:1773  require(value > 0, \"Amount must be greater than 0\") */\n      tag_159\n      jumpi\n      mload(0x40)\n      0x08c379a000000000000000000000000000000000000000000000000000000000\n      dup2\n      mstore\n      0x04\n      add\n      tag_160\n      swap1\n      tag_74\n      jump\t// in\n    tag_160:\n      mload(0x40)\n      dup1\n      swap2\n      sub\n      swap1\n      revert\n    tag_159:\n        /* \"day13/TokenBankV2621.sol\":1804:1819  block.timestamp */\n      timestamp\n        /* \"day13/TokenBankV2621.sol\":1792:1800  deadline */\n      dup5\n        /* \"day13/TokenBankV2621.sol\":1792:1819  deadline >= block.timestamp */\n      lt\n      iszero\n        /* \"day13/TokenBankV2621.sol\":1784:1838  require(deadline >= block.timestamp, \"Permit expired\") */\n      tag_161\n      jumpi\n      mload(0x40)\n      0x08c379a000000000000000000000000000000000000000000000000000000000\n      dup2\n      mstore\n      0x04\n      add\n      tag_162\n      swap1\n      tag_112\n      jump\t// in\n    tag_162:\n      mload(0x40)\n      dup1\n      swap2\n      sub\n      swap1\n      revert\n    tag_161:\n        /* \"day13/TokenBankV2621.sol\":1911:1916  token */\n      0x01\n      0x00\n      swap1\n      sload\n      swap1\n      0x0100\n      exp\n      swap1\n      div\n      0xffffffffffffffffffffffffffffffffffffffff\n      and\n        /* \"day13/TokenBankV2621.sol\":1890:1925  IERC20Permit(address(token)).permit */\n      0xffffffffffffffffffffffffffffffffffffffff\n      and\n      0xd505accf\n        /* \"day13/TokenBankV2621.sol\":1940:1950  msg.sender */\n      caller\n        /* \"day13/TokenBankV2621.sol\":1973:1977  this */\n      address\n        /* \"day13/TokenBankV2621.sol\":1993:1998  value */\n      dup9\n        /* \"day13/TokenBankV2621.sol\":2013:2021  deadline */\n      dup9\n        /* \"day13/TokenBankV2621.sol\":2036:2037  v */\n      dup9\n        /* \"day13/TokenBankV2621.sol\":2052:2053  r */\n      dup9\n        /* \"day13/TokenBankV2621.sol\":2068:2069  s */\n      dup9\n        /* \"day13/TokenBankV2621.sol\":1890:2080  IERC20Permit(address(token)).permit(... */\n      mload(0x40)\n      dup9\n      0xffffffff\n      and\n      0xe0\n      shl\n      dup2\n      mstore\n      0x04\n      add\n      tag_163\n      swap8\n      swap7\n      swap6\n      swap5\n      swap4\n      swap3\n      swap2\n      swap1\n      tag_114\n      jump\t// in\n    tag_163:\n      0x00\n      mload(0x40)\n      dup1\n      dup4\n      sub\n      dup2\n      0x00\n      dup8\n      dup1\n      extcodesize\n      iszero\n      dup1\n      iszero\n      tag_164\n      jumpi\n      revert(0x00, 0x00)\n    tag_164:\n      pop\n      gas\n      call\n      iszero\n      dup1\n      iszero\n      tag_166\n      jumpi\n      returndatacopy(0x00, 0x00, returndatasize)\n      revert(0x00, returndatasize)\n    tag_166:\n      pop\n      pop\n      pop\n      pop\n        /* \"day13/TokenBankV2621.sol\":2118:2130  bool success */\n      0x00\n        /* \"day13/TokenBankV2621.sol\":2133:2138  token */\n      0x01\n      0x00\n      swap1\n      sload\n      swap1\n      0x0100\n      exp\n      swap1\n      div\n      0xffffffffffffffffffffffffffffffffffffffff\n      and\n        /* \"day13/TokenBankV2621.sol\":2133:2151  token.transferFrom */\n      0xffffffffffffffffffffffffffffffffffffffff\n      and\n      0x23b872dd\n        /* \"day13/TokenBankV2621.sol\":2152:2162  msg.sender */\n      caller\n        /* \"day13/TokenBankV2621.sol\":2172:2176  this */\n      address\n        /* \"day13/TokenBankV2621.sol\":2179:2184  value */\n      dup10\n        /* \"day13/TokenBankV2621.sol\":2133:2185  token.transferFrom(msg.sender, address(this), value) */\n      mload(0x40)\n      dup5\n      0xffffffff\n      and\n      0xe0\n      shl\n      dup2\n      mstore\n      0x04\n      add\n      tag_167\n      swap4\n      swap3\n      swap2\n      swap1\n      tag_119\n      jump\t// in\n    tag_167:\n      0x20\n      mload(0x40)\n      dup1\n      dup4\n      sub\n      dup2\n      0x00\n      dup8\n      gas\n      call\n      iszero\n      dup1\n      iszero\n      tag_169\n      jumpi\n      returndatacopy(0x00, 0x00, returndatasize)\n      revert(0x00, returndatasize)\n    tag_169:\n      pop\n      pop\n      pop\n      pop\n      mload(0x40)\n      returndatasize\n      not(0x1f)\n      0x1f\n      dup3\n      add\n      and\n      dup3\n      add\n      dup1\n      0x40\n      mstore\n      pop\n      dup2\n      add\n      swap1\n      tag_170\n      swap2\n      swap1\n      tag_85\n      jump\t// in\n    tag_170:\n        /* \"day13/TokenBankV2621.sol\":2118:2185  bool success = token.transferFrom(msg.sender, address(this), value) */\n      swap1\n      pop\n        /* \"day13/TokenBankV2621.sol\":2204:2211  success */\n      dup1\n        /* \"day13/TokenBankV2621.sol\":2196:2237  require(success, \"token transfer failed\") */\n      tag_171\n      jumpi\n      mload(0x40)\n      0x08c379a000000000000000000000000000000000000000000000000000000000\n      dup2\n      mstore\n      0x04\n      add\n      tag_172\n      swap1\n      tag_88\n      jump\t// in\n    tag_172:\n      mload(0x40)\n      dup1\n      swap2\n      sub\n      swap1\n      revert\n    tag_171:\n        /* \"day13/TokenBankV2621.sol\":2282:2287  value */\n      dup6\n        /* \"day13/TokenBankV2621.sol\":2258:2266  balances */\n      0x02\n        /* \"day13/TokenBankV2621.sol\":2258:2278  balances[msg.sender] */\n      0x00\n        /* \"day13/TokenBankV2621.sol\":2267:2277  msg.sender */\n      caller\n        /* \"day13/TokenBankV2621.sol\":2258:2278  balances[msg.sender] */\n      0xffffffffffffffffffffffffffffffffffffffff\n      and\n      0xffffffffffffffffffffffffffffffffffffffff\n      and\n      dup2\n      mstore\n      0x20\n      add\n      swap1\n      dup2\n      mstore\n      0x20\n      add\n      0x00\n      keccak256\n      0x00\n        /* \"day13/TokenBankV2621.sol\":2258:2287  balances[msg.sender] += value */\n      dup3\n      dup3\n      sload\n      tag_173\n      swap2\n      swap1\n      tag_104\n      jump\t// in\n    tag_173:\n      swap3\n      pop\n      pop\n      dup2\n      swap1\n      sstore\n      pop\n        /* \"day13/TokenBankV2621.sol\":2311:2321  msg.sender */\n      caller\n        /* \"day13/TokenBankV2621.sol\":2303:2329  Deposit(msg.sender, value) */\n      0xffffffffffffffffffffffffffffffffffffffff\n      and\n      0xe1fffcc4923d04b559f4d29a8bfc6cda04eb5b0d3c460751c2402c5c5cc9109c\n        /* \"day13/TokenBankV2621.sol\":2323:2328  value */\n      dup8\n        /* \"day13/TokenBankV2621.sol\":2303:2329  Deposit(msg.sender, value) */\n      mload(0x40)\n      tag_174\n      swap2\n      swap1\n      tag_23\n      jump\t// in\n    tag_174:\n      mload(0x40)\n      dup1\n      swap2\n      sub\n      swap1\n      log2\n        /* \"day13/TokenBankV2621.sol\":2359:2369  msg.sender */\n      caller\n        /* \"day13/TokenBankV2621.sol\":2345:2377  PermitDeposit(msg.sender, value) */\n      0xffffffffffffffffffffffffffffffffffffffff\n      and\n      0xe391e632f0c535fb9543412b49a49299087c915a9020b721a5dc29560e769930\n        /* \"day13/TokenBankV2621.sol\":2371:2376  value */\n      dup8\n        /* \"day13/TokenBankV2621.sol\":2345:2377  PermitDeposit(msg.sender, value) */\n      mload(0x40)\n      tag_175\n      swap2\n      swap1\n      tag_23\n      jump\t// in\n    tag_175:\n      mload(0x40)\n      dup1\n      swap2\n      sub\n      swap1\n      log2\n        /* \"day13/TokenBankV2621.sol\":1711:2385  {... */\n      pop\n        /* \"day13/TokenBankV2621.sol\":1563:2385  function permitDeposit(... */\n      pop\n      pop\n      pop\n      pop\n      pop\n      jump\t// out\n        /* \"day13/TokenBankV2621.sol\":1244:1494  function setAdminSender(address newAdmin) external onlyMultisig {... */\n    tag_62:\n        /* \"day13/TokenBankV2621.sol\":1093:1098  owner */\n      0x00\n      0x00\n      swap1\n      sload\n      swap1\n      0x0100\n      exp\n      swap1\n      div\n      0xffffffffffffffffffffffffffffffffffffffff\n      and\n        /* \"day13/TokenBankV2621.sol\":1079:1098  msg.sender == owner */\n      0xffffffffffffffffffffffffffffffffffffffff\n      and\n        /* \"day13/TokenBankV2621.sol\":1079:1089  msg.sender */\n      caller\n        /* \"day13/TokenBankV2621.sol\":1079:1098  msg.sender == owner */\n      0xffffffffffffffffffffffffffffffffffffffff\n      and\n      eq\n        /* \"day13/TokenBankV2621.sol\":1071:1125  require(msg.sender == owner, \"Only multisig can call\") */\n      tag_177\n      jumpi\n      mload(0x40)\n      0x08c379a000000000000000000000000000000000000000000000000000000000\n      dup2\n      mstore\n      0x04\n      add\n      tag_178\n      swap1\n      tag_179\n      jump\t// in\n    tag_178:\n      mload(0x40)\n      dup1\n      swap2\n      sub\n      swap1\n      revert\n    tag_177:\n        /* \"day13/TokenBankV2621.sol\":1347:1348  0 */\n      0x00\n        /* \"day13/TokenBankV2621.sol\":1327:1349  newAdmin != address(0) */\n      0xffffffffffffffffffffffffffffffffffffffff\n      and\n        /* \"day13/TokenBankV2621.sol\":1327:1335  newAdmin */\n      dup2\n        /* \"day13/TokenBankV2621.sol\":1327:1349  newAdmin != address(0) */\n      0xffffffffffffffffffffffffffffffffffffffff\n      and\n      sub\n        /* \"day13/TokenBankV2621.sol\":1319:1378  require(newAdmin != address(0), \"Invalid multisig address\") */\n      tag_181\n      jumpi\n      mload(0x40)\n      0x08c379a000000000000000000000000000000000000000000000000000000000\n      dup2\n      mstore\n      0x04\n      add\n      tag_182\n      swap1\n      tag_183\n      jump\t// in\n    tag_182:\n      mload(0x40)\n      dup1\n      swap2\n      sub\n      swap1\n      revert\n    tag_181:\n        /* \"day13/TokenBankV2621.sol\":1409:1414  owner */\n      0x00\n      0x00\n      swap1\n      sload\n      swap1\n      0x0100\n      exp\n      swap1\n      div\n      0xffffffffffffffffffffffffffffffffffffffff\n      and\n        /* \"day13/TokenBankV2621.sol\":1397:1414  newAdmin != owner */\n      0xffffffffffffffffffffffffffffffffffffffff\n      and\n        /* \"day13/TokenBankV2621.sol\":1397:1405  newAdmin */\n      dup2\n        /* \"day13/TokenBankV2621.sol\":1397:1414  newAdmin != owner */\n      0xffffffffffffffffffffffffffffffffffffffff\n      and\n      sub\n        /* \"day13/TokenBankV2621.sol\":1389:1449  require(newAdmin != owner, \"New multisig must be different\") */\n      tag_184\n      jumpi\n      mload(0x40)\n      0x08c379a000000000000000000000000000000000000000000000000000000000\n      dup2\n      mstore\n      0x04\n      add\n      tag_185\n      swap1\n      tag_186\n      jump\t// in\n    tag_185:\n      mload(0x40)\n      dup1\n      swap2\n      sub\n      swap1\n      revert\n    tag_184:\n        /* \"day13/TokenBankV2621.sol\":1478:1486  newAdmin */\n      dup1\n        /* \"day13/TokenBankV2621.sol\":1470:1475  owner */\n      0x00\n      0x00\n        /* \"day13/TokenBankV2621.sol\":1470:1486  owner = newAdmin */\n      0x0100\n      exp\n      dup2\n      sload\n      dup2\n      0xffffffffffffffffffffffffffffffffffffffff\n      mul\n      not\n      and\n      swap1\n      dup4\n      0xffffffffffffffffffffffffffffffffffffffff\n      and\n      mul\n      or\n      swap1\n      sstore\n      pop\n        /* \"day13/TokenBankV2621.sol\":1244:1494  function setAdminSender(address newAdmin) external onlyMultisig {... */\n      pop\n      jump\t// out\n        /* \"day13/TokenBankV2621.sol\":4073:4209  function getTokenNonce(address user) external view returns (uint256) {... */\n    tag_65:\n        /* \"day13/TokenBankV2621.sol\":4133:4140  uint256 */\n      0x00\n        /* \"day13/TokenBankV2621.sol\":4181:4186  token */\n      0x01\n      0x00\n      swap1\n      sload\n      swap1\n      0x0100\n      exp\n      swap1\n      div\n      0xffffffffffffffffffffffffffffffffffffffff\n      and\n        /* \"day13/TokenBankV2621.sol\":4160:4195  IERC20Permit(address(token)).nonces */\n      0xffffffffffffffffffffffffffffffffffffffff\n      and\n      0x7ecebe00\n        /* \"day13/TokenBankV2621.sol\":4196:4200  user */\n      dup4\n        /* \"day13/TokenBankV2621.sol\":4160:4201  IERC20Permit(address(token)).nonces(user) */\n      mload(0x40)\n      dup3\n      0xffffffff\n      and\n      0xe0\n      shl\n      dup2\n      mstore\n      0x04\n      add\n      tag_188\n      swap2\n      swap1\n      tag_40\n      jump\t// in\n    tag_188:\n      0x20\n      mload(0x40)\n      dup1\n      dup4\n      sub\n      dup2\n      dup7\n      gas\n      staticcall\n      iszero\n      dup1\n      iszero\n      tag_190\n      jumpi\n      returndatacopy(0x00, 0x00, returndatasize)\n      revert(0x00, returndatasize)\n    tag_190:\n      pop\n      pop\n      pop\n      pop\n      mload(0x40)\n      returndatasize\n      not(0x1f)\n      0x1f\n      dup3\n      add\n      and\n      dup3\n      add\n      dup1\n      0x40\n      mstore\n      pop\n      dup2\n      add\n      swap1\n      tag_191\n      swap2\n      swap1\n      tag_95\n      jump\t// in\n    tag_191:\n        /* \"day13/TokenBankV2621.sol\":4153:4201  return IERC20Permit(address(token)).nonces(user) */\n      swap1\n      pop\n        /* \"day13/TokenBankV2621.sol\":4073:4209  function getTokenNonce(address user) external view returns (uint256) {... */\n      swap2\n      swap1\n      pop\n      jump\t// out\n        /* \"day13/TokenBankV2621.sol\":556:575  IERC20 public token */\n    tag_68:\n      0x01\n      0x00\n      swap1\n      sload\n      swap1\n      0x0100\n      exp\n      swap1\n      div\n      0xffffffffffffffffffffffffffffffffffffffff\n      and\n      dup2\n      jump\t// out\n        /* \"#utility.yul\":88:205   */\n    tag_193:\n        /* \"#utility.yul\":197:198   */\n      0x00\n        /* \"#utility.yul\":194:195   */\n      0x00\n        /* \"#utility.yul\":187:199   */\n      revert\n        /* \"#utility.yul\":211:328   */\n    tag_194:\n        /* \"#utility.yul\":320:321   */\n      0x00\n        /* \"#utility.yul\":317:318   */\n      0x00\n        /* \"#utility.yul\":310:322   */\n      revert\n        /* \"#utility.yul\":334:460   */\n    tag_195:\n        /* \"#utility.yul\":371:378   */\n      0x00\n        /* \"#utility.yul\":411:453   */\n      0xffffffffffffffffffffffffffffffffffffffff\n        /* \"#utility.yul\":404:409   */\n      dup3\n        /* \"#utility.yul\":400:454   */\n      and\n        /* \"#utility.yul\":389:454   */\n      swap1\n      pop\n        /* \"#utility.yul\":334:460   */\n      swap2\n      swap1\n      pop\n      jump\t// out\n        /* \"#utility.yul\":466:562   */\n    tag_196:\n        /* \"#utility.yul\":503:510   */\n      0x00\n        /* \"#utility.yul\":532:556   */\n      tag_258\n        /* \"#utility.yul\":550:555   */\n      dup3\n        /* \"#utility.yul\":532:556   */\n      tag_195\n      jump\t// in\n    tag_258:\n        /* \"#utility.yul\":521:556   */\n      swap1\n      pop\n        /* \"#utility.yul\":466:562   */\n      swap2\n      swap1\n      pop\n      jump\t// out\n        /* \"#utility.yul\":568:690   */\n    tag_197:\n        /* \"#utility.yul\":641:665   */\n      tag_260\n        /* \"#utility.yul\":659:664   */\n      dup2\n        /* \"#utility.yul\":641:665   */\n      tag_196\n      jump\t// in\n    tag_260:\n        /* \"#utility.yul\":634:639   */\n      dup2\n        /* \"#utility.yul\":631:666   */\n      eq\n        /* \"#utility.yul\":621:684   */\n      tag_261\n      jumpi\n        /* \"#utility.yul\":680:681   */\n      0x00\n        /* \"#utility.yul\":677:678   */\n      0x00\n        /* \"#utility.yul\":670:682   */\n      revert\n        /* \"#utility.yul\":621:684   */\n    tag_261:\n        /* \"#utility.yul\":568:690   */\n      pop\n      jump\t// out\n        /* \"#utility.yul\":696:835   */\n    tag_198:\n        /* \"#utility.yul\":742:747   */\n      0x00\n        /* \"#utility.yul\":780:786   */\n      dup2\n        /* \"#utility.yul\":767:787   */\n      calldataload\n        /* \"#utility.yul\":758:787   */\n      swap1\n      pop\n        /* \"#utility.yul\":796:829   */\n      tag_263\n        /* \"#utility.yul\":823:828   */\n      dup2\n        /* \"#utility.yul\":796:829   */\n      tag_197\n      jump\t// in\n    tag_263:\n        /* \"#utility.yul\":696:835   */\n      swap3\n      swap2\n      pop\n      pop\n      jump\t// out\n        /* \"#utility.yul\":841:1170   */\n    tag_20:\n        /* \"#utility.yul\":900:906   */\n      0x00\n        /* \"#utility.yul\":949:951   */\n      0x20\n        /* \"#utility.yul\":937:946   */\n      dup3\n        /* \"#utility.yul\":928:935   */\n      dup5\n        /* \"#utility.yul\":924:947   */\n      sub\n        /* \"#utility.yul\":920:952   */\n      slt\n        /* \"#utility.yul\":917:1036   */\n      iszero\n      tag_265\n      jumpi\n        /* \"#utility.yul\":955:1034   */\n      tag_266\n      tag_193\n      jump\t// in\n    tag_266:\n        /* \"#utility.yul\":917:1036   */\n    tag_265:\n        /* \"#utility.yul\":1075:1076   */\n      0x00\n        /* \"#utility.yul\":1100:1153   */\n      tag_267\n        /* \"#utility.yul\":1145:1152   */\n      dup5\n        /* \"#utility.yul\":1136:1142   */\n      dup3\n        /* \"#utility.yul\":1125:1134   */\n      dup6\n        /* \"#utility.yul\":1121:1143   */\n      add\n        /* \"#utility.yul\":1100:1153   */\n      tag_198\n      jump\t// in\n    tag_267:\n        /* \"#utility.yul\":1090:1153   */\n      swap2\n      pop\n        /* \"#utility.yul\":1046:1163   */\n      pop\n        /* \"#utility.yul\":841:1170   */\n      swap3\n      swap2\n      pop\n      pop\n      jump\t// out\n        /* \"#utility.yul\":1176:1253   */\n    tag_199:\n        /* \"#utility.yul\":1213:1220   */\n      0x00\n        /* \"#utility.yul\":1242:1247   */\n      dup2\n        /* \"#utility.yul\":1231:1247   */\n      swap1\n      pop\n        /* \"#utility.yul\":1176:1253   */\n      swap2\n      swap1\n      pop\n      jump\t// out\n        /* \"#utility.yul\":1259:1377   */\n    tag_200:\n        /* \"#utility.yul\":1346:1370   */\n      tag_270\n        /* \"#utility.yul\":1364:1369   */\n      dup2\n        /* \"#utility.yul\":1346:1370   */\n      tag_199\n      jump\t// in\n    tag_270:\n        /* \"#utility.yul\":1341:1344   */\n      dup3\n        /* \"#utility.yul\":1334:1371   */\n      mstore\n        /* \"#utility.yul\":1259:1377   */\n      pop\n      pop\n      jump\t// out\n        /* \"#utility.yul\":1383:1605   */\n    tag_23:\n        /* \"#utility.yul\":1476:1480   */\n      0x00\n        /* \"#utility.yul\":1514:1516   */\n      0x20\n        /* \"#utility.yul\":1503:1512   */\n      dup3\n        /* \"#utility.yul\":1499:1517   */\n      add\n        /* \"#utility.yul\":1491:1517   */\n      swap1\n      pop\n        /* \"#utility.yul\":1527:1598   */\n      tag_272\n        /* \"#utility.yul\":1595:1596   */\n      0x00\n        /* \"#utility.yul\":1584:1593   */\n      dup4\n        /* \"#utility.yul\":1580:1597   */\n      add\n        /* \"#utility.yul\":1571:1577   */\n      dup5\n        /* \"#utility.yul\":1527:1598   */\n      tag_200\n      jump\t// in\n    tag_272:\n        /* \"#utility.yul\":1383:1605   */\n      swap3\n      swap2\n      pop\n      pop\n      jump\t// out\n        /* \"#utility.yul\":1611:1733   */\n    tag_201:\n        /* \"#utility.yul\":1684:1708   */\n      tag_274\n        /* \"#utility.yul\":1702:1707   */\n      dup2\n        /* \"#utility.yul\":1684:1708   */\n      tag_199\n      jump\t// in\n    tag_274:\n        /* \"#utility.yul\":1677:1682   */\n      dup2\n        /* \"#utility.yul\":1674:1709   */\n      eq\n        /* \"#utility.yul\":1664:1727   */\n      tag_275\n      jumpi\n        /* \"#utility.yul\":1723:1724   */\n      0x00\n        /* \"#utility.yul\":1720:1721   */\n      0x00\n        /* \"#utility.yul\":1713:1725   */\n      revert\n        /* \"#utility.yul\":1664:1727   */\n    tag_275:\n        /* \"#utility.yul\":1611:1733   */\n      pop\n      jump\t// out\n        /* \"#utility.yul\":1739:1878   */\n    tag_202:\n        /* \"#utility.yul\":1785:1790   */\n      0x00\n        /* \"#utility.yul\":1823:1829   */\n      dup2\n        /* \"#utility.yul\":1810:1830   */\n      calldataload\n        /* \"#utility.yul\":1801:1830   */\n      swap1\n      pop\n        /* \"#utility.yul\":1839:1872   */\n      tag_277\n        /* \"#utility.yul\":1866:1871   */\n      dup2\n        /* \"#utility.yul\":1839:1872   */\n      tag_201\n      jump\t// in\n    tag_277:\n        /* \"#utility.yul\":1739:1878   */\n      swap3\n      swap2\n      pop\n      pop\n      jump\t// out\n        /* \"#utility.yul\":1884:2213   */\n    tag_26:\n        /* \"#utility.yul\":1943:1949   */\n      0x00\n        /* \"#utility.yul\":1992:1994   */\n      0x20\n        /* \"#utility.yul\":1980:1989   */\n      dup3\n        /* \"#utility.yul\":1971:1978   */\n      dup5\n        /* \"#utility.yul\":1967:1990   */\n      sub\n        /* \"#utility.yul\":1963:1995   */\n      slt\n        /* \"#utility.yul\":1960:2079   */\n      iszero\n      tag_279\n      jumpi\n        /* \"#utility.yul\":1998:2077   */\n      tag_280\n      tag_193\n      jump\t// in\n    tag_280:\n        /* \"#utility.yul\":1960:2079   */\n    tag_279:\n        /* \"#utility.yul\":2118:2119   */\n      0x00\n        /* \"#utility.yul\":2143:2196   */\n      tag_281\n        /* \"#utility.yul\":2188:2195   */\n      dup5\n        /* \"#utility.yul\":2179:2185   */\n      dup3\n        /* \"#utility.yul\":2168:2177   */\n      dup6\n        /* \"#utility.yul\":2164:2186   */\n      add\n        /* \"#utility.yul\":2143:2196   */\n      tag_202\n      jump\t// in\n    tag_281:\n        /* \"#utility.yul\":2133:2196   */\n      swap2\n      pop\n        /* \"#utility.yul\":2089:2206   */\n      pop\n        /* \"#utility.yul\":1884:2213   */\n      swap3\n      swap2\n      pop\n      pop\n      jump\t// out\n        /* \"#utility.yul\":2219:2838   */\n    tag_33:\n        /* \"#utility.yul\":2296:2302   */\n      0x00\n        /* \"#utility.yul\":2304:2310   */\n      0x00\n        /* \"#utility.yul\":2312:2318   */\n      0x00\n        /* \"#utility.yul\":2361:2363   */\n      0x60\n        /* \"#utility.yul\":2349:2358   */\n      dup5\n        /* \"#utility.yul\":2340:2347   */\n      dup7\n        /* \"#utility.yul\":2336:2359   */\n      sub\n        /* \"#utility.yul\":2332:2364   */\n      slt\n        /* \"#utility.yul\":2329:2448   */\n      iszero\n      tag_283\n      jumpi\n        /* \"#utility.yul\":2367:2446   */\n      tag_284\n      tag_193\n      jump\t// in\n    tag_284:\n        /* \"#utility.yul\":2329:2448   */\n    tag_283:\n        /* \"#utility.yul\":2487:2488   */\n      0x00\n        /* \"#utility.yul\":2512:2565   */\n      tag_285\n        /* \"#utility.yul\":2557:2564   */\n      dup7\n        /* \"#utility.yul\":2548:2554   */\n      dup3\n        /* \"#utility.yul\":2537:2546   */\n      dup8\n        /* \"#utility.yul\":2533:2555   */\n      add\n        /* \"#utility.yul\":2512:2565   */\n      tag_198\n      jump\t// in\n    tag_285:\n        /* \"#utility.yul\":2502:2565   */\n      swap4\n      pop\n        /* \"#utility.yul\":2458:2575   */\n      pop\n        /* \"#utility.yul\":2614:2616   */\n      0x20\n        /* \"#utility.yul\":2640:2693   */\n      tag_286\n        /* \"#utility.yul\":2685:2692   */\n      dup7\n        /* \"#utility.yul\":2676:2682   */\n      dup3\n        /* \"#utility.yul\":2665:2674   */\n      dup8\n        /* \"#utility.yul\":2661:2683   */\n      add\n        /* \"#utility.yul\":2640:2693   */\n      tag_198\n      jump\t// in\n    tag_286:\n        /* \"#utility.yul\":2630:2693   */\n      swap3\n      pop\n        /* \"#utility.yul\":2585:2703   */\n      pop\n        /* \"#utility.yul\":2742:2744   */\n      0x40\n        /* \"#utility.yul\":2768:2821   */\n      tag_287\n        /* \"#utility.yul\":2813:2820   */\n      dup7\n        /* \"#utility.yul\":2804:2810   */\n      dup3\n        /* \"#utility.yul\":2793:2802   */\n      dup8\n        /* \"#utility.yul\":2789:2811   */\n      add\n        /* \"#utility.yul\":2768:2821   */\n      tag_202\n      jump\t// in\n    tag_287:\n        /* \"#utility.yul\":2758:2821   */\n      swap2\n      pop\n        /* \"#utility.yul\":2713:2831   */\n      pop\n        /* \"#utility.yul\":2219:2838   */\n      swap3\n      pop\n      swap3\n      pop\n      swap3\n      jump\t// out\n        /* \"#utility.yul\":2844:2934   */\n    tag_203:\n        /* \"#utility.yul\":2878:2885   */\n      0x00\n        /* \"#utility.yul\":2921:2926   */\n      dup2\n        /* \"#utility.yul\":2914:2927   */\n      iszero\n        /* \"#utility.yul\":2907:2928   */\n      iszero\n        /* \"#utility.yul\":2896:2928   */\n      swap1\n      pop\n        /* \"#utility.yul\":2844:2934   */\n      swap2\n      swap1\n      pop\n      jump\t// out\n        /* \"#utility.yul\":2940:3049   */\n    tag_204:\n        /* \"#utility.yul\":3021:3042   */\n      tag_290\n        /* \"#utility.yul\":3036:3041   */\n      dup2\n        /* \"#utility.yul\":3021:3042   */\n      tag_203\n      jump\t// in\n    tag_290:\n        /* \"#utility.yul\":3016:3019   */\n      dup3\n        /* \"#utility.yul\":3009:3043   */\n      mstore\n        /* \"#utility.yul\":2940:3049   */\n      pop\n      pop\n      jump\t// out\n        /* \"#utility.yul\":3055:3265   */\n    tag_36:\n        /* \"#utility.yul\":3142:3146   */\n      0x00\n        /* \"#utility.yul\":3180:3182   */\n      0x20\n        /* \"#utility.yul\":3169:3178   */\n      dup3\n        /* \"#utility.yul\":3165:3183   */\n      add\n        /* \"#utility.yul\":3157:3183   */\n      swap1\n      pop\n        /* \"#utility.yul\":3193:3258   */\n      tag_292\n        /* \"#utility.yul\":3255:3256   */\n      0x00\n        /* \"#utility.yul\":3244:3253   */\n      dup4\n        /* \"#utility.yul\":3240:3257   */\n      add\n        /* \"#utility.yul\":3231:3237   */\n      dup5\n        /* \"#utility.yul\":3193:3258   */\n      tag_204\n      jump\t// in\n    tag_292:\n        /* \"#utility.yul\":3055:3265   */\n      swap3\n      swap2\n      pop\n      pop\n      jump\t// out\n        /* \"#utility.yul\":3271:3389   */\n    tag_205:\n        /* \"#utility.yul\":3358:3382   */\n      tag_294\n        /* \"#utility.yul\":3376:3381   */\n      dup2\n        /* \"#utility.yul\":3358:3382   */\n      tag_196\n      jump\t// in\n    tag_294:\n        /* \"#utility.yul\":3353:3356   */\n      dup3\n        /* \"#utility.yul\":3346:3383   */\n      mstore\n        /* \"#utility.yul\":3271:3389   */\n      pop\n      pop\n      jump\t// out\n        /* \"#utility.yul\":3395:3617   */\n    tag_40:\n        /* \"#utility.yul\":3488:3492   */\n      0x00\n        /* \"#utility.yul\":3526:3528   */\n      0x20\n        /* \"#utility.yul\":3515:3524   */\n      dup3\n        /* \"#utility.yul\":3511:3529   */\n      add\n        /* \"#utility.yul\":3503:3529   */\n      swap1\n      pop\n        /* \"#utility.yul\":3539:3610   */\n      tag_296\n        /* \"#utility.yul\":3607:3608   */\n      0x00\n        /* \"#utility.yul\":3596:3605   */\n      dup4\n        /* \"#utility.yul\":3592:3609   */\n      add\n        /* \"#utility.yul\":3583:3589   */\n      dup5\n        /* \"#utility.yul\":3539:3610   */\n      tag_205\n      jump\t// in\n    tag_296:\n        /* \"#utility.yul\":3395:3617   */\n      swap3\n      swap2\n      pop\n      pop\n      jump\t// out\n        /* \"#utility.yul\":3623:3709   */\n    tag_206:\n        /* \"#utility.yul\":3658:3665   */\n      0x00\n        /* \"#utility.yul\":3698:3702   */\n      0xff\n        /* \"#utility.yul\":3691:3696   */\n      dup3\n        /* \"#utility.yul\":3687:3703   */\n      and\n        /* \"#utility.yul\":3676:3703   */\n      swap1\n      pop\n        /* \"#utility.yul\":3623:3709   */\n      swap2\n      swap1\n      pop\n      jump\t// out\n        /* \"#utility.yul\":3715:3833   */\n    tag_207:\n        /* \"#utility.yul\":3786:3808   */\n      tag_299\n        /* \"#utility.yul\":3802:3807   */\n      dup2\n        /* \"#utility.yul\":3786:3808   */\n      tag_206\n      jump\t// in\n    tag_299:\n        /* \"#utility.yul\":3779:3784   */\n      dup2\n        /* \"#utility.yul\":3776:3809   */\n      eq\n        /* \"#utility.yul\":3766:3827   */\n      tag_300\n      jumpi\n        /* \"#utility.yul\":3823:3824   */\n      0x00\n        /* \"#utility.yul\":3820:3821   */\n      0x00\n        /* \"#utility.yul\":3813:3825   */\n      revert\n        /* \"#utility.yul\":3766:3827   */\n    tag_300:\n        /* \"#utility.yul\":3715:3833   */\n      pop\n      jump\t// out\n        /* \"#utility.yul\":3839:3974   */\n    tag_208:\n        /* \"#utility.yul\":3883:3888   */\n      0x00\n        /* \"#utility.yul\":3921:3927   */\n      dup2\n        /* \"#utility.yul\":3908:3928   */\n      calldataload\n        /* \"#utility.yul\":3899:3928   */\n      swap1\n      pop\n        /* \"#utility.yul\":3937:3968   */\n      tag_302\n        /* \"#utility.yul\":3962:3967   */\n      dup2\n        /* \"#utility.yul\":3937:3968   */\n      tag_207\n      jump\t// in\n    tag_302:\n        /* \"#utility.yul\":3839:3974   */\n      swap3\n      swap2\n      pop\n      pop\n      jump\t// out\n        /* \"#utility.yul\":3980:4057   */\n    tag_209:\n        /* \"#utility.yul\":4017:4024   */\n      0x00\n        /* \"#utility.yul\":4046:4051   */\n      dup2\n        /* \"#utility.yul\":4035:4051   */\n      swap1\n      pop\n        /* \"#utility.yul\":3980:4057   */\n      swap2\n      swap1\n      pop\n      jump\t// out\n        /* \"#utility.yul\":4063:4185   */\n    tag_210:\n        /* \"#utility.yul\":4136:4160   */\n      tag_305\n        /* \"#utility.yul\":4154:4159   */\n      dup2\n        /* \"#utility.yul\":4136:4160   */\n      tag_209\n      jump\t// in\n    tag_305:\n        /* \"#utility.yul\":4129:4134   */\n      dup2\n        /* \"#utility.yul\":4126:4161   */\n      eq\n        /* \"#utility.yul\":4116:4179   */\n      tag_306\n      jumpi\n        /* \"#utility.yul\":4175:4176   */\n      0x00\n        /* \"#utility.yul\":4172:4173   */\n      0x00\n        /* \"#utility.yul\":4165:4177   */\n      revert\n        /* \"#utility.yul\":4116:4179   */\n    tag_306:\n        /* \"#utility.yul\":4063:4185   */\n      pop\n      jump\t// out\n        /* \"#utility.yul\":4191:4330   */\n    tag_211:\n        /* \"#utility.yul\":4237:4242   */\n      0x00\n        /* \"#utility.yul\":4275:4281   */\n      dup2\n        /* \"#utility.yul\":4262:4282   */\n      calldataload\n        /* \"#utility.yul\":4253:4282   */\n      swap1\n      pop\n        /* \"#utility.yul\":4291:4324   */\n      tag_308\n        /* \"#utility.yul\":4318:4323   */\n      dup2\n        /* \"#utility.yul\":4291:4324   */\n      tag_210\n      jump\t// in\n    tag_308:\n        /* \"#utility.yul\":4191:4330   */\n      swap3\n      swap2\n      pop\n      pop\n      jump\t// out\n        /* \"#utility.yul\":4336:4453   */\n    tag_212:\n        /* \"#utility.yul\":4445:4446   */\n      0x00\n        /* \"#utility.yul\":4442:4443   */\n      0x00\n        /* \"#utility.yul\":4435:4447   */\n      revert\n        /* \"#utility.yul\":4459:4576   */\n    tag_213:\n        /* \"#utility.yul\":4568:4569   */\n      0x00\n        /* \"#utility.yul\":4565:4566   */\n      0x00\n        /* \"#utility.yul\":4558:4570   */\n      revert\n        /* \"#utility.yul\":4582:4699   */\n    tag_214:\n        /* \"#utility.yul\":4691:4692   */\n      0x00\n        /* \"#utility.yul\":4688:4689   */\n      0x00\n        /* \"#utility.yul\":4681:4693   */\n      revert\n        /* \"#utility.yul\":4718:5270   */\n    tag_215:\n        /* \"#utility.yul\":4775:4783   */\n      0x00\n        /* \"#utility.yul\":4785:4791   */\n      0x00\n        /* \"#utility.yul\":4835:4838   */\n      dup4\n        /* \"#utility.yul\":4828:4832   */\n      0x1f\n        /* \"#utility.yul\":4820:4826   */\n      dup5\n        /* \"#utility.yul\":4816:4833   */\n      add\n        /* \"#utility.yul\":4812:4839   */\n      slt\n        /* \"#utility.yul\":4802:4924   */\n      tag_313\n      jumpi\n        /* \"#utility.yul\":4843:4922   */\n      tag_314\n      tag_212\n      jump\t// in\n    tag_314:\n        /* \"#utility.yul\":4802:4924   */\n    tag_313:\n        /* \"#utility.yul\":4956:4962   */\n      dup3\n        /* \"#utility.yul\":4943:4963   */\n      calldataload\n        /* \"#utility.yul\":4933:4963   */\n      swap1\n      pop\n        /* \"#utility.yul\":4986:5004   */\n      0xffffffffffffffff\n        /* \"#utility.yul\":4978:4984   */\n      dup2\n        /* \"#utility.yul\":4975:5005   */\n      gt\n        /* \"#utility.yul\":4972:5089   */\n      iszero\n      tag_315\n      jumpi\n        /* \"#utility.yul\":5008:5087   */\n      tag_316\n      tag_213\n      jump\t// in\n    tag_316:\n        /* \"#utility.yul\":4972:5089   */\n    tag_315:\n        /* \"#utility.yul\":5122:5126   */\n      0x20\n        /* \"#utility.yul\":5114:5120   */\n      dup4\n        /* \"#utility.yul\":5110:5127   */\n      add\n        /* \"#utility.yul\":5098:5127   */\n      swap2\n      pop\n        /* \"#utility.yul\":5176:5179   */\n      dup4\n        /* \"#utility.yul\":5168:5172   */\n      0x01\n        /* \"#utility.yul\":5160:5166   */\n      dup3\n        /* \"#utility.yul\":5156:5173   */\n      mul\n        /* \"#utility.yul\":5146:5154   */\n      dup4\n        /* \"#utility.yul\":5142:5174   */\n      add\n        /* \"#utility.yul\":5139:5180   */\n      gt\n        /* \"#utility.yul\":5136:5264   */\n      iszero\n      tag_317\n      jumpi\n        /* \"#utility.yul\":5183:5262   */\n      tag_318\n      tag_214\n      jump\t// in\n    tag_318:\n        /* \"#utility.yul\":5136:5264   */\n    tag_317:\n        /* \"#utility.yul\":4718:5270   */\n      swap3\n      pop\n      swap3\n      swap1\n      pop\n      jump\t// out\n        /* \"#utility.yul\":5276:6673   */\n    tag_46:\n        /* \"#utility.yul\":5398:5404   */\n      0x00\n        /* \"#utility.yul\":5406:5412   */\n      0x00\n        /* \"#utility.yul\":5414:5420   */\n      0x00\n        /* \"#utility.yul\":5422:5428   */\n      0x00\n        /* \"#utility.yul\":5430:5436   */\n      0x00\n        /* \"#utility.yul\":5438:5444   */\n      0x00\n        /* \"#utility.yul\":5446:5452   */\n      0x00\n        /* \"#utility.yul\":5454:5460   */\n      0x00\n        /* \"#utility.yul\":5503:5506   */\n      0xe0\n        /* \"#utility.yul\":5491:5500   */\n      dup10\n        /* \"#utility.yul\":5482:5489   */\n      dup12\n        /* \"#utility.yul\":5478:5501   */\n      sub\n        /* \"#utility.yul\":5474:5507   */\n      slt\n        /* \"#utility.yul\":5471:5591   */\n      iszero\n      tag_320\n      jumpi\n        /* \"#utility.yul\":5510:5589   */\n      tag_321\n      tag_193\n      jump\t// in\n    tag_321:\n        /* \"#utility.yul\":5471:5591   */\n    tag_320:\n        /* \"#utility.yul\":5630:5631   */\n      0x00\n        /* \"#utility.yul\":5655:5708   */\n      tag_322\n        /* \"#utility.yul\":5700:5707   */\n      dup12\n        /* \"#utility.yul\":5691:5697   */\n      dup3\n        /* \"#utility.yul\":5680:5689   */\n      dup13\n        /* \"#utility.yul\":5676:5698   */\n      add\n        /* \"#utility.yul\":5655:5708   */\n      tag_202\n      jump\t// in\n    tag_322:\n        /* \"#utility.yul\":5645:5708   */\n      swap9\n      pop\n        /* \"#utility.yul\":5601:5718   */\n      pop\n        /* \"#utility.yul\":5757:5759   */\n      0x20\n        /* \"#utility.yul\":5783:5836   */\n      tag_323\n        /* \"#utility.yul\":5828:5835   */\n      dup12\n        /* \"#utility.yul\":5819:5825   */\n      dup3\n        /* \"#utility.yul\":5808:5817   */\n      dup13\n        /* \"#utility.yul\":5804:5826   */\n      add\n        /* \"#utility.yul\":5783:5836   */\n      tag_202\n      jump\t// in\n    tag_323:\n        /* \"#utility.yul\":5773:5836   */\n      swap8\n      pop\n        /* \"#utility.yul\":5728:5846   */\n      pop\n        /* \"#utility.yul\":5885:5887   */\n      0x40\n        /* \"#utility.yul\":5911:5962   */\n      tag_324\n        /* \"#utility.yul\":5954:5961   */\n      dup12\n        /* \"#utility.yul\":5945:5951   */\n      dup3\n        /* \"#utility.yul\":5934:5943   */\n      dup13\n        /* \"#utility.yul\":5930:5952   */\n      add\n        /* \"#utility.yul\":5911:5962   */\n      tag_208\n      jump\t// in\n    tag_324:\n        /* \"#utility.yul\":5901:5962   */\n      swap7\n      pop\n        /* \"#utility.yul\":5856:5972   */\n      pop\n        /* \"#utility.yul\":6011:6013   */\n      0x60\n        /* \"#utility.yul\":6037:6090   */\n      tag_325\n        /* \"#utility.yul\":6082:6089   */\n      dup12\n        /* \"#utility.yul\":6073:6079   */\n      dup3\n        /* \"#utility.yul\":6062:6071   */\n      dup13\n        /* \"#utility.yul\":6058:6080   */\n      add\n        /* \"#utility.yul\":6037:6090   */\n      tag_211\n      jump\t// in\n    tag_325:\n        /* \"#utility.yul\":6027:6090   */\n      swap6\n      pop\n        /* \"#utility.yul\":5982:6100   */\n      pop\n        /* \"#utility.yul\":6139:6142   */\n      0x80\n        /* \"#utility.yul\":6166:6219   */\n      tag_326\n        /* \"#utility.yul\":6211:6218   */\n      dup12\n        /* \"#utility.yul\":6202:6208   */\n      dup3\n        /* \"#utility.yul\":6191:6200   */\n      dup13\n        /* \"#utility.yul\":6187:6209   */\n      add\n        /* \"#utility.yul\":6166:6219   */\n      tag_211\n      jump\t// in\n    tag_326:\n        /* \"#utility.yul\":6156:6219   */\n      swap5\n      pop\n        /* \"#utility.yul\":6110:6229   */\n      pop\n        /* \"#utility.yul\":6268:6271   */\n      0xa0\n        /* \"#utility.yul\":6295:6348   */\n      tag_327\n        /* \"#utility.yul\":6340:6347   */\n      dup12\n        /* \"#utility.yul\":6331:6337   */\n      dup3\n        /* \"#utility.yul\":6320:6329   */\n      dup13\n        /* \"#utility.yul\":6316:6338   */\n      add\n        /* \"#utility.yul\":6295:6348   */\n      tag_198\n      jump\t// in\n    tag_327:\n        /* \"#utility.yul\":6285:6348   */\n      swap4\n      pop\n        /* \"#utility.yul\":6239:6358   */\n      pop\n        /* \"#utility.yul\":6425:6428   */\n      0xc0\n        /* \"#utility.yul\":6414:6423   */\n      dup10\n        /* \"#utility.yul\":6410:6429   */\n      add\n        /* \"#utility.yul\":6397:6430   */\n      calldataload\n        /* \"#utility.yul\":6457:6475   */\n      0xffffffffffffffff\n        /* \"#utility.yul\":6449:6455   */\n      dup2\n        /* \"#utility.yul\":6446:6476   */\n      gt\n        /* \"#utility.yul\":6443:6560   */\n      iszero\n      tag_328\n      jumpi\n        /* \"#utility.yul\":6479:6558   */\n      tag_329\n      tag_194\n      jump\t// in\n    tag_329:\n        /* \"#utility.yul\":6443:6560   */\n    tag_328:\n        /* \"#utility.yul\":6592:6656   */\n      tag_330\n        /* \"#utility.yul\":6648:6655   */\n      dup12\n        /* \"#utility.yul\":6639:6645   */\n      dup3\n        /* \"#utility.yul\":6628:6637   */\n      dup13\n        /* \"#utility.yul\":6624:6646   */\n      add\n        /* \"#utility.yul\":6592:6656   */\n      tag_215\n      jump\t// in\n    tag_330:\n        /* \"#utility.yul\":6574:6656   */\n      swap3\n      pop\n      swap3\n      pop\n        /* \"#utility.yul\":6368:6666   */\n      pop\n        /* \"#utility.yul\":5276:6673   */\n      swap3\n      swap6\n      swap9\n      pop\n      swap3\n      swap6\n      swap9\n      swap1\n      swap4\n      swap7\n      pop\n      jump\t// out\n        /* \"#utility.yul\":6679:7011   */\n    tag_52:\n        /* \"#utility.yul\":6800:6804   */\n      0x00\n        /* \"#utility.yul\":6838:6840   */\n      0x40\n        /* \"#utility.yul\":6827:6836   */\n      dup3\n        /* \"#utility.yul\":6823:6841   */\n      add\n        /* \"#utility.yul\":6815:6841   */\n      swap1\n      pop\n        /* \"#utility.yul\":6851:6922   */\n      tag_332\n        /* \"#utility.yul\":6919:6920   */\n      0x00\n        /* \"#utility.yul\":6908:6917   */\n      dup4\n        /* \"#utility.yul\":6904:6921   */\n      add\n        /* \"#utility.yul\":6895:6901   */\n      dup6\n        /* \"#utility.yul\":6851:6922   */\n      tag_200\n      jump\t// in\n    tag_332:\n        /* \"#utility.yul\":6932:7004   */\n      tag_333\n        /* \"#utility.yul\":7000:7002   */\n      0x20\n        /* \"#utility.yul\":6989:6998   */\n      dup4\n        /* \"#utility.yul\":6985:7003   */\n      add\n        /* \"#utility.yul\":6976:6982   */\n      dup5\n        /* \"#utility.yul\":6932:7004   */\n      tag_200\n      jump\t// in\n    tag_333:\n        /* \"#utility.yul\":6679:7011   */\n      swap4\n      swap3\n      pop\n      pop\n      pop\n      jump\t// out\n        /* \"#utility.yul\":7017:7924   */\n    tag_58:\n        /* \"#utility.yul\":7110:7116   */\n      0x00\n        /* \"#utility.yul\":7118:7124   */\n      0x00\n        /* \"#utility.yul\":7126:7132   */\n      0x00\n        /* \"#utility.yul\":7134:7140   */\n      0x00\n        /* \"#utility.yul\":7142:7148   */\n      0x00\n        /* \"#utility.yul\":7191:7194   */\n      0xa0\n        /* \"#utility.yul\":7179:7188   */\n      dup7\n        /* \"#utility.yul\":7170:7177   */\n      dup9\n        /* \"#utility.yul\":7166:7189   */\n      sub\n        /* \"#utility.yul\":7162:7195   */\n      slt\n        /* \"#utility.yul\":7159:7279   */\n      iszero\n      tag_335\n      jumpi\n        /* \"#utility.yul\":7198:7277   */\n      tag_336\n      tag_193\n      jump\t// in\n    tag_336:\n        /* \"#utility.yul\":7159:7279   */\n    tag_335:\n        /* \"#utility.yul\":7318:7319   */\n      0x00\n        /* \"#utility.yul\":7343:7396   */\n      tag_337\n        /* \"#utility.yul\":7388:7395   */\n      dup9\n        /* \"#utility.yul\":7379:7385   */\n      dup3\n        /* \"#utility.yul\":7368:7377   */\n      dup10\n        /* \"#utility.yul\":7364:7386   */\n      add\n        /* \"#utility.yul\":7343:7396   */\n      tag_202\n      jump\t// in\n    tag_337:\n        /* \"#utility.yul\":7333:7396   */\n      swap6\n      pop\n        /* \"#utility.yul\":7289:7406   */\n      pop\n        /* \"#utility.yul\":7445:7447   */\n      0x20\n        /* \"#utility.yul\":7471:7524   */\n      tag_338\n        /* \"#utility.yul\":7516:7523   */\n      dup9\n        /* \"#utility.yul\":7507:7513   */\n      dup3\n        /* \"#utility.yul\":7496:7505   */\n      dup10\n        /* \"#utility.yul\":7492:7514   */\n      add\n        /* \"#utility.yul\":7471:7524   */\n      tag_202\n      jump\t// in\n    tag_338:\n        /* \"#utility.yul\":7461:7524   */\n      swap5\n      pop\n        /* \"#utility.yul\":7416:7534   */\n      pop\n        /* \"#utility.yul\":7573:7575   */\n      0x40\n        /* \"#utility.yul\":7599:7650   */\n      tag_339\n        /* \"#utility.yul\":7642:7649   */\n      dup9\n        /* \"#utility.yul\":7633:7639   */\n      dup3\n        /* \"#utility.yul\":7622:7631   */\n      dup10\n        /* \"#utility.yul\":7618:7640   */\n      add\n        /* \"#utility.yul\":7599:7650   */\n      tag_208\n      jump\t// in\n    tag_339:\n        /* \"#utility.yul\":7589:7650   */\n      swap4\n      pop\n        /* \"#utility.yul\":7544:7660   */\n      pop\n        /* \"#utility.yul\":7699:7701   */\n      0x60\n        /* \"#utility.yul\":7725:7778   */\n      tag_340\n        /* \"#utility.yul\":7770:7777   */\n      dup9\n        /* \"#utility.yul\":7761:7767   */\n      dup3\n        /* \"#utility.yul\":7750:7759   */\n      dup10\n        /* \"#utility.yul\":7746:7768   */\n      add\n        /* \"#utility.yul\":7725:7778   */\n      tag_211\n      jump\t// in\n    tag_340:\n        /* \"#utility.yul\":7715:7778   */\n      swap3\n      pop\n        /* \"#utility.yul\":7670:7788   */\n      pop\n        /* \"#utility.yul\":7827:7830   */\n      0x80\n        /* \"#utility.yul\":7854:7907   */\n      tag_341\n        /* \"#utility.yul\":7899:7906   */\n      dup9\n        /* \"#utility.yul\":7890:7896   */\n      dup3\n        /* \"#utility.yul\":7879:7888   */\n      dup10\n        /* \"#utility.yul\":7875:7897   */\n      add\n        /* \"#utility.yul\":7854:7907   */\n      tag_211\n      jump\t// in\n    tag_341:\n        /* \"#utility.yul\":7844:7907   */\n      swap2\n      pop\n        /* \"#utility.yul\":7798:7917   */\n      pop\n        /* \"#utility.yul\":7017:7924   */\n      swap3\n      swap6\n      pop\n      swap3\n      swap6\n      swap1\n      swap4\n      pop\n      jump\t// out\n        /* \"#utility.yul\":7930:7990   */\n    tag_216:\n        /* \"#utility.yul\":7958:7961   */\n      0x00\n        /* \"#utility.yul\":7979:7984   */\n      dup2\n        /* \"#utility.yul\":7972:7984   */\n      swap1\n      pop\n        /* \"#utility.yul\":7930:7990   */\n      swap2\n      swap1\n      pop\n      jump\t// out\n        /* \"#utility.yul\":7996:8138   */\n    tag_217:\n        /* \"#utility.yul\":8046:8055   */\n      0x00\n        /* \"#utility.yul\":8079:8132   */\n      tag_344\n        /* \"#utility.yul\":8097:8131   */\n      tag_345\n        /* \"#utility.yul\":8106:8130   */\n      tag_346\n        /* \"#utility.yul\":8124:8129   */\n      dup5\n        /* \"#utility.yul\":8106:8130   */\n      tag_195\n      jump\t// in\n    tag_346:\n        /* \"#utility.yul\":8097:8131   */\n      tag_216\n      jump\t// in\n    tag_345:\n        /* \"#utility.yul\":8079:8132   */\n      tag_195\n      jump\t// in\n    tag_344:\n        /* \"#utility.yul\":8066:8132   */\n      swap1\n      pop\n        /* \"#utility.yul\":7996:8138   */\n      swap2\n      swap1\n      pop\n      jump\t// out\n        /* \"#utility.yul\":8144:8270   */\n    tag_218:\n        /* \"#utility.yul\":8194:8203   */\n      0x00\n        /* \"#utility.yul\":8227:8264   */\n      tag_348\n        /* \"#utility.yul\":8258:8263   */\n      dup3\n        /* \"#utility.yul\":8227:8264   */\n      tag_217\n      jump\t// in\n    tag_348:\n        /* \"#utility.yul\":8214:8264   */\n      swap1\n      pop\n        /* \"#utility.yul\":8144:8270   */\n      swap2\n      swap1\n      pop\n      jump\t// out\n        /* \"#utility.yul\":8276:8416   */\n    tag_219:\n        /* \"#utility.yul\":8340:8349   */\n      0x00\n        /* \"#utility.yul\":8373:8410   */\n      tag_350\n        /* \"#utility.yul\":8404:8409   */\n      dup3\n        /* \"#utility.yul\":8373:8410   */\n      tag_218\n      jump\t// in\n    tag_350:\n        /* \"#utility.yul\":8360:8410   */\n      swap1\n      pop\n        /* \"#utility.yul\":8276:8416   */\n      swap2\n      swap1\n      pop\n      jump\t// out\n        /* \"#utility.yul\":8422:8581   */\n    tag_220:\n        /* \"#utility.yul\":8523:8574   */\n      tag_352\n        /* \"#utility.yul\":8568:8573   */\n      dup2\n        /* \"#utility.yul\":8523:8574   */\n      tag_219\n      jump\t// in\n    tag_352:\n        /* \"#utility.yul\":8518:8521   */\n      dup3\n        /* \"#utility.yul\":8511:8575   */\n      mstore\n        /* \"#utility.yul\":8422:8581   */\n      pop\n      pop\n      jump\t// out\n        /* \"#utility.yul\":8587:8837   */\n    tag_70:\n        /* \"#utility.yul\":8694:8698   */\n      0x00\n        /* \"#utility.yul\":8732:8734   */\n      0x20\n        /* \"#utility.yul\":8721:8730   */\n      dup3\n        /* \"#utility.yul\":8717:8735   */\n      add\n        /* \"#utility.yul\":8709:8735   */\n      swap1\n      pop\n        /* \"#utility.yul\":8745:8830   */\n      tag_354\n        /* \"#utility.yul\":8827:8828   */\n      0x00\n        /* \"#utility.yul\":8816:8825   */\n      dup4\n        /* \"#utility.yul\":8812:8829   */\n      add\n        /* \"#utility.yul\":8803:8809   */\n      dup5\n        /* \"#utility.yul\":8745:8830   */\n      tag_220\n      jump\t// in\n    tag_354:\n        /* \"#utility.yul\":8587:8837   */\n      swap3\n      swap2\n      pop\n      pop\n      jump\t// out\n        /* \"#utility.yul\":8843:9012   */\n    tag_221:\n        /* \"#utility.yul\":8927:8938   */\n      0x00\n        /* \"#utility.yul\":8961:8967   */\n      dup3\n        /* \"#utility.yul\":8956:8959   */\n      dup3\n        /* \"#utility.yul\":8949:8968   */\n      mstore\n        /* \"#utility.yul\":9001:9005   */\n      0x20\n        /* \"#utility.yul\":8996:8999   */\n      dup3\n        /* \"#utility.yul\":8992:9006   */\n      add\n        /* \"#utility.yul\":8977:9006   */\n      swap1\n      pop\n        /* \"#utility.yul\":8843:9012   */\n      swap3\n      swap2\n      pop\n      pop\n      jump\t// out\n        /* \"#utility.yul\":9018:9197   */\n    tag_222:\n        /* \"#utility.yul\":9158:9189   */\n      0x416d6f756e74206d7573742062652067726561746572207468616e2030000000\n        /* \"#utility.yul\":9154:9155   */\n      0x00\n        /* \"#utility.yul\":9146:9152   */\n      dup3\n        /* \"#utility.yul\":9142:9156   */\n      add\n        /* \"#utility.yul\":9135:9190   */\n      mstore\n        /* \"#utility.yul\":9018:9197   */\n      pop\n      jump\t// out\n        /* \"#utility.yul\":9203:9569   */\n    tag_223:\n        /* \"#utility.yul\":9345:9348   */\n      0x00\n        /* \"#utility.yul\":9366:9433   */\n      tag_358\n        /* \"#utility.yul\":9430:9432   */\n      0x1d\n        /* \"#utility.yul\":9425:9428   */\n      dup4\n        /* \"#utility.yul\":9366:9433   */\n      tag_221\n      jump\t// in\n    tag_358:\n        /* \"#utility.yul\":9359:9433   */\n      swap2\n      pop\n        /* \"#utility.yul\":9442:9535   */\n      tag_359\n        /* \"#utility.yul\":9531:9534   */\n      dup3\n        /* \"#utility.yul\":9442:9535   */\n      tag_222\n      jump\t// in\n    tag_359:\n        /* \"#utility.yul\":9560:9562   */\n      0x20\n        /* \"#utility.yul\":9555:9558   */\n      dup3\n        /* \"#utility.yul\":9551:9563   */\n      add\n        /* \"#utility.yul\":9544:9563   */\n      swap1\n      pop\n        /* \"#utility.yul\":9203:9569   */\n      swap2\n      swap1\n      pop\n      jump\t// out\n        /* \"#utility.yul\":9575:9994   */\n    tag_74:\n        /* \"#utility.yul\":9741:9745   */\n      0x00\n        /* \"#utility.yul\":9779:9781   */\n      0x20\n        /* \"#utility.yul\":9768:9777   */\n      dup3\n        /* \"#utility.yul\":9764:9782   */\n      add\n        /* \"#utility.yul\":9756:9782   */\n      swap1\n      pop\n        /* \"#utility.yul\":9828:9837   */\n      dup2\n        /* \"#utility.yul\":9822:9826   */\n      dup2\n        /* \"#utility.yul\":9818:9838   */\n      sub\n        /* \"#utility.yul\":9814:9815   */\n      0x00\n        /* \"#utility.yul\":9803:9812   */\n      dup4\n        /* \"#utility.yul\":9799:9816   */\n      add\n        /* \"#utility.yul\":9792:9839   */\n      mstore\n        /* \"#utility.yul\":9856:9987   */\n      tag_361\n        /* \"#utility.yul\":9982:9986   */\n      dup2\n        /* \"#utility.yul\":9856:9987   */\n      tag_223\n      jump\t// in\n    tag_361:\n        /* \"#utility.yul\":9848:9987   */\n      swap1\n      pop\n        /* \"#utility.yul\":9575:9994   */\n      swap2\n      swap1\n      pop\n      jump\t// out\n        /* \"#utility.yul\":10000:10170   */\n    tag_224:\n        /* \"#utility.yul\":10140:10162   */\n      0x496e73756666696369656e742062616c616e6365000000000000000000000000\n        /* \"#utility.yul\":10136:10137   */\n      0x00\n        /* \"#utility.yul\":10128:10134   */\n      dup3\n        /* \"#utility.yul\":10124:10138   */\n      add\n        /* \"#utility.yul\":10117:10163   */\n      mstore\n        /* \"#utility.yul\":10000:10170   */\n      pop\n      jump\t// out\n        /* \"#utility.yul\":10176:10542   */\n    tag_225:\n        /* \"#utility.yul\":10318:10321   */\n      0x00\n        /* \"#utility.yul\":10339:10406   */\n      tag_364\n        /* \"#utility.yul\":10403:10405   */\n      0x14\n        /* \"#utility.yul\":10398:10401   */\n      dup4\n        /* \"#utility.yul\":10339:10406   */\n      tag_221\n      jump\t// in\n    tag_364:\n        /* \"#utility.yul\":10332:10406   */\n      swap2\n      pop\n        /* \"#utility.yul\":10415:10508   */\n      tag_365\n        /* \"#utility.yul\":10504:10507   */\n      dup3\n        /* \"#utility.yul\":10415:10508   */\n      tag_224\n      jump\t// in\n    tag_365:\n        /* \"#utility.yul\":10533:10535   */\n      0x20\n        /* \"#utility.yul\":10528:10531   */\n      dup3\n        /* \"#utility.yul\":10524:10536   */\n      add\n        /* \"#utility.yul\":10517:10536   */\n      swap1\n      pop\n        /* \"#utility.yul\":10176:10542   */\n      swap2\n      swap1\n      pop\n      jump\t// out\n        /* \"#utility.yul\":10548:10967   */\n    tag_77:\n        /* \"#utility.yul\":10714:10718   */\n      0x00\n        /* \"#utility.yul\":10752:10754   */\n      0x20\n        /* \"#utility.yul\":10741:10750   */\n      dup3\n        /* \"#utility.yul\":10737:10755   */\n      add\n        /* \"#utility.yul\":10729:10755   */\n      swap1\n      pop\n        /* \"#utility.yul\":10801:10810   */\n      dup2\n        /* \"#utility.yul\":10795:10799   */\n      dup2\n        /* \"#utility.yul\":10791:10811   */\n      sub\n        /* \"#utility.yul\":10787:10788   */\n      0x00\n        /* \"#utility.yul\":10776:10785   */\n      dup4\n        /* \"#utility.yul\":10772:10789   */\n      add\n        /* \"#utility.yul\":10765:10812   */\n      mstore\n        /* \"#utility.yul\":10829:10960   */\n      tag_367\n        /* \"#utility.yul\":10955:10959   */\n      dup2\n        /* \"#utility.yul\":10829:10960   */\n      tag_225\n      jump\t// in\n    tag_367:\n        /* \"#utility.yul\":10821:10960   */\n      swap1\n      pop\n        /* \"#utility.yul\":10548:10967   */\n      swap2\n      swap1\n      pop\n      jump\t// out\n        /* \"#utility.yul\":10973:11153   */\n    tag_226:\n        /* \"#utility.yul\":11021:11098   */\n      0x4e487b7100000000000000000000000000000000000000000000000000000000\n        /* \"#utility.yul\":11018:11019   */\n      0x00\n        /* \"#utility.yul\":11011:11099   */\n      mstore\n        /* \"#utility.yul\":11118:11122   */\n      0x11\n        /* \"#utility.yul\":11115:11116   */\n      0x04\n        /* \"#utility.yul\":11108:11123   */\n      mstore\n        /* \"#utility.yul\":11142:11146   */\n      0x24\n        /* \"#utility.yul\":11139:11140   */\n      0x00\n        /* \"#utility.yul\":11132:11147   */\n      revert\n        /* \"#utility.yul\":11159:11353   */\n    tag_79:\n        /* \"#utility.yul\":11199:11203   */\n      0x00\n        /* \"#utility.yul\":11219:11239   */\n      tag_370\n        /* \"#utility.yul\":11237:11238   */\n      dup3\n        /* \"#utility.yul\":11219:11239   */\n      tag_199\n      jump\t// in\n    tag_370:\n        /* \"#utility.yul\":11214:11239   */\n      swap2\n      pop\n        /* \"#utility.yul\":11253:11273   */\n      tag_371\n        /* \"#utility.yul\":11271:11272   */\n      dup4\n        /* \"#utility.yul\":11253:11273   */\n      tag_199\n      jump\t// in\n    tag_371:\n        /* \"#utility.yul\":11248:11273   */\n      swap3\n      pop\n        /* \"#utility.yul\":11297:11298   */\n      dup3\n        /* \"#utility.yul\":11294:11295   */\n      dup3\n        /* \"#utility.yul\":11290:11299   */\n      sub\n        /* \"#utility.yul\":11282:11299   */\n      swap1\n      pop\n        /* \"#utility.yul\":11321:11322   */\n      dup2\n        /* \"#utility.yul\":11315:11319   */\n      dup2\n        /* \"#utility.yul\":11312:11323   */\n      gt\n        /* \"#utility.yul\":11309:11346   */\n      iszero\n      tag_372\n      jumpi\n        /* \"#utility.yul\":11326:11344   */\n      tag_373\n      tag_226\n      jump\t// in\n    tag_373:\n        /* \"#utility.yul\":11309:11346   */\n    tag_372:\n        /* \"#utility.yul\":11159:11353   */\n      swap3\n      swap2\n      pop\n      pop\n      jump\t// out\n        /* \"#utility.yul\":11359:11691   */\n    tag_81:\n        /* \"#utility.yul\":11480:11484   */\n      0x00\n        /* \"#utility.yul\":11518:11520   */\n      0x40\n        /* \"#utility.yul\":11507:11516   */\n      dup3\n        /* \"#utility.yul\":11503:11521   */\n      add\n        /* \"#utility.yul\":11495:11521   */\n      swap1\n      pop\n        /* \"#utility.yul\":11531:11602   */\n      tag_375\n        /* \"#utility.yul\":11599:11600   */\n      0x00\n        /* \"#utility.yul\":11588:11597   */\n      dup4\n        /* \"#utility.yul\":11584:11601   */\n      add\n        /* \"#utility.yul\":11575:11581   */\n      dup6\n        /* \"#utility.yul\":11531:11602   */\n      tag_205\n      jump\t// in\n    tag_375:\n        /* \"#utility.yul\":11612:11684   */\n      tag_376\n        /* \"#utility.yul\":11680:11682   */\n      0x20\n        /* \"#utility.yul\":11669:11678   */\n      dup4\n        /* \"#utility.yul\":11665:11683   */\n      add\n        /* \"#utility.yul\":11656:11662   */\n      dup5\n        /* \"#utility.yul\":11612:11684   */\n      tag_200\n      jump\t// in\n    tag_376:\n        /* \"#utility.yul\":11359:11691   */\n      swap4\n      swap3\n      pop\n      pop\n      pop\n      jump\t// out\n        /* \"#utility.yul\":11697:11813   */\n    tag_227:\n        /* \"#utility.yul\":11767:11788   */\n      tag_378\n        /* \"#utility.yul\":11782:11787   */\n      dup2\n        /* \"#utility.yul\":11767:11788   */\n      tag_203\n      jump\t// in\n    tag_378:\n        /* \"#utility.yul\":11760:11765   */\n      dup2\n        /* \"#utility.yul\":11757:11789   */\n      eq\n        /* \"#utility.yul\":11747:11807   */\n      tag_379\n      jumpi\n        /* \"#utility.yul\":11803:11804   */\n      0x00\n        /* \"#utility.yul\":11800:11801   */\n      0x00\n        /* \"#utility.yul\":11793:11805   */\n      revert\n        /* \"#utility.yul\":11747:11807   */\n    tag_379:\n        /* \"#utility.yul\":11697:11813   */\n      pop\n      jump\t// out\n        /* \"#utility.yul\":11819:11956   */\n    tag_228:\n        /* \"#utility.yul\":11873:11878   */\n      0x00\n        /* \"#utility.yul\":11904:11910   */\n      dup2\n        /* \"#utility.yul\":11898:11911   */\n      mload\n        /* \"#utility.yul\":11889:11911   */\n      swap1\n      pop\n        /* \"#utility.yul\":11920:11950   */\n      tag_381\n        /* \"#utility.yul\":11944:11949   */\n      dup2\n        /* \"#utility.yul\":11920:11950   */\n      tag_227\n      jump\t// in\n    tag_381:\n        /* \"#utility.yul\":11819:11956   */\n      swap3\n      swap2\n      pop\n      pop\n      jump\t// out\n        /* \"#utility.yul\":11962:12307   */\n    tag_85:\n        /* \"#utility.yul\":12029:12035   */\n      0x00\n        /* \"#utility.yul\":12078:12080   */\n      0x20\n        /* \"#utility.yul\":12066:12075   */\n      dup3\n        /* \"#utility.yul\":12057:12064   */\n      dup5\n        /* \"#utility.yul\":12053:12076   */\n      sub\n        /* \"#utility.yul\":12049:12081   */\n      slt\n        /* \"#utility.yul\":12046:12165   */\n      iszero\n      tag_383\n      jumpi\n        /* \"#utility.yul\":12084:12163   */\n      tag_384\n      tag_193\n      jump\t// in\n    tag_384:\n        /* \"#utility.yul\":12046:12165   */\n    tag_383:\n        /* \"#utility.yul\":12204:12205   */\n      0x00\n        /* \"#utility.yul\":12229:12290   */\n      tag_385\n        /* \"#utility.yul\":12282:12289   */\n      dup5\n        /* \"#utility.yul\":12273:12279   */\n      dup3\n        /* \"#utility.yul\":12262:12271   */\n      dup6\n        /* \"#utility.yul\":12258:12280   */\n      add\n        /* \"#utility.yul\":12229:12290   */\n      tag_228\n      jump\t// in\n    tag_385:\n        /* \"#utility.yul\":12219:12290   */\n      swap2\n      pop\n        /* \"#utility.yul\":12175:12300   */\n      pop\n        /* \"#utility.yul\":11962:12307   */\n      swap3\n      swap2\n      pop\n      pop\n      jump\t// out\n        /* \"#utility.yul\":12313:12484   */\n    tag_229:\n        /* \"#utility.yul\":12453:12476   */\n      0x746f6b656e207472616e73666572206661696c65640000000000000000000000\n        /* \"#utility.yul\":12449:12450   */\n      0x00\n        /* \"#utility.yul\":12441:12447   */\n      dup3\n        /* \"#utility.yul\":12437:12451   */\n      add\n        /* \"#utility.yul\":12430:12477   */\n      mstore\n        /* \"#utility.yul\":12313:12484   */\n      pop\n      jump\t// out\n        /* \"#utility.yul\":12490:12856   */\n    tag_230:\n        /* \"#utility.yul\":12632:12635   */\n      0x00\n        /* \"#utility.yul\":12653:12720   */\n      tag_388\n        /* \"#utility.yul\":12717:12719   */\n      0x15\n        /* \"#utility.yul\":12712:12715   */\n      dup4\n        /* \"#utility.yul\":12653:12720   */\n      tag_221\n      jump\t// in\n    tag_388:\n        /* \"#utility.yul\":12646:12720   */\n      swap2\n      pop\n        /* \"#utility.yul\":12729:12822   */\n      tag_389\n        /* \"#utility.yul\":12818:12821   */\n      dup3\n        /* \"#utility.yul\":12729:12822   */\n      tag_229\n      jump\t// in\n    tag_389:\n        /* \"#utility.yul\":12847:12849   */\n      0x20\n        /* \"#utility.yul\":12842:12845   */\n      dup3\n        /* \"#utility.yul\":12838:12850   */\n      add\n        /* \"#utility.yul\":12831:12850   */\n      swap1\n      pop\n        /* \"#utility.yul\":12490:12856   */\n      swap2\n      swap1\n      pop\n      jump\t// out\n        /* \"#utility.yul\":12862:13281   */\n    tag_88:\n        /* \"#utility.yul\":13028:13032   */\n      0x00\n        /* \"#utility.yul\":13066:13068   */\n      0x20\n        /* \"#utility.yul\":13055:13064   */\n      dup3\n        /* \"#utility.yul\":13051:13069   */\n      add\n        /* \"#utility.yul\":13043:13069   */\n      swap1\n      pop\n        /* \"#utility.yul\":13115:13124   */\n      dup2\n        /* \"#utility.yul\":13109:13113   */\n      dup2\n        /* \"#utility.yul\":13105:13125   */\n      sub\n        /* \"#utility.yul\":13101:13102   */\n      0x00\n        /* \"#utility.yul\":13090:13099   */\n      dup4\n        /* \"#utility.yul\":13086:13103   */\n      add\n        /* \"#utility.yul\":13079:13126   */\n      mstore\n        /* \"#utility.yul\":13143:13274   */\n      tag_391\n        /* \"#utility.yul\":13269:13273   */\n      dup2\n        /* \"#utility.yul\":13143:13274   */\n      tag_230\n      jump\t// in\n    tag_391:\n        /* \"#utility.yul\":13135:13274   */\n      swap1\n      pop\n        /* \"#utility.yul\":12862:13281   */\n      swap2\n      swap1\n      pop\n      jump\t// out\n        /* \"#utility.yul\":13287:13430   */\n    tag_231:\n        /* \"#utility.yul\":13344:13349   */\n      0x00\n        /* \"#utility.yul\":13375:13381   */\n      dup2\n        /* \"#utility.yul\":13369:13382   */\n      mload\n        /* \"#utility.yul\":13360:13382   */\n      swap1\n      pop\n        /* \"#utility.yul\":13391:13424   */\n      tag_393\n        /* \"#utility.yul\":13418:13423   */\n      dup2\n        /* \"#utility.yul\":13391:13424   */\n      tag_201\n      jump\t// in\n    tag_393:\n        /* \"#utility.yul\":13287:13430   */\n      swap3\n      swap2\n      pop\n      pop\n      jump\t// out\n        /* \"#utility.yul\":13436:13787   */\n    tag_95:\n        /* \"#utility.yul\":13506:13512   */\n      0x00\n        /* \"#utility.yul\":13555:13557   */\n      0x20\n        /* \"#utility.yul\":13543:13552   */\n      dup3\n        /* \"#utility.yul\":13534:13541   */\n      dup5\n        /* \"#utility.yul\":13530:13553   */\n      sub\n        /* \"#utility.yul\":13526:13558   */\n      slt\n        /* \"#utility.yul\":13523:13642   */\n      iszero\n      tag_395\n      jumpi\n        /* \"#utility.yul\":13561:13640   */\n      tag_396\n      tag_193\n      jump\t// in\n    tag_396:\n        /* \"#utility.yul\":13523:13642   */\n    tag_395:\n        /* \"#utility.yul\":13681:13682   */\n      0x00\n        /* \"#utility.yul\":13706:13770   */\n      tag_397\n        /* \"#utility.yul\":13762:13769   */\n      dup5\n        /* \"#utility.yul\":13753:13759   */\n      dup3\n        /* \"#utility.yul\":13742:13751   */\n      dup6\n        /* \"#utility.yul\":13738:13760   */\n      add\n        /* \"#utility.yul\":13706:13770   */\n      tag_231\n      jump\t// in\n    tag_397:\n        /* \"#utility.yul\":13696:13770   */\n      swap2\n      pop\n        /* \"#utility.yul\":13652:13780   */\n      pop\n        /* \"#utility.yul\":13436:13787   */\n      swap3\n      swap2\n      pop\n      pop\n      jump\t// out\n        /* \"#utility.yul\":13793:14020   */\n    tag_232:\n        /* \"#utility.yul\":13933:13967   */\n      0x4f6e6c7920746f6b656e20636f6e74726163742063616e2063616c6c20746869\n        /* \"#utility.yul\":13929:13930   */\n      0x00\n        /* \"#utility.yul\":13921:13927   */\n      dup3\n        /* \"#utility.yul\":13917:13931   */\n      add\n        /* \"#utility.yul\":13910:13968   */\n      mstore\n        /* \"#utility.yul\":14002:14012   */\n      0x73206d6574686f64000000000000000000000000000000000000000000000000\n        /* \"#utility.yul\":13997:13999   */\n      0x20\n        /* \"#utility.yul\":13989:13995   */\n      dup3\n        /* \"#utility.yul\":13985:14000   */\n      add\n        /* \"#utility.yul\":13978:14013   */\n      mstore\n        /* \"#utility.yul\":13793:14020   */\n      pop\n      jump\t// out\n        /* \"#utility.yul\":14026:14392   */\n    tag_233:\n        /* \"#utility.yul\":14168:14171   */\n      0x00\n        /* \"#utility.yul\":14189:14256   */\n      tag_400\n        /* \"#utility.yul\":14253:14255   */\n      0x28\n        /* \"#utility.yul\":14248:14251   */\n      dup4\n        /* \"#utility.yul\":14189:14256   */\n      tag_221\n      jump\t// in\n    tag_400:\n        /* \"#utility.yul\":14182:14256   */\n      swap2\n      pop\n        /* \"#utility.yul\":14265:14358   */\n      tag_401\n        /* \"#utility.yul\":14354:14357   */\n      dup3\n        /* \"#utility.yul\":14265:14358   */\n      tag_232\n      jump\t// in\n    tag_401:\n        /* \"#utility.yul\":14383:14385   */\n      0x40\n        /* \"#utility.yul\":14378:14381   */\n      dup3\n        /* \"#utility.yul\":14374:14386   */\n      add\n        /* \"#utility.yul\":14367:14386   */\n      swap1\n      pop\n        /* \"#utility.yul\":14026:14392   */\n      swap2\n      swap1\n      pop\n      jump\t// out\n        /* \"#utility.yul\":14398:14817   */\n    tag_99:\n        /* \"#utility.yul\":14564:14568   */\n      0x00\n        /* \"#utility.yul\":14602:14604   */\n      0x20\n        /* \"#utility.yul\":14591:14600   */\n      dup3\n        /* \"#utility.yul\":14587:14605   */\n      add\n        /* \"#utility.yul\":14579:14605   */\n      swap1\n      pop\n        /* \"#utility.yul\":14651:14660   */\n      dup2\n        /* \"#utility.yul\":14645:14649   */\n      dup2\n        /* \"#utility.yul\":14641:14661   */\n      sub\n        /* \"#utility.yul\":14637:14638   */\n      0x00\n        /* \"#utility.yul\":14626:14635   */\n      dup4\n        /* \"#utility.yul\":14622:14639   */\n      add\n        /* \"#utility.yul\":14615:14662   */\n      mstore\n        /* \"#utility.yul\":14679:14810   */\n      tag_403\n        /* \"#utility.yul\":14805:14809   */\n      dup2\n        /* \"#utility.yul\":14679:14810   */\n      tag_233\n      jump\t// in\n    tag_403:\n        /* \"#utility.yul\":14671:14810   */\n      swap1\n      pop\n        /* \"#utility.yul\":14398:14817   */\n      swap2\n      swap1\n      pop\n      jump\t// out\n        /* \"#utility.yul\":14823:14990   */\n    tag_234:\n        /* \"#utility.yul\":14963:14982   */\n      0x496e76616c696420726563697069656e74000000000000000000000000000000\n        /* \"#utility.yul\":14959:14960   */\n      0x00\n        /* \"#utility.yul\":14951:14957   */\n      dup3\n        /* \"#utility.yul\":14947:14961   */\n      add\n        /* \"#utility.yul\":14940:14983   */\n      mstore\n        /* \"#utility.yul\":14823:14990   */\n      pop\n      jump\t// out\n        /* \"#utility.yul\":14996:15362   */\n    tag_235:\n        /* \"#utility.yul\":15138:15141   */\n      0x00\n        /* \"#utility.yul\":15159:15226   */\n      tag_406\n        /* \"#utility.yul\":15223:15225   */\n      0x11\n        /* \"#utility.yul\":15218:15221   */\n      dup4\n        /* \"#utility.yul\":15159:15226   */\n      tag_221\n      jump\t// in\n    tag_406:\n        /* \"#utility.yul\":15152:15226   */\n      swap2\n      pop\n        /* \"#utility.yul\":15235:15328   */\n      tag_407\n        /* \"#utility.yul\":15324:15327   */\n      dup3\n        /* \"#utility.yul\":15235:15328   */\n      tag_234\n      jump\t// in\n    tag_407:\n        /* \"#utility.yul\":15353:15355   */\n      0x20\n        /* \"#utility.yul\":15348:15351   */\n      dup3\n        /* \"#utility.yul\":15344:15356   */\n      add\n        /* \"#utility.yul\":15337:15356   */\n      swap1\n      pop\n        /* \"#utility.yul\":14996:15362   */\n      swap2\n      swap1\n      pop\n      jump\t// out\n        /* \"#utility.yul\":15368:15787   */\n    tag_102:\n        /* \"#utility.yul\":15534:15538   */\n      0x00\n        /* \"#utility.yul\":15572:15574   */\n      0x20\n        /* \"#utility.yul\":15561:15570   */\n      dup3\n        /* \"#utility.yul\":15557:15575   */\n      add\n        /* \"#utility.yul\":15549:15575   */\n      swap1\n      pop\n        /* \"#utility.yul\":15621:15630   */\n      dup2\n        /* \"#utility.yul\":15615:15619   */\n      dup2\n        /* \"#utility.yul\":15611:15631   */\n      sub\n        /* \"#utility.yul\":15607:15608   */\n      0x00\n        /* \"#utility.yul\":15596:15605   */\n      dup4\n        /* \"#utility.yul\":15592:15609   */\n      add\n        /* \"#utility.yul\":15585:15632   */\n      mstore\n        /* \"#utility.yul\":15649:15780   */\n      tag_409\n        /* \"#utility.yul\":15775:15779   */\n      dup2\n        /* \"#utility.yul\":15649:15780   */\n      tag_235\n      jump\t// in\n    tag_409:\n        /* \"#utility.yul\":15641:15780   */\n      swap1\n      pop\n        /* \"#utility.yul\":15368:15787   */\n      swap2\n      swap1\n      pop\n      jump\t// out\n        /* \"#utility.yul\":15793:15984   */\n    tag_104:\n        /* \"#utility.yul\":15833:15836   */\n      0x00\n        /* \"#utility.yul\":15852:15872   */\n      tag_411\n        /* \"#utility.yul\":15870:15871   */\n      dup3\n        /* \"#utility.yul\":15852:15872   */\n      tag_199\n      jump\t// in\n    tag_411:\n        /* \"#utility.yul\":15847:15872   */\n      swap2\n      pop\n        /* \"#utility.yul\":15886:15906   */\n      tag_412\n        /* \"#utility.yul\":15904:15905   */\n      dup4\n        /* \"#utility.yul\":15886:15906   */\n      tag_199\n      jump\t// in\n    tag_412:\n        /* \"#utility.yul\":15881:15906   */\n      swap3\n      pop\n        /* \"#utility.yul\":15929:15930   */\n      dup3\n        /* \"#utility.yul\":15926:15927   */\n      dup3\n        /* \"#utility.yul\":15922:15931   */\n      add\n        /* \"#utility.yul\":15915:15931   */\n      swap1\n      pop\n        /* \"#utility.yul\":15950:15953   */\n      dup1\n        /* \"#utility.yul\":15947:15948   */\n      dup3\n        /* \"#utility.yul\":15944:15954   */\n      gt\n        /* \"#utility.yul\":15941:15977   */\n      iszero\n      tag_413\n      jumpi\n        /* \"#utility.yul\":15957:15975   */\n      tag_414\n      tag_226\n      jump\t// in\n    tag_414:\n        /* \"#utility.yul\":15941:15977   */\n    tag_413:\n        /* \"#utility.yul\":15793:15984   */\n      swap3\n      swap2\n      pop\n      pop\n      jump\t// out\n        /* \"#utility.yul\":15990:16154   */\n    tag_236:\n        /* \"#utility.yul\":16130:16146   */\n      0x5065726d69742065787069726564000000000000000000000000000000000000\n        /* \"#utility.yul\":16126:16127   */\n      0x00\n        /* \"#utility.yul\":16118:16124   */\n      dup3\n        /* \"#utility.yul\":16114:16128   */\n      add\n        /* \"#utility.yul\":16107:16147   */\n      mstore\n        /* \"#utility.yul\":15990:16154   */\n      pop\n      jump\t// out\n        /* \"#utility.yul\":16160:16526   */\n    tag_237:\n        /* \"#utility.yul\":16302:16305   */\n      0x00\n        /* \"#utility.yul\":16323:16390   */\n      tag_417\n        /* \"#utility.yul\":16387:16389   */\n      0x0e\n        /* \"#utility.yul\":16382:16385   */\n      dup4\n        /* \"#utility.yul\":16323:16390   */\n      tag_221\n      jump\t// in\n    tag_417:\n        /* \"#utility.yul\":16316:16390   */\n      swap2\n      pop\n        /* \"#utility.yul\":16399:16492   */\n      tag_418\n        /* \"#utility.yul\":16488:16491   */\n      dup3\n        /* \"#utility.yul\":16399:16492   */\n      tag_236\n      jump\t// in\n    tag_418:\n        /* \"#utility.yul\":16517:16519   */\n      0x20\n        /* \"#utility.yul\":16512:16515   */\n      dup3\n        /* \"#utility.yul\":16508:16520   */\n      add\n        /* \"#utility.yul\":16501:16520   */\n      swap1\n      pop\n        /* \"#utility.yul\":16160:16526   */\n      swap2\n      swap1\n      pop\n      jump\t// out\n        /* \"#utility.yul\":16532:16951   */\n    tag_112:\n        /* \"#utility.yul\":16698:16702   */\n      0x00\n        /* \"#utility.yul\":16736:16738   */\n      0x20\n        /* \"#utility.yul\":16725:16734   */\n      dup3\n        /* \"#utility.yul\":16721:16739   */\n      add\n        /* \"#utility.yul\":16713:16739   */\n      swap1\n      pop\n        /* \"#utility.yul\":16785:16794   */\n      dup2\n        /* \"#utility.yul\":16779:16783   */\n      dup2\n        /* \"#utility.yul\":16775:16795   */\n      sub\n        /* \"#utility.yul\":16771:16772   */\n      0x00\n        /* \"#utility.yul\":16760:16769   */\n      dup4\n        /* \"#utility.yul\":16756:16773   */\n      add\n        /* \"#utility.yul\":16749:16796   */\n      mstore\n        /* \"#utility.yul\":16813:16944   */\n      tag_420\n        /* \"#utility.yul\":16939:16943   */\n      dup2\n        /* \"#utility.yul\":16813:16944   */\n      tag_237\n      jump\t// in\n    tag_420:\n        /* \"#utility.yul\":16805:16944   */\n      swap1\n      pop\n        /* \"#utility.yul\":16532:16951   */\n      swap2\n      swap1\n      pop\n      jump\t// out\n        /* \"#utility.yul\":16957:17069   */\n    tag_238:\n        /* \"#utility.yul\":17040:17062   */\n      tag_422\n        /* \"#utility.yul\":17056:17061   */\n      dup2\n        /* \"#utility.yul\":17040:17062   */\n      tag_206\n      jump\t// in\n    tag_422:\n        /* \"#utility.yul\":17035:17038   */\n      dup3\n        /* \"#utility.yul\":17028:17063   */\n      mstore\n        /* \"#utility.yul\":16957:17069   */\n      pop\n      pop\n      jump\t// out\n        /* \"#utility.yul\":17075:17193   */\n    tag_239:\n        /* \"#utility.yul\":17162:17186   */\n      tag_424\n        /* \"#utility.yul\":17180:17185   */\n      dup2\n        /* \"#utility.yul\":17162:17186   */\n      tag_209\n      jump\t// in\n    tag_424:\n        /* \"#utility.yul\":17157:17160   */\n      dup3\n        /* \"#utility.yul\":17150:17187   */\n      mstore\n        /* \"#utility.yul\":17075:17193   */\n      pop\n      pop\n      jump\t// out\n        /* \"#utility.yul\":17199:18077   */\n    tag_114:\n        /* \"#utility.yul\":17456:17460   */\n      0x00\n        /* \"#utility.yul\":17494:17497   */\n      0xe0\n        /* \"#utility.yul\":17483:17492   */\n      dup3\n        /* \"#utility.yul\":17479:17498   */\n      add\n        /* \"#utility.yul\":17471:17498   */\n      swap1\n      pop\n        /* \"#utility.yul\":17508:17579   */\n      tag_426\n        /* \"#utility.yul\":17576:17577   */\n      0x00\n        /* \"#utility.yul\":17565:17574   */\n      dup4\n        /* \"#utility.yul\":17561:17578   */\n      add\n        /* \"#utility.yul\":17552:17558   */\n      dup11\n        /* \"#utility.yul\":17508:17579   */\n      tag_205\n      jump\t// in\n    tag_426:\n        /* \"#utility.yul\":17589:17661   */\n      tag_427\n        /* \"#utility.yul\":17657:17659   */\n      0x20\n        /* \"#utility.yul\":17646:17655   */\n      dup4\n        /* \"#utility.yul\":17642:17660   */\n      add\n        /* \"#utility.yul\":17633:17639   */\n      dup10\n        /* \"#utility.yul\":17589:17661   */\n      tag_205\n      jump\t// in\n    tag_427:\n        /* \"#utility.yul\":17671:17743   */\n      tag_428\n        /* \"#utility.yul\":17739:17741   */\n      0x40\n        /* \"#utility.yul\":17728:17737   */\n      dup4\n        /* \"#utility.yul\":17724:17742   */\n      add\n        /* \"#utility.yul\":17715:17721   */\n      dup9\n        /* \"#utility.yul\":17671:17743   */\n      tag_200\n      jump\t// in\n    tag_428:\n        /* \"#utility.yul\":17753:17825   */\n      tag_429\n        /* \"#utility.yul\":17821:17823   */\n      0x60\n        /* \"#utility.yul\":17810:17819   */\n      dup4\n        /* \"#utility.yul\":17806:17824   */\n      add\n        /* \"#utility.yul\":17797:17803   */\n      dup8\n        /* \"#utility.yul\":17753:17825   */\n      tag_200\n      jump\t// in\n    tag_429:\n        /* \"#utility.yul\":17835:17904   */\n      tag_430\n        /* \"#utility.yul\":17899:17902   */\n      0x80\n        /* \"#utility.yul\":17888:17897   */\n      dup4\n        /* \"#utility.yul\":17884:17903   */\n      add\n        /* \"#utility.yul\":17875:17881   */\n      dup7\n        /* \"#utility.yul\":17835:17904   */\n      tag_238\n      jump\t// in\n    tag_430:\n        /* \"#utility.yul\":17914:17987   */\n      tag_431\n        /* \"#utility.yul\":17982:17985   */\n      0xa0\n        /* \"#utility.yul\":17971:17980   */\n      dup4\n        /* \"#utility.yul\":17967:17986   */\n      add\n        /* \"#utility.yul\":17958:17964   */\n      dup6\n        /* \"#utility.yul\":17914:17987   */\n      tag_239\n      jump\t// in\n    tag_431:\n        /* \"#utility.yul\":17997:18070   */\n      tag_432\n        /* \"#utility.yul\":18065:18068   */\n      0xc0\n        /* \"#utility.yul\":18054:18063   */\n      dup4\n        /* \"#utility.yul\":18050:18069   */\n      add\n        /* \"#utility.yul\":18041:18047   */\n      dup5\n        /* \"#utility.yul\":17997:18070   */\n      tag_239\n      jump\t// in\n    tag_432:\n        /* \"#utility.yul\":17199:18077   */\n      swap9\n      swap8\n      pop\n      pop\n      pop\n      pop\n      pop\n      pop\n      pop\n      pop\n      jump\t// out\n        /* \"#utility.yul\":18083:18525   */\n    tag_119:\n        /* \"#utility.yul\":18232:18236   */\n      0x00\n        /* \"#utility.yul\":18270:18272   */\n      0x60\n        /* \"#utility.yul\":18259:18268   */\n      dup3\n        /* \"#utility.yul\":18255:18273   */\n      add\n        /* \"#utility.yul\":18247:18273   */\n      swap1\n      pop\n        /* \"#utility.yul\":18283:18354   */\n      tag_434\n        /* \"#utility.yul\":18351:18352   */\n      0x00\n        /* \"#utility.yul\":18340:18349   */\n      dup4\n        /* \"#utility.yul\":18336:18353   */\n      add\n        /* \"#utility.yul\":18327:18333   */\n      dup7\n        /* \"#utility.yul\":18283:18354   */\n      tag_205\n      jump\t// in\n    tag_434:\n        /* \"#utility.yul\":18364:18436   */\n      tag_435\n        /* \"#utility.yul\":18432:18434   */\n      0x20\n        /* \"#utility.yul\":18421:18430   */\n      dup4\n        /* \"#utility.yul\":18417:18435   */\n      add\n        /* \"#utility.yul\":18408:18414   */\n      dup6\n        /* \"#utility.yul\":18364:18436   */\n      tag_205\n      jump\t// in\n    tag_435:\n        /* \"#utility.yul\":18446:18518   */\n      tag_436\n        /* \"#utility.yul\":18514:18516   */\n      0x40\n        /* \"#utility.yul\":18503:18512   */\n      dup4\n        /* \"#utility.yul\":18499:18517   */\n      add\n        /* \"#utility.yul\":18490:18496   */\n      dup5\n        /* \"#utility.yul\":18446:18518   */\n      tag_200\n      jump\t// in\n    tag_436:\n        /* \"#utility.yul\":18083:18525   */\n      swap5\n      swap4\n      pop\n      pop\n      pop\n      pop\n      jump\t// out\n        /* \"#utility.yul\":18531:18678   */\n    tag_240:\n        /* \"#utility.yul\":18632:18643   */\n      0x00\n        /* \"#utility.yul\":18669:18672   */\n      dup2\n        /* \"#utility.yul\":18654:18672   */\n      swap1\n      pop\n        /* \"#utility.yul\":18531:18678   */\n      swap3\n      swap2\n      pop\n      pop\n      jump\t// out\n        /* \"#utility.yul\":18684:18832   */\n    tag_241:\n        /* \"#utility.yul\":18782:18788   */\n      dup3\n        /* \"#utility.yul\":18777:18780   */\n      dup2\n        /* \"#utility.yul\":18772:18775   */\n      dup4\n        /* \"#utility.yul\":18759:18789   */\n      calldatacopy\n        /* \"#utility.yul\":18823:18824   */\n      0x00\n        /* \"#utility.yul\":18814:18820   */\n      dup4\n        /* \"#utility.yul\":18809:18812   */\n      dup4\n        /* \"#utility.yul\":18805:18821   */\n      add\n        /* \"#utility.yul\":18798:18825   */\n      mstore\n        /* \"#utility.yul\":18684:18832   */\n      pop\n      pop\n      pop\n      jump\t// out\n        /* \"#utility.yul\":18860:19187   */\n    tag_242:\n        /* \"#utility.yul\":18974:18977   */\n      0x00\n        /* \"#utility.yul\":18995:19083   */\n      tag_440\n        /* \"#utility.yul\":19076:19082   */\n      dup4\n        /* \"#utility.yul\":19071:19074   */\n      dup6\n        /* \"#utility.yul\":18995:19083   */\n      tag_240\n      jump\t// in\n    tag_440:\n        /* \"#utility.yul\":18988:19083   */\n      swap4\n      pop\n        /* \"#utility.yul\":19093:19149   */\n      tag_441\n        /* \"#utility.yul\":19142:19148   */\n      dup4\n        /* \"#utility.yul\":19137:19140   */\n      dup6\n        /* \"#utility.yul\":19130:19135   */\n      dup5\n        /* \"#utility.yul\":19093:19149   */\n      tag_241\n      jump\t// in\n    tag_441:\n        /* \"#utility.yul\":19174:19180   */\n      dup3\n        /* \"#utility.yul\":19169:19172   */\n      dup5\n        /* \"#utility.yul\":19165:19181   */\n      add\n        /* \"#utility.yul\":19158:19181   */\n      swap1\n      pop\n        /* \"#utility.yul\":18860:19187   */\n      swap4\n      swap3\n      pop\n      pop\n      pop\n      jump\t// out\n        /* \"#utility.yul\":19193:19484   */\n    tag_130:\n        /* \"#utility.yul\":19333:19336   */\n      0x00\n        /* \"#utility.yul\":19355:19458   */\n      tag_443\n        /* \"#utility.yul\":19454:19457   */\n      dup3\n        /* \"#utility.yul\":19445:19451   */\n      dup5\n        /* \"#utility.yul\":19437:19443   */\n      dup7\n        /* \"#utility.yul\":19355:19458   */\n      tag_242\n      jump\t// in\n    tag_443:\n        /* \"#utility.yul\":19348:19458   */\n      swap2\n      pop\n        /* \"#utility.yul\":19475:19478   */\n      dup2\n        /* \"#utility.yul\":19468:19478   */\n      swap1\n      pop\n        /* \"#utility.yul\":19193:19484   */\n      swap4\n      swap3\n      pop\n      pop\n      pop\n      jump\t// out\n        /* \"#utility.yul\":19490:19588   */\n    tag_243:\n        /* \"#utility.yul\":19541:19547   */\n      0x00\n        /* \"#utility.yul\":19575:19580   */\n      dup2\n        /* \"#utility.yul\":19569:19581   */\n      mload\n        /* \"#utility.yul\":19559:19581   */\n      swap1\n      pop\n        /* \"#utility.yul\":19490:19588   */\n      swap2\n      swap1\n      pop\n      jump\t// out\n        /* \"#utility.yul\":19594:19733   */\n    tag_244:\n        /* \"#utility.yul\":19683:19689   */\n      dup3\n        /* \"#utility.yul\":19678:19681   */\n      dup2\n        /* \"#utility.yul\":19673:19676   */\n      dup4\n        /* \"#utility.yul\":19667:19690   */\n      mcopy\n        /* \"#utility.yul\":19724:19725   */\n      0x00\n        /* \"#utility.yul\":19715:19721   */\n      dup4\n        /* \"#utility.yul\":19710:19713   */\n      dup4\n        /* \"#utility.yul\":19706:19722   */\n      add\n        /* \"#utility.yul\":19699:19726   */\n      mstore\n        /* \"#utility.yul\":19594:19733   */\n      pop\n      pop\n      pop\n      jump\t// out\n        /* \"#utility.yul\":19739:20125   */\n    tag_245:\n        /* \"#utility.yul\":19843:19846   */\n      0x00\n        /* \"#utility.yul\":19871:19909   */\n      tag_447\n        /* \"#utility.yul\":19903:19908   */\n      dup3\n        /* \"#utility.yul\":19871:19909   */\n      tag_243\n      jump\t// in\n    tag_447:\n        /* \"#utility.yul\":19925:20013   */\n      tag_448\n        /* \"#utility.yul\":20006:20012   */\n      dup2\n        /* \"#utility.yul\":20001:20004   */\n      dup6\n        /* \"#utility.yul\":19925:20013   */\n      tag_240\n      jump\t// in\n    tag_448:\n        /* \"#utility.yul\":19918:20013   */\n      swap4\n      pop\n        /* \"#utility.yul\":20022:20087   */\n      tag_449\n        /* \"#utility.yul\":20080:20086   */\n      dup2\n        /* \"#utility.yul\":20075:20078   */\n      dup6\n        /* \"#utility.yul\":20068:20072   */\n      0x20\n        /* \"#utility.yul\":20061:20066   */\n      dup7\n        /* \"#utility.yul\":20057:20073   */\n      add\n        /* \"#utility.yul\":20022:20087   */\n      tag_244\n      jump\t// in\n    tag_449:\n        /* \"#utility.yul\":20112:20118   */\n      dup1\n        /* \"#utility.yul\":20107:20110   */\n      dup5\n        /* \"#utility.yul\":20103:20119   */\n      add\n        /* \"#utility.yul\":20096:20119   */\n      swap2\n      pop\n        /* \"#utility.yul\":19847:20125   */\n      pop\n        /* \"#utility.yul\":19739:20125   */\n      swap3\n      swap2\n      pop\n      pop\n      jump\t// out\n        /* \"#utility.yul\":20131:20402   */\n    tag_145:\n        /* \"#utility.yul\":20261:20264   */\n      0x00\n        /* \"#utility.yul\":20283:20376   */\n      tag_451\n        /* \"#utility.yul\":20372:20375   */\n      dup3\n        /* \"#utility.yul\":20363:20369   */\n      dup5\n        /* \"#utility.yul\":20283:20376   */\n      tag_245\n      jump\t// in\n    tag_451:\n        /* \"#utility.yul\":20276:20376   */\n      swap2\n      pop\n        /* \"#utility.yul\":20393:20396   */\n      dup2\n        /* \"#utility.yul\":20386:20396   */\n      swap1\n      pop\n        /* \"#utility.yul\":20131:20402   */\n      swap3\n      swap2\n      pop\n      pop\n      jump\t// out\n        /* \"#utility.yul\":20408:20580   */\n    tag_246:\n        /* \"#utility.yul\":20548:20572   */\n      0x4f6e6c79206d756c74697369672063616e2063616c6c00000000000000000000\n        /* \"#utility.yul\":20544:20545   */\n      0x00\n        /* \"#utility.yul\":20536:20542   */\n      dup3\n        /* \"#utility.yul\":20532:20546   */\n      add\n        /* \"#utility.yul\":20525:20573   */\n      mstore\n        /* \"#utility.yul\":20408:20580   */\n      pop\n      jump\t// out\n        /* \"#utility.yul\":20586:20952   */\n    tag_247:\n        /* \"#utility.yul\":20728:20731   */\n      0x00\n        /* \"#utility.yul\":20749:20816   */\n      tag_454\n        /* \"#utility.yul\":20813:20815   */\n      0x16\n        /* \"#utility.yul\":20808:20811   */\n      dup4\n        /* \"#utility.yul\":20749:20816   */\n      tag_221\n      jump\t// in\n    tag_454:\n        /* \"#utility.yul\":20742:20816   */\n      swap2\n      pop\n        /* \"#utility.yul\":20825:20918   */\n      tag_455\n        /* \"#utility.yul\":20914:20917   */\n      dup3\n        /* \"#utility.yul\":20825:20918   */\n      tag_246\n      jump\t// in\n    tag_455:\n        /* \"#utility.yul\":20943:20945   */\n      0x20\n        /* \"#utility.yul\":20938:20941   */\n      dup3\n        /* \"#utility.yul\":20934:20946   */\n      add\n        /* \"#utility.yul\":20927:20946   */\n      swap1\n      pop\n        /* \"#utility.yul\":20586:20952   */\n      swap2\n      swap1\n      pop\n      jump\t// out\n        /* \"#utility.yul\":20958:21377   */\n    tag_179:\n        /* \"#utility.yul\":21124:21128   */\n      0x00\n        /* \"#utility.yul\":21162:21164   */\n      0x20\n        /* \"#utility.yul\":21151:21160   */\n      dup3\n        /* \"#utility.yul\":21147:21165   */\n      add\n        /* \"#utility.yul\":21139:21165   */\n      swap1\n      pop\n        /* \"#utility.yul\":21211:21220   */\n      dup2\n        /* \"#utility.yul\":21205:21209   */\n      dup2\n        /* \"#utility.yul\":21201:21221   */\n      sub\n        /* \"#utility.yul\":21197:21198   */\n      0x00\n        /* \"#utility.yul\":21186:21195   */\n      dup4\n        /* \"#utility.yul\":21182:21199   */\n      add\n        /* \"#utility.yul\":21175:21222   */\n      mstore\n        /* \"#utility.yul\":21239:21370   */\n      tag_457\n        /* \"#utility.yul\":21365:21369   */\n      dup2\n        /* \"#utility.yul\":21239:21370   */\n      tag_247\n      jump\t// in\n    tag_457:\n        /* \"#utility.yul\":21231:21370   */\n      swap1\n      pop\n        /* \"#utility.yul\":20958:21377   */\n      swap2\n      swap1\n      pop\n      jump\t// out\n        /* \"#utility.yul\":21383:21557   */\n    tag_248:\n        /* \"#utility.yul\":21523:21549   */\n      0x496e76616c6964206d756c746973696720616464726573730000000000000000\n        /* \"#utility.yul\":21519:21520   */\n      0x00\n        /* \"#utility.yul\":21511:21517   */\n      dup3\n        /* \"#utility.yul\":21507:21521   */\n      add\n        /* \"#utility.yul\":21500:21550   */\n      mstore\n        /* \"#utility.yul\":21383:21557   */\n      pop\n      jump\t// out\n        /* \"#utility.yul\":21563:21929   */\n    tag_249:\n        /* \"#utility.yul\":21705:21708   */\n      0x00\n        /* \"#utility.yul\":21726:21793   */\n      tag_460\n        /* \"#utility.yul\":21790:21792   */\n      0x18\n        /* \"#utility.yul\":21785:21788   */\n      dup4\n        /* \"#utility.yul\":21726:21793   */\n      tag_221\n      jump\t// in\n    tag_460:\n        /* \"#utility.yul\":21719:21793   */\n      swap2\n      pop\n        /* \"#utility.yul\":21802:21895   */\n      tag_461\n        /* \"#utility.yul\":21891:21894   */\n      dup3\n        /* \"#utility.yul\":21802:21895   */\n      tag_248\n      jump\t// in\n    tag_461:\n        /* \"#utility.yul\":21920:21922   */\n      0x20\n        /* \"#utility.yul\":21915:21918   */\n      dup3\n        /* \"#utility.yul\":21911:21923   */\n      add\n        /* \"#utility.yul\":21904:21923   */\n      swap1\n      pop\n        /* \"#utility.yul\":21563:21929   */\n      swap2\n      swap1\n      pop\n      jump\t// out\n        /* \"#utility.yul\":21935:22354   */\n    tag_183:\n        /* \"#utility.yul\":22101:22105   */\n      0x00\n        /* \"#utility.yul\":22139:22141   */\n      0x20\n        /* \"#utility.yul\":22128:22137   */\n      dup3\n        /* \"#utility.yul\":22124:22142   */\n      add\n        /* \"#utility.yul\":22116:22142   */\n      swap1\n      pop\n        /* \"#utility.yul\":22188:22197   */\n      dup2\n        /* \"#utility.yul\":22182:22186   */\n      dup2\n        /* \"#utility.yul\":22178:22198   */\n      sub\n        /* \"#utility.yul\":22174:22175   */\n      0x00\n        /* \"#utility.yul\":22163:22172   */\n      dup4\n        /* \"#utility.yul\":22159:22176   */\n      add\n        /* \"#utility.yul\":22152:22199   */\n      mstore\n        /* \"#utility.yul\":22216:22347   */\n      tag_463\n        /* \"#utility.yul\":22342:22346   */\n      dup2\n        /* \"#utility.yul\":22216:22347   */\n      tag_249\n      jump\t// in\n    tag_463:\n        /* \"#utility.yul\":22208:22347   */\n      swap1\n      pop\n        /* \"#utility.yul\":21935:22354   */\n      swap2\n      swap1\n      pop\n      jump\t// out\n        /* \"#utility.yul\":22360:22540   */\n    tag_250:\n        /* \"#utility.yul\":22500:22532   */\n      0x4e6577206d756c7469736967206d75737420626520646966666572656e740000\n        /* \"#utility.yul\":22496:22497   */\n      0x00\n        /* \"#utility.yul\":22488:22494   */\n      dup3\n        /* \"#utility.yul\":22484:22498   */\n      add\n        /* \"#utility.yul\":22477:22533   */\n      mstore\n        /* \"#utility.yul\":22360:22540   */\n      pop\n      jump\t// out\n        /* \"#utility.yul\":22546:22912   */\n    tag_251:\n        /* \"#utility.yul\":22688:22691   */\n      0x00\n        /* \"#utility.yul\":22709:22776   */\n      tag_466\n        /* \"#utility.yul\":22773:22775   */\n      0x1e\n        /* \"#utility.yul\":22768:22771   */\n      dup4\n        /* \"#utility.yul\":22709:22776   */\n      tag_221\n      jump\t// in\n    tag_466:\n        /* \"#utility.yul\":22702:22776   */\n      swap2\n      pop\n        /* \"#utility.yul\":22785:22878   */\n      tag_467\n        /* \"#utility.yul\":22874:22877   */\n      dup3\n        /* \"#utility.yul\":22785:22878   */\n      tag_250\n      jump\t// in\n    tag_467:\n        /* \"#utility.yul\":22903:22905   */\n      0x20\n        /* \"#utility.yul\":22898:22901   */\n      dup3\n        /* \"#utility.yul\":22894:22906   */\n      add\n        /* \"#utility.yul\":22887:22906   */\n      swap1\n      pop\n        /* \"#utility.yul\":22546:22912   */\n      swap2\n      swap1\n      pop\n      jump\t// out\n        /* \"#utility.yul\":22918:23337   */\n    tag_186:\n        /* \"#utility.yul\":23084:23088   */\n      0x00\n        /* \"#utility.yul\":23122:23124   */\n      0x20\n        /* \"#utility.yul\":23111:23120   */\n      dup3\n        /* \"#utility.yul\":23107:23125   */\n      add\n        /* \"#utility.yul\":23099:23125   */\n      swap1\n      pop\n        /* \"#utility.yul\":23171:23180   */\n      dup2\n        /* \"#utility.yul\":23165:23169   */\n      dup2\n        /* \"#utility.yul\":23161:23181   */\n      sub\n        /* \"#utility.yul\":23157:23158   */\n      0x00\n        /* \"#utility.yul\":23146:23155   */\n      dup4\n        /* \"#utility.yul\":23142:23159   */\n      add\n        /* \"#utility.yul\":23135:23182   */\n      mstore\n        /* \"#utility.yul\":23199:23330   */\n      tag_469\n        /* \"#utility.yul\":23325:23329   */\n      dup2\n        /* \"#utility.yul\":23199:23330   */\n      tag_251\n      jump\t// in\n    tag_469:\n        /* \"#utility.yul\":23191:23330   */\n      swap1\n      pop\n        /* \"#utility.yul\":22918:23337   */\n      swap2\n      swap1\n      pop\n      jump\t// out\n\n    auxdata: 0xa264697066735822122062226d79af6030663a54e79a075867969f06fda97403cf6f756c751563d3cf6e64736f6c634300081e0033\n}\n",
				"bytecode": {
					"linkReferences": {},
					"object": "608060405234801561000f575f5ffd5b506040516120db3803806120db83398181016040528101906100319190610116565b808060015f6101000a81548173ffffffffffffffffffffffffffffffffffffffff021916908373ffffffffffffffffffffffffffffffffffffffff160217905550335f5f6101000a81548173ffffffffffffffffffffffffffffffffffffffff021916908373ffffffffffffffffffffffffffffffffffffffff1602179055505050610141565b5f5ffd5b5f73ffffffffffffffffffffffffffffffffffffffff82169050919050565b5f6100e5826100bc565b9050919050565b6100f5816100db565b81146100ff575f5ffd5b50565b5f81519050610110816100ec565b92915050565b5f6020828403121561012b5761012a6100b8565b5b5f61013884828501610102565b91505092915050565b611f8d8061014e5f395ff3fe608060405234801561000f575f5ffd5b50600436106100cd575f3560e01c80639f15e8821161008a578063ce84daad11610064578063ce84daad14610210578063d83f9a671461022c578063ea5416a514610248578063fc0c546a14610278576100cd565b80639f15e882146101a7578063abd3f612146101c3578063b6b55f25146101f4576100cd565b806327e235e3146100d15780632e1a7d4d14610101578063624741c01461011d578063675de6b51461013b578063893d20e81461016b5780638da5cb5b14610189575b5f5ffd5b6100eb60048036038101906100e691906114c4565b610296565b6040516100f89190611507565b60405180910390f35b61011b6004803603810190610116919061154a565b6102ab565b005b6101256104f1565b6040516101329190611507565b60405180910390f35b61015560048036038101906101509190611575565b610590565b60405161016291906115df565b60405180910390f35b61017361073a565b6040516101809190611607565b60405180910390f35b610191610761565b60405161019e9190611607565b60405180910390f35b6101c160048036038101906101bc91906116ea565b610785565b005b6101dd60048036038101906101d891906114c4565b610b17565b6040516101eb9291906117a7565b60405180910390f35b61020e6004803603810190610209919061154a565b610bf9565b005b61022a600480360381019061022591906117ce565b610ee0565b005b610246600480360381019061024191906114c4565b6111d0565b005b610262600480360381019061025d91906114c4565b61139c565b60405161026f9190611507565b60405180910390f35b61028061143d565b60405161028d91906118a0565b60405180910390f35b6002602052805f5260405f205f915090505481565b5f81116102ed576040517f08c379a00000000000000000000000000000000000000000000000000000000081526004016102e490611913565b60405180910390fd5b8060025f3373ffffffffffffffffffffffffffffffffffffffff1673ffffffffffffffffffffffffffffffffffffffff1681526020019081526020015f2054101561036d576040517f08c379a00000000000000000000000000000000000000000000000000000000081526004016103649061197b565b60405180910390fd5b8060025f3373ffffffffffffffffffffffffffffffffffffffff1673ffffffffffffffffffffffffffffffffffffffff1681526020019081526020015f205f8282546103b991906119c6565b925050819055505f60015f9054906101000a900473ffffffffffffffffffffffffffffffffffffffff1673ffffffffffffffffffffffffffffffffffffffff1663a9059cbb33846040518363ffffffff1660e01b815260040161041d9291906119f9565b6020604051808303815f875af1158015610439573d5f5f3e3d5ffd5b505050506040513d601f19601f8201168201806040525081019061045d9190611a4a565b90508061049f576040517f08c379a000000000000000000000000000000000000000000000000000000000815260040161049690611abf565b60405180910390fd5b3373ffffffffffffffffffffffffffffffffffffffff167f884edad9ce6fa2440d8a54cc123490eb96d2768479d49ff9c7366125a9424364836040516104e59190611507565b60405180910390a25050565b5f60015f9054906101000a900473ffffffffffffffffffffffffffffffffffffffff1673ffffffffffffffffffffffffffffffffffffffff166370a08231306040518263ffffffff1660e01b815260040161054c9190611607565b602060405180830381865afa158015610567573d5f5f3e3d5ffd5b505050506040513d601f19601f8201168201806040525081019061058b9190611af1565b905090565b5f60015f9054906101000a900473ffffffffffffffffffffffffffffffffffffffff1673ffffffffffffffffffffffffffffffffffffffff163373ffffffffffffffffffffffffffffffffffffffff1614610620576040517f08c379a000000000000000000000000000000000000000000000000000000000815260040161061790611b8c565b60405180910390fd5b3073ffffffffffffffffffffffffffffffffffffffff168373ffffffffffffffffffffffffffffffffffffffff161461068e576040517f08c379a000000000000000000000000000000000000000000000000000000000815260040161068590611bf4565b60405180910390fd5b8160025f8673ffffffffffffffffffffffffffffffffffffffff1673ffffffffffffffffffffffffffffffffffffffff1681526020019081526020015f205f8282546106da9190611c12565b925050819055508373ffffffffffffffffffffffffffffffffffffffff167fe1fffcc4923d04b559f4d29a8bfc6cda04eb5b0d3c460751c2402c5c5cc9109c836040516107279190611507565b60405180910390a2600190509392505050565b5f5f5f9054906101000a900473ffffffffffffffffffffffffffffffffffffffff16905090565b5f5f9054906101000a900473ffffffffffffffffffffffffffffffffffffffff1681565b5f88116107c7576040517f08c379a00000000000000000000000000000000000000000000000000000000081526004016107be90611913565b60405180910390fd5b4287101561080a576040517f08c379a000000000000000000000000000000000000000000000000000000000815260040161080190611c8f565b60405180910390fd5b60015f9054906101000a900473ffffffffffffffffffffffffffffffffffffffff1673ffffffffffffffffffffffffffffffffffffffff1663d505accf33308b8b8b8b8b6040518863ffffffff1660e01b81526004016108709796959493929190611ccb565b5f604051808303815f87803b158015610887575f5ffd5b505af1158015610899573d5f5f3e3d5ffd5b505050505f60015f9054906101000a900473ffffffffffffffffffffffffffffffffffffffff1673ffffffffffffffffffffffffffffffffffffffff166323b872dd33308c6040518463ffffffff1660e01b81526004016108fc93929190611d38565b6020604051808303815f875af1158015610918573d5f5f3e3d5ffd5b505050506040513d601f19601f8201168201806040525081019061093c9190611a4a565b90508061097e576040517f08c379a000000000000000000000000000000000000000000000000000000000815260040161097590611abf565b60405180910390fd5b8860025f3373ffffffffffffffffffffffffffffffffffffffff1673ffffffffffffffffffffffffffffffffffffffff1681526020019081526020015f205f8282546109ca9190611c12565b925050819055503373ffffffffffffffffffffffffffffffffffffffff167fe1fffcc4923d04b559f4d29a8bfc6cda04eb5b0d3c460751c2402c5c5cc9109c8a604051610a179190611507565b60405180910390a23373ffffffffffffffffffffffffffffffffffffffff167fe391e632f0c535fb9543412b49a49299087c915a9020b721a5dc29560e7699308a604051610a659190611507565b60405180910390a25f73ffffffffffffffffffffffffffffffffffffffff168473ffffffffffffffffffffffffffffffffffffffff1614610b0c575f8473ffffffffffffffffffffffffffffffffffffffff168484604051610ac8929190611da9565b5f604051808303815f865af19150503d805f8114610b01576040519150601f19603f3d011682016040523d82523d5f602084013e610b06565b606091505b50509050505b505050505050505050565b5f5f60025f8473ffffffffffffffffffffffffffffffffffffffff1673ffffffffffffffffffffffffffffffffffffffff1681526020019081526020015f2054915060015f9054906101000a900473ffffffffffffffffffffffffffffffffffffffff1673ffffffffffffffffffffffffffffffffffffffff166370a08231846040518263ffffffff1660e01b8152600401610bb39190611607565b602060405180830381865afa158015610bce573d5f5f3e3d5ffd5b505050506040513d601f19601f82011682018060405250810190610bf29190611af1565b9050915091565b5f8111610c3b576040517f08c379a0000000000000000000000000000000000000000000000000000000008152600401610c3290611913565b60405180910390fd5b5f60015f9054906101000a900473ffffffffffffffffffffffffffffffffffffffff1673ffffffffffffffffffffffffffffffffffffffff163083604051602401610c879291906119f9565b6040516020818303038152906040527f1a825b75000000000000000000000000000000000000000000000000000000007bffffffffffffffffffffffffffffffffffffffffffffffffffffffff19166020820180517bffffffffffffffffffffffffffffffffffffffffffffffffffffffff8381831617835250505050604051610d119190611e09565b5f604051808303815f865af19150503d805f8114610d4a576040519150601f19603f3d011682016040523d82523d5f602084013e610d4f565b606091505b5050905080610e3b575f60015f9054906101000a900473ffffffffffffffffffffffffffffffffffffffff1673ffffffffffffffffffffffffffffffffffffffff166323b872dd3330866040518463ffffffff1660e01b8152600401610db793929190611d38565b6020604051808303815f875af1158015610dd3573d5f5f3e3d5ffd5b505050506040513d601f19601f82011682018060405250810190610df79190611a4a565b905080610e39576040517f08c379a0000000000000000000000000000000000000000000000000000000008152600401610e3090611abf565b60405180910390fd5b505b8160025f3373ffffffffffffffffffffffffffffffffffffffff1673ffffffffffffffffffffffffffffffffffffffff1681526020019081526020015f205f828254610e879190611c12565b925050819055503373ffffffffffffffffffffffffffffffffffffffff167fe1fffcc4923d04b559f4d29a8bfc6cda04eb5b0d3c460751c2402c5c5cc9109c83604051610ed49190611507565b60405180910390a25050565b5f8511610f22576040517f08c379a0000000000000000000000000000000000000000000000000000000008152600401610f1990611913565b60405180910390fd5b42841015610f65576040517f08c379a0000000000000000000000000000000000000000000000000000000008152600401610f5c90611c8f565b60405180910390fd5b60015f9054906101000a900473ffffffffffffffffffffffffffffffffffffffff1673ffffffffffffffffffffffffffffffffffffffff1663d505accf333088888888886040518863ffffffff1660e01b8152600401610fcb9796959493929190611ccb565b5f604051808303815f87803b158015610fe2575f5ffd5b505af1158015610ff4573d5f5f3e3d5ffd5b505050505f60015f9054906101000a900473ffffffffffffffffffffffffffffffffffffffff1673ffffffffffffffffffffffffffffffffffffffff166323b872dd3330896040518463ffffffff1660e01b815260040161105793929190611d38565b6020604051808303815f875af1158015611073573d5f5f3e3d5ffd5b505050506040513d601f19601f820116820180604052508101906110979190611a4a565b9050806110d9576040517f08c379a00000000000000000000000000000000000000000000000000000000081526004016110d090611abf565b60405180910390fd5b8560025f3373ffffffffffffffffffffffffffffffffffffffff1673ffffffffffffffffffffffffffffffffffffffff1681526020019081526020015f205f8282546111259190611c12565b925050819055503373ffffffffffffffffffffffffffffffffffffffff167fe1fffcc4923d04b559f4d29a8bfc6cda04eb5b0d3c460751c2402c5c5cc9109c876040516111729190611507565b60405180910390a23373ffffffffffffffffffffffffffffffffffffffff167fe391e632f0c535fb9543412b49a49299087c915a9020b721a5dc29560e769930876040516111c09190611507565b60405180910390a2505050505050565b5f5f9054906101000a900473ffffffffffffffffffffffffffffffffffffffff1673ffffffffffffffffffffffffffffffffffffffff163373ffffffffffffffffffffffffffffffffffffffff161461125e576040517f08c379a000000000000000000000000000000000000000000000000000000000815260040161125590611e69565b60405180910390fd5b5f73ffffffffffffffffffffffffffffffffffffffff168173ffffffffffffffffffffffffffffffffffffffff16036112cc576040517f08c379a00000000000000000000000000000000000000000000000000000000081526004016112c390611ed1565b60405180910390fd5b5f5f9054906101000a900473ffffffffffffffffffffffffffffffffffffffff1673ffffffffffffffffffffffffffffffffffffffff168173ffffffffffffffffffffffffffffffffffffffff160361135a576040517f08c379a000000000000000000000000000000000000000000000000000000000815260040161135190611f39565b60405180910390fd5b805f5f6101000a81548173ffffffffffffffffffffffffffffffffffffffff021916908373ffffffffffffffffffffffffffffffffffffffff16021790555050565b5f60015f9054906101000a900473ffffffffffffffffffffffffffffffffffffffff1673ffffffffffffffffffffffffffffffffffffffff16637ecebe00836040518263ffffffff1660e01b81526004016113f79190611607565b602060405180830381865afa158015611412573d5f5f3e3d5ffd5b505050506040513d601f19601f820116820180604052508101906114369190611af1565b9050919050565b60015f9054906101000a900473ffffffffffffffffffffffffffffffffffffffff1681565b5f5ffd5b5f5ffd5b5f73ffffffffffffffffffffffffffffffffffffffff82169050919050565b5f6114938261146a565b9050919050565b6114a381611489565b81146114ad575f5ffd5b50565b5f813590506114be8161149a565b92915050565b5f602082840312156114d9576114d8611462565b5b5f6114e6848285016114b0565b91505092915050565b5f819050919050565b611501816114ef565b82525050565b5f60208201905061151a5f8301846114f8565b92915050565b611529816114ef565b8114611533575f5ffd5b50565b5f8135905061154481611520565b92915050565b5f6020828403121561155f5761155e611462565b5b5f61156c84828501611536565b91505092915050565b5f5f5f6060848603121561158c5761158b611462565b5b5f611599868287016114b0565b93505060206115aa868287016114b0565b92505060406115bb86828701611536565b9150509250925092565b5f8115159050919050565b6115d9816115c5565b82525050565b5f6020820190506115f25f8301846115d0565b92915050565b61160181611489565b82525050565b5f60208201905061161a5f8301846115f8565b92915050565b5f60ff82169050919050565b61163581611620565b811461163f575f5ffd5b50565b5f813590506116508161162c565b92915050565b5f819050919050565b61166881611656565b8114611672575f5ffd5b50565b5f813590506116838161165f565b92915050565b5f5ffd5b5f5ffd5b5f5ffd5b5f5f83601f8401126116aa576116a9611689565b5b8235905067ffffffffffffffff8111156116c7576116c661168d565b5b6020830191508360018202830111156116e3576116e2611691565b5b9250929050565b5f5f5f5f5f5f5f5f60e0898b03121561170657611705611462565b5b5f6117138b828c01611536565b98505060206117248b828c01611536565b97505060406117358b828c01611642565b96505060606117468b828c01611675565b95505060806117578b828c01611675565b94505060a06117688b828c016114b0565b93505060c089013567ffffffffffffffff81111561178957611788611466565b5b6117958b828c01611695565b92509250509295985092959890939650565b5f6040820190506117ba5f8301856114f8565b6117c760208301846114f8565b9392505050565b5f5f5f5f5f60a086880312156117e7576117e6611462565b5b5f6117f488828901611536565b955050602061180588828901611536565b945050604061181688828901611642565b935050606061182788828901611675565b925050608061183888828901611675565b9150509295509295909350565b5f819050919050565b5f61186861186361185e8461146a565b611845565b61146a565b9050919050565b5f6118798261184e565b9050919050565b5f61188a8261186f565b9050919050565b61189a81611880565b82525050565b5f6020820190506118b35f830184611891565b92915050565b5f82825260208201905092915050565b7f416d6f756e74206d7573742062652067726561746572207468616e20300000005f82015250565b5f6118fd601d836118b9565b9150611908826118c9565b602082019050919050565b5f6020820190508181035f83015261192a816118f1565b9050919050565b7f496e73756666696369656e742062616c616e63650000000000000000000000005f82015250565b5f6119656014836118b9565b915061197082611931565b602082019050919050565b5f6020820190508181035f83015261199281611959565b9050919050565b7f4e487b71000000000000000000000000000000000000000000000000000000005f52601160045260245ffd5b5f6119d0826114ef565b91506119db836114ef565b92508282039050818111156119f3576119f2611999565b5b92915050565b5f604082019050611a0c5f8301856115f8565b611a1960208301846114f8565b9392505050565b611a29816115c5565b8114611a33575f5ffd5b50565b5f81519050611a4481611a20565b92915050565b5f60208284031215611a5f57611a5e611462565b5b5f611a6c84828501611a36565b91505092915050565b7f746f6b656e207472616e73666572206661696c656400000000000000000000005f82015250565b5f611aa96015836118b9565b9150611ab482611a75565b602082019050919050565b5f6020820190508181035f830152611ad681611a9d565b9050919050565b5f81519050611aeb81611520565b92915050565b5f60208284031215611b0657611b05611462565b5b5f611b1384828501611add565b91505092915050565b7f4f6e6c7920746f6b656e20636f6e74726163742063616e2063616c6c207468695f8201527f73206d6574686f64000000000000000000000000000000000000000000000000602082015250565b5f611b766028836118b9565b9150611b8182611b1c565b604082019050919050565b5f6020820190508181035f830152611ba381611b6a565b9050919050565b7f496e76616c696420726563697069656e740000000000000000000000000000005f82015250565b5f611bde6011836118b9565b9150611be982611baa565b602082019050919050565b5f6020820190508181035f830152611c0b81611bd2565b9050919050565b5f611c1c826114ef565b9150611c27836114ef565b9250828201905080821115611c3f57611c3e611999565b5b92915050565b7f5065726d697420657870697265640000000000000000000000000000000000005f82015250565b5f611c79600e836118b9565b9150611c8482611c45565b602082019050919050565b5f6020820190508181035f830152611ca681611c6d565b9050919050565b611cb681611620565b82525050565b611cc581611656565b82525050565b5f60e082019050611cde5f83018a6115f8565b611ceb60208301896115f8565b611cf860408301886114f8565b611d0560608301876114f8565b611d126080830186611cad565b611d1f60a0830185611cbc565b611d2c60c0830184611cbc565b98975050505050505050565b5f606082019050611d4b5f8301866115f8565b611d5860208301856115f8565b611d6560408301846114f8565b949350505050565b5f81905092915050565b828183375f83830152505050565b5f611d908385611d6d565b9350611d9d838584611d77565b82840190509392505050565b5f611db5828486611d85565b91508190509392505050565b5f81519050919050565b8281835e5f83830152505050565b5f611de382611dc1565b611ded8185611d6d565b9350611dfd818560208601611dcb565b80840191505092915050565b5f611e148284611dd9565b915081905092915050565b7f4f6e6c79206d756c74697369672063616e2063616c6c000000000000000000005f82015250565b5f611e536016836118b9565b9150611e5e82611e1f565b602082019050919050565b5f6020820190508181035f830152611e8081611e47565b9050919050565b7f496e76616c6964206d756c7469736967206164647265737300000000000000005f82015250565b5f611ebb6018836118b9565b9150611ec682611e87565b602082019050919050565b5f6020820190508181035f830152611ee881611eaf565b9050919050565b7f4e6577206d756c7469736967206d75737420626520646966666572656e7400005f82015250565b5f611f23601e836118b9565b9150611f2e82611eef565b602082019050919050565b5f6020820190508181035f830152611f5081611f17565b905091905056fea264697066735822122062226d79af6030663a54e79a075867969f06fda97403cf6f756c751563d3cf6e64736f6c634300081e0033",
					"opcodes": "PUSH1 0x80 PUSH1 0x40 MSTORE CALLVALUE DUP1 ISZERO PUSH2 0xF JUMPI PUSH0 PUSH0 REVERT JUMPDEST POP PUSH1 0x40 MLOAD PUSH2 0x20DB CODESIZE SUB DUP1 PUSH2 0x20DB DUP4 CODECOPY DUP2 DUP2 ADD PUSH1 0x40 MSTORE DUP2 ADD SWAP1 PUSH2 0x31 SWAP2 SWAP1 PUSH2 0x116 JUMP JUMPDEST DUP1 DUP1 PUSH1 0x1 PUSH0 PUSH2 0x100 EXP DUP2 SLOAD DUP2 PUSH20 0xFFFFFFFFFFFFFFFFFFFFFFFFFFFFFFFFFFFFFFFF MUL NOT AND SWAP1 DUP4 PUSH20 0xFFFFFFFFFFFFFFFFFFFFFFFFFFFFFFFFFFFFFFFF AND MUL OR SWAP1 SSTORE POP CALLER PUSH0 PUSH0 PUSH2 0x100 EXP DUP2 SLOAD DUP2 PUSH20 0xFFFFFFFFFFFFFFFFFFFFFFFFFFFFFFFFFFFFFFFF MUL NOT AND SWAP1 DUP4 PUSH20 0xFFFFFFFFFFFFFFFFFFFFFFFFFFFFFFFFFFFFFFFF AND MUL OR SWAP1 SSTORE POP POP POP PUSH2 0x141 JUMP JUMPDEST PUSH0 PUSH0 REVERT JUMPDEST PUSH0 PUSH20 0xFFFFFFFFFFFFFFFFFFFFFFFFFFFFFFFFFFFFFFFF DUP3 AND SWAP1 POP SWAP2 SWAP1 POP JUMP JUMPDEST PUSH0 PUSH2 0xE5 DUP3 PUSH2 0xBC JUMP JUMPDEST SWAP1 POP SWAP2 SWAP1 POP JUMP JUMPDEST PUSH2 0xF5 DUP2 PUSH2 0xDB JUMP JUMPDEST DUP2 EQ PUSH2 0xFF JUMPI PUSH0 PUSH0 REVERT JUMPDEST POP JUMP JUMPDEST PUSH0 DUP2 MLOAD SWAP1 POP PUSH2 0x110 DUP2 PUSH2 0xEC JUMP JUMPDEST SWAP3 SWAP2 POP POP JUMP JUMPDEST PUSH0 PUSH1 0x20 DUP3 DUP5 SUB SLT ISZERO PUSH2 0x12B JUMPI PUSH2 0x12A PUSH2 0xB8 JUMP JUMPDEST JUMPDEST PUSH0 PUSH2 0x138 DUP5 DUP3 DUP6 ADD PUSH2 0x102 JUMP JUMPDEST SWAP2 POP POP SWAP3 SWAP2 POP POP JUMP JUMPDEST PUSH2 0x1F8D DUP1 PUSH2 0x14E PUSH0 CODECOPY PUSH0 RETURN INVALID PUSH1 0x80 PUSH1 0x40 MSTORE CALLVALUE DUP1 ISZERO PUSH2 0xF JUMPI PUSH0 PUSH0 REVERT JUMPDEST POP PUSH1 0x4 CALLDATASIZE LT PUSH2 0xCD JUMPI PUSH0 CALLDATALOAD PUSH1 0xE0 SHR DUP1 PUSH4 0x9F15E882 GT PUSH2 0x8A JUMPI DUP1 PUSH4 0xCE84DAAD GT PUSH2 0x64 JUMPI DUP1 PUSH4 0xCE84DAAD EQ PUSH2 0x210 JUMPI DUP1 PUSH4 0xD83F9A67 EQ PUSH2 0x22C JUMPI DUP1 PUSH4 0xEA5416A5 EQ PUSH2 0x248 JUMPI DUP1 PUSH4 0xFC0C546A EQ PUSH2 0x278 JUMPI PUSH2 0xCD JUMP JUMPDEST DUP1 PUSH4 0x9F15E882 EQ PUSH2 0x1A7 JUMPI DUP1 PUSH4 0xABD3F612 EQ PUSH2 0x1C3 JUMPI DUP1 PUSH4 0xB6B55F25 EQ PUSH2 0x1F4 JUMPI PUSH2 0xCD JUMP JUMPDEST DUP1 PUSH4 0x27E235E3 EQ PUSH2 0xD1 JUMPI DUP1 PUSH4 0x2E1A7D4D EQ PUSH2 0x101 JUMPI DUP1 PUSH4 0x624741C0 EQ PUSH2 0x11D JUMPI DUP1 PUSH4 0x675DE6B5 EQ PUSH2 0x13B JUMPI DUP1 PUSH4 0x893D20E8 EQ PUSH2 0x16B JUMPI DUP1 PUSH4 0x8DA5CB5B EQ PUSH2 0x189 JUMPI JUMPDEST PUSH0 PUSH0 REVERT JUMPDEST PUSH2 0xEB PUSH1 0x4 DUP1 CALLDATASIZE SUB DUP2 ADD SWAP1 PUSH2 0xE6 SWAP2 SWAP1 PUSH2 0x14C4 JUMP JUMPDEST PUSH2 0x296 JUMP JUMPDEST PUSH1 0x40 MLOAD PUSH2 0xF8 SWAP2 SWAP1 PUSH2 0x1507 JUMP JUMPDEST PUSH1 0x40 MLOAD DUP1 SWAP2 SUB SWAP1 RETURN JUMPDEST PUSH2 0x11B PUSH1 0x4 DUP1 CALLDATASIZE SUB DUP2 ADD SWAP1 PUSH2 0x116 SWAP2 SWAP1 PUSH2 0x154A JUMP JUMPDEST PUSH2 0x2AB JUMP JUMPDEST STOP JUMPDEST PUSH2 0x125 PUSH2 0x4F1 JUMP JUMPDEST PUSH1 0x40 MLOAD PUSH2 0x132 SWAP2 SWAP1 PUSH2 0x1507 JUMP JUMPDEST PUSH1 0x40 MLOAD DUP1 SWAP2 SUB SWAP1 RETURN JUMPDEST PUSH2 0x155 PUSH1 0x4 DUP1 CALLDATASIZE SUB DUP2 ADD SWAP1 PUSH2 0x150 SWAP2 SWAP1 PUSH2 0x1575 JUMP JUMPDEST PUSH2 0x590 JUMP JUMPDEST PUSH1 0x40 MLOAD PUSH2 0x162 SWAP2 SWAP1 PUSH2 0x15DF JUMP JUMPDEST PUSH1 0x40 MLOAD DUP1 SWAP2 SUB SWAP1 RETURN JUMPDEST PUSH2 0x173 PUSH2 0x73A JUMP JUMPDEST PUSH1 0x40 MLOAD PUSH2 0x180 SWAP2 SWAP1 PUSH2 0x1607 JUMP JUMPDEST PUSH1 0x40 MLOAD DUP1 SWAP2 SUB SWAP1 RETURN JUMPDEST PUSH2 0x191 PUSH2 0x761 JUMP JUMPDEST PUSH1 0x40 MLOAD PUSH2 0x19E SWAP2 SWAP1 PUSH2 0x1607 JUMP JUMPDEST PUSH1 0x40 MLOAD DUP1 SWAP2 SUB SWAP1 RETURN JUMPDEST PUSH2 0x1C1 PUSH1 0x4 DUP1 CALLDATASIZE SUB DUP2 ADD SWAP1 PUSH2 0x1BC SWAP2 SWAP1 PUSH2 0x16EA JUMP JUMPDEST PUSH2 0x785 JUMP JUMPDEST STOP JUMPDEST PUSH2 0x1DD PUSH1 0x4 DUP1 CALLDATASIZE SUB DUP2 ADD SWAP1 PUSH2 0x1D8 SWAP2 SWAP1 PUSH2 0x14C4 JUMP JUMPDEST PUSH2 0xB17 JUMP JUMPDEST PUSH1 0x40 MLOAD PUSH2 0x1EB SWAP3 SWAP2 SWAP1 PUSH2 0x17A7 JUMP JUMPDEST PUSH1 0x40 MLOAD DUP1 SWAP2 SUB SWAP1 RETURN JUMPDEST PUSH2 0x20E PUSH1 0x4 DUP1 CALLDATASIZE SUB DUP2 ADD SWAP1 PUSH2 0x209 SWAP2 SWAP1 PUSH2 0x154A JUMP JUMPDEST PUSH2 0xBF9 JUMP JUMPDEST STOP JUMPDEST PUSH2 0x22A PUSH1 0x4 DUP1 CALLDATASIZE SUB DUP2 ADD SWAP1 PUSH2 0x225 SWAP2 SWAP1 PUSH2 0x17CE JUMP JUMPDEST PUSH2 0xEE0 JUMP JUMPDEST STOP JUMPDEST PUSH2 0x246 PUSH1 0x4 DUP1 CALLDATASIZE SUB DUP2 ADD SWAP1 PUSH2 0x241 SWAP2 SWAP1 PUSH2 0x14C4 JUMP JUMPDEST PUSH2 0x11D0 JUMP JUMPDEST STOP JUMPDEST PUSH2 0x262 PUSH1 0x4 DUP1 CALLDATASIZE SUB DUP2 ADD SWAP1 PUSH2 0x25D SWAP2 SWAP1 PUSH2 0x14C4 JUMP JUMPDEST PUSH2 0x139C JUMP JUMPDEST PUSH1 0x40 MLOAD PUSH2 0x26F SWAP2 SWAP1 PUSH2 0x1507 JUMP JUMPDEST PUSH1 0x40 MLOAD DUP1 SWAP2 SUB SWAP1 RETURN JUMPDEST PUSH2 0x280 PUSH2 0x143D JUMP JUMPDEST PUSH1 0x40 MLOAD PUSH2 0x28D SWAP2 SWAP1 PUSH2 0x18A0 JUMP JUMPDEST PUSH1 0x40 MLOAD DUP1 SWAP2 SUB SWAP1 RETURN JUMPDEST PUSH1 0x2 PUSH1 0x20 MSTORE DUP1 PUSH0 MSTORE PUSH1 0x40 PUSH0 KECCAK256 PUSH0 SWAP2 POP SWAP1 POP SLOAD DUP2 JUMP JUMPDEST PUSH0 DUP2 GT PUSH2 0x2ED JUMPI PUSH1 0x40 MLOAD PUSH32 0x8C379A000000000000000000000000000000000000000000000000000000000 DUP2 MSTORE PUSH1 0x4 ADD PUSH2 0x2E4 SWAP1 PUSH2 0x1913 JUMP JUMPDEST PUSH1 0x40 MLOAD DUP1 SWAP2 SUB SWAP1 REVERT JUMPDEST DUP1 PUSH1 0x2 PUSH0 CALLER PUSH20 0xFFFFFFFFFFFFFFFFFFFFFFFFFFFFFFFFFFFFFFFF AND PUSH20 0xFFFFFFFFFFFFFFFFFFFFFFFFFFFFFFFFFFFFFFFF AND DUP2 MSTORE PUSH1 0x20 ADD SWAP1 DUP2 MSTORE PUSH1 0x20 ADD PUSH0 KECCAK256 SLOAD LT ISZERO PUSH2 0x36D JUMPI PUSH1 0x40 MLOAD PUSH32 0x8C379A000000000000000000000000000000000000000000000000000000000 DUP2 MSTORE PUSH1 0x4 ADD PUSH2 0x364 SWAP1 PUSH2 0x197B JUMP JUMPDEST PUSH1 0x40 MLOAD DUP1 SWAP2 SUB SWAP1 REVERT JUMPDEST DUP1 PUSH1 0x2 PUSH0 CALLER PUSH20 0xFFFFFFFFFFFFFFFFFFFFFFFFFFFFFFFFFFFFFFFF AND PUSH20 0xFFFFFFFFFFFFFFFFFFFFFFFFFFFFFFFFFFFFFFFF AND DUP2 MSTORE PUSH1 0x20 ADD SWAP1 DUP2 MSTORE PUSH1 0x20 ADD PUSH0 KECCAK256 PUSH0 DUP3 DUP3 SLOAD PUSH2 0x3B9 SWAP2 SWAP1 PUSH2 0x19C6 JUMP JUMPDEST SWAP3 POP POP DUP2 SWAP1 SSTORE POP PUSH0 PUSH1 0x1 PUSH0 SWAP1 SLOAD SWAP1 PUSH2 0x100 EXP SWAP1 DIV PUSH20 0xFFFFFFFFFFFFFFFFFFFFFFFFFFFFFFFFFFFFFFFF AND PUSH20 0xFFFFFFFFFFFFFFFFFFFFFFFFFFFFFFFFFFFFFFFF AND PUSH4 0xA9059CBB CALLER DUP5 PUSH1 0x40 MLOAD DUP4 PUSH4 0xFFFFFFFF AND PUSH1 0xE0 SHL DUP2 MSTORE PUSH1 0x4 ADD PUSH2 0x41D SWAP3 SWAP2 SWAP1 PUSH2 0x19F9 JUMP JUMPDEST PUSH1 0x20 PUSH1 0x40 MLOAD DUP1 DUP4 SUB DUP2 PUSH0 DUP8 GAS CALL ISZERO DUP1 ISZERO PUSH2 0x439 JUMPI RETURNDATASIZE PUSH0 PUSH0 RETURNDATACOPY RETURNDATASIZE PUSH0 REVERT JUMPDEST POP POP POP POP PUSH1 0x40 MLOAD RETURNDATASIZE PUSH1 0x1F NOT PUSH1 0x1F DUP3 ADD AND DUP3 ADD DUP1 PUSH1 0x40 MSTORE POP DUP2 ADD SWAP1 PUSH2 0x45D SWAP2 SWAP1 PUSH2 0x1A4A JUMP JUMPDEST SWAP1 POP DUP1 PUSH2 0x49F JUMPI PUSH1 0x40 MLOAD PUSH32 0x8C379A000000000000000000000000000000000000000000000000000000000 DUP2 MSTORE PUSH1 0x4 ADD PUSH2 0x496 SWAP1 PUSH2 0x1ABF JUMP JUMPDEST PUSH1 0x40 MLOAD DUP1 SWAP2 SUB SWAP1 REVERT JUMPDEST CALLER PUSH20 0xFFFFFFFFFFFFFFFFFFFFFFFFFFFFFFFFFFFFFFFF AND PUSH32 0x884EDAD9CE6FA2440D8A54CC123490EB96D2768479D49FF9C7366125A9424364 DUP4 PUSH1 0x40 MLOAD PUSH2 0x4E5 SWAP2 SWAP1 PUSH2 0x1507 JUMP JUMPDEST PUSH1 0x40 MLOAD DUP1 SWAP2 SUB SWAP1 LOG2 POP POP JUMP JUMPDEST PUSH0 PUSH1 0x1 PUSH0 SWAP1 SLOAD SWAP1 PUSH2 0x100 EXP SWAP1 DIV PUSH20 0xFFFFFFFFFFFFFFFFFFFFFFFFFFFFFFFFFFFFFFFF AND PUSH20 0xFFFFFFFFFFFFFFFFFFFFFFFFFFFFFFFFFFFFFFFF AND PUSH4 0x70A08231 ADDRESS PUSH1 0x40 MLOAD DUP3 PUSH4 0xFFFFFFFF AND PUSH1 0xE0 SHL DUP2 MSTORE PUSH1 0x4 ADD PUSH2 0x54C SWAP2 SWAP1 PUSH2 0x1607 JUMP JUMPDEST PUSH1 0x20 PUSH1 0x40 MLOAD DUP1 DUP4 SUB DUP2 DUP7 GAS STATICCALL ISZERO DUP1 ISZERO PUSH2 0x567 JUMPI RETURNDATASIZE PUSH0 PUSH0 RETURNDATACOPY RETURNDATASIZE PUSH0 REVERT JUMPDEST POP POP POP POP PUSH1 0x40 MLOAD RETURNDATASIZE PUSH1 0x1F NOT PUSH1 0x1F DUP3 ADD AND DUP3 ADD DUP1 PUSH1 0x40 MSTORE POP DUP2 ADD SWAP1 PUSH2 0x58B SWAP2 SWAP1 PUSH2 0x1AF1 JUMP JUMPDEST SWAP1 POP SWAP1 JUMP JUMPDEST PUSH0 PUSH1 0x1 PUSH0 SWAP1 SLOAD SWAP1 PUSH2 0x100 EXP SWAP1 DIV PUSH20 0xFFFFFFFFFFFFFFFFFFFFFFFFFFFFFFFFFFFFFFFF AND PUSH20 0xFFFFFFFFFFFFFFFFFFFFFFFFFFFFFFFFFFFFFFFF AND CALLER PUSH20 0xFFFFFFFFFFFFFFFFFFFFFFFFFFFFFFFFFFFFFFFF AND EQ PUSH2 0x620 JUMPI PUSH1 0x40 MLOAD PUSH32 0x8C379A000000000000000000000000000000000000000000000000000000000 DUP2 MSTORE PUSH1 0x4 ADD PUSH2 0x617 SWAP1 PUSH2 0x1B8C JUMP JUMPDEST PUSH1 0x40 MLOAD DUP1 SWAP2 SUB SWAP1 REVERT JUMPDEST ADDRESS PUSH20 0xFFFFFFFFFFFFFFFFFFFFFFFFFFFFFFFFFFFFFFFF AND DUP4 PUSH20 0xFFFFFFFFFFFFFFFFFFFFFFFFFFFFFFFFFFFFFFFF AND EQ PUSH2 0x68E JUMPI PUSH1 0x40 MLOAD PUSH32 0x8C379A000000000000000000000000000000000000000000000000000000000 DUP2 MSTORE PUSH1 0x4 ADD PUSH2 0x685 SWAP1 PUSH2 0x1BF4 JUMP JUMPDEST PUSH1 0x40 MLOAD DUP1 SWAP2 SUB SWAP1 REVERT JUMPDEST DUP2 PUSH1 0x2 PUSH0 DUP7 PUSH20 0xFFFFFFFFFFFFFFFFFFFFFFFFFFFFFFFFFFFFFFFF AND PUSH20 0xFFFFFFFFFFFFFFFFFFFFFFFFFFFFFFFFFFFFFFFF AND DUP2 MSTORE PUSH1 0x20 ADD SWAP1 DUP2 MSTORE PUSH1 0x20 ADD PUSH0 KECCAK256 PUSH0 DUP3 DUP3 SLOAD PUSH2 0x6DA SWAP2 SWAP1 PUSH2 0x1C12 JUMP JUMPDEST SWAP3 POP POP DUP2 SWAP1 SSTORE POP DUP4 PUSH20 0xFFFFFFFFFFFFFFFFFFFFFFFFFFFFFFFFFFFFFFFF AND PUSH32 0xE1FFFCC4923D04B559F4D29A8BFC6CDA04EB5B0D3C460751C2402C5C5CC9109C DUP4 PUSH1 0x40 MLOAD PUSH2 0x727 SWAP2 SWAP1 PUSH2 0x1507 JUMP JUMPDEST PUSH1 0x40 MLOAD DUP1 SWAP2 SUB SWAP1 LOG2 PUSH1 0x1 SWAP1 POP SWAP4 SWAP3 POP POP POP JUMP JUMPDEST PUSH0 PUSH0 PUSH0 SWAP1 SLOAD SWAP1 PUSH2 0x100 EXP SWAP1 DIV PUSH20 0xFFFFFFFFFFFFFFFFFFFFFFFFFFFFFFFFFFFFFFFF AND SWAP1 POP SWAP1 JUMP JUMPDEST PUSH0 PUSH0 SWAP1 SLOAD SWAP1 PUSH2 0x100 EXP SWAP1 DIV PUSH20 0xFFFFFFFFFFFFFFFFFFFFFFFFFFFFFFFFFFFFFFFF AND DUP2 JUMP JUMPDEST PUSH0 DUP9 GT PUSH2 0x7C7 JUMPI PUSH1 0x40 MLOAD PUSH32 0x8C379A000000000000000000000000000000000000000000000000000000000 DUP2 MSTORE PUSH1 0x4 ADD PUSH2 0x7BE SWAP1 PUSH2 0x1913 JUMP JUMPDEST PUSH1 0x40 MLOAD DUP1 SWAP2 SUB SWAP1 REVERT JUMPDEST TIMESTAMP DUP8 LT ISZERO PUSH2 0x80A JUMPI PUSH1 0x40 MLOAD PUSH32 0x8C379A000000000000000000000000000000000000000000000000000000000 DUP2 MSTORE PUSH1 0x4 ADD PUSH2 0x801 SWAP1 PUSH2 0x1C8F JUMP JUMPDEST PUSH1 0x40 MLOAD DUP1 SWAP2 SUB SWAP1 REVERT JUMPDEST PUSH1 0x1 PUSH0 SWAP1 SLOAD SWAP1 PUSH2 0x100 EXP SWAP1 DIV PUSH20 0xFFFFFFFFFFFFFFFFFFFFFFFFFFFFFFFFFFFFFFFF AND PUSH20 0xFFFFFFFFFFFFFFFFFFFFFFFFFFFFFFFFFFFFFFFF AND PUSH4 0xD505ACCF CALLER ADDRESS DUP12 DUP12 DUP12 DUP12 DUP12 PUSH1 0x40 MLOAD DUP9 PUSH4 0xFFFFFFFF AND PUSH1 0xE0 SHL DUP2 MSTORE PUSH1 0x4 ADD PUSH2 0x870 SWAP8 SWAP7 SWAP6 SWAP5 SWAP4 SWAP3 SWAP2 SWAP1 PUSH2 0x1CCB JUMP JUMPDEST PUSH0 PUSH1 0x40 MLOAD DUP1 DUP4 SUB DUP2 PUSH0 DUP8 DUP1 EXTCODESIZE ISZERO DUP1 ISZERO PUSH2 0x887 JUMPI PUSH0 PUSH0 REVERT JUMPDEST POP GAS CALL ISZERO DUP1 ISZERO PUSH2 0x899 JUMPI RETURNDATASIZE PUSH0 PUSH0 RETURNDATACOPY RETURNDATASIZE PUSH0 REVERT JUMPDEST POP POP POP POP PUSH0 PUSH1 0x1 PUSH0 SWAP1 SLOAD SWAP1 PUSH2 0x100 EXP SWAP1 DIV PUSH20 0xFFFFFFFFFFFFFFFFFFFFFFFFFFFFFFFFFFFFFFFF AND PUSH20 0xFFFFFFFFFFFFFFFFFFFFFFFFFFFFFFFFFFFFFFFF AND PUSH4 0x23B872DD CALLER ADDRESS DUP13 PUSH1 0x40 MLOAD DUP5 PUSH4 0xFFFFFFFF AND PUSH1 0xE0 SHL DUP2 MSTORE PUSH1 0x4 ADD PUSH2 0x8FC SWAP4 SWAP3 SWAP2 SWAP1 PUSH2 0x1D38 JUMP JUMPDEST PUSH1 0x20 PUSH1 0x40 MLOAD DUP1 DUP4 SUB DUP2 PUSH0 DUP8 GAS CALL ISZERO DUP1 ISZERO PUSH2 0x918 JUMPI RETURNDATASIZE PUSH0 PUSH0 RETURNDATACOPY RETURNDATASIZE PUSH0 REVERT JUMPDEST POP POP POP POP PUSH1 0x40 MLOAD RETURNDATASIZE PUSH1 0x1F NOT PUSH1 0x1F DUP3 ADD AND DUP3 ADD DUP1 PUSH1 0x40 MSTORE POP DUP2 ADD SWAP1 PUSH2 0x93C SWAP2 SWAP1 PUSH2 0x1A4A JUMP JUMPDEST SWAP1 POP DUP1 PUSH2 0x97E JUMPI PUSH1 0x40 MLOAD PUSH32 0x8C379A000000000000000000000000000000000000000000000000000000000 DUP2 MSTORE PUSH1 0x4 ADD PUSH2 0x975 SWAP1 PUSH2 0x1ABF JUMP JUMPDEST PUSH1 0x40 MLOAD DUP1 SWAP2 SUB SWAP1 REVERT JUMPDEST DUP9 PUSH1 0x2 PUSH0 CALLER PUSH20 0xFFFFFFFFFFFFFFFFFFFFFFFFFFFFFFFFFFFFFFFF AND PUSH20 0xFFFFFFFFFFFFFFFFFFFFFFFFFFFFFFFFFFFFFFFF AND DUP2 MSTORE PUSH1 0x20 ADD SWAP1 DUP2 MSTORE PUSH1 0x20 ADD PUSH0 KECCAK256 PUSH0 DUP3 DUP3 SLOAD PUSH2 0x9CA SWAP2 SWAP1 PUSH2 0x1C12 JUMP JUMPDEST SWAP3 POP POP DUP2 SWAP1 SSTORE POP CALLER PUSH20 0xFFFFFFFFFFFFFFFFFFFFFFFFFFFFFFFFFFFFFFFF AND PUSH32 0xE1FFFCC4923D04B559F4D29A8BFC6CDA04EB5B0D3C460751C2402C5C5CC9109C DUP11 PUSH1 0x40 MLOAD PUSH2 0xA17 SWAP2 SWAP1 PUSH2 0x1507 JUMP JUMPDEST PUSH1 0x40 MLOAD DUP1 SWAP2 SUB SWAP1 LOG2 CALLER PUSH20 0xFFFFFFFFFFFFFFFFFFFFFFFFFFFFFFFFFFFFFFFF AND PUSH32 0xE391E632F0C535FB9543412B49A49299087C915A9020B721A5DC29560E769930 DUP11 PUSH1 0x40 MLOAD PUSH2 0xA65 SWAP2 SWAP1 PUSH2 0x1507 JUMP JUMPDEST PUSH1 0x40 MLOAD DUP1 SWAP2 SUB SWAP1 LOG2 PUSH0 PUSH20 0xFFFFFFFFFFFFFFFFFFFFFFFFFFFFFFFFFFFFFFFF AND DUP5 PUSH20 0xFFFFFFFFFFFFFFFFFFFFFFFFFFFFFFFFFFFFFFFF AND EQ PUSH2 0xB0C JUMPI PUSH0 DUP5 PUSH20 0xFFFFFFFFFFFFFFFFFFFFFFFFFFFFFFFFFFFFFFFF AND DUP5 DUP5 PUSH1 0x40 MLOAD PUSH2 0xAC8 SWAP3 SWAP2 SWAP1 PUSH2 0x1DA9 JUMP JUMPDEST PUSH0 PUSH1 0x40 MLOAD DUP1 DUP4 SUB DUP2 PUSH0 DUP7 GAS CALL SWAP2 POP POP RETURNDATASIZE DUP1 PUSH0 DUP2 EQ PUSH2 0xB01 JUMPI PUSH1 0x40 MLOAD SWAP2 POP PUSH1 0x1F NOT PUSH1 0x3F RETURNDATASIZE ADD AND DUP3 ADD PUSH1 0x40 MSTORE RETURNDATASIZE DUP3 MSTORE RETURNDATASIZE PUSH0 PUSH1 0x20 DUP5 ADD RETURNDATACOPY PUSH2 0xB06 JUMP JUMPDEST PUSH1 0x60 SWAP2 POP JUMPDEST POP POP SWAP1 POP POP JUMPDEST POP POP POP POP POP POP POP POP POP JUMP JUMPDEST PUSH0 PUSH0 PUSH1 0x2 PUSH0 DUP5 PUSH20 0xFFFFFFFFFFFFFFFFFFFFFFFFFFFFFFFFFFFFFFFF AND PUSH20 0xFFFFFFFFFFFFFFFFFFFFFFFFFFFFFFFFFFFFFFFF AND DUP2 MSTORE PUSH1 0x20 ADD SWAP1 DUP2 MSTORE PUSH1 0x20 ADD PUSH0 KECCAK256 SLOAD SWAP2 POP PUSH1 0x1 PUSH0 SWAP1 SLOAD SWAP1 PUSH2 0x100 EXP SWAP1 DIV PUSH20 0xFFFFFFFFFFFFFFFFFFFFFFFFFFFFFFFFFFFFFFFF AND PUSH20 0xFFFFFFFFFFFFFFFFFFFFFFFFFFFFFFFFFFFFFFFF AND PUSH4 0x70A08231 DUP5 PUSH1 0x40 MLOAD DUP3 PUSH4 0xFFFFFFFF AND PUSH1 0xE0 SHL DUP2 MSTORE PUSH1 0x4 ADD PUSH2 0xBB3 SWAP2 SWAP1 PUSH2 0x1607 JUMP JUMPDEST PUSH1 0x20 PUSH1 0x40 MLOAD DUP1 DUP4 SUB DUP2 DUP7 GAS STATICCALL ISZERO DUP1 ISZERO PUSH2 0xBCE JUMPI RETURNDATASIZE PUSH0 PUSH0 RETURNDATACOPY RETURNDATASIZE PUSH0 REVERT JUMPDEST POP POP POP POP PUSH1 0x40 MLOAD RETURNDATASIZE PUSH1 0x1F NOT PUSH1 0x1F DUP3 ADD AND DUP3 ADD DUP1 PUSH1 0x40 MSTORE POP DUP2 ADD SWAP1 PUSH2 0xBF2 SWAP2 SWAP1 PUSH2 0x1AF1 JUMP JUMPDEST SWAP1 POP SWAP2 POP SWAP2 JUMP JUMPDEST PUSH0 DUP2 GT PUSH2 0xC3B JUMPI PUSH1 0x40 MLOAD PUSH32 0x8C379A000000000000000000000000000000000000000000000000000000000 DUP2 MSTORE PUSH1 0x4 ADD PUSH2 0xC32 SWAP1 PUSH2 0x1913 JUMP JUMPDEST PUSH1 0x40 MLOAD DUP1 SWAP2 SUB SWAP1 REVERT JUMPDEST PUSH0 PUSH1 0x1 PUSH0 SWAP1 SLOAD SWAP1 PUSH2 0x100 EXP SWAP1 DIV PUSH20 0xFFFFFFFFFFFFFFFFFFFFFFFFFFFFFFFFFFFFFFFF AND PUSH20 0xFFFFFFFFFFFFFFFFFFFFFFFFFFFFFFFFFFFFFFFF AND ADDRESS DUP4 PUSH1 0x40 MLOAD PUSH1 0x24 ADD PUSH2 0xC87 SWAP3 SWAP2 SWAP1 PUSH2 0x19F9 JUMP JUMPDEST PUSH1 0x40 MLOAD PUSH1 0x20 DUP2 DUP4 SUB SUB DUP2 MSTORE SWAP1 PUSH1 0x40 MSTORE PUSH32 0x1A825B7500000000000000000000000000000000000000000000000000000000 PUSH28 0xFFFFFFFFFFFFFFFFFFFFFFFFFFFFFFFFFFFFFFFFFFFFFFFFFFFFFFFF NOT AND PUSH1 0x20 DUP3 ADD DUP1 MLOAD PUSH28 0xFFFFFFFFFFFFFFFFFFFFFFFFFFFFFFFFFFFFFFFFFFFFFFFFFFFFFFFF DUP4 DUP2 DUP4 AND OR DUP4 MSTORE POP POP POP POP PUSH1 0x40 MLOAD PUSH2 0xD11 SWAP2 SWAP1 PUSH2 0x1E09 JUMP JUMPDEST PUSH0 PUSH1 0x40 MLOAD DUP1 DUP4 SUB DUP2 PUSH0 DUP7 GAS CALL SWAP2 POP POP RETURNDATASIZE DUP1 PUSH0 DUP2 EQ PUSH2 0xD4A JUMPI PUSH1 0x40 MLOAD SWAP2 POP PUSH1 0x1F NOT PUSH1 0x3F RETURNDATASIZE ADD AND DUP3 ADD PUSH1 0x40 MSTORE RETURNDATASIZE DUP3 MSTORE RETURNDATASIZE PUSH0 PUSH1 0x20 DUP5 ADD RETURNDATACOPY PUSH2 0xD4F JUMP JUMPDEST PUSH1 0x60 SWAP2 POP JUMPDEST POP POP SWAP1 POP DUP1 PUSH2 0xE3B JUMPI PUSH0 PUSH1 0x1 PUSH0 SWAP1 SLOAD SWAP1 PUSH2 0x100 EXP SWAP1 DIV PUSH20 0xFFFFFFFFFFFFFFFFFFFFFFFFFFFFFFFFFFFFFFFF AND PUSH20 0xFFFFFFFFFFFFFFFFFFFFFFFFFFFFFFFFFFFFFFFF AND PUSH4 0x23B872DD CALLER ADDRESS DUP7 PUSH1 0x40 MLOAD DUP5 PUSH4 0xFFFFFFFF AND PUSH1 0xE0 SHL DUP2 MSTORE PUSH1 0x4 ADD PUSH2 0xDB7 SWAP4 SWAP3 SWAP2 SWAP1 PUSH2 0x1D38 JUMP JUMPDEST PUSH1 0x20 PUSH1 0x40 MLOAD DUP1 DUP4 SUB DUP2 PUSH0 DUP8 GAS CALL ISZERO DUP1 ISZERO PUSH2 0xDD3 JUMPI RETURNDATASIZE PUSH0 PUSH0 RETURNDATACOPY RETURNDATASIZE PUSH0 REVERT JUMPDEST POP POP POP POP PUSH1 0x40 MLOAD RETURNDATASIZE PUSH1 0x1F NOT PUSH1 0x1F DUP3 ADD AND DUP3 ADD DUP1 PUSH1 0x40 MSTORE POP DUP2 ADD SWAP1 PUSH2 0xDF7 SWAP2 SWAP1 PUSH2 0x1A4A JUMP JUMPDEST SWAP1 POP DUP1 PUSH2 0xE39 JUMPI PUSH1 0x40 MLOAD PUSH32 0x8C379A000000000000000000000000000000000000000000000000000000000 DUP2 MSTORE PUSH1 0x4 ADD PUSH2 0xE30 SWAP1 PUSH2 0x1ABF JUMP JUMPDEST PUSH1 0x40 MLOAD DUP1 SWAP2 SUB SWAP1 REVERT JUMPDEST POP JUMPDEST DUP2 PUSH1 0x2 PUSH0 CALLER PUSH20 0xFFFFFFFFFFFFFFFFFFFFFFFFFFFFFFFFFFFFFFFF AND PUSH20 0xFFFFFFFFFFFFFFFFFFFFFFFFFFFFFFFFFFFFFFFF AND DUP2 MSTORE PUSH1 0x20 ADD SWAP1 DUP2 MSTORE PUSH1 0x20 ADD PUSH0 KECCAK256 PUSH0 DUP3 DUP3 SLOAD PUSH2 0xE87 SWAP2 SWAP1 PUSH2 0x1C12 JUMP JUMPDEST SWAP3 POP POP DUP2 SWAP1 SSTORE POP CALLER PUSH20 0xFFFFFFFFFFFFFFFFFFFFFFFFFFFFFFFFFFFFFFFF AND PUSH32 0xE1FFFCC4923D04B559F4D29A8BFC6CDA04EB5B0D3C460751C2402C5C5CC9109C DUP4 PUSH1 0x40 MLOAD PUSH2 0xED4 SWAP2 SWAP1 PUSH2 0x1507 JUMP JUMPDEST PUSH1 0x40 MLOAD DUP1 SWAP2 SUB SWAP1 LOG2 POP POP JUMP JUMPDEST PUSH0 DUP6 GT PUSH2 0xF22 JUMPI PUSH1 0x40 MLOAD PUSH32 0x8C379A000000000000000000000000000000000000000000000000000000000 DUP2 MSTORE PUSH1 0x4 ADD PUSH2 0xF19 SWAP1 PUSH2 0x1913 JUMP JUMPDEST PUSH1 0x40 MLOAD DUP1 SWAP2 SUB SWAP1 REVERT JUMPDEST TIMESTAMP DUP5 LT ISZERO PUSH2 0xF65 JUMPI PUSH1 0x40 MLOAD PUSH32 0x8C379A000000000000000000000000000000000000000000000000000000000 DUP2 MSTORE PUSH1 0x4 ADD PUSH2 0xF5C SWAP1 PUSH2 0x1C8F JUMP JUMPDEST PUSH1 0x40 MLOAD DUP1 SWAP2 SUB SWAP1 REVERT JUMPDEST PUSH1 0x1 PUSH0 SWAP1 SLOAD SWAP1 PUSH2 0x100 EXP SWAP1 DIV PUSH20 0xFFFFFFFFFFFFFFFFFFFFFFFFFFFFFFFFFFFFFFFF AND PUSH20 0xFFFFFFFFFFFFFFFFFFFFFFFFFFFFFFFFFFFFFFFF AND PUSH4 0xD505ACCF CALLER ADDRESS DUP9 DUP9 DUP9 DUP9 DUP9 PUSH1 0x40 MLOAD DUP9 PUSH4 0xFFFFFFFF AND PUSH1 0xE0 SHL DUP2 MSTORE PUSH1 0x4 ADD PUSH2 0xFCB SWAP8 SWAP7 SWAP6 SWAP5 SWAP4 SWAP3 SWAP2 SWAP1 PUSH2 0x1CCB JUMP JUMPDEST PUSH0 PUSH1 0x40 MLOAD DUP1 DUP4 SUB DUP2 PUSH0 DUP8 DUP1 EXTCODESIZE ISZERO DUP1 ISZERO PUSH2 0xFE2 JUMPI PUSH0 PUSH0 REVERT JUMPDEST POP GAS CALL ISZERO DUP1 ISZERO PUSH2 0xFF4 JUMPI RETURNDATASIZE PUSH0 PUSH0 RETURNDATACOPY RETURNDATASIZE PUSH0 REVERT JUMPDEST POP POP POP POP PUSH0 PUSH1 0x1 PUSH0 SWAP1 SLOAD SWAP1 PUSH2 0x100 EXP SWAP1 DIV PUSH20 0xFFFFFFFFFFFFFFFFFFFFFFFFFFFFFFFFFFFFFFFF AND PUSH20 0xFFFFFFFFFFFFFFFFFFFFFFFFFFFFFFFFFFFFFFFF AND PUSH4 0x23B872DD CALLER ADDRESS DUP10 PUSH1 0x40 MLOAD DUP5 PUSH4 0xFFFFFFFF AND PUSH1 0xE0 SHL DUP2 MSTORE PUSH1 0x4 ADD PUSH2 0x1057 SWAP4 SWAP3 SWAP2 SWAP1 PUSH2 0x1D38 JUMP JUMPDEST PUSH1 0x20 PUSH1 0x40 MLOAD DUP1 DUP4 SUB DUP2 PUSH0 DUP8 GAS CALL ISZERO DUP1 ISZERO PUSH2 0x1073 JUMPI RETURNDATASIZE PUSH0 PUSH0 RETURNDATACOPY RETURNDATASIZE PUSH0 REVERT JUMPDEST POP POP POP POP PUSH1 0x40 MLOAD RETURNDATASIZE PUSH1 0x1F NOT PUSH1 0x1F DUP3 ADD AND DUP3 ADD DUP1 PUSH1 0x40 MSTORE POP DUP2 ADD SWAP1 PUSH2 0x1097 SWAP2 SWAP1 PUSH2 0x1A4A JUMP JUMPDEST SWAP1 POP DUP1 PUSH2 0x10D9 JUMPI PUSH1 0x40 MLOAD PUSH32 0x8C379A000000000000000000000000000000000000000000000000000000000 DUP2 MSTORE PUSH1 0x4 ADD PUSH2 0x10D0 SWAP1 PUSH2 0x1ABF JUMP JUMPDEST PUSH1 0x40 MLOAD DUP1 SWAP2 SUB SWAP1 REVERT JUMPDEST DUP6 PUSH1 0x2 PUSH0 CALLER PUSH20 0xFFFFFFFFFFFFFFFFFFFFFFFFFFFFFFFFFFFFFFFF AND PUSH20 0xFFFFFFFFFFFFFFFFFFFFFFFFFFFFFFFFFFFFFFFF AND DUP2 MSTORE PUSH1 0x20 ADD SWAP1 DUP2 MSTORE PUSH1 0x20 ADD PUSH0 KECCAK256 PUSH0 DUP3 DUP3 SLOAD PUSH2 0x1125 SWAP2 SWAP1 PUSH2 0x1C12 JUMP JUMPDEST SWAP3 POP POP DUP2 SWAP1 SSTORE POP CALLER PUSH20 0xFFFFFFFFFFFFFFFFFFFFFFFFFFFFFFFFFFFFFFFF AND PUSH32 0xE1FFFCC4923D04B559F4D29A8BFC6CDA04EB5B0D3C460751C2402C5C5CC9109C DUP8 PUSH1 0x40 MLOAD PUSH2 0x1172 SWAP2 SWAP1 PUSH2 0x1507 JUMP JUMPDEST PUSH1 0x40 MLOAD DUP1 SWAP2 SUB SWAP1 LOG2 CALLER PUSH20 0xFFFFFFFFFFFFFFFFFFFFFFFFFFFFFFFFFFFFFFFF AND PUSH32 0xE391E632F0C535FB9543412B49A49299087C915A9020B721A5DC29560E769930 DUP8 PUSH1 0x40 MLOAD PUSH2 0x11C0 SWAP2 SWAP1 PUSH2 0x1507 JUMP JUMPDEST PUSH1 0x40 MLOAD DUP1 SWAP2 SUB SWAP1 LOG2 POP POP POP POP POP POP JUMP JUMPDEST PUSH0 PUSH0 SWAP1 SLOAD SWAP1 PUSH2 0x100 EXP SWAP1 DIV PUSH20 0xFFFFFFFFFFFFFFFFFFFFFFFFFFFFFFFFFFFFFFFF AND PUSH20 0xFFFFFFFFFFFFFFFFFFFFFFFFFFFFFFFFFFFFFFFF AND CALLER PUSH20 0xFFFFFFFFFFFFFFFFFFFFFFFFFFFFFFFFFFFFFFFF AND EQ PUSH2 0x125E JUMPI PUSH1 0x40 MLOAD PUSH32 0x8C379A000000000000000000000000000000000000000000000000000000000 DUP2 MSTORE PUSH1 0x4 ADD PUSH2 0x1255 SWAP1 PUSH2 0x1E69 JUMP JUMPDEST PUSH1 0x40 MLOAD DUP1 SWAP2 SUB SWAP1 REVERT JUMPDEST PUSH0 PUSH20 0xFFFFFFFFFFFFFFFFFFFFFFFFFFFFFFFFFFFFFFFF AND DUP2 PUSH20 0xFFFFFFFFFFFFFFFFFFFFFFFFFFFFFFFFFFFFFFFF AND SUB PUSH2 0x12CC JUMPI PUSH1 0x40 MLOAD PUSH32 0x8C379A000000000000000000000000000000000000000000000000000000000 DUP2 MSTORE PUSH1 0x4 ADD PUSH2 0x12C3 SWAP1 PUSH2 0x1ED1 JUMP JUMPDEST PUSH1 0x40 MLOAD DUP1 SWAP2 SUB SWAP1 REVERT JUMPDEST PUSH0 PUSH0 SWAP1 SLOAD SWAP1 PUSH2 0x100 EXP SWAP1 DIV PUSH20 0xFFFFFFFFFFFFFFFFFFFFFFFFFFFFFFFFFFFFFFFF AND PUSH20 0xFFFFFFFFFFFFFFFFFFFFFFFFFFFFFFFFFFFFFFFF AND DUP2 PUSH20 0xFFFFFFFFFFFFFFFFFFFFFFFFFFFFFFFFFFFFFFFF AND SUB PUSH2 0x135A JUMPI PUSH1 0x40 MLOAD PUSH32 0x8C379A000000000000000000000000000000000000000000000000000000000 DUP2 MSTORE PUSH1 0x4 ADD PUSH2 0x1351 SWAP1 PUSH2 0x1F39 JUMP JUMPDEST PUSH1 0x40 MLOAD DUP1 SWAP2 SUB SWAP1 REVERT JUMPDEST DUP1 PUSH0 PUSH0 PUSH2 0x100 EXP DUP2 SLOAD DUP2 PUSH20 0xFFFFFFFFFFFFFFFFFFFFFFFFFFFFFFFFFFFFFFFF MUL NOT AND SWAP1 DUP4 PUSH20 0xFFFFFFFFFFFFFFFFFFFFFFFFFFFFFFFFFFFFFFFF AND MUL OR SWAP1 SSTORE POP POP JUMP JUMPDEST PUSH0 PUSH1 0x1 PUSH0 SWAP1 SLOAD SWAP1 PUSH2 0x100 EXP SWAP1 DIV PUSH20 0xFFFFFFFFFFFFFFFFFFFFFFFFFFFFFFFFFFFFFFFF AND PUSH20 0xFFFFFFFFFFFFFFFFFFFFFFFFFFFFFFFFFFFFFFFF AND PUSH4 0x7ECEBE00 DUP4 PUSH1 0x40 MLOAD DUP3 PUSH4 0xFFFFFFFF AND PUSH1 0xE0 SHL DUP2 MSTORE PUSH1 0x4 ADD PUSH2 0x13F7 SWAP2 SWAP1 PUSH2 0x1607 JUMP JUMPDEST PUSH1 0x20 PUSH1 0x40 MLOAD DUP1 DUP4 SUB DUP2 DUP7 GAS STATICCALL ISZERO DUP1 ISZERO PUSH2 0x1412 JUMPI RETURNDATASIZE PUSH0 PUSH0 RETURNDATACOPY RETURNDATASIZE PUSH0 REVERT JUMPDEST POP POP POP POP PUSH1 0x40 MLOAD RETURNDATASIZE PUSH1 0x1F NOT PUSH1 0x1F DUP3 ADD AND DUP3 ADD DUP1 PUSH1 0x40 MSTORE POP DUP2 ADD SWAP1 PUSH2 0x1436 SWAP2 SWAP1 PUSH2 0x1AF1 JUMP JUMPDEST SWAP1 POP SWAP2 SWAP1 POP JUMP JUMPDEST PUSH1 0x1 PUSH0 SWAP1 SLOAD SWAP1 PUSH2 0x100 EXP SWAP1 DIV PUSH20 0xFFFFFFFFFFFFFFFFFFFFFFFFFFFFFFFFFFFFFFFF AND DUP2 JUMP JUMPDEST PUSH0 PUSH0 REVERT JUMPDEST PUSH0 PUSH0 REVERT JUMPDEST PUSH0 PUSH20 0xFFFFFFFFFFFFFFFFFFFFFFFFFFFFFFFFFFFFFFFF DUP3 AND SWAP1 POP SWAP2 SWAP1 POP JUMP JUMPDEST PUSH0 PUSH2 0x1493 DUP3 PUSH2 0x146A JUMP JUMPDEST SWAP1 POP SWAP2 SWAP1 POP JUMP JUMPDEST PUSH2 0x14A3 DUP2 PUSH2 0x1489 JUMP JUMPDEST DUP2 EQ PUSH2 0x14AD JUMPI PUSH0 PUSH0 REVERT JUMPDEST POP JUMP JUMPDEST PUSH0 DUP2 CALLDATALOAD SWAP1 POP PUSH2 0x14BE DUP2 PUSH2 0x149A JUMP JUMPDEST SWAP3 SWAP2 POP POP JUMP JUMPDEST PUSH0 PUSH1 0x20 DUP3 DUP5 SUB SLT ISZERO PUSH2 0x14D9 JUMPI PUSH2 0x14D8 PUSH2 0x1462 JUMP JUMPDEST JUMPDEST PUSH0 PUSH2 0x14E6 DUP5 DUP3 DUP6 ADD PUSH2 0x14B0 JUMP JUMPDEST SWAP2 POP POP SWAP3 SWAP2 POP POP JUMP JUMPDEST PUSH0 DUP2 SWAP1 POP SWAP2 SWAP1 POP JUMP JUMPDEST PUSH2 0x1501 DUP2 PUSH2 0x14EF JUMP JUMPDEST DUP3 MSTORE POP POP JUMP JUMPDEST PUSH0 PUSH1 0x20 DUP3 ADD SWAP1 POP PUSH2 0x151A PUSH0 DUP4 ADD DUP5 PUSH2 0x14F8 JUMP JUMPDEST SWAP3 SWAP2 POP POP JUMP JUMPDEST PUSH2 0x1529 DUP2 PUSH2 0x14EF JUMP JUMPDEST DUP2 EQ PUSH2 0x1533 JUMPI PUSH0 PUSH0 REVERT JUMPDEST POP JUMP JUMPDEST PUSH0 DUP2 CALLDATALOAD SWAP1 POP PUSH2 0x1544 DUP2 PUSH2 0x1520 JUMP JUMPDEST SWAP3 SWAP2 POP POP JUMP JUMPDEST PUSH0 PUSH1 0x20 DUP3 DUP5 SUB SLT ISZERO PUSH2 0x155F JUMPI PUSH2 0x155E PUSH2 0x1462 JUMP JUMPDEST JUMPDEST PUSH0 PUSH2 0x156C DUP5 DUP3 DUP6 ADD PUSH2 0x1536 JUMP JUMPDEST SWAP2 POP POP SWAP3 SWAP2 POP POP JUMP JUMPDEST PUSH0 PUSH0 PUSH0 PUSH1 0x60 DUP5 DUP7 SUB SLT ISZERO PUSH2 0x158C JUMPI PUSH2 0x158B PUSH2 0x1462 JUMP JUMPDEST JUMPDEST PUSH0 PUSH2 0x1599 DUP7 DUP3 DUP8 ADD PUSH2 0x14B0 JUMP JUMPDEST SWAP4 POP POP PUSH1 0x20 PUSH2 0x15AA DUP7 DUP3 DUP8 ADD PUSH2 0x14B0 JUMP JUMPDEST SWAP3 POP POP PUSH1 0x40 PUSH2 0x15BB DUP7 DUP3 DUP8 ADD PUSH2 0x1536 JUMP JUMPDEST SWAP2 POP POP SWAP3 POP SWAP3 POP SWAP3 JUMP JUMPDEST PUSH0 DUP2 ISZERO ISZERO SWAP1 POP SWAP2 SWAP1 POP JUMP JUMPDEST PUSH2 0x15D9 DUP2 PUSH2 0x15C5 JUMP JUMPDEST DUP3 MSTORE POP POP JUMP JUMPDEST PUSH0 PUSH1 0x20 DUP3 ADD SWAP1 POP PUSH2 0x15F2 PUSH0 DUP4 ADD DUP5 PUSH2 0x15D0 JUMP JUMPDEST SWAP3 SWAP2 POP POP JUMP JUMPDEST PUSH2 0x1601 DUP2 PUSH2 0x1489 JUMP JUMPDEST DUP3 MSTORE POP POP JUMP JUMPDEST PUSH0 PUSH1 0x20 DUP3 ADD SWAP1 POP PUSH2 0x161A PUSH0 DUP4 ADD DUP5 PUSH2 0x15F8 JUMP JUMPDEST SWAP3 SWAP2 POP POP JUMP JUMPDEST PUSH0 PUSH1 0xFF DUP3 AND SWAP1 POP SWAP2 SWAP1 POP JUMP JUMPDEST PUSH2 0x1635 DUP2 PUSH2 0x1620 JUMP JUMPDEST DUP2 EQ PUSH2 0x163F JUMPI PUSH0 PUSH0 REVERT JUMPDEST POP JUMP JUMPDEST PUSH0 DUP2 CALLDATALOAD SWAP1 POP PUSH2 0x1650 DUP2 PUSH2 0x162C JUMP JUMPDEST SWAP3 SWAP2 POP POP JUMP JUMPDEST PUSH0 DUP2 SWAP1 POP SWAP2 SWAP1 POP JUMP JUMPDEST PUSH2 0x1668 DUP2 PUSH2 0x1656 JUMP JUMPDEST DUP2 EQ PUSH2 0x1672 JUMPI PUSH0 PUSH0 REVERT JUMPDEST POP JUMP JUMPDEST PUSH0 DUP2 CALLDATALOAD SWAP1 POP PUSH2 0x1683 DUP2 PUSH2 0x165F JUMP JUMPDEST SWAP3 SWAP2 POP POP JUMP JUMPDEST PUSH0 PUSH0 REVERT JUMPDEST PUSH0 PUSH0 REVERT JUMPDEST PUSH0 PUSH0 REVERT JUMPDEST PUSH0 PUSH0 DUP4 PUSH1 0x1F DUP5 ADD SLT PUSH2 0x16AA JUMPI PUSH2 0x16A9 PUSH2 0x1689 JUMP JUMPDEST JUMPDEST DUP3 CALLDATALOAD SWAP1 POP PUSH8 0xFFFFFFFFFFFFFFFF DUP2 GT ISZERO PUSH2 0x16C7 JUMPI PUSH2 0x16C6 PUSH2 0x168D JUMP JUMPDEST JUMPDEST PUSH1 0x20 DUP4 ADD SWAP2 POP DUP4 PUSH1 0x1 DUP3 MUL DUP4 ADD GT ISZERO PUSH2 0x16E3 JUMPI PUSH2 0x16E2 PUSH2 0x1691 JUMP JUMPDEST JUMPDEST SWAP3 POP SWAP3 SWAP1 POP JUMP JUMPDEST PUSH0 PUSH0 PUSH0 PUSH0 PUSH0 PUSH0 PUSH0 PUSH0 PUSH1 0xE0 DUP10 DUP12 SUB SLT ISZERO PUSH2 0x1706 JUMPI PUSH2 0x1705 PUSH2 0x1462 JUMP JUMPDEST JUMPDEST PUSH0 PUSH2 0x1713 DUP12 DUP3 DUP13 ADD PUSH2 0x1536 JUMP JUMPDEST SWAP9 POP POP PUSH1 0x20 PUSH2 0x1724 DUP12 DUP3 DUP13 ADD PUSH2 0x1536 JUMP JUMPDEST SWAP8 POP POP PUSH1 0x40 PUSH2 0x1735 DUP12 DUP3 DUP13 ADD PUSH2 0x1642 JUMP JUMPDEST SWAP7 POP POP PUSH1 0x60 PUSH2 0x1746 DUP12 DUP3 DUP13 ADD PUSH2 0x1675 JUMP JUMPDEST SWAP6 POP POP PUSH1 0x80 PUSH2 0x1757 DUP12 DUP3 DUP13 ADD PUSH2 0x1675 JUMP JUMPDEST SWAP5 POP POP PUSH1 0xA0 PUSH2 0x1768 DUP12 DUP3 DUP13 ADD PUSH2 0x14B0 JUMP JUMPDEST SWAP4 POP POP PUSH1 0xC0 DUP10 ADD CALLDATALOAD PUSH8 0xFFFFFFFFFFFFFFFF DUP2 GT ISZERO PUSH2 0x1789 JUMPI PUSH2 0x1788 PUSH2 0x1466 JUMP JUMPDEST JUMPDEST PUSH2 0x1795 DUP12 DUP3 DUP13 ADD PUSH2 0x1695 JUMP JUMPDEST SWAP3 POP SWAP3 POP POP SWAP3 SWAP6 SWAP9 POP SWAP3 SWAP6 SWAP9 SWAP1 SWAP4 SWAP7 POP JUMP JUMPDEST PUSH0 PUSH1 0x40 DUP3 ADD SWAP1 POP PUSH2 0x17BA PUSH0 DUP4 ADD DUP6 PUSH2 0x14F8 JUMP JUMPDEST PUSH2 0x17C7 PUSH1 0x20 DUP4 ADD DUP5 PUSH2 0x14F8 JUMP JUMPDEST SWAP4 SWAP3 POP POP POP JUMP JUMPDEST PUSH0 PUSH0 PUSH0 PUSH0 PUSH0 PUSH1 0xA0 DUP7 DUP9 SUB SLT ISZERO PUSH2 0x17E7 JUMPI PUSH2 0x17E6 PUSH2 0x1462 JUMP JUMPDEST JUMPDEST PUSH0 PUSH2 0x17F4 DUP9 DUP3 DUP10 ADD PUSH2 0x1536 JUMP JUMPDEST SWAP6 POP POP PUSH1 0x20 PUSH2 0x1805 DUP9 DUP3 DUP10 ADD PUSH2 0x1536 JUMP JUMPDEST SWAP5 POP POP PUSH1 0x40 PUSH2 0x1816 DUP9 DUP3 DUP10 ADD PUSH2 0x1642 JUMP JUMPDEST SWAP4 POP POP PUSH1 0x60 PUSH2 0x1827 DUP9 DUP3 DUP10 ADD PUSH2 0x1675 JUMP JUMPDEST SWAP3 POP POP PUSH1 0x80 PUSH2 0x1838 DUP9 DUP3 DUP10 ADD PUSH2 0x1675 JUMP JUMPDEST SWAP2 POP POP SWAP3 SWAP6 POP SWAP3 SWAP6 SWAP1 SWAP4 POP JUMP JUMPDEST PUSH0 DUP2 SWAP1 POP SWAP2 SWAP1 POP JUMP JUMPDEST PUSH0 PUSH2 0x1868 PUSH2 0x1863 PUSH2 0x185E DUP5 PUSH2 0x146A JUMP JUMPDEST PUSH2 0x1845 JUMP JUMPDEST PUSH2 0x146A JUMP JUMPDEST SWAP1 POP SWAP2 SWAP1 POP JUMP JUMPDEST PUSH0 PUSH2 0x1879 DUP3 PUSH2 0x184E JUMP JUMPDEST SWAP1 POP SWAP2 SWAP1 POP JUMP JUMPDEST PUSH0 PUSH2 0x188A DUP3 PUSH2 0x186F JUMP JUMPDEST SWAP1 POP SWAP2 SWAP1 POP JUMP JUMPDEST PUSH2 0x189A DUP2 PUSH2 0x1880 JUMP JUMPDEST DUP3 MSTORE POP POP JUMP JUMPDEST PUSH0 PUSH1 0x20 DUP3 ADD SWAP1 POP PUSH2 0x18B3 PUSH0 DUP4 ADD DUP5 PUSH2 0x1891 JUMP JUMPDEST SWAP3 SWAP2 POP POP JUMP JUMPDEST PUSH0 DUP3 DUP3 MSTORE PUSH1 0x20 DUP3 ADD SWAP1 POP SWAP3 SWAP2 POP POP JUMP JUMPDEST PUSH32 0x416D6F756E74206D7573742062652067726561746572207468616E2030000000 PUSH0 DUP3 ADD MSTORE POP JUMP JUMPDEST PUSH0 PUSH2 0x18FD PUSH1 0x1D DUP4 PUSH2 0x18B9 JUMP JUMPDEST SWAP2 POP PUSH2 0x1908 DUP3 PUSH2 0x18C9 JUMP JUMPDEST PUSH1 0x20 DUP3 ADD SWAP1 POP SWAP2 SWAP1 POP JUMP JUMPDEST PUSH0 PUSH1 0x20 DUP3 ADD SWAP1 POP DUP2 DUP2 SUB PUSH0 DUP4 ADD MSTORE PUSH2 0x192A DUP2 PUSH2 0x18F1 JUMP JUMPDEST SWAP1 POP SWAP2 SWAP1 POP JUMP JUMPDEST PUSH32 0x496E73756666696369656E742062616C616E6365000000000000000000000000 PUSH0 DUP3 ADD MSTORE POP JUMP JUMPDEST PUSH0 PUSH2 0x1965 PUSH1 0x14 DUP4 PUSH2 0x18B9 JUMP JUMPDEST SWAP2 POP PUSH2 0x1970 DUP3 PUSH2 0x1931 JUMP JUMPDEST PUSH1 0x20 DUP3 ADD SWAP1 POP SWAP2 SWAP1 POP JUMP JUMPDEST PUSH0 PUSH1 0x20 DUP3 ADD SWAP1 POP DUP2 DUP2 SUB PUSH0 DUP4 ADD MSTORE PUSH2 0x1992 DUP2 PUSH2 0x1959 JUMP JUMPDEST SWAP1 POP SWAP2 SWAP1 POP JUMP JUMPDEST PUSH32 0x4E487B7100000000000000000000000000000000000000000000000000000000 PUSH0 MSTORE PUSH1 0x11 PUSH1 0x4 MSTORE PUSH1 0x24 PUSH0 REVERT JUMPDEST PUSH0 PUSH2 0x19D0 DUP3 PUSH2 0x14EF JUMP JUMPDEST SWAP2 POP PUSH2 0x19DB DUP4 PUSH2 0x14EF JUMP JUMPDEST SWAP3 POP DUP3 DUP3 SUB SWAP1 POP DUP2 DUP2 GT ISZERO PUSH2 0x19F3 JUMPI PUSH2 0x19F2 PUSH2 0x1999 JUMP JUMPDEST JUMPDEST SWAP3 SWAP2 POP POP JUMP JUMPDEST PUSH0 PUSH1 0x40 DUP3 ADD SWAP1 POP PUSH2 0x1A0C PUSH0 DUP4 ADD DUP6 PUSH2 0x15F8 JUMP JUMPDEST PUSH2 0x1A19 PUSH1 0x20 DUP4 ADD DUP5 PUSH2 0x14F8 JUMP JUMPDEST SWAP4 SWAP3 POP POP POP JUMP JUMPDEST PUSH2 0x1A29 DUP2 PUSH2 0x15C5 JUMP JUMPDEST DUP2 EQ PUSH2 0x1A33 JUMPI PUSH0 PUSH0 REVERT JUMPDEST POP JUMP JUMPDEST PUSH0 DUP2 MLOAD SWAP1 POP PUSH2 0x1A44 DUP2 PUSH2 0x1A20 JUMP JUMPDEST SWAP3 SWAP2 POP POP JUMP JUMPDEST PUSH0 PUSH1 0x20 DUP3 DUP5 SUB SLT ISZERO PUSH2 0x1A5F JUMPI PUSH2 0x1A5E PUSH2 0x1462 JUMP JUMPDEST JUMPDEST PUSH0 PUSH2 0x1A6C DUP5 DUP3 DUP6 ADD PUSH2 0x1A36 JUMP JUMPDEST SWAP2 POP POP SWAP3 SWAP2 POP POP JUMP JUMPDEST PUSH32 0x746F6B656E207472616E73666572206661696C65640000000000000000000000 PUSH0 DUP3 ADD MSTORE POP JUMP JUMPDEST PUSH0 PUSH2 0x1AA9 PUSH1 0x15 DUP4 PUSH2 0x18B9 JUMP JUMPDEST SWAP2 POP PUSH2 0x1AB4 DUP3 PUSH2 0x1A75 JUMP JUMPDEST PUSH1 0x20 DUP3 ADD SWAP1 POP SWAP2 SWAP1 POP JUMP JUMPDEST PUSH0 PUSH1 0x20 DUP3 ADD SWAP1 POP DUP2 DUP2 SUB PUSH0 DUP4 ADD MSTORE PUSH2 0x1AD6 DUP2 PUSH2 0x1A9D JUMP JUMPDEST SWAP1 POP SWAP2 SWAP1 POP JUMP JUMPDEST PUSH0 DUP2 MLOAD SWAP1 POP PUSH2 0x1AEB DUP2 PUSH2 0x1520 JUMP JUMPDEST SWAP3 SWAP2 POP POP JUMP JUMPDEST PUSH0 PUSH1 0x20 DUP3 DUP5 SUB SLT ISZERO PUSH2 0x1B06 JUMPI PUSH2 0x1B05 PUSH2 0x1462 JUMP JUMPDEST JUMPDEST PUSH0 PUSH2 0x1B13 DUP5 DUP3 DUP6 ADD PUSH2 0x1ADD JUMP JUMPDEST SWAP2 POP POP SWAP3 SWAP2 POP POP JUMP JUMPDEST PUSH32 0x4F6E6C7920746F6B656E20636F6E74726163742063616E2063616C6C20746869 PUSH0 DUP3 ADD MSTORE PUSH32 0x73206D6574686F64000000000000000000000000000000000000000000000000 PUSH1 0x20 DUP3 ADD MSTORE POP JUMP JUMPDEST PUSH0 PUSH2 0x1B76 PUSH1 0x28 DUP4 PUSH2 0x18B9 JUMP JUMPDEST SWAP2 POP PUSH2 0x1B81 DUP3 PUSH2 0x1B1C JUMP JUMPDEST PUSH1 0x40 DUP3 ADD SWAP1 POP SWAP2 SWAP1 POP JUMP JUMPDEST PUSH0 PUSH1 0x20 DUP3 ADD SWAP1 POP DUP2 DUP2 SUB PUSH0 DUP4 ADD MSTORE PUSH2 0x1BA3 DUP2 PUSH2 0x1B6A JUMP JUMPDEST SWAP1 POP SWAP2 SWAP1 POP JUMP JUMPDEST PUSH32 0x496E76616C696420726563697069656E74000000000000000000000000000000 PUSH0 DUP3 ADD MSTORE POP JUMP JUMPDEST PUSH0 PUSH2 0x1BDE PUSH1 0x11 DUP4 PUSH2 0x18B9 JUMP JUMPDEST SWAP2 POP PUSH2 0x1BE9 DUP3 PUSH2 0x1BAA JUMP JUMPDEST PUSH1 0x20 DUP3 ADD SWAP1 POP SWAP2 SWAP1 POP JUMP JUMPDEST PUSH0 PUSH1 0x20 DUP3 ADD SWAP1 POP DUP2 DUP2 SUB PUSH0 DUP4 ADD MSTORE PUSH2 0x1C0B DUP2 PUSH2 0x1BD2 JUMP JUMPDEST SWAP1 POP SWAP2 SWAP1 POP JUMP JUMPDEST PUSH0 PUSH2 0x1C1C DUP3 PUSH2 0x14EF JUMP JUMPDEST SWAP2 POP PUSH2 0x1C27 DUP4 PUSH2 0x14EF JUMP JUMPDEST SWAP3 POP DUP3 DUP3 ADD SWAP1 POP DUP1 DUP3 GT ISZERO PUSH2 0x1C3F JUMPI PUSH2 0x1C3E PUSH2 0x1999 JUMP JUMPDEST JUMPDEST SWAP3 SWAP2 POP POP JUMP JUMPDEST PUSH32 0x5065726D69742065787069726564000000000000000000000000000000000000 PUSH0 DUP3 ADD MSTORE POP JUMP JUMPDEST PUSH0 PUSH2 0x1C79 PUSH1 0xE DUP4 PUSH2 0x18B9 JUMP JUMPDEST SWAP2 POP PUSH2 0x1C84 DUP3 PUSH2 0x1C45 JUMP JUMPDEST PUSH1 0x20 DUP3 ADD SWAP1 POP SWAP2 SWAP1 POP JUMP JUMPDEST PUSH0 PUSH1 0x20 DUP3 ADD SWAP1 POP DUP2 DUP2 SUB PUSH0 DUP4 ADD MSTORE PUSH2 0x1CA6 DUP2 PUSH2 0x1C6D JUMP JUMPDEST SWAP1 POP SWAP2 SWAP1 POP JUMP JUMPDEST PUSH2 0x1CB6 DUP2 PUSH2 0x1620 JUMP JUMPDEST DUP3 MSTORE POP POP JUMP JUMPDEST PUSH2 0x1CC5 DUP2 PUSH2 0x1656 JUMP JUMPDEST DUP3 MSTORE POP POP JUMP JUMPDEST PUSH0 PUSH1 0xE0 DUP3 ADD SWAP1 POP PUSH2 0x1CDE PUSH0 DUP4 ADD DUP11 PUSH2 0x15F8 JUMP JUMPDEST PUSH2 0x1CEB PUSH1 0x20 DUP4 ADD DUP10 PUSH2 0x15F8 JUMP JUMPDEST PUSH2 0x1CF8 PUSH1 0x40 DUP4 ADD DUP9 PUSH2 0x14F8 JUMP JUMPDEST PUSH2 0x1D05 PUSH1 0x60 DUP4 ADD DUP8 PUSH2 0x14F8 JUMP JUMPDEST PUSH2 0x1D12 PUSH1 0x80 DUP4 ADD DUP7 PUSH2 0x1CAD JUMP JUMPDEST PUSH2 0x1D1F PUSH1 0xA0 DUP4 ADD DUP6 PUSH2 0x1CBC JUMP JUMPDEST PUSH2 0x1D2C PUSH1 0xC0 DUP4 ADD DUP5 PUSH2 0x1CBC JUMP JUMPDEST SWAP9 SWAP8 POP POP POP POP POP POP POP POP JUMP JUMPDEST PUSH0 PUSH1 0x60 DUP3 ADD SWAP1 POP PUSH2 0x1D4B PUSH0 DUP4 ADD DUP7 PUSH2 0x15F8 JUMP JUMPDEST PUSH2 0x1D58 PUSH1 0x20 DUP4 ADD DUP6 PUSH2 0x15F8 JUMP JUMPDEST PUSH2 0x1D65 PUSH1 0x40 DUP4 ADD DUP5 PUSH2 0x14F8 JUMP JUMPDEST SWAP5 SWAP4 POP POP POP POP JUMP JUMPDEST PUSH0 DUP2 SWAP1 POP SWAP3 SWAP2 POP POP JUMP JUMPDEST DUP3 DUP2 DUP4 CALLDATACOPY PUSH0 DUP4 DUP4 ADD MSTORE POP POP POP JUMP JUMPDEST PUSH0 PUSH2 0x1D90 DUP4 DUP6 PUSH2 0x1D6D JUMP JUMPDEST SWAP4 POP PUSH2 0x1D9D DUP4 DUP6 DUP5 PUSH2 0x1D77 JUMP JUMPDEST DUP3 DUP5 ADD SWAP1 POP SWAP4 SWAP3 POP POP POP JUMP JUMPDEST PUSH0 PUSH2 0x1DB5 DUP3 DUP5 DUP7 PUSH2 0x1D85 JUMP JUMPDEST SWAP2 POP DUP2 SWAP1 POP SWAP4 SWAP3 POP POP POP JUMP JUMPDEST PUSH0 DUP2 MLOAD SWAP1 POP SWAP2 SWAP1 POP JUMP JUMPDEST DUP3 DUP2 DUP4 MCOPY PUSH0 DUP4 DUP4 ADD MSTORE POP POP POP JUMP JUMPDEST PUSH0 PUSH2 0x1DE3 DUP3 PUSH2 0x1DC1 JUMP JUMPDEST PUSH2 0x1DED DUP2 DUP6 PUSH2 0x1D6D JUMP JUMPDEST SWAP4 POP PUSH2 0x1DFD DUP2 DUP6 PUSH1 0x20 DUP7 ADD PUSH2 0x1DCB JUMP JUMPDEST DUP1 DUP5 ADD SWAP2 POP POP SWAP3 SWAP2 POP POP JUMP JUMPDEST PUSH0 PUSH2 0x1E14 DUP3 DUP5 PUSH2 0x1DD9 JUMP JUMPDEST SWAP2 POP DUP2 SWAP1 POP SWAP3 SWAP2 POP POP JUMP JUMPDEST PUSH32 0x4F6E6C79206D756C74697369672063616E2063616C6C00000000000000000000 PUSH0 DUP3 ADD MSTORE POP JUMP JUMPDEST PUSH0 PUSH2 0x1E53 PUSH1 0x16 DUP4 PUSH2 0x18B9 JUMP JUMPDEST SWAP2 POP PUSH2 0x1E5E DUP3 PUSH2 0x1E1F JUMP JUMPDEST PUSH1 0x20 DUP3 ADD SWAP1 POP SWAP2 SWAP1 POP JUMP JUMPDEST PUSH0 PUSH1 0x20 DUP3 ADD SWAP1 POP DUP2 DUP2 SUB PUSH0 DUP4 ADD MSTORE PUSH2 0x1E80 DUP2 PUSH2 0x1E47 JUMP JUMPDEST SWAP1 POP SWAP2 SWAP1 POP JUMP JUMPDEST PUSH32 0x496E76616C6964206D756C746973696720616464726573730000000000000000 PUSH0 DUP3 ADD MSTORE POP JUMP JUMPDEST PUSH0 PUSH2 0x1EBB PUSH1 0x18 DUP4 PUSH2 0x18B9 JUMP JUMPDEST SWAP2 POP PUSH2 0x1EC6 DUP3 PUSH2 0x1E87 JUMP JUMPDEST PUSH1 0x20 DUP3 ADD SWAP1 POP SWAP2 SWAP1 POP JUMP JUMPDEST PUSH0 PUSH1 0x20 DUP3 ADD SWAP1 POP DUP2 DUP2 SUB PUSH0 DUP4 ADD MSTORE PUSH2 0x1EE8 DUP2 PUSH2 0x1EAF JUMP JUMPDEST SWAP1 POP SWAP2 SWAP1 POP JUMP JUMPDEST PUSH32 0x4E6577206D756C7469736967206D75737420626520646966666572656E740000 PUSH0 DUP3 ADD MSTORE POP JUMP JUMPDEST PUSH0 PUSH2 0x1F23 PUSH1 0x1E DUP4 PUSH2 0x18B9 JUMP JUMPDEST SWAP2 POP PUSH2 0x1F2E DUP3 PUSH2 0x1EEF JUMP JUMPDEST PUSH1 0x20 DUP3 ADD SWAP1 POP SWAP2 SWAP1 POP JUMP JUMPDEST PUSH0 PUSH1 0x20 DUP3 ADD SWAP1 POP DUP2 DUP2 SUB PUSH0 DUP4 ADD MSTORE PUSH2 0x1F50 DUP2 PUSH2 0x1F17 JUMP JUMPDEST SWAP1 POP SWAP2 SWAP1 POP JUMP INVALID LOG2 PUSH5 0x6970667358 0x22 SLT KECCAK256 PUSH3 0x226D79 0xAF PUSH1 0x30 PUSH7 0x3A54E79A075867 SWAP7 SWAP16 MOD REVERT 0xA9 PUSH21 0x3CF6F756C751563D3CF6E64736F6C634300081E00 CALLER "
				},
				"gasEstimates": {
					"creation": {
						"codeDepositCost": "1615400",
						"executionCost": "infinite",
						"totalCost": "infinite"
					},
					"external": {
						"balances(address)": "2803",
						"deposit(uint256)": "infinite",
						"getBankTokenBalance()": "infinite",
						"getOwner()": "2603",
						"getTokenNonce(address)": "infinite",
						"getUserBalances(address)": "infinite",
						"owner()": "2618",
						"permitDeposit(uint256,uint256,uint8,bytes32,bytes32)": "infinite",
						"permitDepositWithCallback(uint256,uint256,uint8,bytes32,bytes32,address,bytes)": "infinite",
						"setAdminSender(address)": "29129",
						"token()": "infinite",
						"tokenReceived(address,address,uint256)": "infinite",
						"withdraw(uint256)": "infinite"
					}
				},
				"methodIdentifiers": {
					"balances(address)": "27e235e3",
					"deposit(uint256)": "b6b55f25",
					"getBankTokenBalance()": "624741c0",
					"getOwner()": "893d20e8",
					"getTokenNonce(address)": "ea5416a5",
					"getUserBalances(address)": "abd3f612",
					"owner()": "8da5cb5b",
					"permitDeposit(uint256,uint256,uint8,bytes32,bytes32)": "ce84daad",
					"permitDepositWithCallback(uint256,uint256,uint8,bytes32,bytes32,address,bytes)": "9f15e882",
					"setAdminSender(address)": "d83f9a67",
					"token()": "fc0c546a",
					"tokenReceived(address,address,uint256)": "675de6b5",
					"withdraw(uint256)": "2e1a7d4d"
				}
			},
			"storageLayout": {
				"storage": [
					{
						"astId": 29,
						"contract": "day13/TokenBankV2621.sol:TokenBankV2",
						"label": "owner",
						"offset": 0,
						"slot": "0",
						"type": "t_address"
					},
					{
						"astId": 32,
						"contract": "day13/TokenBankV2621.sol:TokenBankV2",
						"label": "token",
						"offset": 0,
						"slot": "1",
						"type": "t_contract(IERC20)628"
					},
					{
						"astId": 36,
						"contract": "day13/TokenBankV2621.sol:TokenBankV2",
						"label": "balances",
						"offset": 0,
						"slot": "2",
						"type": "t_mapping(t_address,t_uint256)"
					}
				],
				"types": {
					"t_address": {
						"encoding": "inplace",
						"label": "address",
						"numberOfBytes": "20"
					},
					"t_contract(IERC20)628": {
						"encoding": "inplace",
						"label": "contract IERC20",
						"numberOfBytes": "20"
					},
					"t_mapping(t_address,t_uint256)": {
						"encoding": "mapping",
						"key": "t_address",
						"label": "mapping(address => uint256)",
						"numberOfBytes": "32",
						"value": "t_uint256"
					},
					"t_uint256": {
						"encoding": "inplace",
						"label": "uint256",
						"numberOfBytes": "32"
					}
				}
			},
			"userdoc": {
				"kind": "user",
				"methods": {},
				"version": 1
			}
		}
	}
}