{
	"day05/testCall.sol": {
		"testCall": {
			"abi": [
				{
					"inputs": [
						{
							"internalType": "contract Counter",
							"name": "c",
							"type": "address"
						}
					],
					"name": "callCount",
					"outputs": [],
					"stateMutability": "nonpayable",
					"type": "function"
				},
				{
					"inputs": [
						{
							"internalType": "address",
							"name": "c",
							"type": "address"
						}
					],
					"name": "lowCallCount",
					"outputs": [],
					"stateMutability": "nonpayable",
					"type": "function"
				}
			],
			"devdoc": {
				"kind": "dev",
				"methods": {},
				"version": 1
			},
			"evm": {
				"assembly": "    /* \"day05/testCall.sol\":89:505  contract testCall{... */\n  mstore(0x40, 0x80)\n  callvalue\n  dup1\n  iszero\n  tag_1\n  jumpi\n  revert(0x00, 0x00)\ntag_1:\n  pop\n  dataSize(sub_0)\n  dup1\n  dataOffset(sub_0)\n  0x00\n  codecopy\n  0x00\n  return\nstop\n\nsub_0: assembly {\n        /* \"day05/testCall.sol\":89:505  contract testCall{... */\n      mstore(0x40, 0x80)\n      callvalue\n      dup1\n      iszero\n      tag_1\n      jumpi\n      revert(0x00, 0x00)\n    tag_1:\n      pop\n      jumpi(tag_2, lt(calldatasize, 0x04))\n      shr(0xe0, calldataload(0x00))\n      dup1\n      0x759502ce\n      eq\n      tag_3\n      jumpi\n      dup1\n      0x9c018209\n      eq\n      tag_4\n      jumpi\n    tag_2:\n      revert(0x00, 0x00)\n        /* \"day05/testCall.sol\":356:502  function lowCallCount(address c) public {... */\n    tag_3:\n      tag_5\n      0x04\n      dup1\n      calldatasize\n      sub\n      dup2\n      add\n      swap1\n      tag_6\n      swap2\n      swap1\n      tag_7\n      jump\t// in\n    tag_6:\n      tag_8\n      jump\t// in\n    tag_5:\n      stop\n        /* \"day05/testCall.sol\":197:262  function callCount(Counter c) public {... */\n    tag_4:\n      tag_9\n      0x04\n      dup1\n      calldatasize\n      sub\n      dup2\n      add\n      swap1\n      tag_10\n      swap2\n      swap1\n      tag_11\n      jump\t// in\n    tag_10:\n      tag_12\n      jump\t// in\n    tag_9:\n      stop\n        /* \"day05/testCall.sol\":356:502  function lowCallCount(address c) public {... */\n    tag_8:\n        /* \"day05/testCall.sol\":406:429  bytes memory methodData */\n      0x00\n        /* \"day05/testCall.sol\":432:466  abi.encodeWithSignature(\"count()\") */\n      add(0x24, mload(0x40))\n      mload(0x40)\n      0x20\n      dup2\n      dup4\n      sub\n      sub\n      dup2\n      mstore\n      swap1\n      0x40\n      mstore\n      and(not(0xffffffffffffffffffffffffffffffffffffffffffffffffffffffff), 0x06661abd00000000000000000000000000000000000000000000000000000000)\n      0x20\n      dup3\n      add\n      dup1\n      mload\n      0xffffffffffffffffffffffffffffffffffffffffffffffffffffffff\n      dup4\n      dup2\n      dup4\n      and\n      or\n      dup4\n      mstore\n      pop\n      pop\n      pop\n      pop\n        /* \"day05/testCall.sol\":406:466  bytes memory methodData = abi.encodeWithSignature(\"count()\") */\n      swap1\n      pop\n        /* \"day05/testCall.sol\":476:477  c */\n      dup2\n        /* \"day05/testCall.sol\":476:482  c.call */\n      0xffffffffffffffffffffffffffffffffffffffff\n      and\n        /* \"day05/testCall.sol\":483:493  methodData */\n      dup2\n        /* \"day05/testCall.sol\":476:494  c.call(methodData) */\n      mload(0x40)\n      tag_14\n      swap2\n      swap1\n      tag_15\n      jump\t// in\n    tag_14:\n      0x00\n      mload(0x40)\n      dup1\n      dup4\n      sub\n      dup2\n      0x00\n      dup7\n      gas\n      call\n      swap2\n      pop\n      pop\n      returndatasize\n      dup1\n      0x00\n      dup2\n      eq\n      tag_18\n      jumpi\n      mload(0x40)\n      swap2\n      pop\n      and(add(returndatasize, 0x3f), not(0x1f))\n      dup3\n      add\n      0x40\n      mstore\n      returndatasize\n      dup3\n      mstore\n      returndatasize\n      0x00\n      0x20\n      dup5\n      add\n      returndatacopy\n      jump(tag_17)\n    tag_18:\n      0x60\n      swap2\n      pop\n    tag_17:\n      pop\n      pop\n      pop\n        /* \"day05/testCall.sol\":396:502  {... */\n      pop\n        /* \"day05/testCall.sol\":356:502  function lowCallCount(address c) public {... */\n      pop\n      jump\t// out\n        /* \"day05/testCall.sol\":197:262  function callCount(Counter c) public {... */\n    tag_12:\n        /* \"day05/testCall.sol\":245:246  c */\n      dup1\n        /* \"day05/testCall.sol\":245:252  c.count */\n      0xffffffffffffffffffffffffffffffffffffffff\n      and\n      0x06661abd\n        /* \"day05/testCall.sol\":245:254  c.count() */\n      mload(0x40)\n      dup2\n      0xffffffff\n      and\n      0xe0\n      shl\n      dup2\n      mstore\n      0x04\n      add\n      0x00\n      mload(0x40)\n      dup1\n      dup4\n      sub\n      dup2\n      0x00\n      dup8\n      dup1\n      extcodesize\n      iszero\n      dup1\n      iszero\n      tag_20\n      jumpi\n      revert(0x00, 0x00)\n    tag_20:\n      pop\n      gas\n      call\n      iszero\n      dup1\n      iszero\n      tag_22\n      jumpi\n      returndatacopy(0x00, 0x00, returndatasize)\n      revert(0x00, returndatasize)\n    tag_22:\n      pop\n      pop\n      pop\n      pop\n        /* \"day05/testCall.sol\":197:262  function callCount(Counter c) public {... */\n      pop\n      jump\t// out\n        /* \"#utility.yul\":88:205   */\n    tag_24:\n        /* \"#utility.yul\":197:198   */\n      0x00\n        /* \"#utility.yul\":194:195   */\n      0x00\n        /* \"#utility.yul\":187:199   */\n      revert\n        /* \"#utility.yul\":334:460   */\n    tag_26:\n        /* \"#utility.yul\":371:378   */\n      0x00\n        /* \"#utility.yul\":411:453   */\n      0xffffffffffffffffffffffffffffffffffffffff\n        /* \"#utility.yul\":404:409   */\n      dup3\n        /* \"#utility.yul\":400:454   */\n      and\n        /* \"#utility.yul\":389:454   */\n      swap1\n      pop\n        /* \"#utility.yul\":334:460   */\n      swap2\n      swap1\n      pop\n      jump\t// out\n        /* \"#utility.yul\":466:562   */\n    tag_27:\n        /* \"#utility.yul\":503:510   */\n      0x00\n        /* \"#utility.yul\":532:556   */\n      tag_43\n        /* \"#utility.yul\":550:555   */\n      dup3\n        /* \"#utility.yul\":532:556   */\n      tag_26\n      jump\t// in\n    tag_43:\n        /* \"#utility.yul\":521:556   */\n      swap1\n      pop\n        /* \"#utility.yul\":466:562   */\n      swap2\n      swap1\n      pop\n      jump\t// out\n        /* \"#utility.yul\":568:690   */\n    tag_28:\n        /* \"#utility.yul\":641:665   */\n      tag_45\n        /* \"#utility.yul\":659:664   */\n      dup2\n        /* \"#utility.yul\":641:665   */\n      tag_27\n      jump\t// in\n    tag_45:\n        /* \"#utility.yul\":634:639   */\n      dup2\n        /* \"#utility.yul\":631:666   */\n      eq\n        /* \"#utility.yul\":621:684   */\n      tag_46\n      jumpi\n        /* \"#utility.yul\":680:681   */\n      0x00\n        /* \"#utility.yul\":677:678   */\n      0x00\n        /* \"#utility.yul\":670:682   */\n      revert\n        /* \"#utility.yul\":621:684   */\n    tag_46:\n        /* \"#utility.yul\":568:690   */\n      pop\n      jump\t// out\n        /* \"#utility.yul\":696:835   */\n    tag_29:\n        /* \"#utility.yul\":742:747   */\n      0x00\n        /* \"#utility.yul\":780:786   */\n      dup2\n        /* \"#utility.yul\":767:787   */\n      calldataload\n        /* \"#utility.yul\":758:787   */\n      swap1\n      pop\n        /* \"#utility.yul\":796:829   */\n      tag_48\n        /* \"#utility.yul\":823:828   */\n      dup2\n        /* \"#utility.yul\":796:829   */\n      tag_28\n      jump\t// in\n    tag_48:\n        /* \"#utility.yul\":696:835   */\n      swap3\n      swap2\n      pop\n      pop\n      jump\t// out\n        /* \"#utility.yul\":841:1170   */\n    tag_7:\n        /* \"#utility.yul\":900:906   */\n      0x00\n        /* \"#utility.yul\":949:951   */\n      0x20\n        /* \"#utility.yul\":937:946   */\n      dup3\n        /* \"#utility.yul\":928:935   */\n      dup5\n        /* \"#utility.yul\":924:947   */\n      sub\n        /* \"#utility.yul\":920:952   */\n      slt\n        /* \"#utility.yul\":917:1036   */\n      iszero\n      tag_50\n      jumpi\n        /* \"#utility.yul\":955:1034   */\n      tag_51\n      tag_24\n      jump\t// in\n    tag_51:\n        /* \"#utility.yul\":917:1036   */\n    tag_50:\n        /* \"#utility.yul\":1075:1076   */\n      0x00\n        /* \"#utility.yul\":1100:1153   */\n      tag_52\n        /* \"#utility.yul\":1145:1152   */\n      dup5\n        /* \"#utility.yul\":1136:1142   */\n      dup3\n        /* \"#utility.yul\":1125:1134   */\n      dup6\n        /* \"#utility.yul\":1121:1143   */\n      add\n        /* \"#utility.yul\":1100:1153   */\n      tag_29\n      jump\t// in\n    tag_52:\n        /* \"#utility.yul\":1090:1153   */\n      swap2\n      pop\n        /* \"#utility.yul\":1046:1163   */\n      pop\n        /* \"#utility.yul\":841:1170   */\n      swap3\n      swap2\n      pop\n      pop\n      jump\t// out\n        /* \"#utility.yul\":1176:1286   */\n    tag_30:\n        /* \"#utility.yul\":1227:1234   */\n      0x00\n        /* \"#utility.yul\":1256:1280   */\n      tag_54\n        /* \"#utility.yul\":1274:1279   */\n      dup3\n        /* \"#utility.yul\":1256:1280   */\n      tag_27\n      jump\t// in\n    tag_54:\n        /* \"#utility.yul\":1245:1280   */\n      swap1\n      pop\n        /* \"#utility.yul\":1176:1286   */\n      swap2\n      swap1\n      pop\n      jump\t// out\n        /* \"#utility.yul\":1292:1442   */\n    tag_31:\n        /* \"#utility.yul\":1379:1417   */\n      tag_56\n        /* \"#utility.yul\":1411:1416   */\n      dup2\n        /* \"#utility.yul\":1379:1417   */\n      tag_30\n      jump\t// in\n    tag_56:\n        /* \"#utility.yul\":1372:1377   */\n      dup2\n        /* \"#utility.yul\":1369:1418   */\n      eq\n        /* \"#utility.yul\":1359:1436   */\n      tag_57\n      jumpi\n        /* \"#utility.yul\":1432:1433   */\n      0x00\n        /* \"#utility.yul\":1429:1430   */\n      0x00\n        /* \"#utility.yul\":1422:1434   */\n      revert\n        /* \"#utility.yul\":1359:1436   */\n    tag_57:\n        /* \"#utility.yul\":1292:1442   */\n      pop\n      jump\t// out\n        /* \"#utility.yul\":1448:1615   */\n    tag_32:\n        /* \"#utility.yul\":1508:1513   */\n      0x00\n        /* \"#utility.yul\":1546:1552   */\n      dup2\n        /* \"#utility.yul\":1533:1553   */\n      calldataload\n        /* \"#utility.yul\":1524:1553   */\n      swap1\n      pop\n        /* \"#utility.yul\":1562:1609   */\n      tag_59\n        /* \"#utility.yul\":1603:1608   */\n      dup2\n        /* \"#utility.yul\":1562:1609   */\n      tag_31\n      jump\t// in\n    tag_59:\n        /* \"#utility.yul\":1448:1615   */\n      swap3\n      swap2\n      pop\n      pop\n      jump\t// out\n        /* \"#utility.yul\":1621:1978   */\n    tag_11:\n        /* \"#utility.yul\":1694:1700   */\n      0x00\n        /* \"#utility.yul\":1743:1745   */\n      0x20\n        /* \"#utility.yul\":1731:1740   */\n      dup3\n        /* \"#utility.yul\":1722:1729   */\n      dup5\n        /* \"#utility.yul\":1718:1741   */\n      sub\n        /* \"#utility.yul\":1714:1746   */\n      slt\n        /* \"#utility.yul\":1711:1830   */\n      iszero\n      tag_61\n      jumpi\n        /* \"#utility.yul\":1749:1828   */\n      tag_62\n      tag_24\n      jump\t// in\n    tag_62:\n        /* \"#utility.yul\":1711:1830   */\n    tag_61:\n        /* \"#utility.yul\":1869:1870   */\n      0x00\n        /* \"#utility.yul\":1894:1961   */\n      tag_63\n        /* \"#utility.yul\":1953:1960   */\n      dup5\n        /* \"#utility.yul\":1944:1950   */\n      dup3\n        /* \"#utility.yul\":1933:1942   */\n      dup6\n        /* \"#utility.yul\":1929:1951   */\n      add\n        /* \"#utility.yul\":1894:1961   */\n      tag_32\n      jump\t// in\n    tag_63:\n        /* \"#utility.yul\":1884:1961   */\n      swap2\n      pop\n        /* \"#utility.yul\":1840:1971   */\n      pop\n        /* \"#utility.yul\":1621:1978   */\n      swap3\n      swap2\n      pop\n      pop\n      jump\t// out\n        /* \"#utility.yul\":1984:2082   */\n    tag_33:\n        /* \"#utility.yul\":2035:2041   */\n      0x00\n        /* \"#utility.yul\":2069:2074   */\n      dup2\n        /* \"#utility.yul\":2063:2075   */\n      mload\n        /* \"#utility.yul\":2053:2075   */\n      swap1\n      pop\n        /* \"#utility.yul\":1984:2082   */\n      swap2\n      swap1\n      pop\n      jump\t// out\n        /* \"#utility.yul\":2088:2235   */\n    tag_34:\n        /* \"#utility.yul\":2189:2200   */\n      0x00\n        /* \"#utility.yul\":2226:2229   */\n      dup2\n        /* \"#utility.yul\":2211:2229   */\n      swap1\n      pop\n        /* \"#utility.yul\":2088:2235   */\n      swap3\n      swap2\n      pop\n      pop\n      jump\t// out\n        /* \"#utility.yul\":2241:2380   */\n    tag_35:\n        /* \"#utility.yul\":2330:2336   */\n      dup3\n        /* \"#utility.yul\":2325:2328   */\n      dup2\n        /* \"#utility.yul\":2320:2323   */\n      dup4\n        /* \"#utility.yul\":2314:2337   */\n      mcopy\n        /* \"#utility.yul\":2371:2372   */\n      0x00\n        /* \"#utility.yul\":2362:2368   */\n      dup4\n        /* \"#utility.yul\":2357:2360   */\n      dup4\n        /* \"#utility.yul\":2353:2369   */\n      add\n        /* \"#utility.yul\":2346:2373   */\n      mstore\n        /* \"#utility.yul\":2241:2380   */\n      pop\n      pop\n      pop\n      jump\t// out\n        /* \"#utility.yul\":2386:2772   */\n    tag_36:\n        /* \"#utility.yul\":2490:2493   */\n      0x00\n        /* \"#utility.yul\":2518:2556   */\n      tag_68\n        /* \"#utility.yul\":2550:2555   */\n      dup3\n        /* \"#utility.yul\":2518:2556   */\n      tag_33\n      jump\t// in\n    tag_68:\n        /* \"#utility.yul\":2572:2660   */\n      tag_69\n        /* \"#utility.yul\":2653:2659   */\n      dup2\n        /* \"#utility.yul\":2648:2651   */\n      dup6\n        /* \"#utility.yul\":2572:2660   */\n      tag_34\n      jump\t// in\n    tag_69:\n        /* \"#utility.yul\":2565:2660   */\n      swap4\n      pop\n        /* \"#utility.yul\":2669:2734   */\n      tag_70\n        /* \"#utility.yul\":2727:2733   */\n      dup2\n        /* \"#utility.yul\":2722:2725   */\n      dup6\n        /* \"#utility.yul\":2715:2719   */\n      0x20\n        /* \"#utility.yul\":2708:2713   */\n      dup7\n        /* \"#utility.yul\":2704:2720   */\n      add\n        /* \"#utility.yul\":2669:2734   */\n      tag_35\n      jump\t// in\n    tag_70:\n        /* \"#utility.yul\":2759:2765   */\n      dup1\n        /* \"#utility.yul\":2754:2757   */\n      dup5\n        /* \"#utility.yul\":2750:2766   */\n      add\n        /* \"#utility.yul\":2743:2766   */\n      swap2\n      pop\n        /* \"#utility.yul\":2494:2772   */\n      pop\n        /* \"#utility.yul\":2386:2772   */\n      swap3\n      swap2\n      pop\n      pop\n      jump\t// out\n        /* \"#utility.yul\":2778:3049   */\n    tag_15:\n        /* \"#utility.yul\":2908:2911   */\n      0x00\n        /* \"#utility.yul\":2930:3023   */\n      tag_72\n        /* \"#utility.yul\":3019:3022   */\n      dup3\n        /* \"#utility.yul\":3010:3016   */\n      dup5\n        /* \"#utility.yul\":2930:3023   */\n      tag_36\n      jump\t// in\n    tag_72:\n        /* \"#utility.yul\":2923:3023   */\n      swap2\n      pop\n        /* \"#utility.yul\":3040:3043   */\n      dup2\n        /* \"#utility.yul\":3033:3043   */\n      swap1\n      pop\n        /* \"#utility.yul\":2778:3049   */\n      swap3\n      swap2\n      pop\n      pop\n      jump\t// out\n\n    auxdata: 0xa264697066735822122036e667ea0fc950dacc96324d24b6b0c3f59111ad9c2443aa404019e827e2387f64736f6c634300081e0033\n}\n",
				"bytecode": {
					"linkReferences": {},
					"object": "6080604052348015600e575f5ffd5b5061034b8061001c5f395ff3fe608060405234801561000f575f5ffd5b5060043610610034575f3560e01c8063759502ce146100385780639c01820914610054575b5f5ffd5b610052600480360381019061004d919061021c565b610070565b005b61006e60048036038101906100699190610282565b610160565b005b5f6040516024016040516020818303038152906040527f06661abd000000000000000000000000000000000000000000000000000000007bffffffffffffffffffffffffffffffffffffffffffffffffffffffff19166020820180517bffffffffffffffffffffffffffffffffffffffffffffffffffffffff838183161783525050505090508173ffffffffffffffffffffffffffffffffffffffff168160405161011b91906102ff565b5f604051808303815f865af19150503d805f8114610154576040519150601f19603f3d011682016040523d82523d5f602084013e610159565b606091505b5050505050565b8073ffffffffffffffffffffffffffffffffffffffff166306661abd6040518163ffffffff1660e01b81526004015f604051808303815f87803b1580156101a5575f5ffd5b505af11580156101b7573d5f5f3e3d5ffd5b5050505050565b5f5ffd5b5f73ffffffffffffffffffffffffffffffffffffffff82169050919050565b5f6101eb826101c2565b9050919050565b6101fb816101e1565b8114610205575f5ffd5b50565b5f81359050610216816101f2565b92915050565b5f60208284031215610231576102306101be565b5b5f61023e84828501610208565b91505092915050565b5f610251826101e1565b9050919050565b61026181610247565b811461026b575f5ffd5b50565b5f8135905061027c81610258565b92915050565b5f60208284031215610297576102966101be565b5b5f6102a48482850161026e565b91505092915050565b5f81519050919050565b5f81905092915050565b8281835e5f83830152505050565b5f6102d9826102ad565b6102e381856102b7565b93506102f38185602086016102c1565b80840191505092915050565b5f61030a82846102cf565b91508190509291505056fea264697066735822122036e667ea0fc950dacc96324d24b6b0c3f59111ad9c2443aa404019e827e2387f64736f6c634300081e0033",
					"opcodes": "PUSH1 0x80 PUSH1 0x40 MSTORE CALLVALUE DUP1 ISZERO PUSH1 0xE JUMPI PUSH0 PUSH0 REVERT JUMPDEST POP PUSH2 0x34B DUP1 PUSH2 0x1C PUSH0 CODECOPY PUSH0 RETURN INVALID PUSH1 0x80 PUSH1 0x40 MSTORE CALLVALUE DUP1 ISZERO PUSH2 0xF JUMPI PUSH0 PUSH0 REVERT JUMPDEST POP PUSH1 0x4 CALLDATASIZE LT PUSH2 0x34 JUMPI PUSH0 CALLDATALOAD PUSH1 0xE0 SHR DUP1 PUSH4 0x759502CE EQ PUSH2 0x38 JUMPI DUP1 PUSH4 0x9C018209 EQ PUSH2 0x54 JUMPI JUMPDEST PUSH0 PUSH0 REVERT JUMPDEST PUSH2 0x52 PUSH1 0x4 DUP1 CALLDATASIZE SUB DUP2 ADD SWAP1 PUSH2 0x4D SWAP2 SWAP1 PUSH2 0x21C JUMP JUMPDEST PUSH2 0x70 JUMP JUMPDEST STOP JUMPDEST PUSH2 0x6E PUSH1 0x4 DUP1 CALLDATASIZE SUB DUP2 ADD SWAP1 PUSH2 0x69 SWAP2 SWAP1 PUSH2 0x282 JUMP JUMPDEST PUSH2 0x160 JUMP JUMPDEST STOP JUMPDEST PUSH0 PUSH1 0x40 MLOAD PUSH1 0x24 ADD PUSH1 0x40 MLOAD PUSH1 0x20 DUP2 DUP4 SUB SUB DUP2 MSTORE SWAP1 PUSH1 0x40 MSTORE PUSH32 0x6661ABD00000000000000000000000000000000000000000000000000000000 PUSH28 0xFFFFFFFFFFFFFFFFFFFFFFFFFFFFFFFFFFFFFFFFFFFFFFFFFFFFFFFF NOT AND PUSH1 0x20 DUP3 ADD DUP1 MLOAD PUSH28 0xFFFFFFFFFFFFFFFFFFFFFFFFFFFFFFFFFFFFFFFFFFFFFFFFFFFFFFFF DUP4 DUP2 DUP4 AND OR DUP4 MSTORE POP POP POP POP SWAP1 POP DUP2 PUSH20 0xFFFFFFFFFFFFFFFFFFFFFFFFFFFFFFFFFFFFFFFF AND DUP2 PUSH1 0x40 MLOAD PUSH2 0x11B SWAP2 SWAP1 PUSH2 0x2FF JUMP JUMPDEST PUSH0 PUSH1 0x40 MLOAD DUP1 DUP4 SUB DUP2 PUSH0 DUP7 GAS CALL SWAP2 POP POP RETURNDATASIZE DUP1 PUSH0 DUP2 EQ PUSH2 0x154 JUMPI PUSH1 0x40 MLOAD SWAP2 POP PUSH1 0x1F NOT PUSH1 0x3F RETURNDATASIZE ADD AND DUP3 ADD PUSH1 0x40 MSTORE RETURNDATASIZE DUP3 MSTORE RETURNDATASIZE PUSH0 PUSH1 0x20 DUP5 ADD RETURNDATACOPY PUSH2 0x159 JUMP JUMPDEST PUSH1 0x60 SWAP2 POP JUMPDEST POP POP POP POP POP JUMP JUMPDEST DUP1 PUSH20 0xFFFFFFFFFFFFFFFFFFFFFFFFFFFFFFFFFFFFFFFF AND PUSH4 0x6661ABD PUSH1 0x40 MLOAD DUP2 PUSH4 0xFFFFFFFF AND PUSH1 0xE0 SHL DUP2 MSTORE PUSH1 0x4 ADD PUSH0 PUSH1 0x40 MLOAD DUP1 DUP4 SUB DUP2 PUSH0 DUP8 DUP1 EXTCODESIZE ISZERO DUP1 ISZERO PUSH2 0x1A5 JUMPI PUSH0 PUSH0 REVERT JUMPDEST POP GAS CALL ISZERO DUP1 ISZERO PUSH2 0x1B7 JUMPI RETURNDATASIZE PUSH0 PUSH0 RETURNDATACOPY RETURNDATASIZE PUSH0 REVERT JUMPDEST POP POP POP POP POP JUMP JUMPDEST PUSH0 PUSH0 REVERT JUMPDEST PUSH0 PUSH20 0xFFFFFFFFFFFFFFFFFFFFFFFFFFFFFFFFFFFFFFFF DUP3 AND SWAP1 POP SWAP2 SWAP1 POP JUMP JUMPDEST PUSH0 PUSH2 0x1EB DUP3 PUSH2 0x1C2 JUMP JUMPDEST SWAP1 POP SWAP2 SWAP1 POP JUMP JUMPDEST PUSH2 0x1FB DUP2 PUSH2 0x1E1 JUMP JUMPDEST DUP2 EQ PUSH2 0x205 JUMPI PUSH0 PUSH0 REVERT JUMPDEST POP JUMP JUMPDEST PUSH0 DUP2 CALLDATALOAD SWAP1 POP PUSH2 0x216 DUP2 PUSH2 0x1F2 JUMP JUMPDEST SWAP3 SWAP2 POP POP JUMP JUMPDEST PUSH0 PUSH1 0x20 DUP3 DUP5 SUB SLT ISZERO PUSH2 0x231 JUMPI PUSH2 0x230 PUSH2 0x1BE JUMP JUMPDEST JUMPDEST PUSH0 PUSH2 0x23E DUP5 DUP3 DUP6 ADD PUSH2 0x208 JUMP JUMPDEST SWAP2 POP POP SWAP3 SWAP2 POP POP JUMP JUMPDEST PUSH0 PUSH2 0x251 DUP3 PUSH2 0x1E1 JUMP JUMPDEST SWAP1 POP SWAP2 SWAP1 POP JUMP JUMPDEST PUSH2 0x261 DUP2 PUSH2 0x247 JUMP JUMPDEST DUP2 EQ PUSH2 0x26B JUMPI PUSH0 PUSH0 REVERT JUMPDEST POP JUMP JUMPDEST PUSH0 DUP2 CALLDATALOAD SWAP1 POP PUSH2 0x27C DUP2 PUSH2 0x258 JUMP JUMPDEST SWAP3 SWAP2 POP POP JUMP JUMPDEST PUSH0 PUSH1 0x20 DUP3 DUP5 SUB SLT ISZERO PUSH2 0x297 JUMPI PUSH2 0x296 PUSH2 0x1BE JUMP JUMPDEST JUMPDEST PUSH0 PUSH2 0x2A4 DUP5 DUP3 DUP6 ADD PUSH2 0x26E JUMP JUMPDEST SWAP2 POP POP SWAP3 SWAP2 POP POP JUMP JUMPDEST PUSH0 DUP2 MLOAD SWAP1 POP SWAP2 SWAP1 POP JUMP JUMPDEST PUSH0 DUP2 SWAP1 POP SWAP3 SWAP2 POP POP JUMP JUMPDEST DUP3 DUP2 DUP4 MCOPY PUSH0 DUP4 DUP4 ADD MSTORE POP POP POP JUMP JUMPDEST PUSH0 PUSH2 0x2D9 DUP3 PUSH2 0x2AD JUMP JUMPDEST PUSH2 0x2E3 DUP2 DUP6 PUSH2 0x2B7 JUMP JUMPDEST SWAP4 POP PUSH2 0x2F3 DUP2 DUP6 PUSH1 0x20 DUP7 ADD PUSH2 0x2C1 JUMP JUMPDEST DUP1 DUP5 ADD SWAP2 POP POP SWAP3 SWAP2 POP POP JUMP JUMPDEST PUSH0 PUSH2 0x30A DUP3 DUP5 PUSH2 0x2CF JUMP JUMPDEST SWAP2 POP DUP2 SWAP1 POP SWAP3 SWAP2 POP POP JUMP INVALID LOG2 PUSH5 0x6970667358 0x22 SLT KECCAK256 CALLDATASIZE DUPN 0x67 0xEA 0xF 0xC9 POP 0xDA 0xCC SWAP7 ORIGIN 0x4D 0x24 0xB6 0xB0 0xC3 CREATE2 SWAP2 GT 0xAD SWAP13 0x24 NUMBER 0xAA BLOCKHASH BLOCKHASH NOT 0xE8 0x27 0xE2 CODESIZE PUSH32 0x64736F6C634300081E0033000000000000000000000000000000000000000000 "
				},
				"gasEstimates": {
					"creation": {
						"codeDepositCost": "168600",
						"executionCost": "212",
						"totalCost": "168812"
					},
					"external": {
						"callCount(address)": "infinite",
						"lowCallCount(address)": "infinite"
					}
				},
				"methodIdentifiers": {
					"callCount(address)": "9c018209",
					"lowCallCount(address)": "759502ce"
				}
			},
			"storageLayout": {
				"storage": [],
				"types": null
			},
			"userdoc": {
				"kind": "user",
				"methods": {},
				"version": 1
			}
		}
	}
}